{
  "_format": "hh-sol-artifact-1",
  "contractName": "DAOToken",
  "sourceName": "contracts/token/DAOToken.sol",
  "abi": [
    {
      "inputs": [
        {
          "internalType": "string",
          "name": "_tokenName",
          "type": "string"
        },
        {
          "internalType": "string",
          "name": "_tokenSymbol",
          "type": "string"
        },
        {
          "internalType": "uint256",
          "name": "_tokenInitialSupply",
          "type": "uint256"
        }
      ],
      "stateMutability": "nonpayable",
      "type": "constructor"
    },
    {
      "anonymous": false,
      "inputs": [
        {
          "indexed": true,
          "internalType": "address",
          "name": "owner",
          "type": "address"
        },
        {
          "indexed": true,
          "internalType": "address",
          "name": "spender",
          "type": "address"
        },
        {
          "indexed": false,
          "internalType": "uint256",
          "name": "value",
          "type": "uint256"
        }
      ],
      "name": "Approval",
      "type": "event"
    },
    {
      "anonymous": false,
      "inputs": [
        {
          "indexed": false,
          "internalType": "address",
          "name": "account",
          "type": "address"
        }
      ],
      "name": "Paused",
      "type": "event"
    },
    {
      "anonymous": false,
      "inputs": [
        {
          "indexed": true,
          "internalType": "bytes32",
          "name": "role",
          "type": "bytes32"
        },
        {
          "indexed": true,
          "internalType": "bytes32",
          "name": "previousAdminRole",
          "type": "bytes32"
        },
        {
          "indexed": true,
          "internalType": "bytes32",
          "name": "newAdminRole",
          "type": "bytes32"
        }
      ],
      "name": "RoleAdminChanged",
      "type": "event"
    },
    {
      "anonymous": false,
      "inputs": [
        {
          "indexed": true,
          "internalType": "bytes32",
          "name": "role",
          "type": "bytes32"
        },
        {
          "indexed": true,
          "internalType": "address",
          "name": "account",
          "type": "address"
        },
        {
          "indexed": true,
          "internalType": "address",
          "name": "sender",
          "type": "address"
        }
      ],
      "name": "RoleGranted",
      "type": "event"
    },
    {
      "anonymous": false,
      "inputs": [
        {
          "indexed": true,
          "internalType": "bytes32",
          "name": "role",
          "type": "bytes32"
        },
        {
          "indexed": true,
          "internalType": "address",
          "name": "account",
          "type": "address"
        },
        {
          "indexed": true,
          "internalType": "address",
          "name": "sender",
          "type": "address"
        }
      ],
      "name": "RoleRevoked",
      "type": "event"
    },
    {
      "anonymous": false,
      "inputs": [
        {
          "indexed": true,
          "internalType": "address",
          "name": "from",
          "type": "address"
        },
        {
          "indexed": true,
          "internalType": "address",
          "name": "to",
          "type": "address"
        },
        {
          "indexed": false,
          "internalType": "uint256",
          "name": "value",
          "type": "uint256"
        }
      ],
      "name": "Transfer",
      "type": "event"
    },
    {
      "anonymous": false,
      "inputs": [
        {
          "indexed": false,
          "internalType": "address",
          "name": "account",
          "type": "address"
        }
      ],
      "name": "Unpaused",
      "type": "event"
    },
    {
      "inputs": [],
      "name": "BURNER_ROLE",
      "outputs": [
        {
          "internalType": "bytes32",
          "name": "",
          "type": "bytes32"
        }
      ],
      "stateMutability": "view",
      "type": "function"
    },
    {
      "inputs": [],
      "name": "DEFAULT_ADMIN_ROLE",
      "outputs": [
        {
          "internalType": "bytes32",
          "name": "",
          "type": "bytes32"
        }
      ],
      "stateMutability": "view",
      "type": "function"
    },
    {
      "inputs": [],
      "name": "MINTER_ROLE",
      "outputs": [
        {
          "internalType": "bytes32",
          "name": "",
          "type": "bytes32"
        }
      ],
      "stateMutability": "view",
      "type": "function"
    },
    {
      "inputs": [],
      "name": "PAUSER_ROLE",
      "outputs": [
        {
          "internalType": "bytes32",
          "name": "",
          "type": "bytes32"
        }
      ],
      "stateMutability": "view",
      "type": "function"
    },
    {
      "inputs": [
        {
          "internalType": "address",
          "name": "owner",
          "type": "address"
        },
        {
          "internalType": "address",
          "name": "spender",
          "type": "address"
        }
      ],
      "name": "allowance",
      "outputs": [
        {
          "internalType": "uint256",
          "name": "",
          "type": "uint256"
        }
      ],
      "stateMutability": "view",
      "type": "function"
    },
    {
      "inputs": [
        {
          "internalType": "address",
          "name": "spender",
          "type": "address"
        },
        {
          "internalType": "uint256",
          "name": "amount",
          "type": "uint256"
        }
      ],
      "name": "approve",
      "outputs": [
        {
          "internalType": "bool",
          "name": "",
          "type": "bool"
        }
      ],
      "stateMutability": "nonpayable",
      "type": "function"
    },
    {
      "inputs": [
        {
          "internalType": "address",
          "name": "account",
          "type": "address"
        }
      ],
      "name": "balanceOf",
      "outputs": [
        {
          "internalType": "uint256",
          "name": "",
          "type": "uint256"
        }
      ],
      "stateMutability": "view",
      "type": "function"
    },
    {
      "inputs": [
        {
          "internalType": "uint256",
          "name": "amount",
          "type": "uint256"
        }
      ],
      "name": "burn",
      "outputs": [],
      "stateMutability": "nonpayable",
      "type": "function"
    },
    {
      "inputs": [
        {
          "internalType": "address",
          "name": "holder",
          "type": "address"
        },
        {
          "internalType": "uint256",
          "name": "_amount",
          "type": "uint256"
        }
      ],
      "name": "burn",
      "outputs": [],
      "stateMutability": "nonpayable",
      "type": "function"
    },
    {
      "inputs": [
        {
          "internalType": "address",
          "name": "account",
          "type": "address"
        },
        {
          "internalType": "uint256",
          "name": "amount",
          "type": "uint256"
        }
      ],
      "name": "burnFrom",
      "outputs": [],
      "stateMutability": "nonpayable",
      "type": "function"
    },
    {
      "inputs": [],
      "name": "decimals",
      "outputs": [
        {
          "internalType": "uint8",
          "name": "",
          "type": "uint8"
        }
      ],
      "stateMutability": "view",
      "type": "function"
    },
    {
      "inputs": [
        {
          "internalType": "address",
          "name": "spender",
          "type": "address"
        },
        {
          "internalType": "uint256",
          "name": "subtractedValue",
          "type": "uint256"
        }
      ],
      "name": "decreaseAllowance",
      "outputs": [
        {
          "internalType": "bool",
          "name": "",
          "type": "bool"
        }
      ],
      "stateMutability": "nonpayable",
      "type": "function"
    },
    {
      "inputs": [
        {
          "internalType": "bytes32",
          "name": "role",
          "type": "bytes32"
        }
      ],
      "name": "getRoleAdmin",
      "outputs": [
        {
          "internalType": "bytes32",
          "name": "",
          "type": "bytes32"
        }
      ],
      "stateMutability": "view",
      "type": "function"
    },
    {
      "inputs": [
        {
          "internalType": "bytes32",
          "name": "role",
          "type": "bytes32"
        },
        {
          "internalType": "uint256",
          "name": "index",
          "type": "uint256"
        }
      ],
      "name": "getRoleMember",
      "outputs": [
        {
          "internalType": "address",
          "name": "",
          "type": "address"
        }
      ],
      "stateMutability": "view",
      "type": "function"
    },
    {
      "inputs": [
        {
          "internalType": "bytes32",
          "name": "role",
          "type": "bytes32"
        }
      ],
      "name": "getRoleMemberCount",
      "outputs": [
        {
          "internalType": "uint256",
          "name": "",
          "type": "uint256"
        }
      ],
      "stateMutability": "view",
      "type": "function"
    },
    {
      "inputs": [
        {
          "internalType": "bytes32",
          "name": "role",
          "type": "bytes32"
        },
        {
          "internalType": "address",
          "name": "account",
          "type": "address"
        }
      ],
      "name": "grantRole",
      "outputs": [],
      "stateMutability": "nonpayable",
      "type": "function"
    },
    {
      "inputs": [
        {
          "internalType": "bytes32",
          "name": "role",
          "type": "bytes32"
        },
        {
          "internalType": "address",
          "name": "account",
          "type": "address"
        }
      ],
      "name": "hasRole",
      "outputs": [
        {
          "internalType": "bool",
          "name": "",
          "type": "bool"
        }
      ],
      "stateMutability": "view",
      "type": "function"
    },
    {
      "inputs": [
        {
          "internalType": "address",
          "name": "spender",
          "type": "address"
        },
        {
          "internalType": "uint256",
          "name": "addedValue",
          "type": "uint256"
        }
      ],
      "name": "increaseAllowance",
      "outputs": [
        {
          "internalType": "bool",
          "name": "",
          "type": "bool"
        }
      ],
      "stateMutability": "nonpayable",
      "type": "function"
    },
    {
      "inputs": [
        {
          "internalType": "address",
          "name": "to",
          "type": "address"
        },
        {
          "internalType": "uint256",
          "name": "amount",
          "type": "uint256"
        }
      ],
      "name": "mint",
      "outputs": [],
      "stateMutability": "nonpayable",
      "type": "function"
    },
    {
      "inputs": [],
      "name": "name",
      "outputs": [
        {
          "internalType": "string",
          "name": "",
          "type": "string"
        }
      ],
      "stateMutability": "view",
      "type": "function"
    },
    {
      "inputs": [],
      "name": "pause",
      "outputs": [],
      "stateMutability": "nonpayable",
      "type": "function"
    },
    {
      "inputs": [],
      "name": "paused",
      "outputs": [
        {
          "internalType": "bool",
          "name": "",
          "type": "bool"
        }
      ],
      "stateMutability": "view",
      "type": "function"
    },
    {
      "inputs": [
        {
          "internalType": "bytes32",
          "name": "role",
          "type": "bytes32"
        },
        {
          "internalType": "address",
          "name": "account",
          "type": "address"
        }
      ],
      "name": "renounceRole",
      "outputs": [],
      "stateMutability": "nonpayable",
      "type": "function"
    },
    {
      "inputs": [
        {
          "internalType": "address",
          "name": "_burner",
          "type": "address"
        }
      ],
      "name": "revokeBurnerRole",
      "outputs": [],
      "stateMutability": "nonpayable",
      "type": "function"
    },
    {
      "inputs": [
        {
          "internalType": "address",
          "name": "_minter",
          "type": "address"
        }
      ],
      "name": "revokeMinterRole",
      "outputs": [],
      "stateMutability": "nonpayable",
      "type": "function"
    },
    {
      "inputs": [
        {
          "internalType": "bytes32",
          "name": "role",
          "type": "bytes32"
        },
        {
          "internalType": "address",
          "name": "account",
          "type": "address"
        }
      ],
      "name": "revokeRole",
      "outputs": [],
      "stateMutability": "nonpayable",
      "type": "function"
    },
    {
      "inputs": [
        {
          "internalType": "address",
          "name": "_burner",
          "type": "address"
        }
      ],
      "name": "setupBurnerRole",
      "outputs": [],
      "stateMutability": "nonpayable",
      "type": "function"
    },
    {
      "inputs": [
        {
          "internalType": "address",
          "name": "_minter",
          "type": "address"
        }
      ],
      "name": "setupMinterRole",
      "outputs": [],
      "stateMutability": "nonpayable",
      "type": "function"
    },
    {
      "inputs": [
        {
          "internalType": "bytes4",
          "name": "interfaceId",
          "type": "bytes4"
        }
      ],
      "name": "supportsInterface",
      "outputs": [
        {
          "internalType": "bool",
          "name": "",
          "type": "bool"
        }
      ],
      "stateMutability": "view",
      "type": "function"
    },
    {
      "inputs": [],
      "name": "symbol",
      "outputs": [
        {
          "internalType": "string",
          "name": "",
          "type": "string"
        }
      ],
      "stateMutability": "view",
      "type": "function"
    },
    {
      "inputs": [],
      "name": "totalSupply",
      "outputs": [
        {
          "internalType": "uint256",
          "name": "",
          "type": "uint256"
        }
      ],
      "stateMutability": "view",
      "type": "function"
    },
    {
      "inputs": [
        {
          "internalType": "address",
          "name": "to",
          "type": "address"
        },
        {
          "internalType": "uint256",
          "name": "amount",
          "type": "uint256"
        }
      ],
      "name": "transfer",
      "outputs": [
        {
          "internalType": "bool",
          "name": "",
          "type": "bool"
        }
      ],
      "stateMutability": "nonpayable",
      "type": "function"
    },
    {
      "inputs": [
        {
          "internalType": "address",
          "name": "from",
          "type": "address"
        },
        {
          "internalType": "address",
          "name": "to",
          "type": "address"
        },
        {
          "internalType": "uint256",
          "name": "amount",
          "type": "uint256"
        }
      ],
      "name": "transferFrom",
      "outputs": [
        {
          "internalType": "bool",
          "name": "",
          "type": "bool"
        }
      ],
      "stateMutability": "nonpayable",
      "type": "function"
    },
    {
      "inputs": [],
      "name": "unpause",
      "outputs": [],
      "stateMutability": "nonpayable",
      "type": "function"
    }
  ],
  "bytecode": "0x60806040523480156200001157600080fd5b50604051620041c9380380620041c9833981810160405281019062000037919062000893565b828281818160059080519060200190620000539291906200060b565b5080600690805190602001906200006c9291906200060b565b5050506000600760006101000a81548160ff021916908315150217905550620000ae6000801b620000a26200014d60201b60201c565b6200015560201b60201c565b620000ef7f9f2df0fed2c77648de5860a4cc508cd0818c85b8b8a1ab4ceeef8d981c8956a6620000e36200014d60201b60201c565b6200015560201b60201c565b620001307f65d7a28e3265b37a6474929f336521b332c1681b933f6cb9f3376673440d862a620001246200014d60201b60201c565b6200015560201b60201c565b50506200014433826200016b60201b60201c565b50505062000b67565b600033905090565b620001678282620002e560201b60201c565b5050565b600073ffffffffffffffffffffffffffffffffffffffff168273ffffffffffffffffffffffffffffffffffffffff161415620001de576040517f08c379a0000000000000000000000000000000000000000000000000000000008152600401620001d5906200098e565b60405180910390fd5b620001f2600083836200032d60201b60201c565b8060046000828254620002069190620009df565b9250508190555080600260008473ffffffffffffffffffffffffffffffffffffffff1673ffffffffffffffffffffffffffffffffffffffff16815260200190815260200160002060008282546200025e9190620009df565b925050819055508173ffffffffffffffffffffffffffffffffffffffff16600073ffffffffffffffffffffffffffffffffffffffff167fddf252ad1be2c89b69c2b068fc378daa952ba7f163c4a11628f55a4df523b3ef83604051620002c5919062000a4d565b60405180910390a3620002e1600083836200034a60201b60201c565b5050565b620002fc82826200034f60201b620010711760201c565b6200032881600160008581526020019081526020016000206200044060201b620011511790919060201c565b505050565b620003458383836200047860201b620011811760201c565b505050565b505050565b620003618282620004e860201b60201c565b6200043c57600160008084815260200190815260200160002060000160008373ffffffffffffffffffffffffffffffffffffffff1673ffffffffffffffffffffffffffffffffffffffff16815260200190815260200160002060006101000a81548160ff021916908315150217905550620003e16200014d60201b60201c565b73ffffffffffffffffffffffffffffffffffffffff168173ffffffffffffffffffffffffffffffffffffffff16837f2f8788117e7eff1d82e926ec794901d17c78024a50270940304540a733656f0d60405160405180910390a45b5050565b600062000470836000018373ffffffffffffffffffffffffffffffffffffffff1660001b6200055260201b60201c565b905092915050565b62000490838383620005cc60201b620011d91760201c565b620004a0620005d160201b60201c565b15620004e3576040517f08c379a0000000000000000000000000000000000000000000000000000000008152600401620004da9062000ae0565b60405180910390fd5b505050565b600080600084815260200190815260200160002060000160008373ffffffffffffffffffffffffffffffffffffffff1673ffffffffffffffffffffffffffffffffffffffff16815260200190815260200160002060009054906101000a900460ff16905092915050565b6000620005668383620005e860201b60201c565b620005c1578260000182908060018154018082558091505060019003906000526020600020016000909190919091505582600001805490508360010160008481526020019081526020016000208190555060019050620005c6565b600090505b92915050565b505050565b6000600760009054906101000a900460ff16905090565b600080836001016000848152602001908152602001600020541415905092915050565b828054620006199062000b31565b90600052602060002090601f0160209004810192826200063d576000855562000689565b82601f106200065857805160ff191683800117855562000689565b8280016001018555821562000689579182015b82811115620006885782518255916020019190600101906200066b565b5b5090506200069891906200069c565b5090565b5b80821115620006b75760008160009055506001016200069d565b5090565b6000604051905090565b600080fd5b600080fd5b600080fd5b600080fd5b6000601f19601f8301169050919050565b7f4e487b7100000000000000000000000000000000000000000000000000000000600052604160045260246000fd5b6200072482620006d9565b810181811067ffffffffffffffff82111715620007465762000745620006ea565b5b80604052505050565b60006200075b620006bb565b905062000769828262000719565b919050565b600067ffffffffffffffff8211156200078c576200078b620006ea565b5b6200079782620006d9565b9050602081019050919050565b60005b83811015620007c4578082015181840152602081019050620007a7565b83811115620007d4576000848401525b50505050565b6000620007f1620007eb846200076e565b6200074f565b90508281526020810184848401111562000810576200080f620006d4565b5b6200081d848285620007a4565b509392505050565b600082601f8301126200083d576200083c620006cf565b5b81516200084f848260208601620007da565b91505092915050565b6000819050919050565b6200086d8162000858565b81146200087957600080fd5b50565b6000815190506200088d8162000862565b92915050565b600080600060608486031215620008af57620008ae620006c5565b5b600084015167ffffffffffffffff811115620008d057620008cf620006ca565b5b620008de8682870162000825565b935050602084015167ffffffffffffffff811115620009025762000901620006ca565b5b620009108682870162000825565b925050604062000923868287016200087c565b9150509250925092565b600082825260208201905092915050565b7f45524332303a206d696e7420746f20746865207a65726f206164647265737300600082015250565b600062000976601f836200092d565b915062000983826200093e565b602082019050919050565b60006020820190508181036000830152620009a98162000967565b9050919050565b7f4e487b7100000000000000000000000000000000000000000000000000000000600052601160045260246000fd5b6000620009ec8262000858565b9150620009f98362000858565b9250827fffffffffffffffffffffffffffffffffffffffffffffffffffffffffffffffff0382111562000a315762000a30620009b0565b5b828201905092915050565b62000a478162000858565b82525050565b600060208201905062000a64600083018462000a3c565b92915050565b7f45524332305061757361626c653a20746f6b656e207472616e7366657220776860008201527f696c652070617573656400000000000000000000000000000000000000000000602082015250565b600062000ac8602a836200092d565b915062000ad58262000a6a565b604082019050919050565b6000602082019050818103600083015262000afb8162000ab9565b9050919050565b7f4e487b7100000000000000000000000000000000000000000000000000000000600052602260045260246000fd5b6000600282049050600182168062000b4a57607f821691505b6020821081141562000b615762000b6062000b02565b5b50919050565b6136528062000b776000396000f3fe608060405234801561001057600080fd5b50600436106102065760003560e01c806379cc67901161011a578063a6115b69116100ad578063d53913931161007c578063d5391393146105fd578063d547741f1461061b578063dd62ed3e14610637578063e63ab1e914610667578063fcce83721461068557610206565b8063a6115b6914610565578063a9059cbb14610581578063c3052ffc146105b1578063ca15c873146105cd57610206565b806395d89b41116100e957806395d89b41146104dd5780639dc29fac146104fb578063a217fddf14610517578063a457c2d71461053557610206565b806379cc6790146104575780638456cb59146104735780639010d07c1461047d57806391d14854146104ad57610206565b8063313ce5671161019d57806340c10f191161016c57806340c10f19146103b557806342966c68146103d15780635c975abb146103ed57806369e2f0fb1461040b57806370a082311461042757610206565b8063313ce5671461034157806336568abe1461035f578063395093511461037b5780633f4ba83a146103ab57610206565b806323b872dd116101d957806323b872dd146102a7578063248a9ca3146102d7578063282c51f3146103075780632f2ff15d1461032557610206565b806301ffc9a71461020b57806306fdde031461023b578063095ea7b31461025957806318160ddd14610289575b600080fd5b61022560048036038101906102209190612330565b6106a1565b6040516102329190612378565b60405180910390f35b61024361071b565b604051610250919061242c565b60405180910390f35b610273600480360381019061026e91906124e2565b6107ad565b6040516102809190612378565b60405180910390f35b6102916107d0565b60405161029e9190612531565b60405180910390f35b6102c160048036038101906102bc919061254c565b6107da565b6040516102ce9190612378565b60405180910390f35b6102f160048036038101906102ec91906125d5565b610809565b6040516102fe9190612611565b60405180910390f35b61030f610828565b60405161031c9190612611565b60405180910390f35b61033f600480360381019061033a919061262c565b61084c565b005b61034961086d565b6040516103569190612688565b60405180910390f35b6103796004803603810190610374919061262c565b610876565b005b610395600480360381019061039091906124e2565b6108f9565b6040516103a29190612378565b60405180910390f35b6103b3610930565b005b6103cf60048036038101906103ca91906124e2565b6109aa565b005b6103eb60048036038101906103e691906126a3565b610a28565b005b6103f5610a3c565b6040516104029190612378565b60405180910390f35b610425600480360381019061042091906126d0565b610a53565b005b610441600480360381019061043c91906126d0565b610acc565b60405161044e9190612531565b60405180910390f35b610471600480360381019061046c91906124e2565b610b15565b005b61047b610b35565b005b610497600480360381019061049291906126fd565b610baf565b6040516104a4919061274c565b60405180910390f35b6104c760048036038101906104c2919061262c565b610bde565b6040516104d49190612378565b60405180910390f35b6104e5610c48565b6040516104f2919061242c565b60405180910390f35b610515600480360381019061051091906124e2565b610cda565b005b61051f610d51565b60405161052c9190612611565b60405180910390f35b61054f600480360381019061054a91906124e2565b610d58565b60405161055c9190612378565b60405180910390f35b61057f600480360381019061057a91906126d0565b610dcf565b005b61059b600480360381019061059691906124e2565b610e48565b6040516105a89190612378565b60405180910390f35b6105cb60048036038101906105c691906126d0565b610e6b565b005b6105e760048036038101906105e291906125d5565b610ee4565b6040516105f49190612531565b60405180910390f35b610605610f08565b6040516106129190612611565b60405180910390f35b6106356004803603810190610630919061262c565b610f2c565b005b610651600480360381019061064c9190612767565b610f4d565b60405161065e9190612531565b60405180910390f35b61066f610fd4565b60405161067c9190612611565b60405180910390f35b61069f600480360381019061069a91906126d0565b610ff8565b005b60007f5a05180f000000000000000000000000000000000000000000000000000000007bffffffffffffffffffffffffffffffffffffffffffffffffffffffff1916827bffffffffffffffffffffffffffffffffffffffffffffffffffffffff191614806107145750610713826111de565b5b9050919050565b60606005805461072a906127d6565b80601f0160208091040260200160405190810160405280929190818152602001828054610756906127d6565b80156107a35780601f10610778576101008083540402835291602001916107a3565b820191906000526020600020905b81548152906001019060200180831161078657829003601f168201915b5050505050905090565b6000806107b8611258565b90506107c5818585611260565b600191505092915050565b6000600454905090565b6000806107e5611258565b90506107f285828561142b565b6107fd8585856114b7565b60019150509392505050565b6000806000838152602001908152602001600020600101549050919050565b7f3c11d16cbaffd01df69ce1c404f6340ee057498f5f00246190ea54220576a84881565b61085582610809565b61085e8161173b565b610868838361174f565b505050565b60006012905090565b61087e611258565b73ffffffffffffffffffffffffffffffffffffffff168173ffffffffffffffffffffffffffffffffffffffff16146108eb576040517f08c379a00000000000000000000000000000000000000000000000000000000081526004016108e29061287a565b60405180910390fd5b6108f58282611783565b5050565b600080610904611258565b90506109258185856109168589610f4d565b61092091906128c9565b611260565b600191505092915050565b6109617f65d7a28e3265b37a6474929f336521b332c1681b933f6cb9f3376673440d862a61095c611258565b610bde565b6109a0576040517f08c379a000000000000000000000000000000000000000000000000000000000815260040161099790612991565b60405180910390fd5b6109a86117b7565b565b6109db7f9f2df0fed2c77648de5860a4cc508cd0818c85b8b8a1ab4ceeef8d981c8956a66109d6611258565b610bde565b610a1a576040517f08c379a0000000000000000000000000000000000000000000000000000000008152600401610a1190612a23565b60405180910390fd5b610a24828261181a565b5050565b610a39610a33611258565b8261197b565b50565b6000600760009054906101000a900460ff16905090565b610a606000801b33610bde565b610a9f576040517f08c379a0000000000000000000000000000000000000000000000000000000008152600401610a9690612ab5565b60405180910390fd5b610ac97f9f2df0fed2c77648de5860a4cc508cd0818c85b8b8a1ab4ceeef8d981c8956a682611783565b50565b6000600260008373ffffffffffffffffffffffffffffffffffffffff1673ffffffffffffffffffffffffffffffffffffffff168152602001908152602001600020549050919050565b610b2782610b21611258565b8361142b565b610b31828261197b565b5050565b610b667f65d7a28e3265b37a6474929f336521b332c1681b933f6cb9f3376673440d862a610b61611258565b610bde565b610ba5576040517f08c379a0000000000000000000000000000000000000000000000000000000008152600401610b9c90612b47565b60405180910390fd5b610bad611b54565b565b6000610bd68260016000868152602001908152602001600020611bb790919063ffffffff16565b905092915050565b600080600084815260200190815260200160002060000160008373ffffffffffffffffffffffffffffffffffffffff1673ffffffffffffffffffffffffffffffffffffffff16815260200190815260200160002060009054906101000a900460ff16905092915050565b606060068054610c57906127d6565b80601f0160208091040260200160405190810160405280929190818152602001828054610c83906127d6565b8015610cd05780601f10610ca557610100808354040283529160200191610cd0565b820191906000526020600020905b815481529060010190602001808311610cb357829003601f168201915b5050505050905090565b610d047f3c11d16cbaffd01df69ce1c404f6340ee057498f5f00246190ea54220576a84833610bde565b610d43576040517f08c379a0000000000000000000000000000000000000000000000000000000008152600401610d3a90612bd9565b60405180910390fd5b610d4d828261197b565b5050565b6000801b81565b600080610d63611258565b90506000610d718286610f4d565b905083811015610db6576040517f08c379a0000000000000000000000000000000000000000000000000000000008152600401610dad90612c6b565b60405180910390fd5b610dc38286868403611260565b60019250505092915050565b610ddc6000801b33610bde565b610e1b576040517f08c379a0000000000000000000000000000000000000000000000000000000008152600401610e1290612cfd565b60405180910390fd5b610e457f3c11d16cbaffd01df69ce1c404f6340ee057498f5f00246190ea54220576a84882611bd1565b50565b600080610e53611258565b9050610e608185856114b7565b600191505092915050565b610e786000801b33610bde565b610eb7576040517f08c379a0000000000000000000000000000000000000000000000000000000008152600401610eae90612cfd565b60405180910390fd5b610ee17f3c11d16cbaffd01df69ce1c404f6340ee057498f5f00246190ea54220576a84882611783565b50565b6000610f0160016000848152602001908152602001600020611bdf565b9050919050565b7f9f2df0fed2c77648de5860a4cc508cd0818c85b8b8a1ab4ceeef8d981c8956a681565b610f3582610809565b610f3e8161173b565b610f488383611783565b505050565b6000600360008473ffffffffffffffffffffffffffffffffffffffff1673ffffffffffffffffffffffffffffffffffffffff16815260200190815260200160002060008373ffffffffffffffffffffffffffffffffffffffff1673ffffffffffffffffffffffffffffffffffffffff16815260200190815260200160002054905092915050565b7f65d7a28e3265b37a6474929f336521b332c1681b933f6cb9f3376673440d862a81565b6110056000801b33610bde565b611044576040517f08c379a000000000000000000000000000000000000000000000000000000000815260040161103b90612ab5565b60405180910390fd5b61106e7f9f2df0fed2c77648de5860a4cc508cd0818c85b8b8a1ab4ceeef8d981c8956a682611bd1565b50565b61107b8282610bde565b61114d57600160008084815260200190815260200160002060000160008373ffffffffffffffffffffffffffffffffffffffff1673ffffffffffffffffffffffffffffffffffffffff16815260200190815260200160002060006101000a81548160ff0219169083151502179055506110f2611258565b73ffffffffffffffffffffffffffffffffffffffff168173ffffffffffffffffffffffffffffffffffffffff16837f2f8788117e7eff1d82e926ec794901d17c78024a50270940304540a733656f0d60405160405180910390a45b5050565b6000611179836000018373ffffffffffffffffffffffffffffffffffffffff1660001b611bf4565b905092915050565b61118c8383836111d9565b611194610a3c565b156111d4576040517f08c379a00000000000000000000000000000000000000000000000000000000081526004016111cb90612d8f565b60405180910390fd5b505050565b505050565b60007f7965db0b000000000000000000000000000000000000000000000000000000007bffffffffffffffffffffffffffffffffffffffffffffffffffffffff1916827bffffffffffffffffffffffffffffffffffffffffffffffffffffffff19161480611251575061125082611c64565b5b9050919050565b600033905090565b600073ffffffffffffffffffffffffffffffffffffffff168373ffffffffffffffffffffffffffffffffffffffff1614156112d0576040517f08c379a00000000000000000000000000000000000000000000000000000000081526004016112c790612e21565b60405180910390fd5b600073ffffffffffffffffffffffffffffffffffffffff168273ffffffffffffffffffffffffffffffffffffffff161415611340576040517f08c379a000000000000000000000000000000000000000000000000000000000815260040161133790612eb3565b60405180910390fd5b80600360008573ffffffffffffffffffffffffffffffffffffffff1673ffffffffffffffffffffffffffffffffffffffff16815260200190815260200160002060008473ffffffffffffffffffffffffffffffffffffffff1673ffffffffffffffffffffffffffffffffffffffff168152602001908152602001600020819055508173ffffffffffffffffffffffffffffffffffffffff168373ffffffffffffffffffffffffffffffffffffffff167f8c5be1e5ebec7d5bd14f71427d1e84f3dd0314c0f7b2291e5b200ac8c7c3b9258360405161141e9190612531565b60405180910390a3505050565b60006114378484610f4d565b90507fffffffffffffffffffffffffffffffffffffffffffffffffffffffffffffffff81146114b157818110156114a3576040517f08c379a000000000000000000000000000000000000000000000000000000000815260040161149a90612f1f565b60405180910390fd5b6114b08484848403611260565b5b50505050565b600073ffffffffffffffffffffffffffffffffffffffff168373ffffffffffffffffffffffffffffffffffffffff161415611527576040517f08c379a000000000000000000000000000000000000000000000000000000000815260040161151e90612fb1565b60405180910390fd5b600073ffffffffffffffffffffffffffffffffffffffff168273ffffffffffffffffffffffffffffffffffffffff161415611597576040517f08c379a000000000000000000000000000000000000000000000000000000000815260040161158e90613043565b60405180910390fd5b6115a2838383611cce565b6000600260008573ffffffffffffffffffffffffffffffffffffffff1673ffffffffffffffffffffffffffffffffffffffff16815260200190815260200160002054905081811015611629576040517f08c379a0000000000000000000000000000000000000000000000000000000008152600401611620906130d5565b60405180910390fd5b818103600260008673ffffffffffffffffffffffffffffffffffffffff1673ffffffffffffffffffffffffffffffffffffffff1681526020019081526020016000208190555081600260008573ffffffffffffffffffffffffffffffffffffffff1673ffffffffffffffffffffffffffffffffffffffff16815260200190815260200160002060008282546116be91906128c9565b925050819055508273ffffffffffffffffffffffffffffffffffffffff168473ffffffffffffffffffffffffffffffffffffffff167fddf252ad1be2c89b69c2b068fc378daa952ba7f163c4a11628f55a4df523b3ef846040516117229190612531565b60405180910390a3611735848484611cde565b50505050565b61174c81611747611258565b611ce3565b50565b6117598282611071565b61177e816001600085815260200190815260200160002061115190919063ffffffff16565b505050565b61178d8282611d80565b6117b28160016000858152602001908152602001600020611e6190919063ffffffff16565b505050565b6117bf611e91565b6000600760006101000a81548160ff0219169083151502179055507f5db9ee0a495bf2e6ff9c91a7834c1ba4fdd244a5e8aa4e537bd38aeae4b073aa611803611258565b604051611810919061274c565b60405180910390a1565b600073ffffffffffffffffffffffffffffffffffffffff168273ffffffffffffffffffffffffffffffffffffffff16141561188a576040517f08c379a000000000000000000000000000000000000000000000000000000000815260040161188190613141565b60405180910390fd5b61189660008383611cce565b80600460008282546118a891906128c9565b9250508190555080600260008473ffffffffffffffffffffffffffffffffffffffff1673ffffffffffffffffffffffffffffffffffffffff16815260200190815260200160002060008282546118fe91906128c9565b925050819055508173ffffffffffffffffffffffffffffffffffffffff16600073ffffffffffffffffffffffffffffffffffffffff167fddf252ad1be2c89b69c2b068fc378daa952ba7f163c4a11628f55a4df523b3ef836040516119639190612531565b60405180910390a361197760008383611cde565b5050565b600073ffffffffffffffffffffffffffffffffffffffff168273ffffffffffffffffffffffffffffffffffffffff1614156119eb576040517f08c379a00000000000000000000000000000000000000000000000000000000081526004016119e2906131d3565b60405180910390fd5b6119f782600083611cce565b6000600260008473ffffffffffffffffffffffffffffffffffffffff1673ffffffffffffffffffffffffffffffffffffffff16815260200190815260200160002054905081811015611a7e576040517f08c379a0000000000000000000000000000000000000000000000000000000008152600401611a7590613265565b60405180910390fd5b818103600260008573ffffffffffffffffffffffffffffffffffffffff1673ffffffffffffffffffffffffffffffffffffffff168152602001908152602001600020819055508160046000828254611ad69190613285565b92505081905550600073ffffffffffffffffffffffffffffffffffffffff168373ffffffffffffffffffffffffffffffffffffffff167fddf252ad1be2c89b69c2b068fc378daa952ba7f163c4a11628f55a4df523b3ef84604051611b3b9190612531565b60405180910390a3611b4f83600084611cde565b505050565b611b5c611eda565b6001600760006101000a81548160ff0219169083151502179055507f62e78cea01bee320cd4e420270b5ea74000d11b0c9f74754ebdbfc544b05a258611ba0611258565b604051611bad919061274c565b60405180910390a1565b6000611bc68360000183611f24565b60001c905092915050565b611bdb828261174f565b5050565b6000611bed82600001611f4f565b9050919050565b6000611c008383611f60565b611c59578260000182908060018154018082558091505060019003906000526020600020016000909190919091505582600001805490508360010160008481526020019081526020016000208190555060019050611c5e565b600090505b92915050565b60007f01ffc9a7000000000000000000000000000000000000000000000000000000007bffffffffffffffffffffffffffffffffffffffffffffffffffffffff1916827bffffffffffffffffffffffffffffffffffffffffffffffffffffffff1916149050919050565b611cd9838383611181565b505050565b505050565b611ced8282610bde565b611d7c57611d128173ffffffffffffffffffffffffffffffffffffffff166014611f83565b611d208360001c6020611f83565b604051602001611d3192919061338d565b6040516020818303038152906040526040517f08c379a0000000000000000000000000000000000000000000000000000000008152600401611d73919061242c565b60405180910390fd5b5050565b611d8a8282610bde565b15611e5d57600080600084815260200190815260200160002060000160008373ffffffffffffffffffffffffffffffffffffffff1673ffffffffffffffffffffffffffffffffffffffff16815260200190815260200160002060006101000a81548160ff021916908315150217905550611e02611258565b73ffffffffffffffffffffffffffffffffffffffff168173ffffffffffffffffffffffffffffffffffffffff16837ff6391f5c32d9c69d2a47ea670b442974b53935d1edc7fd64eb21e047a839171b60405160405180910390a45b5050565b6000611e89836000018373ffffffffffffffffffffffffffffffffffffffff1660001b6121bf565b905092915050565b611e99610a3c565b611ed8576040517f08c379a0000000000000000000000000000000000000000000000000000000008152600401611ecf90613413565b60405180910390fd5b565b611ee2610a3c565b15611f22576040517f08c379a0000000000000000000000000000000000000000000000000000000008152600401611f199061347f565b60405180910390fd5b565b6000826000018281548110611f3c57611f3b61349f565b5b9060005260206000200154905092915050565b600081600001805490509050919050565b600080836001016000848152602001908152602001600020541415905092915050565b606060006002836002611f9691906134ce565b611fa091906128c9565b67ffffffffffffffff811115611fb957611fb8613528565b5b6040519080825280601f01601f191660200182016040528015611feb5781602001600182028036833780820191505090505b5090507f3000000000000000000000000000000000000000000000000000000000000000816000815181106120235761202261349f565b5b60200101907effffffffffffffffffffffffffffffffffffffffffffffffffffffffffffff1916908160001a9053507f7800000000000000000000000000000000000000000000000000000000000000816001815181106120875761208661349f565b5b60200101907effffffffffffffffffffffffffffffffffffffffffffffffffffffffffffff1916908160001a905350600060018460026120c791906134ce565b6120d191906128c9565b90505b6001811115612171577f3031323334353637383961626364656600000000000000000000000000000000600f8616601081106121135761211261349f565b5b1a60f81b82828151811061212a5761212961349f565b5b60200101907effffffffffffffffffffffffffffffffffffffffffffffffffffffffffffff1916908160001a905350600485901c94508061216a90613557565b90506120d4565b50600084146121b5576040517f08c379a00000000000000000000000000000000000000000000000000000000081526004016121ac906135cd565b60405180910390fd5b8091505092915050565b600080836001016000848152602001908152602001600020549050600081146122c75760006001826121f19190613285565b90506000600186600001805490506122099190613285565b905081811461227857600086600001828154811061222a5761222961349f565b5b906000526020600020015490508087600001848154811061224e5761224d61349f565b5b90600052602060002001819055508387600101600083815260200190815260200160002081905550505b8560000180548061228c5761228b6135ed565b5b6001900381819060005260206000200160009055905585600101600086815260200190815260200160002060009055600193505050506122cd565b60009150505b92915050565b600080fd5b60007fffffffff0000000000000000000000000000000000000000000000000000000082169050919050565b61230d816122d8565b811461231857600080fd5b50565b60008135905061232a81612304565b92915050565b600060208284031215612346576123456122d3565b5b60006123548482850161231b565b91505092915050565b60008115159050919050565b6123728161235d565b82525050565b600060208201905061238d6000830184612369565b92915050565b600081519050919050565b600082825260208201905092915050565b60005b838110156123cd5780820151818401526020810190506123b2565b838111156123dc576000848401525b50505050565b6000601f19601f8301169050919050565b60006123fe82612393565b612408818561239e565b93506124188185602086016123af565b612421816123e2565b840191505092915050565b6000602082019050818103600083015261244681846123f3565b905092915050565b600073ffffffffffffffffffffffffffffffffffffffff82169050919050565b60006124798261244e565b9050919050565b6124898161246e565b811461249457600080fd5b50565b6000813590506124a681612480565b92915050565b6000819050919050565b6124bf816124ac565b81146124ca57600080fd5b50565b6000813590506124dc816124b6565b92915050565b600080604083850312156124f9576124f86122d3565b5b600061250785828601612497565b9250506020612518858286016124cd565b9150509250929050565b61252b816124ac565b82525050565b60006020820190506125466000830184612522565b92915050565b600080600060608486031215612565576125646122d3565b5b600061257386828701612497565b935050602061258486828701612497565b9250506040612595868287016124cd565b9150509250925092565b6000819050919050565b6125b28161259f565b81146125bd57600080fd5b50565b6000813590506125cf816125a9565b92915050565b6000602082840312156125eb576125ea6122d3565b5b60006125f9848285016125c0565b91505092915050565b61260b8161259f565b82525050565b60006020820190506126266000830184612602565b92915050565b60008060408385031215612643576126426122d3565b5b6000612651858286016125c0565b925050602061266285828601612497565b9150509250929050565b600060ff82169050919050565b6126828161266c565b82525050565b600060208201905061269d6000830184612679565b92915050565b6000602082840312156126b9576126b86122d3565b5b60006126c7848285016124cd565b91505092915050565b6000602082840312156126e6576126e56122d3565b5b60006126f484828501612497565b91505092915050565b60008060408385031215612714576127136122d3565b5b6000612722858286016125c0565b9250506020612733858286016124cd565b9150509250929050565b6127468161246e565b82525050565b6000602082019050612761600083018461273d565b92915050565b6000806040838503121561277e5761277d6122d3565b5b600061278c85828601612497565b925050602061279d85828601612497565b9150509250929050565b7f4e487b7100000000000000000000000000000000000000000000000000000000600052602260045260246000fd5b600060028204905060018216806127ee57607f821691505b60208210811415612802576128016127a7565b5b50919050565b7f416363657373436f6e74726f6c3a2063616e206f6e6c792072656e6f756e636560008201527f20726f6c657320666f722073656c660000000000000000000000000000000000602082015250565b6000612864602f8361239e565b915061286f82612808565b604082019050919050565b6000602082019050818103600083015261289381612857565b9050919050565b7f4e487b7100000000000000000000000000000000000000000000000000000000600052601160045260246000fd5b60006128d4826124ac565b91506128df836124ac565b9250827fffffffffffffffffffffffffffffffffffffffffffffffffffffffffffffffff038211156129145761291361289a565b5b828201905092915050565b7f45524332305072657365744d696e7465725061757365723a206d75737420686160008201527f76652070617573657220726f6c6520746f20756e706175736500000000000000602082015250565b600061297b60398361239e565b91506129868261291f565b604082019050919050565b600060208201905081810360008301526129aa8161296e565b9050919050565b7f45524332305072657365744d696e7465725061757365723a206d75737420686160008201527f7665206d696e74657220726f6c6520746f206d696e7400000000000000000000602082015250565b6000612a0d60368361239e565b9150612a18826129b1565b604082019050919050565b60006020820190508181036000830152612a3c81612a00565b9050919050565b7f44414f546f6b656e3a206d75737420686176652061646d696e20726f6c65207460008201527f6f207365747570206d696e746572000000000000000000000000000000000000602082015250565b6000612a9f602e8361239e565b9150612aaa82612a43565b604082019050919050565b60006020820190508181036000830152612ace81612a92565b9050919050565b7f45524332305072657365744d696e7465725061757365723a206d75737420686160008201527f76652070617573657220726f6c6520746f207061757365000000000000000000602082015250565b6000612b3160378361239e565b9150612b3c82612ad5565b604082019050919050565b60006020820190508181036000830152612b6081612b24565b9050919050565b7f44414f546f6b656e3a206d7573742068617665206275726e657220726f6c652060008201527f746f206275726e00000000000000000000000000000000000000000000000000602082015250565b6000612bc360278361239e565b9150612bce82612b67565b604082019050919050565b60006020820190508181036000830152612bf281612bb6565b9050919050565b7f45524332303a2064656372656173656420616c6c6f77616e63652062656c6f7760008201527f207a65726f000000000000000000000000000000000000000000000000000000602082015250565b6000612c5560258361239e565b9150612c6082612bf9565b604082019050919050565b60006020820190508181036000830152612c8481612c48565b9050919050565b7f44414f546f6b656e3a206d75737420686176652061646d696e20726f6c65207460008201527f6f207365747570206275726e6572000000000000000000000000000000000000602082015250565b6000612ce7602e8361239e565b9150612cf282612c8b565b604082019050919050565b60006020820190508181036000830152612d1681612cda565b9050919050565b7f45524332305061757361626c653a20746f6b656e207472616e7366657220776860008201527f696c652070617573656400000000000000000000000000000000000000000000602082015250565b6000612d79602a8361239e565b9150612d8482612d1d565b604082019050919050565b60006020820190508181036000830152612da881612d6c565b9050919050565b7f45524332303a20617070726f76652066726f6d20746865207a65726f2061646460008201527f7265737300000000000000000000000000000000000000000000000000000000602082015250565b6000612e0b60248361239e565b9150612e1682612daf565b604082019050919050565b60006020820190508181036000830152612e3a81612dfe565b9050919050565b7f45524332303a20617070726f766520746f20746865207a65726f20616464726560008201527f7373000000000000000000000000000000000000000000000000000000000000602082015250565b6000612e9d60228361239e565b9150612ea882612e41565b604082019050919050565b60006020820190508181036000830152612ecc81612e90565b9050919050565b7f45524332303a20696e73756666696369656e7420616c6c6f77616e6365000000600082015250565b6000612f09601d8361239e565b9150612f1482612ed3565b602082019050919050565b60006020820190508181036000830152612f3881612efc565b9050919050565b7f45524332303a207472616e736665722066726f6d20746865207a65726f20616460008201527f6472657373000000000000000000000000000000000000000000000000000000602082015250565b6000612f9b60258361239e565b9150612fa682612f3f565b604082019050919050565b60006020820190508181036000830152612fca81612f8e565b9050919050565b7f45524332303a207472616e7366657220746f20746865207a65726f206164647260008201527f6573730000000000000000000000000000000000000000000000000000000000602082015250565b600061302d60238361239e565b915061303882612fd1565b604082019050919050565b6000602082019050818103600083015261305c81613020565b9050919050565b7f45524332303a207472616e7366657220616d6f756e742065786365656473206260008201527f616c616e63650000000000000000000000000000000000000000000000000000602082015250565b60006130bf60268361239e565b91506130ca82613063565b604082019050919050565b600060208201905081810360008301526130ee816130b2565b9050919050565b7f45524332303a206d696e7420746f20746865207a65726f206164647265737300600082015250565b600061312b601f8361239e565b9150613136826130f5565b602082019050919050565b6000602082019050818103600083015261315a8161311e565b9050919050565b7f45524332303a206275726e2066726f6d20746865207a65726f2061646472657360008201527f7300000000000000000000000000000000000000000000000000000000000000602082015250565b60006131bd60218361239e565b91506131c882613161565b604082019050919050565b600060208201905081810360008301526131ec816131b0565b9050919050565b7f45524332303a206275726e20616d6f756e7420657863656564732062616c616e60008201527f6365000000000000000000000000000000000000000000000000000000000000602082015250565b600061324f60228361239e565b915061325a826131f3565b604082019050919050565b6000602082019050818103600083015261327e81613242565b9050919050565b6000613290826124ac565b915061329b836124ac565b9250828210156132ae576132ad61289a565b5b828203905092915050565b600081905092915050565b7f416363657373436f6e74726f6c3a206163636f756e7420000000000000000000600082015250565b60006132fa6017836132b9565b9150613305826132c4565b601782019050919050565b600061331b82612393565b61332581856132b9565b93506133358185602086016123af565b80840191505092915050565b7f206973206d697373696e6720726f6c6520000000000000000000000000000000600082015250565b60006133776011836132b9565b915061338282613341565b601182019050919050565b6000613398826132ed565b91506133a48285613310565b91506133af8261336a565b91506133bb8284613310565b91508190509392505050565b7f5061757361626c653a206e6f7420706175736564000000000000000000000000600082015250565b60006133fd60148361239e565b9150613408826133c7565b602082019050919050565b6000602082019050818103600083015261342c816133f0565b9050919050565b7f5061757361626c653a2070617573656400000000000000000000000000000000600082015250565b600061346960108361239e565b915061347482613433565b602082019050919050565b600060208201905081810360008301526134988161345c565b9050919050565b7f4e487b7100000000000000000000000000000000000000000000000000000000600052603260045260246000fd5b60006134d9826124ac565b91506134e4836124ac565b9250817fffffffffffffffffffffffffffffffffffffffffffffffffffffffffffffffff048311821515161561351d5761351c61289a565b5b828202905092915050565b7f4e487b7100000000000000000000000000000000000000000000000000000000600052604160045260246000fd5b6000613562826124ac565b915060008214156135765761357561289a565b5b600182039050919050565b7f537472696e67733a20686578206c656e67746820696e73756666696369656e74600082015250565b60006135b760208361239e565b91506135c282613581565b602082019050919050565b600060208201905081810360008301526135e6816135aa565b9050919050565b7f4e487b7100000000000000000000000000000000000000000000000000000000600052603160045260246000fdfea2646970667358221220afa4d93e8ab1ac17fe1410a513714261d7c1084d52b7ef370075f114d4fc131164736f6c63430008090033",
  "linkReferences": {},
  "deployedLinkReferences": {}
}