{
  "_format": "hh-sol-artifact-1",
  "contractName": "DAOToken",
  "sourceName": "contracts/token/DAOToken.sol",
  "abi": [
    {
      "inputs": [
        {
          "internalType": "string",
          "name": "_tokenName",
          "type": "string"
        },
        {
          "internalType": "string",
          "name": "_tokenSymbol",
          "type": "string"
        },
        {
          "internalType": "uint256",
          "name": "_tokenInitialSupply",
          "type": "uint256"
        }
      ],
      "stateMutability": "nonpayable",
      "type": "constructor"
    },
    {
      "anonymous": false,
      "inputs": [
        {
          "indexed": true,
          "internalType": "address",
          "name": "owner",
          "type": "address"
        },
        {
          "indexed": true,
          "internalType": "address",
          "name": "spender",
          "type": "address"
        },
        {
          "indexed": false,
          "internalType": "uint256",
          "name": "value",
          "type": "uint256"
        }
      ],
      "name": "Approval",
      "type": "event"
    },
    {
      "anonymous": false,
      "inputs": [
        {
          "indexed": false,
          "internalType": "address",
          "name": "account",
          "type": "address"
        }
      ],
      "name": "Paused",
      "type": "event"
    },
    {
      "anonymous": false,
      "inputs": [
        {
          "indexed": true,
          "internalType": "bytes32",
          "name": "role",
          "type": "bytes32"
        },
        {
          "indexed": true,
          "internalType": "bytes32",
          "name": "previousAdminRole",
          "type": "bytes32"
        },
        {
          "indexed": true,
          "internalType": "bytes32",
          "name": "newAdminRole",
          "type": "bytes32"
        }
      ],
      "name": "RoleAdminChanged",
      "type": "event"
    },
    {
      "anonymous": false,
      "inputs": [
        {
          "indexed": true,
          "internalType": "bytes32",
          "name": "role",
          "type": "bytes32"
        },
        {
          "indexed": true,
          "internalType": "address",
          "name": "account",
          "type": "address"
        },
        {
          "indexed": true,
          "internalType": "address",
          "name": "sender",
          "type": "address"
        }
      ],
      "name": "RoleGranted",
      "type": "event"
    },
    {
      "anonymous": false,
      "inputs": [
        {
          "indexed": true,
          "internalType": "bytes32",
          "name": "role",
          "type": "bytes32"
        },
        {
          "indexed": true,
          "internalType": "address",
          "name": "account",
          "type": "address"
        },
        {
          "indexed": true,
          "internalType": "address",
          "name": "sender",
          "type": "address"
        }
      ],
      "name": "RoleRevoked",
      "type": "event"
    },
    {
      "anonymous": false,
      "inputs": [
        {
          "indexed": true,
          "internalType": "address",
          "name": "from",
          "type": "address"
        },
        {
          "indexed": true,
          "internalType": "address",
          "name": "to",
          "type": "address"
        },
        {
          "indexed": false,
          "internalType": "uint256",
          "name": "value",
          "type": "uint256"
        }
      ],
      "name": "Transfer",
      "type": "event"
    },
    {
      "anonymous": false,
      "inputs": [
        {
          "indexed": false,
          "internalType": "address",
          "name": "account",
          "type": "address"
        }
      ],
      "name": "Unpaused",
      "type": "event"
    },
    {
      "inputs": [],
      "name": "BURNER_ROLE",
      "outputs": [
        {
          "internalType": "bytes32",
          "name": "",
          "type": "bytes32"
        }
      ],
      "stateMutability": "view",
      "type": "function"
    },
    {
      "inputs": [],
      "name": "DEFAULT_ADMIN_ROLE",
      "outputs": [
        {
          "internalType": "bytes32",
          "name": "",
          "type": "bytes32"
        }
      ],
      "stateMutability": "view",
      "type": "function"
    },
    {
      "inputs": [],
      "name": "MINTER_ROLE",
      "outputs": [
        {
          "internalType": "bytes32",
          "name": "",
          "type": "bytes32"
        }
      ],
      "stateMutability": "view",
      "type": "function"
    },
    {
      "inputs": [],
      "name": "PAUSER_ROLE",
      "outputs": [
        {
          "internalType": "bytes32",
          "name": "",
          "type": "bytes32"
        }
      ],
      "stateMutability": "view",
      "type": "function"
    },
    {
      "inputs": [
        {
          "internalType": "address",
          "name": "owner",
          "type": "address"
        },
        {
          "internalType": "address",
          "name": "spender",
          "type": "address"
        }
      ],
      "name": "allowance",
      "outputs": [
        {
          "internalType": "uint256",
          "name": "",
          "type": "uint256"
        }
      ],
      "stateMutability": "view",
      "type": "function"
    },
    {
      "inputs": [
        {
          "internalType": "address",
          "name": "spender",
          "type": "address"
        },
        {
          "internalType": "uint256",
          "name": "amount",
          "type": "uint256"
        }
      ],
      "name": "approve",
      "outputs": [
        {
          "internalType": "bool",
          "name": "",
          "type": "bool"
        }
      ],
      "stateMutability": "nonpayable",
      "type": "function"
    },
    {
      "inputs": [
        {
          "internalType": "address",
          "name": "account",
          "type": "address"
        }
      ],
      "name": "balanceOf",
      "outputs": [
        {
          "internalType": "uint256",
          "name": "",
          "type": "uint256"
        }
      ],
      "stateMutability": "view",
      "type": "function"
    },
    {
      "inputs": [
        {
          "internalType": "uint256",
          "name": "amount",
          "type": "uint256"
        }
      ],
      "name": "burn",
      "outputs": [],
      "stateMutability": "nonpayable",
      "type": "function"
    },
    {
      "inputs": [
        {
          "internalType": "address",
          "name": "holder",
          "type": "address"
        },
        {
          "internalType": "uint256",
          "name": "_amount",
          "type": "uint256"
        }
      ],
      "name": "burn",
      "outputs": [],
      "stateMutability": "nonpayable",
      "type": "function"
    },
    {
      "inputs": [
        {
          "internalType": "address",
          "name": "account",
          "type": "address"
        },
        {
          "internalType": "uint256",
          "name": "amount",
          "type": "uint256"
        }
      ],
      "name": "burnFrom",
      "outputs": [],
      "stateMutability": "nonpayable",
      "type": "function"
    },
    {
      "inputs": [],
      "name": "decimals",
      "outputs": [
        {
          "internalType": "uint8",
          "name": "",
          "type": "uint8"
        }
      ],
      "stateMutability": "view",
      "type": "function"
    },
    {
      "inputs": [
        {
          "internalType": "address",
          "name": "spender",
          "type": "address"
        },
        {
          "internalType": "uint256",
          "name": "subtractedValue",
          "type": "uint256"
        }
      ],
      "name": "decreaseAllowance",
      "outputs": [
        {
          "internalType": "bool",
          "name": "",
          "type": "bool"
        }
      ],
      "stateMutability": "nonpayable",
      "type": "function"
    },
    {
      "inputs": [
        {
          "internalType": "bytes32",
          "name": "role",
          "type": "bytes32"
        }
      ],
      "name": "getRoleAdmin",
      "outputs": [
        {
          "internalType": "bytes32",
          "name": "",
          "type": "bytes32"
        }
      ],
      "stateMutability": "view",
      "type": "function"
    },
    {
      "inputs": [
        {
          "internalType": "bytes32",
          "name": "role",
          "type": "bytes32"
        },
        {
          "internalType": "uint256",
          "name": "index",
          "type": "uint256"
        }
      ],
      "name": "getRoleMember",
      "outputs": [
        {
          "internalType": "address",
          "name": "",
          "type": "address"
        }
      ],
      "stateMutability": "view",
      "type": "function"
    },
    {
      "inputs": [
        {
          "internalType": "bytes32",
          "name": "role",
          "type": "bytes32"
        }
      ],
      "name": "getRoleMemberCount",
      "outputs": [
        {
          "internalType": "uint256",
          "name": "",
          "type": "uint256"
        }
      ],
      "stateMutability": "view",
      "type": "function"
    },
    {
      "inputs": [
        {
          "internalType": "bytes32",
          "name": "role",
          "type": "bytes32"
        },
        {
          "internalType": "address",
          "name": "account",
          "type": "address"
        }
      ],
      "name": "grantRole",
      "outputs": [],
      "stateMutability": "nonpayable",
      "type": "function"
    },
    {
      "inputs": [
        {
          "internalType": "bytes32",
          "name": "role",
          "type": "bytes32"
        },
        {
          "internalType": "address",
          "name": "account",
          "type": "address"
        }
      ],
      "name": "hasRole",
      "outputs": [
        {
          "internalType": "bool",
          "name": "",
          "type": "bool"
        }
      ],
      "stateMutability": "view",
      "type": "function"
    },
    {
      "inputs": [
        {
          "internalType": "address",
          "name": "spender",
          "type": "address"
        },
        {
          "internalType": "uint256",
          "name": "addedValue",
          "type": "uint256"
        }
      ],
      "name": "increaseAllowance",
      "outputs": [
        {
          "internalType": "bool",
          "name": "",
          "type": "bool"
        }
      ],
      "stateMutability": "nonpayable",
      "type": "function"
    },
    {
      "inputs": [
        {
          "internalType": "address",
          "name": "to",
          "type": "address"
        },
        {
          "internalType": "uint256",
          "name": "amount",
          "type": "uint256"
        }
      ],
      "name": "mint",
      "outputs": [],
      "stateMutability": "nonpayable",
      "type": "function"
    },
    {
      "inputs": [],
      "name": "name",
      "outputs": [
        {
          "internalType": "string",
          "name": "",
          "type": "string"
        }
      ],
      "stateMutability": "view",
      "type": "function"
    },
    {
      "inputs": [],
      "name": "pause",
      "outputs": [],
      "stateMutability": "nonpayable",
      "type": "function"
    },
    {
      "inputs": [],
      "name": "paused",
      "outputs": [
        {
          "internalType": "bool",
          "name": "",
          "type": "bool"
        }
      ],
      "stateMutability": "view",
      "type": "function"
    },
    {
      "inputs": [
        {
          "internalType": "bytes32",
          "name": "role",
          "type": "bytes32"
        },
        {
          "internalType": "address",
          "name": "account",
          "type": "address"
        }
      ],
      "name": "renounceRole",
      "outputs": [],
      "stateMutability": "nonpayable",
      "type": "function"
    },
    {
      "inputs": [
        {
          "internalType": "address",
          "name": "_burner",
          "type": "address"
        }
      ],
      "name": "revokeBurnerRole",
      "outputs": [],
      "stateMutability": "nonpayable",
      "type": "function"
    },
    {
      "inputs": [
        {
          "internalType": "address",
          "name": "_minter",
          "type": "address"
        }
      ],
      "name": "revokeMinterRole",
      "outputs": [],
      "stateMutability": "nonpayable",
      "type": "function"
    },
    {
      "inputs": [
        {
          "internalType": "bytes32",
          "name": "role",
          "type": "bytes32"
        },
        {
          "internalType": "address",
          "name": "account",
          "type": "address"
        }
      ],
      "name": "revokeRole",
      "outputs": [],
      "stateMutability": "nonpayable",
      "type": "function"
    },
    {
      "inputs": [
        {
          "internalType": "address",
          "name": "_burner",
          "type": "address"
        }
      ],
      "name": "setupBurnerRole",
      "outputs": [],
      "stateMutability": "nonpayable",
      "type": "function"
    },
    {
      "inputs": [
        {
          "internalType": "address",
          "name": "_minter",
          "type": "address"
        }
      ],
      "name": "setupMinterRole",
      "outputs": [],
      "stateMutability": "nonpayable",
      "type": "function"
    },
    {
      "inputs": [
        {
          "internalType": "bytes4",
          "name": "interfaceId",
          "type": "bytes4"
        }
      ],
      "name": "supportsInterface",
      "outputs": [
        {
          "internalType": "bool",
          "name": "",
          "type": "bool"
        }
      ],
      "stateMutability": "view",
      "type": "function"
    },
    {
      "inputs": [],
      "name": "symbol",
      "outputs": [
        {
          "internalType": "string",
          "name": "",
          "type": "string"
        }
      ],
      "stateMutability": "view",
      "type": "function"
    },
    {
      "inputs": [],
      "name": "totalSupply",
      "outputs": [
        {
          "internalType": "uint256",
          "name": "",
          "type": "uint256"
        }
      ],
      "stateMutability": "view",
      "type": "function"
    },
    {
      "inputs": [
        {
          "internalType": "address",
          "name": "to",
          "type": "address"
        },
        {
          "internalType": "uint256",
          "name": "amount",
          "type": "uint256"
        }
      ],
      "name": "transfer",
      "outputs": [
        {
          "internalType": "bool",
          "name": "",
          "type": "bool"
        }
      ],
      "stateMutability": "nonpayable",
      "type": "function"
    },
    {
      "inputs": [
        {
          "internalType": "address",
          "name": "from",
          "type": "address"
        },
        {
          "internalType": "address",
          "name": "to",
          "type": "address"
        },
        {
          "internalType": "uint256",
          "name": "amount",
          "type": "uint256"
        }
      ],
      "name": "transferFrom",
      "outputs": [
        {
          "internalType": "bool",
          "name": "",
          "type": "bool"
        }
      ],
      "stateMutability": "nonpayable",
      "type": "function"
    },
    {
      "inputs": [],
      "name": "unpause",
      "outputs": [],
      "stateMutability": "nonpayable",
      "type": "function"
    }
  ],
  "bytecode": "0x60806040523480156200001157600080fd5b506040516200222038038062002220833981016040819052620000349162000557565b82828181816005908051906020019062000050929190620003e4565b50805162000066906006906020840190620003e4565b50506007805460ff191690555062000080600033620000f0565b620000ac7f9f2df0fed2c77648de5860a4cc508cd0818c85b8b8a1ab4ceeef8d981c8956a633620000f0565b620000d87f65d7a28e3265b37a6474929f336521b332c1681b933f6cb9f3376673440d862a33620000f0565b50620000e79050338262000100565b5050506200062e565b620000fc8282620001f7565b5050565b6001600160a01b0382166200015c5760405162461bcd60e51b815260206004820152601f60248201527f45524332303a206d696e7420746f20746865207a65726f20616464726573730060448201526064015b60405180910390fd5b6200016a600083836200023a565b80600460008282546200017e9190620005ca565b90915550506001600160a01b03821660009081526002602052604081208054839290620001ad908490620005ca565b90915550506040518181526001600160a01b038316906000907fddf252ad1be2c89b69c2b068fc378daa952ba7f163c4a11628f55a4df523b3ef9060200160405180910390a35050565b6200020e82826200025260201b62000b3f1760201c565b60008281526001602090815260409091206200023591839062000bc3620002f2821b17901c565b505050565b620002358383836200031260201b62000bd81760201c565b6000828152602081815260408083206001600160a01b038516845290915290205460ff16620000fc576000828152602081815260408083206001600160a01b03851684529091529020805460ff19166001179055620002ae3390565b6001600160a01b0316816001600160a01b0316837f2f8788117e7eff1d82e926ec794901d17c78024a50270940304540a733656f0d60405160405180910390a45050565b600062000309836001600160a01b03841662000392565b90505b92915050565b6200032a8383836200023560201b620005e51760201c565b60075460ff1615620002355760405162461bcd60e51b815260206004820152602a60248201527f45524332305061757361626c653a20746f6b656e207472616e736665722077686044820152691a5b19481c185d5cd95960b21b606482015260840162000153565b6000818152600183016020526040812054620003db575081546001818101845560008481526020808220909301849055845484825282860190935260409020919091556200030c565b5060006200030c565b828054620003f290620005f1565b90600052602060002090601f01602090048101928262000416576000855562000461565b82601f106200043157805160ff191683800117855562000461565b8280016001018555821562000461579182015b828111156200046157825182559160200191906001019062000444565b506200046f92915062000473565b5090565b5b808211156200046f576000815560010162000474565b634e487b7160e01b600052604160045260246000fd5b600082601f830112620004b257600080fd5b81516001600160401b0380821115620004cf57620004cf6200048a565b604051601f8301601f19908116603f01168101908282118183101715620004fa57620004fa6200048a565b816040528381526020925086838588010111156200051757600080fd5b600091505b838210156200053b57858201830151818301840152908201906200051c565b838211156200054d5760008385830101525b9695505050505050565b6000806000606084860312156200056d57600080fd5b83516001600160401b03808211156200058557600080fd5b6200059387838801620004a0565b94506020860151915080821115620005aa57600080fd5b50620005b986828701620004a0565b925050604084015190509250925092565b60008219821115620005ec57634e487b7160e01b600052601160045260246000fd5b500190565b600181811c908216806200060657607f821691505b602082108114156200062857634e487b7160e01b600052602260045260246000fd5b50919050565b611be2806200063e6000396000f3fe608060405234801561001057600080fd5b50600436106102065760003560e01c806379cc67901161011a578063a6115b69116100ad578063d53913931161007c578063d539139314610452578063d547741f14610467578063dd62ed3e1461047a578063e63ab1e91461048d578063fcce8372146104b457600080fd5b8063a6115b6914610406578063a9059cbb14610419578063c3052ffc1461042c578063ca15c8731461043f57600080fd5b806395d89b41116100e957806395d89b41146103d05780639dc29fac146103d8578063a217fddf146103eb578063a457c2d7146103f357600080fd5b806379cc6790146103775780638456cb591461038a5780639010d07c1461039257806391d14854146103bd57600080fd5b8063313ce5671161019d57806340c10f191161016c57806340c10f191461030a57806342966c681461031d5780635c975abb1461033057806369e2f0fb1461033b57806370a082311461034e57600080fd5b8063313ce567146102cd57806336568abe146102dc57806339509351146102ef5780633f4ba83a1461030257600080fd5b806323b872dd116101d957806323b872dd1461026d578063248a9ca314610280578063282c51f3146102a35780632f2ff15d146102b857600080fd5b806301ffc9a71461020b57806306fdde0314610233578063095ea7b31461024857806318160ddd1461025b575b600080fd5b61021e6102193660046117ac565b6104c7565b60405190151581526020015b60405180910390f35b61023b6104f2565b60405161022a9190611802565b61021e610256366004611851565b610584565b6004545b60405190815260200161022a565b61021e61027b36600461187b565b61059c565b61025f61028e3660046118b7565b60009081526020819052604090206001015490565b61025f600080516020611b6d83398151915281565b6102cb6102c63660046118d0565b6105c0565b005b6040516012815260200161022a565b6102cb6102ea3660046118d0565b6105ea565b61021e6102fd366004611851565b61066d565b6102cb61068f565b6102cb610318366004611851565b610735565b6102cb61032b3660046118b7565b6107c2565b60075460ff1661021e565b6102cb6103493660046118fc565b6107cf565b61025f61035c3660046118fc565b6001600160a01b031660009081526002602052604090205490565b6102cb610385366004611851565b61080e565b6102cb610823565b6103a56103a0366004611917565b6108c7565b6040516001600160a01b03909116815260200161022a565b61021e6103cb3660046118d0565b6108e6565b61023b61090f565b6102cb6103e6366004611851565b61091e565b61025f600081565b61021e610401366004611851565b610992565b6102cb6104143660046118fc565b610a0d565b61021e610427366004611851565b610a4c565b6102cb61043a3660046118fc565b610a5a565b61025f61044d3660046118b7565b610a99565b61025f600080516020611b8d83398151915281565b6102cb6104753660046118d0565b610ab0565b61025f610488366004611939565b610ad5565b61025f7f65d7a28e3265b37a6474929f336521b332c1681b933f6cb9f3376673440d862a81565b6102cb6104c23660046118fc565b610b00565b60006001600160e01b03198216635a05180f60e01b14806104ec57506104ec82610c3e565b92915050565b60606005805461050190611963565b80601f016020809104026020016040519081016040528092919081815260200182805461052d90611963565b801561057a5780601f1061054f5761010080835404028352916020019161057a565b820191906000526020600020905b81548152906001019060200180831161055d57829003601f168201915b5050505050905090565b600033610592818585610c73565b5060019392505050565b6000336105aa858285610d97565b6105b5858585610e11565b506001949350505050565b6000828152602081905260409020600101546105db81610fea565b6105e58383610ff4565b505050565b6001600160a01b038116331461065f5760405162461bcd60e51b815260206004820152602f60248201527f416363657373436f6e74726f6c3a2063616e206f6e6c792072656e6f756e636560448201526e103937b632b9903337b91039b2b63360891b60648201526084015b60405180910390fd5b6106698282611016565b5050565b6000336105928185856106808383610ad5565b61068a91906119b4565b610c73565b6106b97f65d7a28e3265b37a6474929f336521b332c1681b933f6cb9f3376673440d862a336108e6565b61072b5760405162461bcd60e51b815260206004820152603960248201527f45524332305072657365744d696e7465725061757365723a206d75737420686160448201527f76652070617573657220726f6c6520746f20756e7061757365000000000000006064820152608401610656565b610733611038565b565b61074d600080516020611b8d833981519152336108e6565b6107b85760405162461bcd60e51b815260206004820152603660248201527f45524332305072657365744d696e7465725061757365723a206d7573742068616044820152751d99481b5a5b9d195c881c9bdb19481d1bc81b5a5b9d60521b6064820152608401610656565b610669828261108a565b6107cc3382611175565b50565b6107da6000336108e6565b6107f65760405162461bcd60e51b8152600401610656906119cc565b6107cc600080516020611b8d83398151915282611016565b610819823383610d97565b6106698282611175565b61084d7f65d7a28e3265b37a6474929f336521b332c1681b933f6cb9f3376673440d862a336108e6565b6108bf5760405162461bcd60e51b815260206004820152603760248201527f45524332305072657365744d696e7465725061757365723a206d75737420686160448201527f76652070617573657220726f6c6520746f2070617573650000000000000000006064820152608401610656565b6107336112cf565b60008281526001602052604081206108df908361130c565b9392505050565b6000918252602082815260408084206001600160a01b0393909316845291905290205460ff1690565b60606006805461050190611963565b610936600080516020611b6d833981519152336108e6565b6108195760405162461bcd60e51b815260206004820152602760248201527f44414f546f6b656e3a206d7573742068617665206275726e657220726f6c65206044820152663a3790313ab93760c91b6064820152608401610656565b600033816109a08286610ad5565b905083811015610a005760405162461bcd60e51b815260206004820152602560248201527f45524332303a2064656372656173656420616c6c6f77616e63652062656c6f77604482015264207a65726f60d81b6064820152608401610656565b6105b58286868403610c73565b610a186000336108e6565b610a345760405162461bcd60e51b815260040161065690611a1a565b6107cc600080516020611b6d83398151915282611318565b600033610592818585610e11565b610a656000336108e6565b610a815760405162461bcd60e51b815260040161065690611a1a565b6107cc600080516020611b6d83398151915282611016565b60008181526001602052604081206104ec90611322565b600082815260208190526040902060010154610acb81610fea565b6105e58383611016565b6001600160a01b03918216600090815260036020908152604080832093909416825291909152205490565b610b0b6000336108e6565b610b275760405162461bcd60e51b8152600401610656906119cc565b6107cc600080516020611b8d83398151915282611318565b610b4982826108e6565b610669576000828152602081815260408083206001600160a01b03851684529091529020805460ff19166001179055610b7f3390565b6001600160a01b0316816001600160a01b0316837f2f8788117e7eff1d82e926ec794901d17c78024a50270940304540a733656f0d60405160405180910390a45050565b60006108df836001600160a01b03841661132c565b60075460ff16156105e55760405162461bcd60e51b815260206004820152602a60248201527f45524332305061757361626c653a20746f6b656e207472616e736665722077686044820152691a5b19481c185d5cd95960b21b6064820152608401610656565b60006001600160e01b03198216637965db0b60e01b14806104ec57506301ffc9a760e01b6001600160e01b03198316146104ec565b6001600160a01b038316610cd55760405162461bcd60e51b8152602060048201526024808201527f45524332303a20617070726f76652066726f6d20746865207a65726f206164646044820152637265737360e01b6064820152608401610656565b6001600160a01b038216610d365760405162461bcd60e51b815260206004820152602260248201527f45524332303a20617070726f766520746f20746865207a65726f206164647265604482015261737360f01b6064820152608401610656565b6001600160a01b0383811660008181526003602090815260408083209487168084529482529182902085905590518481527f8c5be1e5ebec7d5bd14f71427d1e84f3dd0314c0f7b2291e5b200ac8c7c3b925910160405180910390a3505050565b6000610da38484610ad5565b90506000198114610e0b5781811015610dfe5760405162461bcd60e51b815260206004820152601d60248201527f45524332303a20696e73756666696369656e7420616c6c6f77616e63650000006044820152606401610656565b610e0b8484848403610c73565b50505050565b6001600160a01b038316610e755760405162461bcd60e51b815260206004820152602560248201527f45524332303a207472616e736665722066726f6d20746865207a65726f206164604482015264647265737360d81b6064820152608401610656565b6001600160a01b038216610ed75760405162461bcd60e51b815260206004820152602360248201527f45524332303a207472616e7366657220746f20746865207a65726f206164647260448201526265737360e81b6064820152608401610656565b610ee283838361137b565b6001600160a01b03831660009081526002602052604090205481811015610f5a5760405162461bcd60e51b815260206004820152602660248201527f45524332303a207472616e7366657220616d6f756e7420657863656564732062604482015265616c616e636560d01b6064820152608401610656565b6001600160a01b03808516600090815260026020526040808220858503905591851681529081208054849290610f919084906119b4565b92505081905550826001600160a01b0316846001600160a01b03167fddf252ad1be2c89b69c2b068fc378daa952ba7f163c4a11628f55a4df523b3ef84604051610fdd91815260200190565b60405180910390a3610e0b565b6107cc8133611386565b610ffe8282610b3f565b60008281526001602052604090206105e59082610bc3565b61102082826113ea565b60008281526001602052604090206105e5908261144f565b611040611464565b6007805460ff191690557f5db9ee0a495bf2e6ff9c91a7834c1ba4fdd244a5e8aa4e537bd38aeae4b073aa335b6040516001600160a01b03909116815260200160405180910390a1565b6001600160a01b0382166110e05760405162461bcd60e51b815260206004820152601f60248201527f45524332303a206d696e7420746f20746865207a65726f2061646472657373006044820152606401610656565b6110ec6000838361137b565b80600460008282546110fe91906119b4565b90915550506001600160a01b0382166000908152600260205260408120805483929061112b9084906119b4565b90915550506040518181526001600160a01b038316906000907fddf252ad1be2c89b69c2b068fc378daa952ba7f163c4a11628f55a4df523b3ef9060200160405180910390a35050565b6001600160a01b0382166111d55760405162461bcd60e51b815260206004820152602160248201527f45524332303a206275726e2066726f6d20746865207a65726f206164647265736044820152607360f81b6064820152608401610656565b6111e18260008361137b565b6001600160a01b038216600090815260026020526040902054818110156112555760405162461bcd60e51b815260206004820152602260248201527f45524332303a206275726e20616d6f756e7420657863656564732062616c616e604482015261636560f01b6064820152608401610656565b6001600160a01b0383166000908152600260205260408120838303905560048054849290611284908490611a68565b90915550506040518281526000906001600160a01b038516907fddf252ad1be2c89b69c2b068fc378daa952ba7f163c4a11628f55a4df523b3ef9060200160405180910390a3505050565b6112d76114ad565b6007805460ff191660011790557f62e78cea01bee320cd4e420270b5ea74000d11b0c9f74754ebdbfc544b05a25861106d3390565b60006108df83836114f3565b6106698282610ff4565b60006104ec825490565b6000818152600183016020526040812054611373575081546001818101845560008481526020808220909301849055845484825282860190935260409020919091556104ec565b5060006104ec565b6105e5838383610bd8565b61139082826108e6565b610669576113a8816001600160a01b0316601461151d565b6113b383602061151d565b6040516020016113c4929190611a7f565b60408051601f198184030181529082905262461bcd60e51b825261065691600401611802565b6113f482826108e6565b15610669576000828152602081815260408083206001600160a01b0385168085529252808320805460ff1916905551339285917ff6391f5c32d9c69d2a47ea670b442974b53935d1edc7fd64eb21e047a839171b9190a45050565b60006108df836001600160a01b0384166116b9565b60075460ff166107335760405162461bcd60e51b815260206004820152601460248201527314185d5cd8589b194e881b9bdd081c185d5cd95960621b6044820152606401610656565b60075460ff16156107335760405162461bcd60e51b815260206004820152601060248201526f14185d5cd8589b194e881c185d5cd95960821b6044820152606401610656565b600082600001828154811061150a5761150a611af4565b9060005260206000200154905092915050565b6060600061152c836002611b0a565b6115379060026119b4565b67ffffffffffffffff81111561154f5761154f611b29565b6040519080825280601f01601f191660200182016040528015611579576020820181803683370190505b509050600360fc1b8160008151811061159457611594611af4565b60200101906001600160f81b031916908160001a905350600f60fb1b816001815181106115c3576115c3611af4565b60200101906001600160f81b031916908160001a90535060006115e7846002611b0a565b6115f29060016119b4565b90505b600181111561166a576f181899199a1a9b1b9c1cb0b131b232b360811b85600f166010811061162657611626611af4565b1a60f81b82828151811061163c5761163c611af4565b60200101906001600160f81b031916908160001a90535060049490941c9361166381611b3f565b90506115f5565b5083156108df5760405162461bcd60e51b815260206004820181905260248201527f537472696e67733a20686578206c656e67746820696e73756666696369656e746044820152606401610656565b600081815260018301602052604081205480156117a25760006116dd600183611a68565b85549091506000906116f190600190611a68565b905081811461175657600086600001828154811061171157611711611af4565b906000526020600020015490508087600001848154811061173457611734611af4565b6000918252602080832090910192909255918252600188019052604090208390555b855486908061176757611767611b56565b6001900381819060005260206000200160009055905585600101600086815260200190815260200160002060009055600193505050506104ec565b60009150506104ec565b6000602082840312156117be57600080fd5b81356001600160e01b0319811681146108df57600080fd5b60005b838110156117f15781810151838201526020016117d9565b83811115610e0b5750506000910152565b60208152600082518060208401526118218160408501602087016117d6565b601f01601f19169190910160400192915050565b80356001600160a01b038116811461184c57600080fd5b919050565b6000806040838503121561186457600080fd5b61186d83611835565b946020939093013593505050565b60008060006060848603121561189057600080fd5b61189984611835565b92506118a760208501611835565b9150604084013590509250925092565b6000602082840312156118c957600080fd5b5035919050565b600080604083850312156118e357600080fd5b823591506118f360208401611835565b90509250929050565b60006020828403121561190e57600080fd5b6108df82611835565b6000806040838503121561192a57600080fd5b50508035926020909101359150565b6000806040838503121561194c57600080fd5b61195583611835565b91506118f360208401611835565b600181811c9082168061197757607f821691505b6020821081141561199857634e487b7160e01b600052602260045260246000fd5b50919050565b634e487b7160e01b600052601160045260246000fd5b600082198211156119c7576119c761199e565b500190565b6020808252602e908201527f44414f546f6b656e3a206d75737420686176652061646d696e20726f6c65207460408201526d379039b2ba3ab81036b4b73a32b960911b606082015260800190565b6020808252602e908201527f44414f546f6b656e3a206d75737420686176652061646d696e20726f6c65207460408201526d379039b2ba3ab810313ab93732b960911b606082015260800190565b600082821015611a7a57611a7a61199e565b500390565b7f416363657373436f6e74726f6c3a206163636f756e7420000000000000000000815260008351611ab78160178501602088016117d6565b7001034b99036b4b9b9b4b733903937b6329607d1b6017918401918201528351611ae88160288401602088016117d6565b01602801949350505050565b634e487b7160e01b600052603260045260246000fd5b6000816000190483118215151615611b2457611b2461199e565b500290565b634e487b7160e01b600052604160045260246000fd5b600081611b4e57611b4e61199e565b506000190190565b634e487b7160e01b600052603160045260246000fdfe3c11d16cbaffd01df69ce1c404f6340ee057498f5f00246190ea54220576a8489f2df0fed2c77648de5860a4cc508cd0818c85b8b8a1ab4ceeef8d981c8956a6a26469706673582212209d3b3f2dd2555d6daaad61fe372bec030b01d51480641faea36bc9d483691b8764736f6c63430008090033",
  "linkReferences": {},
  "deployedLinkReferences": {}
}