{
  "_format": "hh-sol-artifact-1",
  "contractName": "HistoryNFT",
  "sourceName": "contracts/HistoryNFT.sol",
  "abi": [
    {
      "inputs": [
        {
          "internalType": "string",
          "name": "_tokenName",
          "type": "string"
        },
        {
          "internalType": "string",
          "name": "_tokenSymbol",
          "type": "string"
        }
      ],
      "stateMutability": "nonpayable",
      "type": "constructor"
    },
    {
      "anonymous": false,
      "inputs": [
        {
          "indexed": true,
          "internalType": "address",
          "name": "owner",
          "type": "address"
        },
        {
          "indexed": true,
          "internalType": "address",
          "name": "approved",
          "type": "address"
        },
        {
          "indexed": true,
          "internalType": "uint256",
          "name": "tokenId",
          "type": "uint256"
        }
      ],
      "name": "Approval",
      "type": "event"
    },
    {
      "anonymous": false,
      "inputs": [
        {
          "indexed": true,
          "internalType": "address",
          "name": "owner",
          "type": "address"
        },
        {
          "indexed": true,
          "internalType": "address",
          "name": "operator",
          "type": "address"
        },
        {
          "indexed": false,
          "internalType": "bool",
          "name": "approved",
          "type": "bool"
        }
      ],
      "name": "ApprovalForAll",
      "type": "event"
    },
    {
      "anonymous": false,
      "inputs": [
        {
          "indexed": false,
          "internalType": "address",
          "name": "account",
          "type": "address"
        }
      ],
      "name": "Paused",
      "type": "event"
    },
    {
      "anonymous": false,
      "inputs": [
        {
          "indexed": true,
          "internalType": "bytes32",
          "name": "role",
          "type": "bytes32"
        },
        {
          "indexed": true,
          "internalType": "bytes32",
          "name": "previousAdminRole",
          "type": "bytes32"
        },
        {
          "indexed": true,
          "internalType": "bytes32",
          "name": "newAdminRole",
          "type": "bytes32"
        }
      ],
      "name": "RoleAdminChanged",
      "type": "event"
    },
    {
      "anonymous": false,
      "inputs": [
        {
          "indexed": true,
          "internalType": "bytes32",
          "name": "role",
          "type": "bytes32"
        },
        {
          "indexed": true,
          "internalType": "address",
          "name": "account",
          "type": "address"
        },
        {
          "indexed": true,
          "internalType": "address",
          "name": "sender",
          "type": "address"
        }
      ],
      "name": "RoleGranted",
      "type": "event"
    },
    {
      "anonymous": false,
      "inputs": [
        {
          "indexed": true,
          "internalType": "bytes32",
          "name": "role",
          "type": "bytes32"
        },
        {
          "indexed": true,
          "internalType": "address",
          "name": "account",
          "type": "address"
        },
        {
          "indexed": true,
          "internalType": "address",
          "name": "sender",
          "type": "address"
        }
      ],
      "name": "RoleRevoked",
      "type": "event"
    },
    {
      "anonymous": false,
      "inputs": [
        {
          "indexed": true,
          "internalType": "address",
          "name": "from",
          "type": "address"
        },
        {
          "indexed": true,
          "internalType": "address",
          "name": "to",
          "type": "address"
        },
        {
          "indexed": true,
          "internalType": "uint256",
          "name": "tokenId",
          "type": "uint256"
        }
      ],
      "name": "Transfer",
      "type": "event"
    },
    {
      "anonymous": false,
      "inputs": [
        {
          "indexed": false,
          "internalType": "address",
          "name": "account",
          "type": "address"
        }
      ],
      "name": "Unpaused",
      "type": "event"
    },
    {
      "inputs": [],
      "name": "DEFAULT_ADMIN_ROLE",
      "outputs": [
        {
          "internalType": "bytes32",
          "name": "",
          "type": "bytes32"
        }
      ],
      "stateMutability": "view",
      "type": "function"
    },
    {
      "inputs": [],
      "name": "MINTER_ROLE",
      "outputs": [
        {
          "internalType": "bytes32",
          "name": "",
          "type": "bytes32"
        }
      ],
      "stateMutability": "view",
      "type": "function"
    },
    {
      "inputs": [
        {
          "internalType": "address",
          "name": "to",
          "type": "address"
        },
        {
          "internalType": "uint256",
          "name": "tokenId",
          "type": "uint256"
        }
      ],
      "name": "approve",
      "outputs": [],
      "stateMutability": "nonpayable",
      "type": "function"
    },
    {
      "inputs": [
        {
          "internalType": "address",
          "name": "owner",
          "type": "address"
        }
      ],
      "name": "balanceOf",
      "outputs": [
        {
          "internalType": "uint256",
          "name": "",
          "type": "uint256"
        }
      ],
      "stateMutability": "view",
      "type": "function"
    },
    {
      "inputs": [
        {
          "internalType": "uint256",
          "name": "tokenId",
          "type": "uint256"
        }
      ],
      "name": "getApproved",
      "outputs": [
        {
          "internalType": "address",
          "name": "",
          "type": "address"
        }
      ],
      "stateMutability": "view",
      "type": "function"
    },
    {
      "inputs": [],
      "name": "getLatestTokenId",
      "outputs": [
        {
          "internalType": "uint256",
          "name": "",
          "type": "uint256"
        }
      ],
      "stateMutability": "view",
      "type": "function"
    },
    {
      "inputs": [
        {
          "internalType": "bytes32",
          "name": "role",
          "type": "bytes32"
        }
      ],
      "name": "getRoleAdmin",
      "outputs": [
        {
          "internalType": "bytes32",
          "name": "",
          "type": "bytes32"
        }
      ],
      "stateMutability": "view",
      "type": "function"
    },
    {
      "inputs": [
        {
          "internalType": "bytes32",
          "name": "role",
          "type": "bytes32"
        },
        {
          "internalType": "address",
          "name": "account",
          "type": "address"
        }
      ],
      "name": "grantRole",
      "outputs": [],
      "stateMutability": "nonpayable",
      "type": "function"
    },
    {
      "inputs": [
        {
          "internalType": "bytes32",
          "name": "role",
          "type": "bytes32"
        },
        {
          "internalType": "address",
          "name": "account",
          "type": "address"
        }
      ],
      "name": "hasRole",
      "outputs": [
        {
          "internalType": "bool",
          "name": "",
          "type": "bool"
        }
      ],
      "stateMutability": "view",
      "type": "function"
    },
    {
      "inputs": [
        {
          "internalType": "address",
          "name": "owner",
          "type": "address"
        },
        {
          "internalType": "address",
          "name": "operator",
          "type": "address"
        }
      ],
      "name": "isApprovedForAll",
      "outputs": [
        {
          "internalType": "bool",
          "name": "",
          "type": "bool"
        }
      ],
      "stateMutability": "view",
      "type": "function"
    },
    {
      "inputs": [],
      "name": "name",
      "outputs": [
        {
          "internalType": "string",
          "name": "",
          "type": "string"
        }
      ],
      "stateMutability": "view",
      "type": "function"
    },
    {
      "inputs": [
        {
          "internalType": "uint256",
          "name": "tokenId",
          "type": "uint256"
        }
      ],
      "name": "ownerOf",
      "outputs": [
        {
          "internalType": "address",
          "name": "",
          "type": "address"
        }
      ],
      "stateMutability": "view",
      "type": "function"
    },
    {
      "inputs": [],
      "name": "pause",
      "outputs": [],
      "stateMutability": "nonpayable",
      "type": "function"
    },
    {
      "inputs": [],
      "name": "paused",
      "outputs": [
        {
          "internalType": "bool",
          "name": "",
          "type": "bool"
        }
      ],
      "stateMutability": "view",
      "type": "function"
    },
    {
      "inputs": [
        {
          "internalType": "bytes32",
          "name": "role",
          "type": "bytes32"
        },
        {
          "internalType": "address",
          "name": "account",
          "type": "address"
        }
      ],
      "name": "renounceRole",
      "outputs": [],
      "stateMutability": "nonpayable",
      "type": "function"
    },
    {
      "inputs": [
        {
          "internalType": "bytes32",
          "name": "role",
          "type": "bytes32"
        },
        {
          "internalType": "address",
          "name": "account",
          "type": "address"
        }
      ],
      "name": "revokeRole",
      "outputs": [],
      "stateMutability": "nonpayable",
      "type": "function"
    },
    {
      "inputs": [
        {
          "internalType": "address",
          "name": "to",
          "type": "address"
        }
      ],
      "name": "safeMint",
      "outputs": [],
      "stateMutability": "nonpayable",
      "type": "function"
    },
    {
      "inputs": [
        {
          "internalType": "address",
          "name": "from",
          "type": "address"
        },
        {
          "internalType": "address",
          "name": "to",
          "type": "address"
        },
        {
          "internalType": "uint256",
          "name": "tokenId",
          "type": "uint256"
        }
      ],
      "name": "safeTransferFrom",
      "outputs": [],
      "stateMutability": "nonpayable",
      "type": "function"
    },
    {
      "inputs": [
        {
          "internalType": "address",
          "name": "from",
          "type": "address"
        },
        {
          "internalType": "address",
          "name": "to",
          "type": "address"
        },
        {
          "internalType": "uint256",
          "name": "tokenId",
          "type": "uint256"
        },
        {
          "internalType": "bytes",
          "name": "data",
          "type": "bytes"
        }
      ],
      "name": "safeTransferFrom",
      "outputs": [],
      "stateMutability": "nonpayable",
      "type": "function"
    },
    {
      "inputs": [
        {
          "internalType": "address",
          "name": "operator",
          "type": "address"
        },
        {
          "internalType": "bool",
          "name": "approved",
          "type": "bool"
        }
      ],
      "name": "setApprovalForAll",
      "outputs": [],
      "stateMutability": "nonpayable",
      "type": "function"
    },
    {
      "inputs": [
        {
          "internalType": "string",
          "name": "_newBaseTokenURI",
          "type": "string"
        }
      ],
      "name": "setBaseURI",
      "outputs": [],
      "stateMutability": "nonpayable",
      "type": "function"
    },
    {
      "inputs": [
        {
          "internalType": "address",
          "name": "_minter",
          "type": "address"
        }
      ],
      "name": "setupMinterRole",
      "outputs": [],
      "stateMutability": "nonpayable",
      "type": "function"
    },
    {
      "inputs": [
        {
          "internalType": "bytes4",
          "name": "interfaceId",
          "type": "bytes4"
        }
      ],
      "name": "supportsInterface",
      "outputs": [
        {
          "internalType": "bool",
          "name": "",
          "type": "bool"
        }
      ],
      "stateMutability": "view",
      "type": "function"
    },
    {
      "inputs": [],
      "name": "symbol",
      "outputs": [
        {
          "internalType": "string",
          "name": "",
          "type": "string"
        }
      ],
      "stateMutability": "view",
      "type": "function"
    },
    {
      "inputs": [
        {
          "internalType": "uint256",
          "name": "index",
          "type": "uint256"
        }
      ],
      "name": "tokenByIndex",
      "outputs": [
        {
          "internalType": "uint256",
          "name": "",
          "type": "uint256"
        }
      ],
      "stateMutability": "view",
      "type": "function"
    },
    {
      "inputs": [
        {
          "internalType": "address",
          "name": "owner",
          "type": "address"
        },
        {
          "internalType": "uint256",
          "name": "index",
          "type": "uint256"
        }
      ],
      "name": "tokenOfOwnerByIndex",
      "outputs": [
        {
          "internalType": "uint256",
          "name": "",
          "type": "uint256"
        }
      ],
      "stateMutability": "view",
      "type": "function"
    },
    {
      "inputs": [
        {
          "internalType": "uint256",
          "name": "tokenId",
          "type": "uint256"
        }
      ],
      "name": "tokenURI",
      "outputs": [
        {
          "internalType": "string",
          "name": "",
          "type": "string"
        }
      ],
      "stateMutability": "view",
      "type": "function"
    },
    {
      "inputs": [],
      "name": "totalSupply",
      "outputs": [
        {
          "internalType": "uint256",
          "name": "",
          "type": "uint256"
        }
      ],
      "stateMutability": "view",
      "type": "function"
    },
    {
      "inputs": [
        {
          "internalType": "address",
          "name": "from",
          "type": "address"
        },
        {
          "internalType": "address",
          "name": "to",
          "type": "address"
        },
        {
          "internalType": "uint256",
          "name": "tokenId",
          "type": "uint256"
        }
      ],
      "name": "transferFrom",
      "outputs": [],
      "stateMutability": "nonpayable",
      "type": "function"
    },
    {
      "inputs": [],
      "name": "unpause",
      "outputs": [],
      "stateMutability": "nonpayable",
      "type": "function"
    }
  ],
  "bytecode": "0x60806040523480156200001157600080fd5b50604051620047e2380380620047e2833981810160405281019062000037919062000489565b81818160009080519060200190620000519291906200023c565b5080600190805190602001906200006a9291906200023c565b5050506000600a60006101000a81548160ff021916908315150217905550620000ba7f9f2df0fed2c77648de5860a4cc508cd0818c85b8b8a1ab4ceeef8d981c8956a633620000d760201b60201c565b620000cf6000801b33620000d760201b60201c565b505062000573565b620000e98282620001c960201b60201c565b620001c5576001600b600084815260200190815260200160002060000160008373ffffffffffffffffffffffffffffffffffffffff1673ffffffffffffffffffffffffffffffffffffffff16815260200190815260200160002060006101000a81548160ff0219169083151502179055506200016a6200023460201b60201c565b73ffffffffffffffffffffffffffffffffffffffff168173ffffffffffffffffffffffffffffffffffffffff16837f2f8788117e7eff1d82e926ec794901d17c78024a50270940304540a733656f0d60405160405180910390a45b5050565b6000600b600084815260200190815260200160002060000160008373ffffffffffffffffffffffffffffffffffffffff1673ffffffffffffffffffffffffffffffffffffffff16815260200190815260200160002060009054906101000a900460ff16905092915050565b600033905090565b8280546200024a906200053d565b90600052602060002090601f0160209004810192826200026e5760008555620002ba565b82601f106200028957805160ff1916838001178555620002ba565b82800160010185558215620002ba579182015b82811115620002b95782518255916020019190600101906200029c565b5b509050620002c99190620002cd565b5090565b5b80821115620002e8576000816000905550600101620002ce565b5090565b6000604051905090565b600080fd5b600080fd5b600080fd5b600080fd5b6000601f19601f8301169050919050565b7f4e487b7100000000000000000000000000000000000000000000000000000000600052604160045260246000fd5b62000355826200030a565b810181811067ffffffffffffffff821117156200037757620003766200031b565b5b80604052505050565b60006200038c620002ec565b90506200039a82826200034a565b919050565b600067ffffffffffffffff821115620003bd57620003bc6200031b565b5b620003c8826200030a565b9050602081019050919050565b60005b83811015620003f5578082015181840152602081019050620003d8565b8381111562000405576000848401525b50505050565b6000620004226200041c846200039f565b62000380565b90508281526020810184848401111562000441576200044062000305565b5b6200044e848285620003d5565b509392505050565b600082601f8301126200046e576200046d62000300565b5b8151620004808482602086016200040b565b91505092915050565b60008060408385031215620004a357620004a2620002f6565b5b600083015167ffffffffffffffff811115620004c457620004c3620002fb565b5b620004d28582860162000456565b925050602083015167ffffffffffffffff811115620004f657620004f5620002fb565b5b620005048582860162000456565b9150509250929050565b7f4e487b7100000000000000000000000000000000000000000000000000000000600052602260045260246000fd5b600060028204905060018216806200055657607f821691505b602082108114156200056d576200056c6200050e565b5b50919050565b61425f80620005836000396000f3fe608060405234801561001057600080fd5b50600436106101da5760003560e01c806355f804b311610104578063a217fddf116100a2578063d539139311610071578063d539139314610553578063d547741f14610571578063e985e9c51461058d578063fcce8372146105bd576101da565b8063a217fddf146104cd578063a22cb465146104eb578063b88d4fde14610507578063c87b56dd14610523576101da565b806370a08231116100de57806370a08231146104455780638456cb591461047557806391d148541461047f57806395d89b41146104af576101da565b806355f804b3146103db5780635c975abb146103f75780636352211e14610415576101da565b806325d112a91161017c5780633f4ba83a1161014b5780633f4ba83a1461036957806340d097c31461037357806342842e0e1461038f5780634f6ccce7146103ab576101da565b806325d112a9146102e35780632f2ff15d146103015780632f745c591461031d57806336568abe1461034d576101da565b8063095ea7b3116101b8578063095ea7b31461025d57806318160ddd1461027957806323b872dd14610297578063248a9ca3146102b3576101da565b806301ffc9a7146101df57806306fdde031461020f578063081812fc1461022d575b600080fd5b6101f960048036038101906101f49190612aae565b6105d9565b6040516102069190612af6565b60405180910390f35b6102176105eb565b6040516102249190612baa565b60405180910390f35b61024760048036038101906102429190612c02565b61067d565b6040516102549190612c70565b60405180910390f35b61027760048036038101906102729190612cb7565b6106c3565b005b6102816107db565b60405161028e9190612d06565b60405180910390f35b6102b160048036038101906102ac9190612d21565b6107e8565b005b6102cd60048036038101906102c89190612daa565b610848565b6040516102da9190612de6565b60405180910390f35b6102eb610868565b6040516102f89190612d06565b60405180910390f35b61031b60048036038101906103169190612e01565b610879565b005b61033760048036038101906103329190612cb7565b61089a565b6040516103449190612d06565b60405180910390f35b61036760048036038101906103629190612e01565b61093f565b005b6103716109c2565b005b61038d60048036038101906103889190612e41565b610a18565b005b6103a960048036038101906103a49190612d21565b610aa7565b005b6103c560048036038101906103c09190612c02565b610ac7565b6040516103d29190612d06565b60405180910390f35b6103f560048036038101906103f09190612fa3565b610b38565b005b6103ff610b9e565b60405161040c9190612af6565b60405180910390f35b61042f600480360381019061042a9190612c02565b610bb5565b60405161043c9190612c70565b60405180910390f35b61045f600480360381019061045a9190612e41565b610c67565b60405161046c9190612d06565b60405180910390f35b61047d610d1f565b005b61049960048036038101906104949190612e01565b610d75565b6040516104a69190612af6565b60405180910390f35b6104b7610de0565b6040516104c49190612baa565b60405180910390f35b6104d5610e72565b6040516104e29190612de6565b60405180910390f35b61050560048036038101906105009190613018565b610e79565b005b610521600480360381019061051c91906130f9565b610e8f565b005b61053d60048036038101906105389190612c02565b610ef1565b60405161054a9190612baa565b60405180910390f35b61055b610f59565b6040516105689190612de6565b60405180910390f35b61058b60048036038101906105869190612e01565b610f7d565b005b6105a760048036038101906105a2919061317c565b610f9e565b6040516105b49190612af6565b60405180910390f35b6105d760048036038101906105d29190612e41565b611032565b005b60006105e4826110ab565b9050919050565b6060600080546105fa906131eb565b80601f0160208091040260200160405190810160405280929190818152602001828054610626906131eb565b80156106735780601f1061064857610100808354040283529160200191610673565b820191906000526020600020905b81548152906001019060200180831161065657829003601f168201915b5050505050905090565b600061068882611125565b6004600083815260200190815260200160002060009054906101000a900473ffffffffffffffffffffffffffffffffffffffff169050919050565b60006106ce82610bb5565b90508073ffffffffffffffffffffffffffffffffffffffff168373ffffffffffffffffffffffffffffffffffffffff16141561073f576040517f08c379a00000000000000000000000000000000000000000000000000000000081526004016107369061328f565b60405180910390fd5b8073ffffffffffffffffffffffffffffffffffffffff1661075e611170565b73ffffffffffffffffffffffffffffffffffffffff16148061078d575061078c81610787611170565b610f9e565b5b6107cc576040517f08c379a00000000000000000000000000000000000000000000000000000000081526004016107c390613321565b60405180910390fd5b6107d68383611178565b505050565b6000600880549050905090565b6107f96107f3611170565b82611231565b610838576040517f08c379a000000000000000000000000000000000000000000000000000000000815260040161082f906133b3565b60405180910390fd5b6108438383836112c6565b505050565b6000600b6000838152602001908152602001600020600101549050919050565b6000610874600c61152d565b905090565b61088282610848565b61088b8161153b565b610895838361154f565b505050565b60006108a583610c67565b82106108e6576040517f08c379a00000000000000000000000000000000000000000000000000000000081526004016108dd90613445565b60405180910390fd5b600660008473ffffffffffffffffffffffffffffffffffffffff1673ffffffffffffffffffffffffffffffffffffffff168152602001908152602001600020600083815260200190815260200160002054905092915050565b610947611170565b73ffffffffffffffffffffffffffffffffffffffff168173ffffffffffffffffffffffffffffffffffffffff16146109b4576040517f08c379a00000000000000000000000000000000000000000000000000000000081526004016109ab906134d7565b60405180910390fd5b6109be8282611630565b5050565b6109cf6000801b33610d75565b610a0e576040517f08c379a0000000000000000000000000000000000000000000000000000000008152600401610a0590613569565b60405180910390fd5b610a16611712565b565b610a427f9f2df0fed2c77648de5860a4cc508cd0818c85b8b8a1ab4ceeef8d981c8956a633610d75565b610a81576040517f08c379a0000000000000000000000000000000000000000000000000000000008152600401610a78906135fb565b60405180910390fd5b6000610a8d600c61152d565b9050610a99600c611775565b610aa3828261178b565b5050565b610ac283838360405180602001604052806000815250610e8f565b505050565b6000610ad16107db565b8210610b12576040517f08c379a0000000000000000000000000000000000000000000000000000000008152600401610b099061368d565b60405180910390fd5b60088281548110610b2657610b256136ad565b5b90600052602060002001549050919050565b610b456000801b33610d75565b610b84576040517f08c379a0000000000000000000000000000000000000000000000000000000008152600401610b7b9061374e565b60405180910390fd5b80600d9080519060200190610b9a92919061299f565b5050565b6000600a60009054906101000a900460ff16905090565b6000806002600084815260200190815260200160002060009054906101000a900473ffffffffffffffffffffffffffffffffffffffff169050600073ffffffffffffffffffffffffffffffffffffffff168173ffffffffffffffffffffffffffffffffffffffff161415610c5e576040517f08c379a0000000000000000000000000000000000000000000000000000000008152600401610c55906137ba565b60405180910390fd5b80915050919050565b60008073ffffffffffffffffffffffffffffffffffffffff168273ffffffffffffffffffffffffffffffffffffffff161415610cd8576040517f08c379a0000000000000000000000000000000000000000000000000000000008152600401610ccf9061384c565b60405180910390fd5b600360008373ffffffffffffffffffffffffffffffffffffffff1673ffffffffffffffffffffffffffffffffffffffff168152602001908152602001600020549050919050565b610d2c6000801b33610d75565b610d6b576040517f08c379a0000000000000000000000000000000000000000000000000000000008152600401610d62906138de565b60405180910390fd5b610d736117a9565b565b6000600b600084815260200190815260200160002060000160008373ffffffffffffffffffffffffffffffffffffffff1673ffffffffffffffffffffffffffffffffffffffff16815260200190815260200160002060009054906101000a900460ff16905092915050565b606060018054610def906131eb565b80601f0160208091040260200160405190810160405280929190818152602001828054610e1b906131eb565b8015610e685780601f10610e3d57610100808354040283529160200191610e68565b820191906000526020600020905b815481529060010190602001808311610e4b57829003601f168201915b5050505050905090565b6000801b81565b610e8b610e84611170565b838361180c565b5050565b610ea0610e9a611170565b83611231565b610edf576040517f08c379a0000000000000000000000000000000000000000000000000000000008152600401610ed6906133b3565b60405180910390fd5b610eeb84848484611979565b50505050565b6060610efc82611125565b6000610f066119d5565b90506000815111610f265760405180602001604052806000815250610f51565b80610f3084611a67565b604051602001610f4192919061393a565b6040516020818303038152906040525b915050919050565b7f9f2df0fed2c77648de5860a4cc508cd0818c85b8b8a1ab4ceeef8d981c8956a681565b610f8682610848565b610f8f8161153b565b610f998383611630565b505050565b6000600560008473ffffffffffffffffffffffffffffffffffffffff1673ffffffffffffffffffffffffffffffffffffffff16815260200190815260200160002060008373ffffffffffffffffffffffffffffffffffffffff1673ffffffffffffffffffffffffffffffffffffffff16815260200190815260200160002060009054906101000a900460ff16905092915050565b61103f6000801b33610d75565b61107e576040517f08c379a0000000000000000000000000000000000000000000000000000000008152600401611075906139d0565b60405180910390fd5b6110a87f9f2df0fed2c77648de5860a4cc508cd0818c85b8b8a1ab4ceeef8d981c8956a682611bc8565b50565b60007f7965db0b000000000000000000000000000000000000000000000000000000007bffffffffffffffffffffffffffffffffffffffffffffffffffffffff1916827bffffffffffffffffffffffffffffffffffffffffffffffffffffffff1916148061111e575061111d82611bd6565b5b9050919050565b61112e81611c50565b61116d576040517f08c379a0000000000000000000000000000000000000000000000000000000008152600401611164906137ba565b60405180910390fd5b50565b600033905090565b816004600083815260200190815260200160002060006101000a81548173ffffffffffffffffffffffffffffffffffffffff021916908373ffffffffffffffffffffffffffffffffffffffff160217905550808273ffffffffffffffffffffffffffffffffffffffff166111eb83610bb5565b73ffffffffffffffffffffffffffffffffffffffff167f8c5be1e5ebec7d5bd14f71427d1e84f3dd0314c0f7b2291e5b200ac8c7c3b92560405160405180910390a45050565b60008061123d83610bb5565b90508073ffffffffffffffffffffffffffffffffffffffff168473ffffffffffffffffffffffffffffffffffffffff16148061127f575061127e8185610f9e565b5b806112bd57508373ffffffffffffffffffffffffffffffffffffffff166112a58461067d565b73ffffffffffffffffffffffffffffffffffffffff16145b91505092915050565b8273ffffffffffffffffffffffffffffffffffffffff166112e682610bb5565b73ffffffffffffffffffffffffffffffffffffffff161461133c576040517f08c379a000000000000000000000000000000000000000000000000000000000815260040161133390613a62565b60405180910390fd5b600073ffffffffffffffffffffffffffffffffffffffff168273ffffffffffffffffffffffffffffffffffffffff1614156113ac576040517f08c379a00000000000000000000000000000000000000000000000000000000081526004016113a390613af4565b60405180910390fd5b6113b7838383611cbc565b6113c2600082611178565b6001600360008573ffffffffffffffffffffffffffffffffffffffff1673ffffffffffffffffffffffffffffffffffffffff16815260200190815260200160002060008282546114129190613b43565b925050819055506001600360008473ffffffffffffffffffffffffffffffffffffffff1673ffffffffffffffffffffffffffffffffffffffff16815260200190815260200160002060008282546114699190613b77565b92505081905550816002600083815260200190815260200160002060006101000a81548173ffffffffffffffffffffffffffffffffffffffff021916908373ffffffffffffffffffffffffffffffffffffffff160217905550808273ffffffffffffffffffffffffffffffffffffffff168473ffffffffffffffffffffffffffffffffffffffff167fddf252ad1be2c89b69c2b068fc378daa952ba7f163c4a11628f55a4df523b3ef60405160405180910390a4611528838383611cd4565b505050565b600081600001549050919050565b61154c81611547611170565b611cd9565b50565b6115598282610d75565b61162c576001600b600084815260200190815260200160002060000160008373ffffffffffffffffffffffffffffffffffffffff1673ffffffffffffffffffffffffffffffffffffffff16815260200190815260200160002060006101000a81548160ff0219169083151502179055506115d1611170565b73ffffffffffffffffffffffffffffffffffffffff168173ffffffffffffffffffffffffffffffffffffffff16837f2f8788117e7eff1d82e926ec794901d17c78024a50270940304540a733656f0d60405160405180910390a45b5050565b61163a8282610d75565b1561170e576000600b600084815260200190815260200160002060000160008373ffffffffffffffffffffffffffffffffffffffff1673ffffffffffffffffffffffffffffffffffffffff16815260200190815260200160002060006101000a81548160ff0219169083151502179055506116b3611170565b73ffffffffffffffffffffffffffffffffffffffff168173ffffffffffffffffffffffffffffffffffffffff16837ff6391f5c32d9c69d2a47ea670b442974b53935d1edc7fd64eb21e047a839171b60405160405180910390a45b5050565b61171a611d76565b6000600a60006101000a81548160ff0219169083151502179055507f5db9ee0a495bf2e6ff9c91a7834c1ba4fdd244a5e8aa4e537bd38aeae4b073aa61175e611170565b60405161176b9190612c70565b60405180910390a1565b6001816000016000828254019250508190555050565b6117a5828260405180602001604052806000815250611dbf565b5050565b6117b1611e1a565b6001600a60006101000a81548160ff0219169083151502179055507f62e78cea01bee320cd4e420270b5ea74000d11b0c9f74754ebdbfc544b05a2586117f5611170565b6040516118029190612c70565b60405180910390a1565b8173ffffffffffffffffffffffffffffffffffffffff168373ffffffffffffffffffffffffffffffffffffffff16141561187b576040517f08c379a000000000000000000000000000000000000000000000000000000000815260040161187290613c19565b60405180910390fd5b80600560008573ffffffffffffffffffffffffffffffffffffffff1673ffffffffffffffffffffffffffffffffffffffff16815260200190815260200160002060008473ffffffffffffffffffffffffffffffffffffffff1673ffffffffffffffffffffffffffffffffffffffff16815260200190815260200160002060006101000a81548160ff0219169083151502179055508173ffffffffffffffffffffffffffffffffffffffff168373ffffffffffffffffffffffffffffffffffffffff167f17307eab39ab6107e8899845ad3d59bd9653f200f220920489ca2b5937696c318360405161196c9190612af6565b60405180910390a3505050565b6119848484846112c6565b61199084848484611e64565b6119cf576040517f08c379a00000000000000000000000000000000000000000000000000000000081526004016119c690613cab565b60405180910390fd5b50505050565b6060600d80546119e4906131eb565b80601f0160208091040260200160405190810160405280929190818152602001828054611a10906131eb565b8015611a5d5780601f10611a3257610100808354040283529160200191611a5d565b820191906000526020600020905b815481529060010190602001808311611a4057829003601f168201915b5050505050905090565b60606000821415611aaf576040518060400160405280600181526020017f30000000000000000000000000000000000000000000000000000000000000008152509050611bc3565b600082905060005b60008214611ae1578080611aca90613ccb565b915050600a82611ada9190613d43565b9150611ab7565b60008167ffffffffffffffff811115611afd57611afc612e78565b5b6040519080825280601f01601f191660200182016040528015611b2f5781602001600182028036833780820191505090505b5090505b60008514611bbc57600182611b489190613b43565b9150600a85611b579190613d74565b6030611b639190613b77565b60f81b818381518110611b7957611b786136ad565b5b60200101907effffffffffffffffffffffffffffffffffffffffffffffffffffffffffffff1916908160001a905350600a85611bb59190613d43565b9450611b33565b8093505050505b919050565b611bd2828261154f565b5050565b60007f780e9d63000000000000000000000000000000000000000000000000000000007bffffffffffffffffffffffffffffffffffffffffffffffffffffffff1916827bffffffffffffffffffffffffffffffffffffffffffffffffffffffff19161480611c495750611c4882611ffb565b5b9050919050565b60008073ffffffffffffffffffffffffffffffffffffffff166002600084815260200190815260200160002060009054906101000a900473ffffffffffffffffffffffffffffffffffffffff1673ffffffffffffffffffffffffffffffffffffffff1614159050919050565b611cc4611e1a565b611ccf8383836120dd565b505050565b505050565b611ce38282610d75565b611d7257611d088173ffffffffffffffffffffffffffffffffffffffff1660146121f1565b611d168360001c60206121f1565b604051602001611d27929190613e3d565b6040516020818303038152906040526040517f08c379a0000000000000000000000000000000000000000000000000000000008152600401611d699190612baa565b60405180910390fd5b5050565b611d7e610b9e565b611dbd576040517f08c379a0000000000000000000000000000000000000000000000000000000008152600401611db490613ec3565b60405180910390fd5b565b611dc9838361242d565b611dd66000848484611e64565b611e15576040517f08c379a0000000000000000000000000000000000000000000000000000000008152600401611e0c90613cab565b60405180910390fd5b505050565b611e22610b9e565b15611e62576040517f08c379a0000000000000000000000000000000000000000000000000000000008152600401611e5990613f2f565b60405180910390fd5b565b6000611e858473ffffffffffffffffffffffffffffffffffffffff16612607565b15611fee578373ffffffffffffffffffffffffffffffffffffffff1663150b7a02611eae611170565b8786866040518563ffffffff1660e01b8152600401611ed09493929190613fa4565b602060405180830381600087803b158015611eea57600080fd5b505af1925050508015611f1b57506040513d601f19601f82011682018060405250810190611f189190614005565b60015b611f9e573d8060008114611f4b576040519150601f19603f3d011682016040523d82523d6000602084013e611f50565b606091505b50600081511415611f96576040517f08c379a0000000000000000000000000000000000000000000000000000000008152600401611f8d90613cab565b60405180910390fd5b805181602001fd5b63150b7a0260e01b7bffffffffffffffffffffffffffffffffffffffffffffffffffffffff1916817bffffffffffffffffffffffffffffffffffffffffffffffffffffffff191614915050611ff3565b600190505b949350505050565b60007f80ac58cd000000000000000000000000000000000000000000000000000000007bffffffffffffffffffffffffffffffffffffffffffffffffffffffff1916827bffffffffffffffffffffffffffffffffffffffffffffffffffffffff191614806120c657507f5b5e139f000000000000000000000000000000000000000000000000000000007bffffffffffffffffffffffffffffffffffffffffffffffffffffffff1916827bffffffffffffffffffffffffffffffffffffffffffffffffffffffff1916145b806120d657506120d58261262a565b5b9050919050565b6120e8838383612694565b600073ffffffffffffffffffffffffffffffffffffffff168373ffffffffffffffffffffffffffffffffffffffff16141561212b5761212681612699565b61216a565b8173ffffffffffffffffffffffffffffffffffffffff168373ffffffffffffffffffffffffffffffffffffffff16146121695761216883826126e2565b5b5b600073ffffffffffffffffffffffffffffffffffffffff168273ffffffffffffffffffffffffffffffffffffffff1614156121ad576121a88161284f565b6121ec565b8273ffffffffffffffffffffffffffffffffffffffff168273ffffffffffffffffffffffffffffffffffffffff16146121eb576121ea8282612920565b5b5b505050565b6060600060028360026122049190614032565b61220e9190613b77565b67ffffffffffffffff81111561222757612226612e78565b5b6040519080825280601f01601f1916602001820160405280156122595781602001600182028036833780820191505090505b5090507f300000000000000000000000000000000000000000000000000000000000000081600081518110612291576122906136ad565b5b60200101907effffffffffffffffffffffffffffffffffffffffffffffffffffffffffffff1916908160001a9053507f7800000000000000000000000000000000000000000000000000000000000000816001815181106122f5576122f46136ad565b5b60200101907effffffffffffffffffffffffffffffffffffffffffffffffffffffffffffff1916908160001a905350600060018460026123359190614032565b61233f9190613b77565b90505b60018111156123df577f3031323334353637383961626364656600000000000000000000000000000000600f861660108110612381576123806136ad565b5b1a60f81b828281518110612398576123976136ad565b5b60200101907effffffffffffffffffffffffffffffffffffffffffffffffffffffffffffff1916908160001a905350600485901c9450806123d89061408c565b9050612342565b5060008414612423576040517f08c379a000000000000000000000000000000000000000000000000000000000815260040161241a90614102565b60405180910390fd5b8091505092915050565b600073ffffffffffffffffffffffffffffffffffffffff168273ffffffffffffffffffffffffffffffffffffffff16141561249d576040517f08c379a00000000000000000000000000000000000000000000000000000000081526004016124949061416e565b60405180910390fd5b6124a681611c50565b156124e6576040517f08c379a00000000000000000000000000000000000000000000000000000000081526004016124dd906141da565b60405180910390fd5b6124f260008383611cbc565b6001600360008473ffffffffffffffffffffffffffffffffffffffff1673ffffffffffffffffffffffffffffffffffffffff16815260200190815260200160002060008282546125429190613b77565b92505081905550816002600083815260200190815260200160002060006101000a81548173ffffffffffffffffffffffffffffffffffffffff021916908373ffffffffffffffffffffffffffffffffffffffff160217905550808273ffffffffffffffffffffffffffffffffffffffff16600073ffffffffffffffffffffffffffffffffffffffff167fddf252ad1be2c89b69c2b068fc378daa952ba7f163c4a11628f55a4df523b3ef60405160405180910390a461260360008383611cd4565b5050565b6000808273ffffffffffffffffffffffffffffffffffffffff163b119050919050565b60007f01ffc9a7000000000000000000000000000000000000000000000000000000007bffffffffffffffffffffffffffffffffffffffffffffffffffffffff1916827bffffffffffffffffffffffffffffffffffffffffffffffffffffffff1916149050919050565b505050565b6008805490506009600083815260200190815260200160002081905550600881908060018154018082558091505060019003906000526020600020016000909190919091505550565b600060016126ef84610c67565b6126f99190613b43565b90506000600760008481526020019081526020016000205490508181146127de576000600660008673ffffffffffffffffffffffffffffffffffffffff1673ffffffffffffffffffffffffffffffffffffffff168152602001908152602001600020600084815260200190815260200160002054905080600660008773ffffffffffffffffffffffffffffffffffffffff1673ffffffffffffffffffffffffffffffffffffffff168152602001908152602001600020600084815260200190815260200160002081905550816007600083815260200190815260200160002081905550505b6007600084815260200190815260200160002060009055600660008573ffffffffffffffffffffffffffffffffffffffff1673ffffffffffffffffffffffffffffffffffffffff16815260200190815260200160002060008381526020019081526020016000206000905550505050565b600060016008805490506128639190613b43565b9050600060096000848152602001908152602001600020549050600060088381548110612893576128926136ad565b5b9060005260206000200154905080600883815481106128b5576128b46136ad565b5b906000526020600020018190555081600960008381526020019081526020016000208190555060096000858152602001908152602001600020600090556008805480612904576129036141fa565b5b6001900381819060005260206000200160009055905550505050565b600061292b83610c67565b905081600660008573ffffffffffffffffffffffffffffffffffffffff1673ffffffffffffffffffffffffffffffffffffffff168152602001908152602001600020600083815260200190815260200160002081905550806007600084815260200190815260200160002081905550505050565b8280546129ab906131eb565b90600052602060002090601f0160209004810192826129cd5760008555612a14565b82601f106129e657805160ff1916838001178555612a14565b82800160010185558215612a14579182015b82811115612a135782518255916020019190600101906129f8565b5b509050612a219190612a25565b5090565b5b80821115612a3e576000816000905550600101612a26565b5090565b6000604051905090565b600080fd5b600080fd5b60007fffffffff0000000000000000000000000000000000000000000000000000000082169050919050565b612a8b81612a56565b8114612a9657600080fd5b50565b600081359050612aa881612a82565b92915050565b600060208284031215612ac457612ac3612a4c565b5b6000612ad284828501612a99565b91505092915050565b60008115159050919050565b612af081612adb565b82525050565b6000602082019050612b0b6000830184612ae7565b92915050565b600081519050919050565b600082825260208201905092915050565b60005b83811015612b4b578082015181840152602081019050612b30565b83811115612b5a576000848401525b50505050565b6000601f19601f8301169050919050565b6000612b7c82612b11565b612b868185612b1c565b9350612b96818560208601612b2d565b612b9f81612b60565b840191505092915050565b60006020820190508181036000830152612bc48184612b71565b905092915050565b6000819050919050565b612bdf81612bcc565b8114612bea57600080fd5b50565b600081359050612bfc81612bd6565b92915050565b600060208284031215612c1857612c17612a4c565b5b6000612c2684828501612bed565b91505092915050565b600073ffffffffffffffffffffffffffffffffffffffff82169050919050565b6000612c5a82612c2f565b9050919050565b612c6a81612c4f565b82525050565b6000602082019050612c856000830184612c61565b92915050565b612c9481612c4f565b8114612c9f57600080fd5b50565b600081359050612cb181612c8b565b92915050565b60008060408385031215612cce57612ccd612a4c565b5b6000612cdc85828601612ca2565b9250506020612ced85828601612bed565b9150509250929050565b612d0081612bcc565b82525050565b6000602082019050612d1b6000830184612cf7565b92915050565b600080600060608486031215612d3a57612d39612a4c565b5b6000612d4886828701612ca2565b9350506020612d5986828701612ca2565b9250506040612d6a86828701612bed565b9150509250925092565b6000819050919050565b612d8781612d74565b8114612d9257600080fd5b50565b600081359050612da481612d7e565b92915050565b600060208284031215612dc057612dbf612a4c565b5b6000612dce84828501612d95565b91505092915050565b612de081612d74565b82525050565b6000602082019050612dfb6000830184612dd7565b92915050565b60008060408385031215612e1857612e17612a4c565b5b6000612e2685828601612d95565b9250506020612e3785828601612ca2565b9150509250929050565b600060208284031215612e5757612e56612a4c565b5b6000612e6584828501612ca2565b91505092915050565b600080fd5b600080fd5b7f4e487b7100000000000000000000000000000000000000000000000000000000600052604160045260246000fd5b612eb082612b60565b810181811067ffffffffffffffff82111715612ecf57612ece612e78565b5b80604052505050565b6000612ee2612a42565b9050612eee8282612ea7565b919050565b600067ffffffffffffffff821115612f0e57612f0d612e78565b5b612f1782612b60565b9050602081019050919050565b82818337600083830152505050565b6000612f46612f4184612ef3565b612ed8565b905082815260208101848484011115612f6257612f61612e73565b5b612f6d848285612f24565b509392505050565b600082601f830112612f8a57612f89612e6e565b5b8135612f9a848260208601612f33565b91505092915050565b600060208284031215612fb957612fb8612a4c565b5b600082013567ffffffffffffffff811115612fd757612fd6612a51565b5b612fe384828501612f75565b91505092915050565b612ff581612adb565b811461300057600080fd5b50565b60008135905061301281612fec565b92915050565b6000806040838503121561302f5761302e612a4c565b5b600061303d85828601612ca2565b925050602061304e85828601613003565b9150509250929050565b600067ffffffffffffffff82111561307357613072612e78565b5b61307c82612b60565b9050602081019050919050565b600061309c61309784613058565b612ed8565b9050828152602081018484840111156130b8576130b7612e73565b5b6130c3848285612f24565b509392505050565b600082601f8301126130e0576130df612e6e565b5b81356130f0848260208601613089565b91505092915050565b6000806000806080858703121561311357613112612a4c565b5b600061312187828801612ca2565b945050602061313287828801612ca2565b935050604061314387828801612bed565b925050606085013567ffffffffffffffff81111561316457613163612a51565b5b613170878288016130cb565b91505092959194509250565b6000806040838503121561319357613192612a4c565b5b60006131a185828601612ca2565b92505060206131b285828601612ca2565b9150509250929050565b7f4e487b7100000000000000000000000000000000000000000000000000000000600052602260045260246000fd5b6000600282049050600182168061320357607f821691505b60208210811415613217576132166131bc565b5b50919050565b7f4552433732313a20617070726f76616c20746f2063757272656e74206f776e6560008201527f7200000000000000000000000000000000000000000000000000000000000000602082015250565b6000613279602183612b1c565b91506132848261321d565b604082019050919050565b600060208201905081810360008301526132a88161326c565b9050919050565b7f4552433732313a20617070726f76652063616c6c6572206973206e6f7420746f60008201527f6b656e206f776e6572206e6f7220617070726f76656420666f7220616c6c0000602082015250565b600061330b603e83612b1c565b9150613316826132af565b604082019050919050565b6000602082019050818103600083015261333a816132fe565b9050919050565b7f4552433732313a2063616c6c6572206973206e6f7420746f6b656e206f776e6560008201527f72206e6f7220617070726f766564000000000000000000000000000000000000602082015250565b600061339d602e83612b1c565b91506133a882613341565b604082019050919050565b600060208201905081810360008301526133cc81613390565b9050919050565b7f455243373231456e756d657261626c653a206f776e657220696e646578206f7560008201527f74206f6620626f756e6473000000000000000000000000000000000000000000602082015250565b600061342f602b83612b1c565b915061343a826133d3565b604082019050919050565b6000602082019050818103600083015261345e81613422565b9050919050565b7f416363657373436f6e74726f6c3a2063616e206f6e6c792072656e6f756e636560008201527f20726f6c657320666f722073656c660000000000000000000000000000000000602082015250565b60006134c1602f83612b1c565b91506134cc82613465565b604082019050919050565b600060208201905081810360008301526134f0816134b4565b9050919050565b7f44414f4e46543a206d75737420686176652061646d696e20726f6c6520746f2060008201527f756e706175736500000000000000000000000000000000000000000000000000602082015250565b6000613553602783612b1c565b915061355e826134f7565b604082019050919050565b6000602082019050818103600083015261358281613546565b9050919050565b7f44414f4e46543a206d7573742068617665206d696e74657220726f6c6520746f60008201527f206d696e74000000000000000000000000000000000000000000000000000000602082015250565b60006135e5602583612b1c565b91506135f082613589565b604082019050919050565b60006020820190508181036000830152613614816135d8565b9050919050565b7f455243373231456e756d657261626c653a20676c6f62616c20696e646578206f60008201527f7574206f6620626f756e64730000000000000000000000000000000000000000602082015250565b6000613677602c83612b1c565b91506136828261361b565b604082019050919050565b600060208201905081810360008301526136a68161366a565b9050919050565b7f4e487b7100000000000000000000000000000000000000000000000000000000600052603260045260246000fd5b7f44414f4e46543a206d75737420686176652061646d696e20726f6c6520746f2060008201527f7365742062617365205552490000000000000000000000000000000000000000602082015250565b6000613738602c83612b1c565b9150613743826136dc565b604082019050919050565b600060208201905081810360008301526137678161372b565b9050919050565b7f4552433732313a20696e76616c696420746f6b656e2049440000000000000000600082015250565b60006137a4601883612b1c565b91506137af8261376e565b602082019050919050565b600060208201905081810360008301526137d381613797565b9050919050565b7f4552433732313a2061646472657373207a65726f206973206e6f74206120766160008201527f6c6964206f776e65720000000000000000000000000000000000000000000000602082015250565b6000613836602983612b1c565b9150613841826137da565b604082019050919050565b6000602082019050818103600083015261386581613829565b9050919050565b7f44414f4e46543a206d75737420686176652061646d696e20726f6c6520746f2060008201527f7061757365000000000000000000000000000000000000000000000000000000602082015250565b60006138c8602583612b1c565b91506138d38261386c565b604082019050919050565b600060208201905081810360008301526138f7816138bb565b9050919050565b600081905092915050565b600061391482612b11565b61391e81856138fe565b935061392e818560208601612b2d565b80840191505092915050565b60006139468285613909565b91506139528284613909565b91508190509392505050565b7f44414f4e46543a206d75737420686176652061646d696e20726f6c6520746f2060008201527f7365747570206d696e7465720000000000000000000000000000000000000000602082015250565b60006139ba602c83612b1c565b91506139c58261395e565b604082019050919050565b600060208201905081810360008301526139e9816139ad565b9050919050565b7f4552433732313a207472616e736665722066726f6d20696e636f72726563742060008201527f6f776e6572000000000000000000000000000000000000000000000000000000602082015250565b6000613a4c602583612b1c565b9150613a57826139f0565b604082019050919050565b60006020820190508181036000830152613a7b81613a3f565b9050919050565b7f4552433732313a207472616e7366657220746f20746865207a65726f2061646460008201527f7265737300000000000000000000000000000000000000000000000000000000602082015250565b6000613ade602483612b1c565b9150613ae982613a82565b604082019050919050565b60006020820190508181036000830152613b0d81613ad1565b9050919050565b7f4e487b7100000000000000000000000000000000000000000000000000000000600052601160045260246000fd5b6000613b4e82612bcc565b9150613b5983612bcc565b925082821015613b6c57613b6b613b14565b5b828203905092915050565b6000613b8282612bcc565b9150613b8d83612bcc565b9250827fffffffffffffffffffffffffffffffffffffffffffffffffffffffffffffffff03821115613bc257613bc1613b14565b5b828201905092915050565b7f4552433732313a20617070726f766520746f2063616c6c657200000000000000600082015250565b6000613c03601983612b1c565b9150613c0e82613bcd565b602082019050919050565b60006020820190508181036000830152613c3281613bf6565b9050919050565b7f4552433732313a207472616e7366657220746f206e6f6e20455243373231526560008201527f63656976657220696d706c656d656e7465720000000000000000000000000000602082015250565b6000613c95603283612b1c565b9150613ca082613c39565b604082019050919050565b60006020820190508181036000830152613cc481613c88565b9050919050565b6000613cd682612bcc565b91507fffffffffffffffffffffffffffffffffffffffffffffffffffffffffffffffff821415613d0957613d08613b14565b5b600182019050919050565b7f4e487b7100000000000000000000000000000000000000000000000000000000600052601260045260246000fd5b6000613d4e82612bcc565b9150613d5983612bcc565b925082613d6957613d68613d14565b5b828204905092915050565b6000613d7f82612bcc565b9150613d8a83612bcc565b925082613d9a57613d99613d14565b5b828206905092915050565b7f416363657373436f6e74726f6c3a206163636f756e7420000000000000000000600082015250565b6000613ddb6017836138fe565b9150613de682613da5565b601782019050919050565b7f206973206d697373696e6720726f6c6520000000000000000000000000000000600082015250565b6000613e276011836138fe565b9150613e3282613df1565b601182019050919050565b6000613e4882613dce565b9150613e548285613909565b9150613e5f82613e1a565b9150613e6b8284613909565b91508190509392505050565b7f5061757361626c653a206e6f7420706175736564000000000000000000000000600082015250565b6000613ead601483612b1c565b9150613eb882613e77565b602082019050919050565b60006020820190508181036000830152613edc81613ea0565b9050919050565b7f5061757361626c653a2070617573656400000000000000000000000000000000600082015250565b6000613f19601083612b1c565b9150613f2482613ee3565b602082019050919050565b60006020820190508181036000830152613f4881613f0c565b9050919050565b600081519050919050565b600082825260208201905092915050565b6000613f7682613f4f565b613f808185613f5a565b9350613f90818560208601612b2d565b613f9981612b60565b840191505092915050565b6000608082019050613fb96000830187612c61565b613fc66020830186612c61565b613fd36040830185612cf7565b8181036060830152613fe58184613f6b565b905095945050505050565b600081519050613fff81612a82565b92915050565b60006020828403121561401b5761401a612a4c565b5b600061402984828501613ff0565b91505092915050565b600061403d82612bcc565b915061404883612bcc565b9250817fffffffffffffffffffffffffffffffffffffffffffffffffffffffffffffffff048311821515161561408157614080613b14565b5b828202905092915050565b600061409782612bcc565b915060008214156140ab576140aa613b14565b5b600182039050919050565b7f537472696e67733a20686578206c656e67746820696e73756666696369656e74600082015250565b60006140ec602083612b1c565b91506140f7826140b6565b602082019050919050565b6000602082019050818103600083015261411b816140df565b9050919050565b7f4552433732313a206d696e7420746f20746865207a65726f2061646472657373600082015250565b6000614158602083612b1c565b915061416382614122565b602082019050919050565b600060208201905081810360008301526141878161414b565b9050919050565b7f4552433732313a20746f6b656e20616c7265616479206d696e74656400000000600082015250565b60006141c4601c83612b1c565b91506141cf8261418e565b602082019050919050565b600060208201905081810360008301526141f3816141b7565b9050919050565b7f4e487b7100000000000000000000000000000000000000000000000000000000600052603160045260246000fdfea2646970667358221220f204a375f0abe999298683414ad2aff425648c500e5521b830278cd54394f28764736f6c63430008090033",
  "linkReferences": {},
  "deployedLinkReferences": {}
}