{
  "_format": "hh-sol-artifact-1",
  "contractName": "PollFactory",
  "sourceName": "contracts/PollCreator.sol",
  "abi": [
    {
      "anonymous": false,
      "inputs": [
        {
          "indexed": true,
          "internalType": "address",
          "name": "previousOwner",
          "type": "address"
        },
        {
          "indexed": true,
          "internalType": "address",
          "name": "newOwner",
          "type": "address"
        }
      ],
      "name": "OwnershipTransferred",
      "type": "event"
    },
    {
      "anonymous": false,
      "inputs": [
        {
          "indexed": true,
          "internalType": "bytes32",
          "name": "role",
          "type": "bytes32"
        },
        {
          "indexed": true,
          "internalType": "bytes32",
          "name": "previousAdminRole",
          "type": "bytes32"
        },
        {
          "indexed": true,
          "internalType": "bytes32",
          "name": "newAdminRole",
          "type": "bytes32"
        }
      ],
      "name": "RoleAdminChanged",
      "type": "event"
    },
    {
      "anonymous": false,
      "inputs": [
        {
          "indexed": true,
          "internalType": "bytes32",
          "name": "role",
          "type": "bytes32"
        },
        {
          "indexed": true,
          "internalType": "address",
          "name": "account",
          "type": "address"
        },
        {
          "indexed": true,
          "internalType": "address",
          "name": "sender",
          "type": "address"
        }
      ],
      "name": "RoleGranted",
      "type": "event"
    },
    {
      "anonymous": false,
      "inputs": [
        {
          "indexed": true,
          "internalType": "bytes32",
          "name": "role",
          "type": "bytes32"
        },
        {
          "indexed": true,
          "internalType": "address",
          "name": "account",
          "type": "address"
        },
        {
          "indexed": true,
          "internalType": "address",
          "name": "sender",
          "type": "address"
        }
      ],
      "name": "RoleRevoked",
      "type": "event"
    },
    {
      "inputs": [],
      "name": "DEFAULT_ADMIN_ROLE",
      "outputs": [
        {
          "internalType": "bytes32",
          "name": "",
          "type": "bytes32"
        }
      ],
      "stateMutability": "view",
      "type": "function"
    },
    {
      "inputs": [
        {
          "internalType": "string",
          "name": "daoId",
          "type": "string"
        },
        {
          "internalType": "string",
          "name": "projectId",
          "type": "string"
        },
        {
          "internalType": "address",
          "name": "sender",
          "type": "address"
        }
      ],
      "name": "createPoll",
      "outputs": [
        {
          "internalType": "address",
          "name": "",
          "type": "address"
        }
      ],
      "stateMutability": "nonpayable",
      "type": "function"
    },
    {
      "inputs": [
        {
          "internalType": "bytes32",
          "name": "role",
          "type": "bytes32"
        }
      ],
      "name": "getRoleAdmin",
      "outputs": [
        {
          "internalType": "bytes32",
          "name": "",
          "type": "bytes32"
        }
      ],
      "stateMutability": "view",
      "type": "function"
    },
    {
      "inputs": [
        {
          "internalType": "bytes32",
          "name": "role",
          "type": "bytes32"
        },
        {
          "internalType": "address",
          "name": "account",
          "type": "address"
        }
      ],
      "name": "grantRole",
      "outputs": [],
      "stateMutability": "nonpayable",
      "type": "function"
    },
    {
      "inputs": [
        {
          "internalType": "bytes32",
          "name": "role",
          "type": "bytes32"
        },
        {
          "internalType": "address",
          "name": "account",
          "type": "address"
        }
      ],
      "name": "hasRole",
      "outputs": [
        {
          "internalType": "bool",
          "name": "",
          "type": "bool"
        }
      ],
      "stateMutability": "view",
      "type": "function"
    },
    {
      "inputs": [],
      "name": "owner",
      "outputs": [
        {
          "internalType": "address",
          "name": "",
          "type": "address"
        }
      ],
      "stateMutability": "view",
      "type": "function"
    },
    {
      "inputs": [],
      "name": "renounceOwnership",
      "outputs": [],
      "stateMutability": "nonpayable",
      "type": "function"
    },
    {
      "inputs": [
        {
          "internalType": "bytes32",
          "name": "role",
          "type": "bytes32"
        },
        {
          "internalType": "address",
          "name": "account",
          "type": "address"
        }
      ],
      "name": "renounceRole",
      "outputs": [],
      "stateMutability": "nonpayable",
      "type": "function"
    },
    {
      "inputs": [
        {
          "internalType": "bytes32",
          "name": "role",
          "type": "bytes32"
        },
        {
          "internalType": "address",
          "name": "account",
          "type": "address"
        }
      ],
      "name": "revokeRole",
      "outputs": [],
      "stateMutability": "nonpayable",
      "type": "function"
    },
    {
      "inputs": [
        {
          "internalType": "address",
          "name": "addr",
          "type": "address"
        }
      ],
      "name": "setCommissionAddress",
      "outputs": [],
      "stateMutability": "nonpayable",
      "type": "function"
    },
    {
      "inputs": [
        {
          "internalType": "uint256",
          "name": "rate",
          "type": "uint256"
        }
      ],
      "name": "setCommissionRate",
      "outputs": [],
      "stateMutability": "nonpayable",
      "type": "function"
    },
    {
      "inputs": [
        {
          "internalType": "bytes4",
          "name": "interfaceId",
          "type": "bytes4"
        }
      ],
      "name": "supportsInterface",
      "outputs": [
        {
          "internalType": "bool",
          "name": "",
          "type": "bool"
        }
      ],
      "stateMutability": "view",
      "type": "function"
    },
    {
      "inputs": [
        {
          "internalType": "address",
          "name": "newOwner",
          "type": "address"
        }
      ],
      "name": "transferOwnership",
      "outputs": [],
      "stateMutability": "nonpayable",
      "type": "function"
    }
  ],
  "bytecode": "0x6080604052600560025534801561001557600080fd5b5061001f33610024565b610076565b600180546001600160a01b038381166001600160a01b0319831681179093556040519116919082907f8be0079c531659141344cd1fd0a4f28419497f9722a3daafe3b4186f6b6457e090600090a35050565b6157d5806100856000396000f3fe60806040523480156200001157600080fd5b5060043610620000e05760003560e01c806340fff80c116200009757806391d14854116200006e57806391d1485414620001f0578063a217fddf1462000207578063d547741f1462000210578063f2fde38b146200022757600080fd5b806340fff80c14620001bd578063715018a614620001d45780638da5cb5b14620001de57600080fd5b806301ffc9a714620000e5578063063f19b3146200011157806319fac8fd1462000141578063248a9ca3146200015a5780632f2ff15d146200018f57806336568abe14620001a6575b600080fd5b620000fc620000f636600462000a61565b6200023e565b60405190151581526020015b60405180910390f35b620001286200012236600462000b55565b62000276565b6040516001600160a01b03909116815260200162000108565b620001586200015236600462000bd2565b620004a5565b005b620001806200016b36600462000bd2565b60009081526020819052604090206001015490565b60405190815260200162000108565b62000158620001a036600462000bec565b620004b4565b62000158620001b736600462000bec565b620004e2565b62000158620001ce36600462000c1b565b62000564565b6200015862000590565b6001546001600160a01b031662000128565b620000fc6200020136600462000bec565b620005a8565b62000180600081565b620001586200022136600462000bec565b620005d1565b620001586200023836600462000c1b565b620005fa565b60006001600160e01b03198216637965db0b60e01b14806200027057506301ffc9a760e01b6001600160e01b03198316145b92915050565b6003546000906001600160a01b0316620002d75760405162461bcd60e51b815260206004820152601d60248201527f636f6d6d697373696f6e2061646472657373206973206e6f742073657400000060448201526064015b60405180910390fd5b600254600354604051600092879287926001600160a01b0390911690620002fe9062000a53565b6200030d949392919062000c9a565b604051809103906000f0801580156200032a573d6000803e3d6000fd5b509050806001600160a01b038116620003865760405162461bcd60e51b815260206004820152601760248201527f506f6c6c206164647265737320697320696e76616c69640000000000000000006044820152606401620002ce565b60405163b8cb6b7960e01b81523360048201526001600160a01b0383169063b8cb6b7990602401600060405180830381600087803b158015620003c857600080fd5b505af1158015620003dd573d6000803e3d6000fd5b505060405163fc39870b60e01b81526001600160a01b0387811660048301528516925063fc39870b9150602401600060405180830381600087803b1580156200042557600080fd5b505af11580156200043a573d6000803e3d6000fd5b505060405163f2fde38b60e01b81526001600160a01b0387811660048301528516925063f2fde38b9150602401600060405180830381600087803b1580156200048257600080fd5b505af115801562000497573d6000803e3d6000fd5b509298975050505050505050565b620004af62000679565b600255565b600082815260208190526040902060010154620004d181620006d5565b620004dd8383620006e1565b505050565b6001600160a01b0381163314620005545760405162461bcd60e51b815260206004820152602f60248201527f416363657373436f6e74726f6c3a2063616e206f6e6c792072656e6f756e636560448201526e103937b632b9903337b91039b2b63360891b6064820152608401620002ce565b62000560828262000769565b5050565b6200056e62000679565b600380546001600160a01b0319166001600160a01b0392909216919091179055565b6200059a62000679565b620005a66000620007d1565b565b6000918252602082815260408084206001600160a01b0393909316845291905290205460ff1690565b600082815260208190526040902060010154620005ee81620006d5565b620004dd838362000769565b6200060462000679565b6001600160a01b0381166200066b5760405162461bcd60e51b815260206004820152602660248201527f4f776e61626c653a206e6577206f776e657220697320746865207a65726f206160448201526564647265737360d01b6064820152608401620002ce565b6200067681620007d1565b50565b6001546001600160a01b03163314620005a65760405162461bcd60e51b815260206004820181905260248201527f4f776e61626c653a2063616c6c6572206973206e6f7420746865206f776e65726044820152606401620002ce565b62000676813362000823565b620006ed8282620005a8565b62000560576000828152602081815260408083206001600160a01b03851684529091529020805460ff19166001179055620007253390565b6001600160a01b0316816001600160a01b0316837f2f8788117e7eff1d82e926ec794901d17c78024a50270940304540a733656f0d60405160405180910390a45050565b620007758282620005a8565b1562000560576000828152602081815260408083206001600160a01b0385168085529252808320805460ff1916905551339285917ff6391f5c32d9c69d2a47ea670b442974b53935d1edc7fd64eb21e047a839171b9190a45050565b600180546001600160a01b038381166001600160a01b0319831681179093556040519116919082907f8be0079c531659141344cd1fd0a4f28419497f9722a3daafe3b4186f6b6457e090600090a35050565b6200082f8282620005a8565b62000560576200084a816001600160a01b0316601462000892565b6200085783602062000892565b6040516020016200086a92919062000ce5565b60408051601f198184030181529082905262461bcd60e51b8252620002ce9160040162000d5e565b60606000620008a383600262000d89565b620008b090600262000dab565b67ffffffffffffffff811115620008cb57620008cb62000a8d565b6040519080825280601f01601f191660200182016040528015620008f6576020820181803683370190505b509050600360fc1b8160008151811062000914576200091462000dc6565b60200101906001600160f81b031916908160001a905350600f60fb1b8160018151811062000946576200094662000dc6565b60200101906001600160f81b031916908160001a90535060006200096c84600262000d89565b6200097990600162000dab565b90505b6001811115620009fb576f181899199a1a9b1b9c1cb0b131b232b360811b85600f1660108110620009b157620009b162000dc6565b1a60f81b828281518110620009ca57620009ca62000dc6565b60200101906001600160f81b031916908160001a90535060049490941c93620009f38162000ddc565b90506200097c565b50831562000a4c5760405162461bcd60e51b815260206004820181905260248201527f537472696e67733a20686578206c656e67746820696e73756666696369656e746044820152606401620002ce565b9392505050565b6149a98062000df783390190565b60006020828403121562000a7457600080fd5b81356001600160e01b03198116811462000a4c57600080fd5b634e487b7160e01b600052604160045260246000fd5b600082601f83011262000ab557600080fd5b813567ffffffffffffffff8082111562000ad35762000ad362000a8d565b604051601f8301601f19908116603f0116810190828211818310171562000afe5762000afe62000a8d565b8160405283815286602085880101111562000b1857600080fd5b836020870160208301376000602085830101528094505050505092915050565b80356001600160a01b038116811462000b5057600080fd5b919050565b60008060006060848603121562000b6b57600080fd5b833567ffffffffffffffff8082111562000b8457600080fd5b62000b928783880162000aa3565b9450602086013591508082111562000ba957600080fd5b5062000bb88682870162000aa3565b92505062000bc96040850162000b38565b90509250925092565b60006020828403121562000be557600080fd5b5035919050565b6000806040838503121562000c0057600080fd5b8235915062000c126020840162000b38565b90509250929050565b60006020828403121562000c2e57600080fd5b62000a4c8262000b38565b60005b8381101562000c5657818101518382015260200162000c3c565b8381111562000c66576000848401525b50505050565b6000815180845262000c8681602086016020860162000c39565b601f01601f19169290920160200192915050565b60808152600062000caf608083018762000c6c565b828103602084015262000cc3818762000c6c565b604084019590955250506001600160a01b039190911660609091015292915050565b7f416363657373436f6e74726f6c3a206163636f756e742000000000000000000081526000835162000d1f81601785016020880162000c39565b7001034b99036b4b9b9b4b733903937b6329607d1b601791840191820152835162000d5281602884016020880162000c39565b01602801949350505050565b60208152600062000a4c602083018462000c6c565b634e487b7160e01b600052601160045260246000fd5b600081600019048311821515161562000da65762000da662000d73565b500290565b6000821982111562000dc15762000dc162000d73565b500190565b634e487b7160e01b600052603260045260246000fd5b60008162000dee5762000dee62000d73565b50600019019056fe6080604052600060045560006009556000600a556064600b556005600c5562093a8060115560006014553480156200003657600080fd5b50604051620049a9380380620049a98339810160408190526200005991620002ba565b6200006433620000f5565b83516200007990600290602087019062000147565b5082516200008f90600390602086019062000147565b50600c829055600880546001600160a01b0319166001600160a01b038316179055620000bf42621275006200034f565b6000805260126020527f7e7fa33969761a458e04f477e039a608702b4f924981d6653935a8319a08ad7b5550620003b392505050565b600180546001600160a01b038381166001600160a01b0319831681179093556040519116919082907f8be0079c531659141344cd1fd0a4f28419497f9722a3daafe3b4186f6b6457e090600090a35050565b828054620001559062000376565b90600052602060002090601f016020900481019282620001795760008555620001c4565b82601f106200019457805160ff1916838001178555620001c4565b82800160010185558215620001c4579182015b82811115620001c4578251825591602001919060010190620001a7565b50620001d2929150620001d6565b5090565b5b80821115620001d25760008155600101620001d7565b634e487b7160e01b600052604160045260246000fd5b600082601f8301126200021557600080fd5b81516001600160401b0380821115620002325762000232620001ed565b604051601f8301601f19908116603f011681019082821181831017156200025d576200025d620001ed565b816040528381526020925086838588010111156200027a57600080fd5b600091505b838210156200029e57858201830151818301840152908201906200027f565b83821115620002b05760008385830101525b9695505050505050565b60008060008060808587031215620002d157600080fd5b84516001600160401b0380821115620002e957600080fd5b620002f78883890162000203565b955060208701519150808211156200030e57600080fd5b506200031d8782880162000203565b60408701516060880151919550935090506001600160a01b03811681146200034457600080fd5b939692955090935050565b600082198211156200037157634e487b7160e01b600052601160045260246000fd5b500190565b600181811c908216806200038b57607f821691505b60208210811415620003ad57634e487b7160e01b600052602260045260246000fd5b50919050565b6145e680620003c36000396000f3fe608060405234801561001057600080fd5b50600436106102535760003560e01c806397af905211610146578063d384e4d4116100c3578063d8f8f07a11610087578063d8f8f07a146104ea578063ea8f1683146104fd578063ea9b2ffa14610510578063f2fde38b14610523578063fc39870b14610536578063fe98bbc71461054957600080fd5b8063d384e4d4146104b5578063d47587f2146104bd578063d547741f146104c6578063d76e79d4146104d9578063d899744f146104e157600080fd5b8063ade936371161010a578063ade9363714610460578063b8cb6b7914610469578063bc42d6071461047c578063c7afe9f21461048f578063c97e60e3146104a257600080fd5b806397af9052146104145780639f4d2dcf1461041c578063a092a7a81461042f578063a217fddf1461044f578063a778bc081461045757600080fd5b80637034482a116101d457806384a0f2cd1161019857806384a0f2cd146103b45780638a3e8620146103bd5780638da5cb5b146103dd57806391d14854146103ee578063931742d31461040157600080fd5b80637034482a1461035c57806370bd8e9314610371578063715018a61461038457806372b4ca471461038c5780637e78d68a1461039457600080fd5b806323628d0e1161021b57806323628d0e146102eb578063248a9ca3146103005780632f2ff15d1461032357806336568abe146103365780635bf8633a1461034957600080fd5b806301ffc9a714610258578063022a2d9114610280578063132002fc146102a05780631a454ea6146102b75780631c004729146102c0575b600080fd5b61026b6102663660046138b8565b610569565b60405190151581526020015b60405180910390f35b61029361028e3660046138e2565b6105a0565b6040516102779190613a1c565b6102a960115481565b604051908152602001610277565b6102a9600c5481565b6005546102d3906001600160a01b031681565b6040516001600160a01b039091168152602001610277565b6102fe6102f9366004613c8a565b6107fc565b005b6102a961030e3660046138e2565b60009081526020819052604090206001015490565b6102fe610331366004613d2d565b610a80565b6102fe610344366004613d2d565b610aaa565b6006546102d3906001600160a01b031681565b610364610b2d565b6040516102779190613d59565b61026b61037f366004613d6c565b610c19565b6102fe610cbf565b610293610cd3565b6102a96103a23660046138e2565b60126020526000908152604090205481565b6102a960045481565b6103d06103cb3660046138e2565b610f26565b6040516102779190613d87565b6001546001600160a01b03166102d3565b61026b6103fc366004613d2d565b61128f565b6008546102d3906001600160a01b031681565b6102a96112b8565b6102fe61042a366004613eac565b6112e6565b61044261043d3660046138e2565b61134f565b6040516102779190613ece565b6102a9600081565b6102a9600a5481565b6102a9600b5481565b6102fe610477366004613d6c565b611651565b6102fe61048a366004613eac565b61167b565b6102fe61049d366004613f1b565b6116ba565b6102fe6104b0366004613f45565b6117d1565b610442611840565b6102a960095481565b6102fe6104d4366004613d2d565b6118ad565b6102fe6118d2565b6102a960145481565b61026b6104f8366004614061565b611916565b61036461050b3660046138e2565b611ed3565b6102fe61051e3660046138e2565b611fb4565b6102fe610531366004613d6c565b611fed565b6102fe610544366004613d6c565b612066565b6102a96105573660046138e2565b60106020526000908152604090205481565b60006001600160e01b03198216637965db0b60e01b148061059a57506301ffc9a760e01b6001600160e01b03198316145b92915050565b6060600f6000838152602001908152602001600020805480602002602001604051908101604052809291908181526020016000905b828210156107f15760008481526020908190206040805160a0810182526005860290920180546001600160a01b0316835260018101805483518187028101870190945280845293949193858301939283018282801561065d57602002820191906000526020600020905b81546001600160a01b0316815260019091019060200180831161063f575b5050505050815260200160028201805480602002602001604051908101604052809291908181526020016000905b828210156106f7576000848152602090819020830180546040805182850281018501909152818152928301828280156106e357602002820191906000526020600020905b8154815260200190600101908083116106cf575b50505050508152602001906001019061068b565b50505050815260200160038201805480602002602001604051908101604052809291908181526020016000905b828210156107d057838290600052602060002001805461074390614150565b80601f016020809104026020016040519081016040528092919081815260200182805461076f90614150565b80156107bc5780601f10610791576101008083540402835291602001916107bc565b820191906000526020600020905b81548152906001019060200180831161079f57829003601f168201915b505050505081526020019060010190610724565b505050508152602001600482015481525050815260200190600101906105d5565b505050509050919050565b6000600b54600161080d91906141a1565b905060005b6004546000908152600d6020526040902054811015610882576004546000908152600d60205260409020805433919083908110610851576108516141b9565b6000918252602090912001546001600160a01b03161415610870578091505b8061087a816141cf565b915050610812565b50600b546108919060016141a1565b81141561099557600480546000908152600d602090815260408083208054600181810183559185528385200180546001600160a01b031916339081179091559454808552600e8452828520835160a0810185528b81528086018b905293840189905260608401969096526080830152845490810185559383529181902082518051939460050290910192610928928492019061364c565b50602082810151805161094192600185019201906136d0565b506040820151805161095d9160028401916020909101906136d0565b5060608201516003820180546001600160a01b0319166001600160a01b03909216919091179055608090910151600490910155610a7a565b83600e6000600454815260200190815260200160002082815481106109bc576109bc6141b9565b906000526020600020906005020160000190805190602001906109e092919061364c565b5082600e600060045481526020019081526020016000208281548110610a0857610a086141b9565b90600052602060002090600502016001019080519060200190610a2c9291906136d0565b5081600e600060045481526020019081526020016000208281548110610a5457610a546141b9565b90600052602060002090600502016002019080519060200190610a789291906136d0565b505b50505050565b600082815260208190526040902060010154610a9b81612086565b610aa58383612090565b505050565b6001600160a01b0381163314610b1f5760405162461bcd60e51b815260206004820152602f60248201527f416363657373436f6e74726f6c3a2063616e206f6e6c792072656e6f756e636560448201526e103937b632b9903337b91039b2b63360891b60648201526084015b60405180910390fd5b610b298282612114565b5050565b6060601360006014548152602001908152602001600020805480602002602001604051908101604052809291908181526020016000905b82821015610c10578382906000526020600020018054610b8390614150565b80601f0160208091040260200160405190810160405280929190818152602001828054610baf90614150565b8015610bfc5780601f10610bd157610100808354040283529160200191610bfc565b820191906000526020600020905b815481529060010190602001808311610bdf57829003601f168201915b505050505081526020019060010190610b64565b50505050905090565b6006546000906001600160a01b0316610c3457506001919050565b6006546040516370a0823160e01b81526001600160a01b0384811660048301529091169060019082906370a082319060240160206040518083038186803b158015610c7e57600080fd5b505afa158015610c92573d6000803e3d6000fd5b505050506040513d601f19601f82011682018060405250810190610cb691906141ea565b10159392505050565b610cc7612179565b610cd160006121d3565b565b6060600f60006004548152602001908152602001600020805480602002602001604051908101604052809291908181526020016000905b82821015610c105760008481526020908190206040805160a0810182526005860290920180546001600160a01b03168352600181018054835181870281018701909452808452939491938583019392830182828015610d9257602002820191906000526020600020905b81546001600160a01b03168152600190910190602001808311610d74575b5050505050815260200160028201805480602002602001604051908101604052809291908181526020016000905b82821015610e2c57600084815260209081902083018054604080518285028101850190915281815292830182828015610e1857602002820191906000526020600020905b815481526020019060010190808311610e04575b505050505081526020019060010190610dc0565b50505050815260200160038201805480602002602001604051908101604052809291908181526020016000905b82821015610f05578382906000526020600020018054610e7890614150565b80601f0160208091040260200160405190810160405280929190818152602001828054610ea490614150565b8015610ef15780601f10610ec657610100808354040283529160200191610ef1565b820191906000526020600020905b815481529060010190602001808311610ed457829003601f168201915b505050505081526020019060010190610e59565b50505050815260200160048201548152505081526020019060010190610d0a565b610f5f6040518060c001604052806000815260200160608152602001606081526020016000815260200160008152602001606081525090565b6000828152600e6020908152604080832080548251818502810185019093528083529192909190849084015b8282101561122457838290600052602060002090600502016040518060a0016040529081600082018054610fbe90614150565b80601f0160208091040260200160405190810160405280929190818152602001828054610fea90614150565b80156110375780601f1061100c57610100808354040283529160200191611037565b820191906000526020600020905b81548152906001019060200180831161101a57829003601f168201915b5050505050815260200160018201805480602002602001604051908101604052809291908181526020016000905b8282101561111157838290600052602060002001805461108490614150565b80601f01602080910402602001604051908101604052809291908181526020018280546110b090614150565b80156110fd5780601f106110d2576101008083540402835291602001916110fd565b820191906000526020600020905b8154815290600101906020018083116110e057829003601f168201915b505050505081526020019060010190611065565b50505050815260200160028201805480602002602001604051908101604052809291908181526020016000905b828210156111ea57838290600052602060002001805461115d90614150565b80601f016020809104026020016040519081016040528092919081815260200182805461118990614150565b80156111d65780601f106111ab576101008083540402835291602001916111d6565b820191906000526020600020905b8154815290600101906020018083116111b957829003601f168201915b50505050508152602001906001019061113e565b5050509082525060038201546001600160a01b03166020808301919091526004909201546040909101529082526001929092019101610f8b565b50505050905060006112358461134f565b6000858152601060209081526040808320546012909252822054929350919061125c610b2d565b6040805160c081018252988952602089019690965294870193909352606086019190915260808501525060a08301525090565b6000918252602082815260408084206001600160a01b0393909316845291905290205460ff1690565b6000600c546112d7600954600a546112d091906141a1565b6064612225565b6112e19190614203565b905090565b6112fe6000805160206145918339815191523361128f565b61131a5760405162461bcd60e51b8152600401610b1690614222565b60118190556000828152601060205260409020546113399082906141a1565b6000928352601260205260409092209190915550565b6000818152600f60209081526040808320805482518185028101850190935280835260609493849084015b828210156115965760008481526020908190206040805160a0810182526005860290920180546001600160a01b0316835260018101805483518187028101870190945280845293949193858301939283018282801561140257602002820191906000526020600020905b81546001600160a01b031681526001909101906020018083116113e4575b5050505050815260200160028201805480602002602001604051908101604052809291908181526020016000905b8282101561149c5760008481526020908190208301805460408051828502810185019091528181529283018282801561148857602002820191906000526020600020905b815481526020019060010190808311611474575b505050505081526020019060010190611430565b50505050815260200160038201805480602002602001604051908101604052809291908181526020016000905b828210156115755783829060005260206000200180546114e890614150565b80601f016020809104026020016040519081016040528092919081815260200182805461151490614150565b80156115615780601f1061153657610100808354040283529160200191611561565b820191906000526020600020905b81548152906001019060200180831161154457829003601f168201915b5050505050815260200190600101906114c9565b5050505081526020016004820154815250508152602001906001019061137a565b505050509050600081516001600160401b038111156115b7576115b7613b23565b6040519080825280602002602001820160405280156115e0578160200160208202803683370190505b50905060005b825181101561164957828181518110611601576116016141b9565b60200260200101516000015182828151811061161f5761161f6141b9565b6001600160a01b039092166020928302919091019091015280611641816141cf565b9150506115e6565b509392505050565b611659612179565b600780546001600160a01b0319166001600160a01b0392909216919091179055565b6116936000805160206145918339815191523361128f565b6116af5760405162461bcd60e51b8152600401610b1690614222565b600991909155600a55565b6116d26000805160206145918339815191523361128f565b6116ee5760405162461bcd60e51b8152600401610b1690614222565b600580546001600160a01b038085166001600160a01b0319928316179092556006805484841692169190911790556008541661176c5760405162461bcd60e51b815260206004820152601c60248201527f636f6d6d697373696f6e41646472657373206973206e6f7420736574000000006044820152606401610b16565b6008546040516213049560e71b81526001600160a01b0384811660048301529091169081906309824a8090602401600060405180830381600087803b1580156117b457600080fd5b505af11580156117c8573d6000803e3d6000fd5b50505050505050565b6117e96000805160206145918339815191523361128f565b6118055760405162461bcd60e51b8152600401610b1690614222565b8060136000601460008154611819906141cf565b91905081905581526020019081526020016000209080519060200190610b299291906136d0565b6004546000908152600d60209081526040918290208054835181840281018401909452808452606093928301828280156118a357602002820191906000526020600020905b81546001600160a01b03168152600190910190602001808311611885575b5050505050905090565b6000828152602081905260409020600101546118c881612086565b610aa58383612114565b6118ea6000805160206145918339815191523361128f565b6119065760405162461bcd60e51b8152600401610b1690614222565b61190e6122d3565b610cd1613058565b6000806119228661134f565b905061192d33610c19565b6119715760405162461bcd60e51b81526020600482015260156024820152743737ba1032b634b3b4b13632903a37903b37ba329760591b6044820152606401610b16565b84516119b35760405162461bcd60e51b815260206004820152601160248201527021b0b73234b230ba32b99032b6b83a3c9760791b6044820152606401610b16565b84518451146119f55760405162461bcd60e51b815260206004820152600e60248201526d696e76616c696420706f696e747360901b6044820152606401610b16565b6000601360006014548152602001908152602001600020805480602002602001604051908101604052809291908181526020016000905b82821015611ad8578382906000526020600020018054611a4b90614150565b80601f0160208091040260200160405190810160405280929190818152602001828054611a7790614150565b8015611ac45780601f10611a9957610100808354040283529160200191611ac4565b820191906000526020600020905b815481529060010190602001808311611aa757829003601f168201915b505050505081526020019060010190611a2c565b50505050905060005b8651811015611cc1576000888152600d60209081526040918290208054835181840281018401909452808452611b6f9392830182828015611b4b57602002820191906000526020600020905b81546001600160a01b03168152600190910190602001808311611b2d575b5050505050888381518110611b6257611b626141b9565b60200260200101516130a3565b611baf5760405162461bcd60e51b8152602060048201526011602482015270496e76616c69642063616e64696461746560781b6044820152606401610b16565b60005b8251811015611cae576000878381518110611bcf57611bcf6141b9565b60200260200101518281518110611be857611be86141b9565b60200260200101511015611c2f5760405162461bcd60e51b815260206004820152600e60248201526d496e76616c696420706f696e747360901b6044820152606401610b16565b336001600160a01b0316888381518110611c4b57611c4b6141b9565b60200260200101516001600160a01b03161415611c9c576000878381518110611c7657611c766141b9565b60200260200101518281518110611c8f57611c8f6141b9565b6020026020010181815250505b80611ca6816141cf565b915050611bb2565b5080611cb9816141cf565b915050611ae1565b506000600b546001611cd391906141a1565b905060005b8351811015611d2a57336001600160a01b0316848281518110611cfd57611cfd6141b9565b60200260200101516001600160a01b03161415611d18578091505b80611d22816141cf565b915050611cd8565b506040805160a08101825233815260208101899052908101879052606081018690526014546080820152600b54611d629060016141a1565b821415611e0f576000898152600f60209081526040822080546001808201835591845292829020845160059094020180546001600160a01b0319166001600160a01b03909416939093178355838201518051859493611dc5938501920190613729565b5060408201518051611de191600284019160209091019061377e565b5060608201518051611dfd9160038401916020909101906136d0565b50608082015181600401555050611ec4565b6000898152600f60205260409020805482919084908110611e3257611e326141b9565b600091825260209182902083516005929092020180546001600160a01b0319166001600160a01b039092169190911781558282015180519192611e7d92600185019290910190613729565b5060408201518051611e9991600284019160209091019061377e565b5060608201518051611eb59160038401916020909101906136d0565b50608082015181600401559050505b50600198975050505050505050565b606060136000838152602001908152602001600020805480602002602001604051908101604052809291908181526020016000905b828210156107f1578382906000526020600020018054611f2790614150565b80601f0160208091040260200160405190810160405280929190818152602001828054611f5390614150565b8015611fa05780601f10611f7557610100808354040283529160200191611fa0565b820191906000526020600020905b815481529060010190602001808311611f8357829003601f168201915b505050505081526020019060010190611f08565b611fcc6000805160206145918339815191523361128f565b611fe85760405162461bcd60e51b8152600401610b1690614222565b600b55565b611ff5612179565b6001600160a01b03811661205a5760405162461bcd60e51b815260206004820152602660248201527f4f776e61626c653a206e6577206f776e657220697320746865207a65726f206160448201526564647265737360d01b6064820152608401610b16565b612063816121d3565b50565b61206e612179565b61206360008051602061459183398151915282613109565b6120638133613113565b61209a828261128f565b610b29576000828152602081815260408083206001600160a01b03851684529091529020805460ff191660011790556120d03390565b6001600160a01b0316816001600160a01b0316837f2f8788117e7eff1d82e926ec794901d17c78024a50270940304540a733656f0d60405160405180910390a45050565b61211e828261128f565b15610b29576000828152602081815260408083206001600160a01b0385168085529252808320805460ff1916905551339285917ff6391f5c32d9c69d2a47ea670b442974b53935d1edc7fd64eb21e047a839171b9190a45050565b6001546001600160a01b03163314610cd15760405162461bcd60e51b815260206004820181905260248201527f4f776e61626c653a2063616c6c6572206973206e6f7420746865206f776e65726044820152606401610b16565b600180546001600160a01b038381166001600160a01b0319831681179093556040519116919082907f8be0079c531659141344cd1fd0a4f28419497f9722a3daafe3b4186f6b6457e090600090a35050565b60008082116122675760405162461bcd60e51b815260206004820152600e60248201526d646976696465206279207a65726f60901b6044820152606401610b16565b6000612273838561425b565b905061227f838561426f565b6122898285614203565b61229391906141a1565b84146122cc5760405162461bcd60e51b81526020600482015260086024820152676f766572666c6f7760c01b6044820152606401610b16565b9392505050565b6004546000908152600d602090815260408083208054825181850281018501909352808352919290919083018282801561233657602002820191906000526020600020905b81546001600160a01b03168152600190910190602001808311612318575b505050505090506000600f60006004548152602001908152602001600020805480602002602001604051908101604052809291908181526020016000905b828210156125905760008481526020908190206040805160a0810182526005860290920180546001600160a01b031683526001810180548351818702810187019094528084529394919385830193928301828280156123fc57602002820191906000526020600020905b81546001600160a01b031681526001909101906020018083116123de575b5050505050815260200160028201805480602002602001604051908101604052809291908181526020016000905b828210156124965760008481526020908190208301805460408051828502810185019091528181529283018282801561248257602002820191906000526020600020905b81548152602001906001019080831161246e575b50505050508152602001906001019061242a565b50505050815260200160038201805480602002602001604051908101604052809291908181526020016000905b8282101561256f5783829060005260206000200180546124e290614150565b80601f016020809104026020016040519081016040528092919081815260200182805461250e90614150565b801561255b5780601f106125305761010080835404028352916020019161255b565b820191906000526020600020905b81548152906001019060200180831161253e57829003601f168201915b5050505050815260200190600101906124c3565b50505050815260200160048201548152505081526020019060010190612374565b5050505090506000601360006014548152602001908152602001600020805480602002602001604051908101604052809291908181526020016000905b828210156126795783829060005260206000200180546125ec90614150565b80601f016020809104026020016040519081016040528092919081815260200182805461261890614150565b80156126655780601f1061263a57610100808354040283529160200191612665565b820191906000526020600020905b81548152906001019060200180831161264857829003601f168201915b5050505050815260200190600101906125cd565b505050509050600083516001600160401b0381111561269a5761269a613b23565b6040519080825280602002602001820160405280156126cd57816020015b60608152602001906001900390816126b85790505b509050600084516001600160401b038111156126eb576126eb613b23565b604051908082528060200260200182016040528015612714578160200160208202803683370190505b50905060005b8551811015612aa55784516001600160401b0381111561273c5761273c613b23565b6040519080825280602002602001820160405280156127b857816020015b6127a56040518060c0016040528060006001600160a01b0316815260200160006001600160a01b03168152602001606081526020016060815260200160008152602001600081525090565b81526020019060019003908161275a5790505b508382815181106127cb576127cb6141b9565b602002602001018190525060005b8551811015612a92576014548682815181106127f7576127f76141b9565b6020026020010151608001511461280d57612a80565b86828151811061281f5761281f6141b9565b60200260200101516001600160a01b0316868281518110612842576128426141b9565b6020026020010151600001516001600160a01b0316141561286257612a80565b6040518060c0016040528087838151811061287f5761287f6141b9565b6020026020010151600001516001600160a01b031681526020018884815181106128ab576128ab6141b9565b60200260200101516001600160a01b031681526020018783815181106128d3576128d36141b9565b60200260200101516040015184815181106128f0576128f06141b9565b6020026020010151815260200187838151811061290f5761290f6141b9565b602002602001015160600151848151811061292c5761292c6141b9565b602002602001015181526020016014548152602001600454815250848381518110612959576129596141b9565b60200260200101518281518110612972576129726141b9565b602002602001018190525060005b8551811015612a7e5787838151811061299b5761299b6141b9565b60200260200101516001600160a01b03168783815181106129be576129be6141b9565b60200260200101516020015184815181106129db576129db6141b9565b60200260200101516001600160a01b03161415612a6c57868281518110612a0457612a046141b9565b6020026020010151604001518381518110612a2157612a216141b9565b60200260200101518181518110612a3a57612a3a6141b9565b6020026020010151848481518110612a5457612a546141b9565b60200260200101818151612a6891906141a1565b9052505b80612a76816141cf565b915050612980565b505b80612a8a816141cf565b9150506127d9565b5080612a9d816141cf565b91505061271a565b506000805b8251811015612af1576000838281518110612ac757612ac76141b9565b60200260200101519050612adb8382613177565b9250508080612ae9906141cf565b915050612aaa565b5060045460009081526012602052604090204290558015613050576004546000908152600d60205260408120546001600160401b03811115612b3557612b35613b23565b604051908082528060200260200182016040528015612b5e578160200160208202803683370190505b50905060005b8751811015612bd0576000848281518110612b8157612b816141b9565b60200260200101519050612ba0612b9a82600954613193565b85612225565b838381518110612bb257612bb26141b9565b60209081029190910101525080612bc8816141cf565b915050612b64565b50612bdb87826131c0565b612be3613305565b6000612bf060045461134f565b80519091508015612c17576000612c09600a5483612225565b9050612c1583826133c5565b505b6007546001600160a01b031660005b8a5181101561304a576004546000908152600e60205260408120805483908110612c5257612c526141b9565b90600052602060002090600502016040518060a0016040529081600082018054612c7b90614150565b80601f0160208091040260200160405190810160405280929190818152602001828054612ca790614150565b8015612cf45780601f10612cc957610100808354040283529160200191612cf4565b820191906000526020600020905b815481529060010190602001808311612cd757829003601f168201915b5050505050815260200160018201805480602002602001604051908101604052809291908181526020016000905b82821015612dce578382906000526020600020018054612d4190614150565b80601f0160208091040260200160405190810160405280929190818152602001828054612d6d90614150565b8015612dba5780601f10612d8f57610100808354040283529160200191612dba565b820191906000526020600020905b815481529060010190602001808311612d9d57829003601f168201915b505050505081526020019060010190612d22565b50505050815260200160028201805480602002602001604051908101604052809291908181526020016000905b82821015612ea7578382906000526020600020018054612e1a90614150565b80601f0160208091040260200160405190810160405280929190818152602001828054612e4690614150565b8015612e935780601f10612e6857610100808354040283529160200191612e93565b820191906000526020600020905b815481529060010190602001808311612e7657829003601f168201915b505050505081526020019060010190612dfb565b5050509082525060038201546001600160a01b0316602080830191909152600490920154604091820152805160e081019091528251815288519293506000929091820190899086908110612efd57612efd6141b9565b60200260200101518152602001836040015181526020014281526020018e8581518110612f2c57612f2c6141b9565b60200260200101516001600160a01b03168152602001600454815260200183602001518152509050836001600160a01b031663eb3bdcce60026003846040518463ffffffff1660e01b8152600401612f8693929190614323565b600060405180830381600087803b158015612fa057600080fd5b505af1158015612fb4573d6000803e3d6000fd5b50505050836001600160a01b0316635b080940600260038d8781518110612fdd57612fdd6141b9565b60200260200101516040518463ffffffff1660e01b8152600401613003939291906143d4565b600060405180830381600087803b15801561301d57600080fd5b505af1158015613031573d6000803e3d6000fd5b5050505050508080613042906141cf565b915050612c26565b50505050505b505050505050565b60048054906000613068836144b6565b90915550506004546000908152601060205260409020429081905560115461308f916141a1565b600454600090815260126020526040902055565b6000805b83518110156130ff57826001600160a01b03168482815181106130cc576130cc6141b9565b60200260200101516001600160a01b031614156130ed57600191505061059a565b806130f7816141cf565b9150506130a7565b5060009392505050565b610b298282612090565b61311d828261128f565b610b2957613135816001600160a01b031660146134b1565b6131408360206134b1565b6040516020016131519291906144cf565b60408051601f198184030181529082905262461bcd60e51b8252610b1691600401614544565b60008061318483856141a1565b9050838110156122cc57600080fd5b6000806131a08385614203565b90508315806131b75750826131b5858361425b565b145b6122cc57600080fd5b6005546001600160a01b03166131d4575050565b80518251146132145760405162461bcd60e51b815260206004820152600c60248201526b1d1bc8084f48185b5bdd5b9d60a21b6044820152606401610b16565b6005546001600160a01b031660005b8351811015610a7a57816001600160a01b031663a9059cbb85838151811061324d5761324d6141b9565b6020026020010151858481518110613267576132676141b9565b60200260200101516040518363ffffffff1660e01b81526004016132a09291906001600160a01b03929092168252602082015260400190565b602060405180830381600087803b1580156132ba57600080fd5b505af11580156132ce573d6000803e3d6000fd5b505050506040513d601f19601f820116820180604052508101906132f29190614557565b50806132fd816141cf565b915050613223565b6005546001600160a01b031661331757565b6008546001600160a01b031661332957565b60006133336112b8565b905080156120635760055460085460405163a9059cbb60e01b81526001600160a01b03918216600482015260248101849052911690819063a9059cbb90604401602060405180830381600087803b15801561338d57600080fd5b505af11580156133a1573d6000803e3d6000fd5b505050506040513d601f19601f82011682018060405250810190610aa59190614557565b6005546001600160a01b03166133d9575050565b6005546001600160a01b031660005b8351811015610a7a57816001600160a01b031663a9059cbb858381518110613412576134126141b9565b6020026020010151856040518363ffffffff1660e01b815260040161344c9291906001600160a01b03929092168252602082015260400190565b602060405180830381600087803b15801561346657600080fd5b505af115801561347a573d6000803e3d6000fd5b505050506040513d601f19601f8201168201806040525081019061349e9190614557565b50806134a9816141cf565b9150506133e8565b606060006134c0836002614203565b6134cb9060026141a1565b6001600160401b038111156134e2576134e2613b23565b6040519080825280601f01601f19166020018201604052801561350c576020820181803683370190505b509050600360fc1b81600081518110613527576135276141b9565b60200101906001600160f81b031916908160001a905350600f60fb1b81600181518110613556576135566141b9565b60200101906001600160f81b031916908160001a905350600061357a846002614203565b6135859060016141a1565b90505b60018111156135fd576f181899199a1a9b1b9c1cb0b131b232b360811b85600f16601081106135b9576135b96141b9565b1a60f81b8282815181106135cf576135cf6141b9565b60200101906001600160f81b031916908160001a90535060049490941c936135f681614579565b9050613588565b5083156122cc5760405162461bcd60e51b815260206004820181905260248201527f537472696e67733a20686578206c656e67746820696e73756666696369656e746044820152606401610b16565b82805461365890614150565b90600052602060002090601f01602090048101928261367a57600085556136c0565b82601f1061369357805160ff19168380011785556136c0565b828001600101855582156136c0579182015b828111156136c05782518255916020019190600101906136a5565b506136cc9291506137d7565b5090565b82805482825590600052602060002090810192821561371d579160200282015b8281111561371d578251805161370d91849160209091019061364c565b50916020019190600101906136f0565b506136cc9291506137ec565b8280548282559060005260206000209081019282156136c0579160200282015b828111156136c057825182546001600160a01b0319166001600160a01b03909116178255602090920191600190910190613749565b8280548282559060005260206000209081019282156137cb579160200282015b828111156137cb57825180516137bb918491602090910190613809565b509160200191906001019061379e565b506136cc929150613843565b5b808211156136cc57600081556001016137d8565b808211156136cc5760006138008282613860565b506001016137ec565b8280548282559060005260206000209081019282156136c057916020028201828111156136c05782518255916020019190600101906136a5565b808211156136cc576000613857828261389a565b50600101613843565b50805461386c90614150565b6000825580601f1061387c575050565b601f01602090049060005260206000209081019061206391906137d7565b508054600082559060005260206000209081019061206391906137d7565b6000602082840312156138ca57600080fd5b81356001600160e01b0319811681146122cc57600080fd5b6000602082840312156138f457600080fd5b5035919050565b600081518084526020808501945080840160005b838110156139345781516001600160a01b03168752958201959082019060010161390f565b509495945050505050565b600081518084526020808501945080840160005b8381101561393457815187529582019590820190600101613953565b60005b8381101561398a578181015183820152602001613972565b83811115610a7a5750506000910152565b600081518084526139b381602086016020860161396f565b601f01601f19169290920160200192915050565b600081518084526020808501808196508360051b8101915082860160005b85811015613a0f5782840389526139fd84835161399b565b988501989350908401906001016139e5565b5091979650505050505050565b602080825282518282018190526000919060409081850190600581811b8701840188860187805b85811015613b13578a8403603f19018752825180516001600160a01b031685528981015160a08b870181905290613a7c828801826138fb565b838c0151888203898e015280518083529193508d0191508c830190808a1b84018e01875b82811015613ad357601f19868303018452613abc82865161393f565b91508f850194508f84019350600181019050613aa0565b5060609450848601519350898103858b0152613aef81856139c7565b6080968701519a90960199909952505050978a019750935091880191600101613a43565b50919a9950505050505050505050565b634e487b7160e01b600052604160045260246000fd5b604051601f8201601f191681016001600160401b0381118282101715613b6157613b61613b23565b604052919050565b600082601f830112613b7a57600080fd5b81356001600160401b03811115613b9357613b93613b23565b613ba6601f8201601f1916602001613b39565b818152846020838601011115613bbb57600080fd5b816020850160208301376000918101602001919091529392505050565b60006001600160401b03821115613bf157613bf1613b23565b5060051b60200190565b600082601f830112613c0c57600080fd5b81356020613c21613c1c83613bd8565b613b39565b82815260059290921b84018101918181019086841115613c4057600080fd5b8286015b84811015613c7f5780356001600160401b03811115613c635760008081fd5b613c718986838b0101613b69565b845250918301918301613c44565b509695505050505050565b600080600060608486031215613c9f57600080fd5b83356001600160401b0380821115613cb657600080fd5b613cc287838801613b69565b94506020860135915080821115613cd857600080fd5b613ce487838801613bfb565b93506040860135915080821115613cfa57600080fd5b50613d0786828701613bfb565b9150509250925092565b80356001600160a01b0381168114613d2857600080fd5b919050565b60008060408385031215613d4057600080fd5b82359150613d5060208401613d11565b90509250929050565b6020815260006122cc60208301846139c7565b600060208284031215613d7e57600080fd5b6122cc82613d11565b6000602080835260e0830184518285015281850151604060c08187015282825180855261010094508488019150848160051b8901019450858401935060005b81811015613e4f5760ff19898703018352845160a08151818952613dec828a018261399b565b915050888201518882038a8a0152613e0482826139c7565b91505085820151888203878a0152613e1c82826139c7565b6060848101516001600160a01b0316908b0152608093840151939099019290925250509386019391860191600101613dc6565b5050508087015193505050601f1980858303016060860152613e7182846138fb565b925060608601516080860152608086015160a086015260a08601519150808584030160c086015250613ea382826139c7565b95945050505050565b60008060408385031215613ebf57600080fd5b50508035926020909101359150565b6020808252825182820181905260009190848201906040850190845b81811015613f0f5783516001600160a01b031683529284019291840191600101613eea565b50909695505050505050565b60008060408385031215613f2e57600080fd5b613f3783613d11565b9150613d5060208401613d11565b600060208284031215613f5757600080fd5b81356001600160401b03811115613f6d57600080fd5b613f7984828501613bfb565b949350505050565b600082601f830112613f9257600080fd5b81356020613fa2613c1c83613bd8565b828152600592831b8501820192828201919087851115613fc157600080fd5b8387015b858110156140545780356001600160401b03811115613fe45760008081fd5b8801603f81018a13613ff65760008081fd5b858101356040614008613c1c83613bd8565b82815291851b8301810191888101908d8411156140255760008081fd5b938201935b838510156140435784358252938901939089019061402a565b885250505093850193508401613fc5565b5090979650505050505050565b6000806000806080858703121561407757600080fd5b843593506020808601356001600160401b038082111561409657600080fd5b818801915088601f8301126140aa57600080fd5b81356140b8613c1c82613bd8565b81815260059190911b8301840190848101908b8311156140d757600080fd5b938501935b828510156140fc576140ed85613d11565b825293850193908501906140dc565b97505050604088013592508083111561411457600080fd5b61412089848a01613f81565b9450606088013592508083111561413657600080fd5b505061414487828801613bfb565b91505092959194509250565b600181811c9082168061416457607f821691505b6020821081141561418557634e487b7160e01b600052602260045260246000fd5b50919050565b634e487b7160e01b600052601160045260246000fd5b600082198211156141b4576141b461418b565b500190565b634e487b7160e01b600052603260045260246000fd5b60006000198214156141e3576141e361418b565b5060010190565b6000602082840312156141fc57600080fd5b5051919050565b600081600019048311821515161561421d5761421d61418b565b500290565b6020808252600990820152682737ba1030b236b4b760b91b604082015260600190565b634e487b7160e01b600052601260045260246000fd5b60008261426a5761426a614245565b500490565b60008261427e5761427e614245565b500690565b8054600090600181811c908083168061429d57607f831692505b60208084108214156142bf57634e487b7160e01b600052602260045260246000fd5b838852602088018280156142da57600181146142eb57614316565b60ff19871682528282019750614316565b60008981526020902060005b87811015614310578154848201529086019084016142f7565b83019850505b5050505050505092915050565b6060815260006143366060830186614283565b82810360208401526143488186614283565b90508281036040840152835160e0825261436560e083018261399b565b9050602085015160208301526040850151828203604084015261438882826139c7565b9150506060850151606083015260018060a01b03608086015116608083015260a085015160a083015260c085015182820360c08401526143c882826139c7565b98975050505050505050565b600060608083526143e781840187614283565b6020848203818601526143fa8288614283565b91506040858303818701528287518085528385019150838160051b860101848a0160005b838110156144a457878303601f19018552815180516001600160a01b0390811685528882015116888501528681015160c0888601819052906144628287018261393f565b9150508a8201518582038c87015261447a828261399b565b6080848101519088015260a09384015193909601929092525050938601939086019060010161441e565b50909c9b505050505050505050505050565b60006001600160ff1b038214156141e3576141e361418b565b7f416363657373436f6e74726f6c3a206163636f756e742000000000000000000081526000835161450781601785016020880161396f565b7001034b99036b4b9b9b4b733903937b6329607d1b601791840191820152835161453881602884016020880161396f565b01602801949350505050565b6020815260006122cc602083018461399b565b60006020828403121561456957600080fd5b815180151581146122cc57600080fd5b6000816145885761458861418b565b50600019019056fe05477c39c14a8a45f68e248e875c7b89913df266bcc8ea9804f3160438f36dfda2646970667358221220d6e43fbe91ede3657b97c7aba558f4f4c30f276b28803cff681da4e9c9c48ad064736f6c63430008090033a26469706673582212206b1eb03e659f84a0f165686e9ea4011ef9811670b43ba0cfe6e4990873b2599064736f6c63430008090033",
  "linkReferences": {},
  "deployedLinkReferences": {}
}