{
  "_format": "hh-sol-artifact-1",
  "contractName": "PollFactory",
  "sourceName": "contracts/PollCreator.sol",
  "abi": [
    {
      "anonymous": false,
      "inputs": [
        {
          "indexed": true,
          "internalType": "address",
          "name": "previousOwner",
          "type": "address"
        },
        {
          "indexed": true,
          "internalType": "address",
          "name": "newOwner",
          "type": "address"
        }
      ],
      "name": "OwnershipTransferred",
      "type": "event"
    },
    {
      "anonymous": false,
      "inputs": [
        {
          "indexed": true,
          "internalType": "bytes32",
          "name": "role",
          "type": "bytes32"
        },
        {
          "indexed": true,
          "internalType": "bytes32",
          "name": "previousAdminRole",
          "type": "bytes32"
        },
        {
          "indexed": true,
          "internalType": "bytes32",
          "name": "newAdminRole",
          "type": "bytes32"
        }
      ],
      "name": "RoleAdminChanged",
      "type": "event"
    },
    {
      "anonymous": false,
      "inputs": [
        {
          "indexed": true,
          "internalType": "bytes32",
          "name": "role",
          "type": "bytes32"
        },
        {
          "indexed": true,
          "internalType": "address",
          "name": "account",
          "type": "address"
        },
        {
          "indexed": true,
          "internalType": "address",
          "name": "sender",
          "type": "address"
        }
      ],
      "name": "RoleGranted",
      "type": "event"
    },
    {
      "anonymous": false,
      "inputs": [
        {
          "indexed": true,
          "internalType": "bytes32",
          "name": "role",
          "type": "bytes32"
        },
        {
          "indexed": true,
          "internalType": "address",
          "name": "account",
          "type": "address"
        },
        {
          "indexed": true,
          "internalType": "address",
          "name": "sender",
          "type": "address"
        }
      ],
      "name": "RoleRevoked",
      "type": "event"
    },
    {
      "inputs": [],
      "name": "DEFAULT_ADMIN_ROLE",
      "outputs": [
        {
          "internalType": "bytes32",
          "name": "",
          "type": "bytes32"
        }
      ],
      "stateMutability": "view",
      "type": "function"
    },
    {
      "inputs": [
        {
          "internalType": "string",
          "name": "daoId",
          "type": "string"
        },
        {
          "internalType": "string",
          "name": "projectId",
          "type": "string"
        },
        {
          "internalType": "address",
          "name": "sender",
          "type": "address"
        }
      ],
      "name": "createPoll",
      "outputs": [
        {
          "internalType": "address",
          "name": "",
          "type": "address"
        }
      ],
      "stateMutability": "nonpayable",
      "type": "function"
    },
    {
      "inputs": [
        {
          "internalType": "bytes32",
          "name": "role",
          "type": "bytes32"
        }
      ],
      "name": "getRoleAdmin",
      "outputs": [
        {
          "internalType": "bytes32",
          "name": "",
          "type": "bytes32"
        }
      ],
      "stateMutability": "view",
      "type": "function"
    },
    {
      "inputs": [
        {
          "internalType": "bytes32",
          "name": "role",
          "type": "bytes32"
        },
        {
          "internalType": "address",
          "name": "account",
          "type": "address"
        }
      ],
      "name": "grantRole",
      "outputs": [],
      "stateMutability": "nonpayable",
      "type": "function"
    },
    {
      "inputs": [
        {
          "internalType": "bytes32",
          "name": "role",
          "type": "bytes32"
        },
        {
          "internalType": "address",
          "name": "account",
          "type": "address"
        }
      ],
      "name": "hasRole",
      "outputs": [
        {
          "internalType": "bool",
          "name": "",
          "type": "bool"
        }
      ],
      "stateMutability": "view",
      "type": "function"
    },
    {
      "inputs": [],
      "name": "owner",
      "outputs": [
        {
          "internalType": "address",
          "name": "",
          "type": "address"
        }
      ],
      "stateMutability": "view",
      "type": "function"
    },
    {
      "inputs": [],
      "name": "renounceOwnership",
      "outputs": [],
      "stateMutability": "nonpayable",
      "type": "function"
    },
    {
      "inputs": [
        {
          "internalType": "bytes32",
          "name": "role",
          "type": "bytes32"
        },
        {
          "internalType": "address",
          "name": "account",
          "type": "address"
        }
      ],
      "name": "renounceRole",
      "outputs": [],
      "stateMutability": "nonpayable",
      "type": "function"
    },
    {
      "inputs": [
        {
          "internalType": "bytes32",
          "name": "role",
          "type": "bytes32"
        },
        {
          "internalType": "address",
          "name": "account",
          "type": "address"
        }
      ],
      "name": "revokeRole",
      "outputs": [],
      "stateMutability": "nonpayable",
      "type": "function"
    },
    {
      "inputs": [
        {
          "internalType": "address",
          "name": "addr",
          "type": "address"
        }
      ],
      "name": "setCommissionAddress",
      "outputs": [],
      "stateMutability": "nonpayable",
      "type": "function"
    },
    {
      "inputs": [
        {
          "internalType": "uint256",
          "name": "rate",
          "type": "uint256"
        }
      ],
      "name": "setCommissionRate",
      "outputs": [],
      "stateMutability": "nonpayable",
      "type": "function"
    },
    {
      "inputs": [
        {
          "internalType": "bytes4",
          "name": "interfaceId",
          "type": "bytes4"
        }
      ],
      "name": "supportsInterface",
      "outputs": [
        {
          "internalType": "bool",
          "name": "",
          "type": "bool"
        }
      ],
      "stateMutability": "view",
      "type": "function"
    },
    {
      "inputs": [
        {
          "internalType": "address",
          "name": "newOwner",
          "type": "address"
        }
      ],
      "name": "transferOwnership",
      "outputs": [],
      "stateMutability": "nonpayable",
      "type": "function"
    }
  ],
  "bytecode": "0x6080604052600560025534801561001557600080fd5b5061001f33610024565b610076565b600180546001600160a01b038381166001600160a01b0319831681179093556040519116919082907f8be0079c531659141344cd1fd0a4f28419497f9722a3daafe3b4186f6b6457e090600090a35050565b615815806100856000396000f3fe60806040523480156200001157600080fd5b5060043610620000e05760003560e01c806340fff80c116200009757806391d14854116200006e57806391d1485414620001f0578063a217fddf1462000207578063d547741f1462000210578063f2fde38b146200022757600080fd5b806340fff80c14620001bd578063715018a614620001d45780638da5cb5b14620001de57600080fd5b806301ffc9a714620000e5578063063f19b3146200011157806319fac8fd1462000141578063248a9ca3146200015a5780632f2ff15d146200018f57806336568abe14620001a6575b600080fd5b620000fc620000f636600462000a61565b6200023e565b60405190151581526020015b60405180910390f35b620001286200012236600462000b55565b62000276565b6040516001600160a01b03909116815260200162000108565b620001586200015236600462000bd2565b620004a5565b005b620001806200016b36600462000bd2565b60009081526020819052604090206001015490565b60405190815260200162000108565b62000158620001a036600462000bec565b620004b4565b62000158620001b736600462000bec565b620004e2565b62000158620001ce36600462000c1b565b62000564565b6200015862000590565b6001546001600160a01b031662000128565b620000fc6200020136600462000bec565b620005a8565b62000180600081565b620001586200022136600462000bec565b620005d1565b620001586200023836600462000c1b565b620005fa565b60006001600160e01b03198216637965db0b60e01b14806200027057506301ffc9a760e01b6001600160e01b03198316145b92915050565b6003546000906001600160a01b0316620002d75760405162461bcd60e51b815260206004820152601d60248201527f636f6d6d697373696f6e2061646472657373206973206e6f742073657400000060448201526064015b60405180910390fd5b600254600354604051600092879287926001600160a01b0390911690620002fe9062000a53565b6200030d949392919062000c9a565b604051809103906000f0801580156200032a573d6000803e3d6000fd5b509050806001600160a01b038116620003865760405162461bcd60e51b815260206004820152601760248201527f506f6c6c206164647265737320697320696e76616c69640000000000000000006044820152606401620002ce565b60405163b8cb6b7960e01b81523360048201526001600160a01b0383169063b8cb6b7990602401600060405180830381600087803b158015620003c857600080fd5b505af1158015620003dd573d6000803e3d6000fd5b505060405163fc39870b60e01b81526001600160a01b0387811660048301528516925063fc39870b9150602401600060405180830381600087803b1580156200042557600080fd5b505af11580156200043a573d6000803e3d6000fd5b505060405163f2fde38b60e01b81526001600160a01b0387811660048301528516925063f2fde38b9150602401600060405180830381600087803b1580156200048257600080fd5b505af115801562000497573d6000803e3d6000fd5b509298975050505050505050565b620004af62000679565b600255565b600082815260208190526040902060010154620004d181620006d5565b620004dd8383620006e1565b505050565b6001600160a01b0381163314620005545760405162461bcd60e51b815260206004820152602f60248201527f416363657373436f6e74726f6c3a2063616e206f6e6c792072656e6f756e636560448201526e103937b632b9903337b91039b2b63360891b6064820152608401620002ce565b62000560828262000769565b5050565b6200056e62000679565b600380546001600160a01b0319166001600160a01b0392909216919091179055565b6200059a62000679565b620005a66000620007d1565b565b6000918252602082815260408084206001600160a01b0393909316845291905290205460ff1690565b600082815260208190526040902060010154620005ee81620006d5565b620004dd838362000769565b6200060462000679565b6001600160a01b0381166200066b5760405162461bcd60e51b815260206004820152602660248201527f4f776e61626c653a206e6577206f776e657220697320746865207a65726f206160448201526564647265737360d01b6064820152608401620002ce565b6200067681620007d1565b50565b6001546001600160a01b03163314620005a65760405162461bcd60e51b815260206004820181905260248201527f4f776e61626c653a2063616c6c6572206973206e6f7420746865206f776e65726044820152606401620002ce565b62000676813362000823565b620006ed8282620005a8565b62000560576000828152602081815260408083206001600160a01b03851684529091529020805460ff19166001179055620007253390565b6001600160a01b0316816001600160a01b0316837f2f8788117e7eff1d82e926ec794901d17c78024a50270940304540a733656f0d60405160405180910390a45050565b620007758282620005a8565b1562000560576000828152602081815260408083206001600160a01b0385168085529252808320805460ff1916905551339285917ff6391f5c32d9c69d2a47ea670b442974b53935d1edc7fd64eb21e047a839171b9190a45050565b600180546001600160a01b038381166001600160a01b0319831681179093556040519116919082907f8be0079c531659141344cd1fd0a4f28419497f9722a3daafe3b4186f6b6457e090600090a35050565b6200082f8282620005a8565b62000560576200084a816001600160a01b0316601462000892565b6200085783602062000892565b6040516020016200086a92919062000ce5565b60408051601f198184030181529082905262461bcd60e51b8252620002ce9160040162000d5e565b60606000620008a383600262000d89565b620008b090600262000dab565b67ffffffffffffffff811115620008cb57620008cb62000a8d565b6040519080825280601f01601f191660200182016040528015620008f6576020820181803683370190505b509050600360fc1b8160008151811062000914576200091462000dc6565b60200101906001600160f81b031916908160001a905350600f60fb1b8160018151811062000946576200094662000dc6565b60200101906001600160f81b031916908160001a90535060006200096c84600262000d89565b6200097990600162000dab565b90505b6001811115620009fb576f181899199a1a9b1b9c1cb0b131b232b360811b85600f1660108110620009b157620009b162000dc6565b1a60f81b828281518110620009ca57620009ca62000dc6565b60200101906001600160f81b031916908160001a90535060049490941c93620009f38162000ddc565b90506200097c565b50831562000a4c5760405162461bcd60e51b815260206004820181905260248201527f537472696e67733a20686578206c656e67746820696e73756666696369656e746044820152606401620002ce565b9392505050565b6149e98062000df783390190565b60006020828403121562000a7457600080fd5b81356001600160e01b03198116811462000a4c57600080fd5b634e487b7160e01b600052604160045260246000fd5b600082601f83011262000ab557600080fd5b813567ffffffffffffffff8082111562000ad35762000ad362000a8d565b604051601f8301601f19908116603f0116810190828211818310171562000afe5762000afe62000a8d565b8160405283815286602085880101111562000b1857600080fd5b836020870160208301376000602085830101528094505050505092915050565b80356001600160a01b038116811462000b5057600080fd5b919050565b60008060006060848603121562000b6b57600080fd5b833567ffffffffffffffff8082111562000b8457600080fd5b62000b928783880162000aa3565b9450602086013591508082111562000ba957600080fd5b5062000bb88682870162000aa3565b92505062000bc96040850162000b38565b90509250925092565b60006020828403121562000be557600080fd5b5035919050565b6000806040838503121562000c0057600080fd5b8235915062000c126020840162000b38565b90509250929050565b60006020828403121562000c2e57600080fd5b62000a4c8262000b38565b60005b8381101562000c5657818101518382015260200162000c3c565b8381111562000c66576000848401525b50505050565b6000815180845262000c8681602086016020860162000c39565b601f01601f19169290920160200192915050565b60808152600062000caf608083018762000c6c565b828103602084015262000cc3818762000c6c565b604084019590955250506001600160a01b039190911660609091015292915050565b7f416363657373436f6e74726f6c3a206163636f756e742000000000000000000081526000835162000d1f81601785016020880162000c39565b7001034b99036b4b9b9b4b733903937b6329607d1b601791840191820152835162000d5281602884016020880162000c39565b01602801949350505050565b60208152600062000a4c602083018462000c6c565b634e487b7160e01b600052601160045260246000fd5b600081600019048311821515161562000da65762000da662000d73565b500290565b6000821982111562000dc15762000dc162000d73565b500190565b634e487b7160e01b600052603260045260246000fd5b60008162000dee5762000dee62000d73565b50600019019056fe6080604052600060045560006009556000600a556064600b556005600c5562093a8060115560006014553480156200003657600080fd5b50604051620049e9380380620049e98339810160408190526200005991620002ba565b6200006433620000f5565b83516200007990600290602087019062000147565b5082516200008f90600390602086019062000147565b50600c829055600880546001600160a01b0319166001600160a01b038316179055620000bf42621275006200034f565b6000805260126020527f7e7fa33969761a458e04f477e039a608702b4f924981d6653935a8319a08ad7b5550620003b392505050565b600180546001600160a01b038381166001600160a01b0319831681179093556040519116919082907f8be0079c531659141344cd1fd0a4f28419497f9722a3daafe3b4186f6b6457e090600090a35050565b828054620001559062000376565b90600052602060002090601f016020900481019282620001795760008555620001c4565b82601f106200019457805160ff1916838001178555620001c4565b82800160010185558215620001c4579182015b82811115620001c4578251825591602001919060010190620001a7565b50620001d2929150620001d6565b5090565b5b80821115620001d25760008155600101620001d7565b634e487b7160e01b600052604160045260246000fd5b600082601f8301126200021557600080fd5b81516001600160401b0380821115620002325762000232620001ed565b604051601f8301601f19908116603f011681019082821181831017156200025d576200025d620001ed565b816040528381526020925086838588010111156200027a57600080fd5b600091505b838210156200029e57858201830151818301840152908201906200027f565b83821115620002b05760008385830101525b9695505050505050565b60008060008060808587031215620002d157600080fd5b84516001600160401b0380821115620002e957600080fd5b620002f78883890162000203565b955060208701519150808211156200030e57600080fd5b506200031d8782880162000203565b60408701516060880151919550935090506001600160a01b03811681146200034457600080fd5b939692955090935050565b600082198211156200037157634e487b7160e01b600052601160045260246000fd5b500190565b600181811c908216806200038b57607f821691505b60208210811415620003ad57634e487b7160e01b600052602260045260246000fd5b50919050565b61462680620003c36000396000f3fe608060405234801561001057600080fd5b50600436106102535760003560e01c806397af905211610146578063d384e4d4116100c3578063d8f8f07a11610087578063d8f8f07a146104ea578063ea8f1683146104fd578063ea9b2ffa14610510578063f2fde38b14610523578063fc39870b14610536578063fe98bbc71461054957600080fd5b8063d384e4d4146104b5578063d47587f2146104bd578063d547741f146104c6578063d76e79d4146104d9578063d899744f146104e157600080fd5b8063ade936371161010a578063ade9363714610460578063b8cb6b7914610469578063bc42d6071461047c578063c7afe9f21461048f578063c97e60e3146104a257600080fd5b806397af9052146104145780639f4d2dcf1461041c578063a092a7a81461042f578063a217fddf1461044f578063a778bc081461045757600080fd5b80637034482a116101d457806384a0f2cd1161019857806384a0f2cd146103b45780638a3e8620146103bd5780638da5cb5b146103dd57806391d14854146103ee578063931742d31461040157600080fd5b80637034482a1461035c57806370bd8e9314610371578063715018a61461038457806372b4ca471461038c5780637e78d68a1461039457600080fd5b806323628d0e1161021b57806323628d0e146102eb578063248a9ca3146103005780632f2ff15d1461032357806336568abe146103365780635bf8633a1461034957600080fd5b806301ffc9a714610258578063022a2d9114610280578063132002fc146102a05780631a454ea6146102b75780631c004729146102c0575b600080fd5b61026b6102663660046138e2565b610569565b60405190151581526020015b60405180910390f35b61029361028e36600461390c565b6105a0565b6040516102779190613a43565b6102a960115481565b604051908152602001610277565b6102a9600c5481565b6005546102d3906001600160a01b031681565b6040516001600160a01b039091168152602001610277565b6102fe6102f9366004613cb1565b6107fc565b005b6102a961030e36600461390c565b60009081526020819052604090206001015490565b6102fe610331366004613d54565b610a80565b6102fe610344366004613d54565b610aaa565b6006546102d3906001600160a01b031681565b610364610b2d565b6040516102779190613d80565b61026b61037f366004613d93565b610c19565b6102fe610cbf565b610293610cd3565b6102a96103a236600461390c565b60126020526000908152604090205481565b6102a960045481565b6103d06103cb36600461390c565b610f26565b6040516102779190613dae565b6001546001600160a01b03166102d3565b61026b6103fc366004613d54565b61128f565b6008546102d3906001600160a01b031681565b6102a96112b8565b6102fe61042a366004613ed3565b6112e6565b61044261043d36600461390c565b61134f565b6040516102779190613ef5565b6102a9600081565b6102a9600a5481565b6102a9600b5481565b6102fe610477366004613d93565b611651565b6102fe61048a366004613ed3565b61167b565b6102fe61049d366004613f42565b6116ba565b6102fe6104b0366004613f6c565b61171c565b61044261178b565b6102a960095481565b6102fe6104d4366004613d54565b6117f8565b6102fe61181d565b6102a960145481565b61026b6104f836600461407b565b611861565b61036461050b36600461390c565b611e1e565b6102fe61051e36600461390c565b611eff565b6102fe610531366004613d93565b611f38565b6102fe610544366004613d93565b611fb1565b6102a961055736600461390c565b60106020526000908152604090205481565b60006001600160e01b03198216637965db0b60e01b148061059a57506301ffc9a760e01b6001600160e01b03198316145b92915050565b6060600f6000838152602001908152602001600020805480602002602001604051908101604052809291908181526020016000905b828210156107f15760008481526020908190206040805160a0810182526005860290920180546001600160a01b0316835260018101805483518187028101870190945280845293949193858301939283018282801561065d57602002820191906000526020600020905b81546001600160a01b0316815260019091019060200180831161063f575b5050505050815260200160028201805480602002602001604051908101604052809291908181526020016000905b828210156106f7576000848152602090819020830180546040805182850281018501909152818152928301828280156106e357602002820191906000526020600020905b8154815260200190600101908083116106cf575b50505050508152602001906001019061068b565b50505050815260200160038201805480602002602001604051908101604052809291908181526020016000905b828210156107d05783829060005260206000200180546107439061416a565b80601f016020809104026020016040519081016040528092919081815260200182805461076f9061416a565b80156107bc5780601f10610791576101008083540402835291602001916107bc565b820191906000526020600020905b81548152906001019060200180831161079f57829003601f168201915b505050505081526020019060010190610724565b505050508152602001600482015481525050815260200190600101906105d5565b505050509050919050565b6000600b54600161080d91906141bb565b905060005b6004546000908152600d6020526040902054811015610882576004546000908152600d60205260409020805433919083908110610851576108516141d3565b6000918252602090912001546001600160a01b03161415610870578091505b8061087a816141e9565b915050610812565b50600b546108919060016141bb565b81141561099557600480546000908152600d602090815260408083208054600181810183559185528385200180546001600160a01b031916339081179091559454808552600e8452828520835160a0810185528b81528086018b9052938401899052606084019690965260808301528454908101855593835291819020825180519394600502909101926109289284920190613676565b50602082810151805161094192600185019201906136fa565b506040820151805161095d9160028401916020909101906136fa565b5060608201516003820180546001600160a01b0319166001600160a01b03909216919091179055608090910151600490910155610a7a565b83600e6000600454815260200190815260200160002082815481106109bc576109bc6141d3565b906000526020600020906005020160000190805190602001906109e0929190613676565b5082600e600060045481526020019081526020016000208281548110610a0857610a086141d3565b90600052602060002090600502016001019080519060200190610a2c9291906136fa565b5081600e600060045481526020019081526020016000208281548110610a5457610a546141d3565b90600052602060002090600502016002019080519060200190610a789291906136fa565b505b50505050565b600082815260208190526040902060010154610a9b81611fd1565b610aa58383611fdb565b505050565b6001600160a01b0381163314610b1f5760405162461bcd60e51b815260206004820152602f60248201527f416363657373436f6e74726f6c3a2063616e206f6e6c792072656e6f756e636560448201526e103937b632b9903337b91039b2b63360891b60648201526084015b60405180910390fd5b610b29828261205f565b5050565b6060601360006014548152602001908152602001600020805480602002602001604051908101604052809291908181526020016000905b82821015610c10578382906000526020600020018054610b839061416a565b80601f0160208091040260200160405190810160405280929190818152602001828054610baf9061416a565b8015610bfc5780601f10610bd157610100808354040283529160200191610bfc565b820191906000526020600020905b815481529060010190602001808311610bdf57829003601f168201915b505050505081526020019060010190610b64565b50505050905090565b6006546000906001600160a01b0316610c3457506001919050565b6006546040516370a0823160e01b81526001600160a01b0384811660048301529091169060019082906370a082319060240160206040518083038186803b158015610c7e57600080fd5b505afa158015610c92573d6000803e3d6000fd5b505050506040513d601f19601f82011682018060405250810190610cb69190614204565b10159392505050565b610cc76120c4565b610cd1600061211e565b565b6060600f60006004548152602001908152602001600020805480602002602001604051908101604052809291908181526020016000905b82821015610c105760008481526020908190206040805160a0810182526005860290920180546001600160a01b03168352600181018054835181870281018701909452808452939491938583019392830182828015610d9257602002820191906000526020600020905b81546001600160a01b03168152600190910190602001808311610d74575b5050505050815260200160028201805480602002602001604051908101604052809291908181526020016000905b82821015610e2c57600084815260209081902083018054604080518285028101850190915281815292830182828015610e1857602002820191906000526020600020905b815481526020019060010190808311610e04575b505050505081526020019060010190610dc0565b50505050815260200160038201805480602002602001604051908101604052809291908181526020016000905b82821015610f05578382906000526020600020018054610e789061416a565b80601f0160208091040260200160405190810160405280929190818152602001828054610ea49061416a565b8015610ef15780601f10610ec657610100808354040283529160200191610ef1565b820191906000526020600020905b815481529060010190602001808311610ed457829003601f168201915b505050505081526020019060010190610e59565b50505050815260200160048201548152505081526020019060010190610d0a565b610f5f6040518060c001604052806000815260200160608152602001606081526020016000815260200160008152602001606081525090565b6000828152600e6020908152604080832080548251818502810185019093528083529192909190849084015b8282101561122457838290600052602060002090600502016040518060a0016040529081600082018054610fbe9061416a565b80601f0160208091040260200160405190810160405280929190818152602001828054610fea9061416a565b80156110375780601f1061100c57610100808354040283529160200191611037565b820191906000526020600020905b81548152906001019060200180831161101a57829003601f168201915b5050505050815260200160018201805480602002602001604051908101604052809291908181526020016000905b828210156111115783829060005260206000200180546110849061416a565b80601f01602080910402602001604051908101604052809291908181526020018280546110b09061416a565b80156110fd5780601f106110d2576101008083540402835291602001916110fd565b820191906000526020600020905b8154815290600101906020018083116110e057829003601f168201915b505050505081526020019060010190611065565b50505050815260200160028201805480602002602001604051908101604052809291908181526020016000905b828210156111ea57838290600052602060002001805461115d9061416a565b80601f01602080910402602001604051908101604052809291908181526020018280546111899061416a565b80156111d65780601f106111ab576101008083540402835291602001916111d6565b820191906000526020600020905b8154815290600101906020018083116111b957829003601f168201915b50505050508152602001906001019061113e565b5050509082525060038201546001600160a01b03166020808301919091526004909201546040909101529082526001929092019101610f8b565b50505050905060006112358461134f565b6000858152601060209081526040808320546012909252822054929350919061125c610b2d565b6040805160c081018252988952602089019690965294870193909352606086019190915260808501525060a08301525090565b6000918252602082815260408084206001600160a01b0393909316845291905290205460ff1690565b6000600c546112d7600954600a546112d091906141bb565b6064612170565b6112e1919061421d565b905090565b6112fe6000805160206145d18339815191523361128f565b61131a5760405162461bcd60e51b8152600401610b169061423c565b60118190556000828152601060205260409020546113399082906141bb565b6000928352601260205260409092209190915550565b6000818152600f60209081526040808320805482518185028101850190935280835260609493849084015b828210156115965760008481526020908190206040805160a0810182526005860290920180546001600160a01b0316835260018101805483518187028101870190945280845293949193858301939283018282801561140257602002820191906000526020600020905b81546001600160a01b031681526001909101906020018083116113e4575b5050505050815260200160028201805480602002602001604051908101604052809291908181526020016000905b8282101561149c5760008481526020908190208301805460408051828502810185019091528181529283018282801561148857602002820191906000526020600020905b815481526020019060010190808311611474575b505050505081526020019060010190611430565b50505050815260200160038201805480602002602001604051908101604052809291908181526020016000905b828210156115755783829060005260206000200180546114e89061416a565b80601f01602080910402602001604051908101604052809291908181526020018280546115149061416a565b80156115615780601f1061153657610100808354040283529160200191611561565b820191906000526020600020905b81548152906001019060200180831161154457829003601f168201915b5050505050815260200190600101906114c9565b5050505081526020016004820154815250508152602001906001019061137a565b505050509050600081516001600160401b038111156115b7576115b7613b4a565b6040519080825280602002602001820160405280156115e0578160200160208202803683370190505b50905060005b825181101561164957828181518110611601576116016141d3565b60200260200101516000015182828151811061161f5761161f6141d3565b6001600160a01b039092166020928302919091019091015280611641816141e9565b9150506115e6565b509392505050565b6116596120c4565b600780546001600160a01b0319166001600160a01b0392909216919091179055565b6116936000805160206145d18339815191523361128f565b6116af5760405162461bcd60e51b8152600401610b169061423c565b600991909155600a55565b6116d26000805160206145d18339815191523361128f565b6116ee5760405162461bcd60e51b8152600401610b169061423c565b600580546001600160a01b039384166001600160a01b03199182161790915560068054929093169116179055565b6117346000805160206145d18339815191523361128f565b6117505760405162461bcd60e51b8152600401610b169061423c565b8060136000601460008154611764906141e9565b91905081905581526020019081526020016000209080519060200190610b299291906136fa565b6004546000908152600d60209081526040918290208054835181840281018401909452808452606093928301828280156117ee57602002820191906000526020600020905b81546001600160a01b031681526001909101906020018083116117d0575b5050505050905090565b60008281526020819052604090206001015461181381611fd1565b610aa5838361205f565b6118356000805160206145d18339815191523361128f565b6118515760405162461bcd60e51b8152600401610b169061423c565b61185961221e565b610cd1612fc8565b60008061186d8661134f565b905061187833610c19565b6118bc5760405162461bcd60e51b81526020600482015260156024820152743737ba1032b634b3b4b13632903a37903b37ba329760591b6044820152606401610b16565b84516118fe5760405162461bcd60e51b815260206004820152601160248201527021b0b73234b230ba32b99032b6b83a3c9760791b6044820152606401610b16565b84518451146119405760405162461bcd60e51b815260206004820152600e60248201526d696e76616c696420706f696e747360901b6044820152606401610b16565b6000601360006014548152602001908152602001600020805480602002602001604051908101604052809291908181526020016000905b82821015611a235783829060005260206000200180546119969061416a565b80601f01602080910402602001604051908101604052809291908181526020018280546119c29061416a565b8015611a0f5780601f106119e457610100808354040283529160200191611a0f565b820191906000526020600020905b8154815290600101906020018083116119f257829003601f168201915b505050505081526020019060010190611977565b50505050905060005b8651811015611c0c576000888152600d60209081526040918290208054835181840281018401909452808452611aba9392830182828015611a9657602002820191906000526020600020905b81546001600160a01b03168152600190910190602001808311611a78575b5050505050888381518110611aad57611aad6141d3565b6020026020010151613013565b611afa5760405162461bcd60e51b8152602060048201526011602482015270496e76616c69642063616e64696461746560781b6044820152606401610b16565b60005b8251811015611bf9576000878381518110611b1a57611b1a6141d3565b60200260200101518281518110611b3357611b336141d3565b60200260200101511015611b7a5760405162461bcd60e51b815260206004820152600e60248201526d496e76616c696420706f696e747360901b6044820152606401610b16565b336001600160a01b0316888381518110611b9657611b966141d3565b60200260200101516001600160a01b03161415611be7576000878381518110611bc157611bc16141d3565b60200260200101518281518110611bda57611bda6141d3565b6020026020010181815250505b80611bf1816141e9565b915050611afd565b5080611c04816141e9565b915050611a2c565b506000600b546001611c1e91906141bb565b905060005b8351811015611c7557336001600160a01b0316848281518110611c4857611c486141d3565b60200260200101516001600160a01b03161415611c63578091505b80611c6d816141e9565b915050611c23565b506040805160a08101825233815260208101899052908101879052606081018690526014546080820152600b54611cad9060016141bb565b821415611d5a576000898152600f60209081526040822080546001808201835591845292829020845160059094020180546001600160a01b0319166001600160a01b03909416939093178355838201518051859493611d10938501920190613753565b5060408201518051611d2c9160028401916020909101906137a8565b5060608201518051611d489160038401916020909101906136fa565b50608082015181600401555050611e0f565b6000898152600f60205260409020805482919084908110611d7d57611d7d6141d3565b600091825260209182902083516005929092020180546001600160a01b0319166001600160a01b039092169190911781558282015180519192611dc892600185019290910190613753565b5060408201518051611de49160028401916020909101906137a8565b5060608201518051611e009160038401916020909101906136fa565b50608082015181600401559050505b50600198975050505050505050565b606060136000838152602001908152602001600020805480602002602001604051908101604052809291908181526020016000905b828210156107f1578382906000526020600020018054611e729061416a565b80601f0160208091040260200160405190810160405280929190818152602001828054611e9e9061416a565b8015611eeb5780601f10611ec057610100808354040283529160200191611eeb565b820191906000526020600020905b815481529060010190602001808311611ece57829003601f168201915b505050505081526020019060010190611e53565b611f176000805160206145d18339815191523361128f565b611f335760405162461bcd60e51b8152600401610b169061423c565b600b55565b611f406120c4565b6001600160a01b038116611fa55760405162461bcd60e51b815260206004820152602660248201527f4f776e61626c653a206e6577206f776e657220697320746865207a65726f206160448201526564647265737360d01b6064820152608401610b16565b611fae8161211e565b50565b611fb96120c4565b611fae6000805160206145d183398151915282613079565b611fae8133613083565b611fe5828261128f565b610b29576000828152602081815260408083206001600160a01b03851684529091529020805460ff1916600117905561201b3390565b6001600160a01b0316816001600160a01b0316837f2f8788117e7eff1d82e926ec794901d17c78024a50270940304540a733656f0d60405160405180910390a45050565b612069828261128f565b15610b29576000828152602081815260408083206001600160a01b0385168085529252808320805460ff1916905551339285917ff6391f5c32d9c69d2a47ea670b442974b53935d1edc7fd64eb21e047a839171b9190a45050565b6001546001600160a01b03163314610cd15760405162461bcd60e51b815260206004820181905260248201527f4f776e61626c653a2063616c6c6572206973206e6f7420746865206f776e65726044820152606401610b16565b600180546001600160a01b038381166001600160a01b0319831681179093556040519116919082907f8be0079c531659141344cd1fd0a4f28419497f9722a3daafe3b4186f6b6457e090600090a35050565b60008082116121b25760405162461bcd60e51b815260206004820152600e60248201526d646976696465206279207a65726f60901b6044820152606401610b16565b60006121be8385614275565b90506121ca8385614289565b6121d4828561421d565b6121de91906141bb565b84146122175760405162461bcd60e51b81526020600482015260086024820152676f766572666c6f7760c01b6044820152606401610b16565b9392505050565b6004546000908152600d602090815260408083208054825181850281018501909352808352919290919083018282801561228157602002820191906000526020600020905b81546001600160a01b03168152600190910190602001808311612263575b505050505090506000600f60006004548152602001908152602001600020805480602002602001604051908101604052809291908181526020016000905b828210156124db5760008481526020908190206040805160a0810182526005860290920180546001600160a01b0316835260018101805483518187028101870190945280845293949193858301939283018282801561234757602002820191906000526020600020905b81546001600160a01b03168152600190910190602001808311612329575b5050505050815260200160028201805480602002602001604051908101604052809291908181526020016000905b828210156123e1576000848152602090819020830180546040805182850281018501909152818152928301828280156123cd57602002820191906000526020600020905b8154815260200190600101908083116123b9575b505050505081526020019060010190612375565b50505050815260200160038201805480602002602001604051908101604052809291908181526020016000905b828210156124ba57838290600052602060002001805461242d9061416a565b80601f01602080910402602001604051908101604052809291908181526020018280546124599061416a565b80156124a65780601f1061247b576101008083540402835291602001916124a6565b820191906000526020600020905b81548152906001019060200180831161248957829003601f168201915b50505050508152602001906001019061240e565b505050508152602001600482015481525050815260200190600101906122bf565b5050505090506000601360006014548152602001908152602001600020805480602002602001604051908101604052809291908181526020016000905b828210156125c45783829060005260206000200180546125379061416a565b80601f01602080910402602001604051908101604052809291908181526020018280546125639061416a565b80156125b05780601f10612585576101008083540402835291602001916125b0565b820191906000526020600020905b81548152906001019060200180831161259357829003601f168201915b505050505081526020019060010190612518565b505050509050600083516001600160401b038111156125e5576125e5613b4a565b60405190808252806020026020018201604052801561261857816020015b60608152602001906001900390816126035790505b509050600084516001600160401b0381111561263657612636613b4a565b60405190808252806020026020018201604052801561265f578160200160208202803683370190505b50905060005b85518110156129f05784516001600160401b0381111561268757612687613b4a565b60405190808252806020026020018201604052801561270357816020015b6126f06040518060c0016040528060006001600160a01b0316815260200160006001600160a01b03168152602001606081526020016060815260200160008152602001600081525090565b8152602001906001900390816126a55790505b50838281518110612716576127166141d3565b602002602001018190525060005b85518110156129dd57601454868281518110612742576127426141d3565b60200260200101516080015114612758576129cb565b86828151811061276a5761276a6141d3565b60200260200101516001600160a01b031686828151811061278d5761278d6141d3565b6020026020010151600001516001600160a01b031614156127ad576129cb565b6040518060c001604052808783815181106127ca576127ca6141d3565b6020026020010151600001516001600160a01b031681526020018884815181106127f6576127f66141d3565b60200260200101516001600160a01b0316815260200187838151811061281e5761281e6141d3565b602002602001015160400151848151811061283b5761283b6141d3565b6020026020010151815260200187838151811061285a5761285a6141d3565b6020026020010151606001518481518110612877576128776141d3565b6020026020010151815260200160145481526020016004548152508483815181106128a4576128a46141d3565b602002602001015182815181106128bd576128bd6141d3565b602002602001018190525060005b85518110156129c9578783815181106128e6576128e66141d3565b60200260200101516001600160a01b0316878381518110612909576129096141d3565b6020026020010151602001518481518110612926576129266141d3565b60200260200101516001600160a01b031614156129b75786828151811061294f5761294f6141d3565b602002602001015160400151838151811061296c5761296c6141d3565b60200260200101518181518110612985576129856141d3565b602002602001015184848151811061299f5761299f6141d3565b602002602001018181516129b391906141bb565b9052505b806129c1816141e9565b9150506128cb565b505b806129d5816141e9565b915050612724565b50806129e8816141e9565b915050612665565b506000805b8251811015612a3c576000838281518110612a1257612a126141d3565b60200260200101519050612a2683826130e7565b9250508080612a34906141e9565b9150506129f5565b5060045460009081526012602052604090204290558015612fc0576004546000908152600d60205260408120546001600160401b03811115612a8057612a80613b4a565b604051908082528060200260200182016040528015612aa9578160200160208202803683370190505b50905060005b8751811015612b1b576000848281518110612acc57612acc6141d3565b60200260200101519050612aeb612ae582600954613103565b85612170565b838381518110612afd57612afd6141d3565b60209081029190910101525080612b13816141e9565b915050612aaf565b50612b268782613130565b612b2e613275565b6000612b3b60045461134f565b80519091508015612b62576000612b54600a5483612170565b9050612b6083826133ef565b505b6007546001600160a01b031660005b8a51811015612fba576004546000908152600e60205260408120805483908110612b9d57612b9d6141d3565b90600052602060002090600502016040518060a0016040529081600082018054612bc69061416a565b80601f0160208091040260200160405190810160405280929190818152602001828054612bf29061416a565b8015612c3f5780601f10612c1457610100808354040283529160200191612c3f565b820191906000526020600020905b815481529060010190602001808311612c2257829003601f168201915b5050505050815260200160018201805480602002602001604051908101604052809291908181526020016000905b82821015612d19578382906000526020600020018054612c8c9061416a565b80601f0160208091040260200160405190810160405280929190818152602001828054612cb89061416a565b8015612d055780601f10612cda57610100808354040283529160200191612d05565b820191906000526020600020905b815481529060010190602001808311612ce857829003601f168201915b505050505081526020019060010190612c6d565b50505050815260200160028201805480602002602001604051908101604052809291908181526020016000905b82821015612df2578382906000526020600020018054612d659061416a565b80601f0160208091040260200160405190810160405280929190818152602001828054612d919061416a565b8015612dde5780601f10612db357610100808354040283529160200191612dde565b820191906000526020600020905b815481529060010190602001808311612dc157829003601f168201915b505050505081526020019060010190612d46565b5050509082525060038201546001600160a01b0316602080830191909152600490920154604091820152805161010081019091528251815288519293506000929091820190899086908110612e4957612e496141d3565b60200260200101518152602001600560009054906101000a90046001600160a01b03166001600160a01b03168152602001836040015181526020014281526020018e8581518110612e9c57612e9c6141d3565b60200260200101516001600160a01b03168152602001600454815260200183602001518152509050836001600160a01b031663f13ac3f760026003846040518463ffffffff1660e01b8152600401612ef69392919061433d565b600060405180830381600087803b158015612f1057600080fd5b505af1158015612f24573d6000803e3d6000fd5b50505050836001600160a01b0316635b080940600260038d8781518110612f4d57612f4d6141d3565b60200260200101516040518463ffffffff1660e01b8152600401612f7393929190614414565b600060405180830381600087803b158015612f8d57600080fd5b505af1158015612fa1573d6000803e3d6000fd5b5050505050508080612fb2906141e9565b915050612b71565b50505050505b505050505050565b60048054906000612fd8836144f6565b909155505060045460009081526010602052604090204290819055601154612fff916141bb565b600454600090815260126020526040902055565b6000805b835181101561306f57826001600160a01b031684828151811061303c5761303c6141d3565b60200260200101516001600160a01b0316141561305d57600191505061059a565b80613067816141e9565b915050613017565b5060009392505050565b610b298282611fdb565b61308d828261128f565b610b29576130a5816001600160a01b031660146134db565b6130b08360206134db565b6040516020016130c192919061450f565b60408051601f198184030181529082905262461bcd60e51b8252610b1691600401614584565b6000806130f483856141bb565b90508381101561221757600080fd5b600080613110838561421d565b90508315806131275750826131258583614275565b145b61221757600080fd5b6005546001600160a01b0316613144575050565b80518251146131845760405162461bcd60e51b815260206004820152600c60248201526b1d1bc8084f48185b5bdd5b9d60a21b6044820152606401610b16565b6005546001600160a01b031660005b8351811015610a7a57816001600160a01b031663a9059cbb8583815181106131bd576131bd6141d3565b60200260200101518584815181106131d7576131d76141d3565b60200260200101516040518363ffffffff1660e01b81526004016132109291906001600160a01b03929092168252602082015260400190565b602060405180830381600087803b15801561322a57600080fd5b505af115801561323e573d6000803e3d6000fd5b505050506040513d601f19601f820116820180604052508101906132629190614597565b508061326d816141e9565b915050613193565b6005546001600160a01b031661328757565b6008546001600160a01b031661329957565b6008546001600160a01b03166132f15760405162461bcd60e51b815260206004820152601c60248201527f636f6d6d697373696f6e41646472657373206973206e6f7420736574000000006044820152606401610b16565b6008546005546040516213049560e71b81526001600160a01b03918216600482015291169081906309824a8090602401600060405180830381600087803b15801561333b57600080fd5b505af115801561334f573d6000803e3d6000fd5b50505050600061335d6112b8565b90508015610b295760055460085460405163a9059cbb60e01b81526001600160a01b03918216600482015260248101849052911690819063a9059cbb90604401602060405180830381600087803b1580156133b757600080fd5b505af11580156133cb573d6000803e3d6000fd5b505050506040513d601f19601f82011682018060405250810190610a7a9190614597565b6005546001600160a01b0316613403575050565b6005546001600160a01b031660005b8351811015610a7a57816001600160a01b031663a9059cbb85838151811061343c5761343c6141d3565b6020026020010151856040518363ffffffff1660e01b81526004016134769291906001600160a01b03929092168252602082015260400190565b602060405180830381600087803b15801561349057600080fd5b505af11580156134a4573d6000803e3d6000fd5b505050506040513d601f19601f820116820180604052508101906134c89190614597565b50806134d3816141e9565b915050613412565b606060006134ea83600261421d565b6134f59060026141bb565b6001600160401b0381111561350c5761350c613b4a565b6040519080825280601f01601f191660200182016040528015613536576020820181803683370190505b509050600360fc1b81600081518110613551576135516141d3565b60200101906001600160f81b031916908160001a905350600f60fb1b81600181518110613580576135806141d3565b60200101906001600160f81b031916908160001a90535060006135a484600261421d565b6135af9060016141bb565b90505b6001811115613627576f181899199a1a9b1b9c1cb0b131b232b360811b85600f16601081106135e3576135e36141d3565b1a60f81b8282815181106135f9576135f96141d3565b60200101906001600160f81b031916908160001a90535060049490941c93613620816145b9565b90506135b2565b5083156122175760405162461bcd60e51b815260206004820181905260248201527f537472696e67733a20686578206c656e67746820696e73756666696369656e746044820152606401610b16565b8280546136829061416a565b90600052602060002090601f0160209004810192826136a457600085556136ea565b82601f106136bd57805160ff19168380011785556136ea565b828001600101855582156136ea579182015b828111156136ea5782518255916020019190600101906136cf565b506136f6929150613801565b5090565b828054828255906000526020600020908101928215613747579160200282015b828111156137475782518051613737918491602090910190613676565b509160200191906001019061371a565b506136f6929150613816565b8280548282559060005260206000209081019282156136ea579160200282015b828111156136ea57825182546001600160a01b0319166001600160a01b03909116178255602090920191600190910190613773565b8280548282559060005260206000209081019282156137f5579160200282015b828111156137f557825180516137e5918491602090910190613833565b50916020019190600101906137c8565b506136f692915061386d565b5b808211156136f65760008155600101613802565b808211156136f657600061382a828261388a565b50600101613816565b8280548282559060005260206000209081019282156136ea57916020028201828111156136ea5782518255916020019190600101906136cf565b808211156136f657600061388182826138c4565b5060010161386d565b5080546138969061416a565b6000825580601f106138a6575050565b601f016020900490600052602060002090810190611fae9190613801565b5080546000825590600052602060002090810190611fae9190613801565b6000602082840312156138f457600080fd5b81356001600160e01b03198116811461221757600080fd5b60006020828403121561391e57600080fd5b5035919050565b600081518084526020808501945080840160005b8381101561395e5781516001600160a01b031687529582019590820190600101613939565b509495945050505050565b600081518084526020808501945080840160005b8381101561395e5781518752958201959082019060010161397d565b60005b838110156139b457818101518382015260200161399c565b83811115610a7a5750506000910152565b600081518084526139dd816020860160208601613999565b601f01601f19169290920160200192915050565b6000815180845260208085019450848260051b860182860160005b85811015613a36578383038952613a248383516139c5565b98850198925090840190600101613a0c565b5090979650505050505050565b602080825282518282018190526000919060409081850190600581811b8701840188860187805b85811015613b3a578a8403603f19018752825180516001600160a01b031685528981015160a08b870181905290613aa382880182613925565b838c0151888203898e015280518083529193508d0191508c830190808a1b84018e01875b82811015613afa57601f19868303018452613ae3828651613969565b91508f850194508f84019350600181019050613ac7565b5060609450848601519350898103858b0152613b1681856139f1565b6080968701519a90960199909952505050978a019750935091880191600101613a6a565b50919a9950505050505050505050565b634e487b7160e01b600052604160045260246000fd5b604051601f8201601f191681016001600160401b0381118282101715613b8857613b88613b4a565b604052919050565b600082601f830112613ba157600080fd5b81356001600160401b03811115613bba57613bba613b4a565b613bcd601f8201601f1916602001613b60565b818152846020838601011115613be257600080fd5b816020850160208301376000918101602001919091529392505050565b60006001600160401b03821115613c1857613c18613b4a565b5060051b60200190565b600082601f830112613c3357600080fd5b81356020613c48613c4383613bff565b613b60565b82815260059290921b84018101918181019086841115613c6757600080fd5b8286015b84811015613ca65780356001600160401b03811115613c8a5760008081fd5b613c988986838b0101613b90565b845250918301918301613c6b565b509695505050505050565b600080600060608486031215613cc657600080fd5b83356001600160401b0380821115613cdd57600080fd5b613ce987838801613b90565b94506020860135915080821115613cff57600080fd5b613d0b87838801613c22565b93506040860135915080821115613d2157600080fd5b50613d2e86828701613c22565b9150509250925092565b80356001600160a01b0381168114613d4f57600080fd5b919050565b60008060408385031215613d6757600080fd5b82359150613d7760208401613d38565b90509250929050565b60208152600061221760208301846139f1565b600060208284031215613da557600080fd5b61221782613d38565b6000602080835260e0830184518285015281850151604060c08187015282825180855261010094508488019150848160051b8901019450858401935060005b81811015613e765760ff19898703018352845160a08151818952613e13828a01826139c5565b915050888201518882038a8a0152613e2b82826139f1565b91505085820151888203878a0152613e4382826139f1565b6060848101516001600160a01b0316908b0152608093840151939099019290925250509386019391860191600101613ded565b5050508087015193505050601f1980858303016060860152613e988284613925565b925060608601516080860152608086015160a086015260a08601519150808584030160c086015250613eca82826139f1565b95945050505050565b60008060408385031215613ee657600080fd5b50508035926020909101359150565b6020808252825182820181905260009190848201906040850190845b81811015613f365783516001600160a01b031683529284019291840191600101613f11565b50909695505050505050565b60008060408385031215613f5557600080fd5b613f5e83613d38565b9150613d7760208401613d38565b600060208284031215613f7e57600080fd5b81356001600160401b03811115613f9457600080fd5b613fa084828501613c22565b949350505050565b600082601f830112613fb957600080fd5b81356020613fc9613c4383613bff565b828152600592831b8501820192828201919087851115613fe857600080fd5b8387015b85811015613a365780356001600160401b0381111561400b5760008081fd5b8801603f81018a1361401d5760008081fd5b85810135604061402f613c4383613bff565b82815291851b8301810191888101908d84111561404c5760008081fd5b938201935b8385101561406a57843582529389019390890190614051565b885250505093850193508401613fec565b6000806000806080858703121561409157600080fd5b843593506020808601356001600160401b03808211156140b057600080fd5b818801915088601f8301126140c457600080fd5b81356140d2613c4382613bff565b81815260059190911b8301840190848101908b8311156140f157600080fd5b938501935b828510156141165761410785613d38565b825293850193908501906140f6565b97505050604088013592508083111561412e57600080fd5b61413a89848a01613fa8565b9450606088013592508083111561415057600080fd5b505061415e87828801613c22565b91505092959194509250565b600181811c9082168061417e57607f821691505b6020821081141561419f57634e487b7160e01b600052602260045260246000fd5b50919050565b634e487b7160e01b600052601160045260246000fd5b600082198211156141ce576141ce6141a5565b500190565b634e487b7160e01b600052603260045260246000fd5b60006000198214156141fd576141fd6141a5565b5060010190565b60006020828403121561421657600080fd5b5051919050565b6000816000190483118215151615614237576142376141a5565b500290565b6020808252600990820152682737ba1030b236b4b760b91b604082015260600190565b634e487b7160e01b600052601260045260246000fd5b6000826142845761428461425f565b500490565b6000826142985761429861425f565b500690565b8054600090600181811c90808316806142b757607f831692505b60208084108214156142d957634e487b7160e01b600052602260045260246000fd5b838852602088018280156142f4576001811461430557614330565b60ff19871682528282019750614330565b60008981526020902060005b8781101561432a57815484820152908601908401614311565b83019850505b5050505050505092915050565b606081526000614350606083018661429d565b8281036020840152614362818661429d565b905082810360408401526101008451818352614380828401826139c5565b9150506020850151602083015260408501516143a760408401826001600160a01b03169052565b50606085015182820360608401526143bf82826139f1565b9150506080850151608083015260a08501516143e660a08401826001600160a01b03169052565b5060c085015160c083015260e085015182820360e084015261440882826139f1565b98975050505050505050565b600060608083526144278184018761429d565b60208482038186015261443a828861429d565b91506040858303818701528287518085528385019150838160051b860101848a0160005b838110156144e457878303601f19018552815180516001600160a01b0390811685528882015116888501528681015160c0888601819052906144a282870182613969565b9150508a8201518582038c8701526144ba82826139c5565b6080848101519088015260a09384015193909601929092525050938601939086019060010161445e565b50909c9b505050505050505050505050565b60006001600160ff1b038214156141fd576141fd6141a5565b7f416363657373436f6e74726f6c3a206163636f756e7420000000000000000000815260008351614547816017850160208801613999565b7001034b99036b4b9b9b4b733903937b6329607d1b6017918401918201528351614578816028840160208801613999565b01602801949350505050565b60208152600061221760208301846139c5565b6000602082840312156145a957600080fd5b8151801515811461221757600080fd5b6000816145c8576145c86141a5565b50600019019056fe05477c39c14a8a45f68e248e875c7b89913df266bcc8ea9804f3160438f36dfda264697066735822122055a28bbf17c623ca275c42af315f0c312a15a989d0117843606c64e69cf5594364736f6c63430008090033a2646970667358221220191ba21cca70f88a14f767a95e3c8d8cefb7992252afd0e8c2fcb6b2fee434f364736f6c63430008090033",
  "linkReferences": {},
  "deployedLinkReferences": {}
}