{
  "_format": "hh-sol-artifact-1",
  "contractName": "Poll",
  "sourceName": "contracts/Poll.sol",
  "abi": [
    {
      "inputs": [
        {
          "internalType": "string",
          "name": "_daoId",
          "type": "string"
        },
        {
          "internalType": "string",
          "name": "_projectId",
          "type": "string"
        }
      ],
      "stateMutability": "nonpayable",
      "type": "constructor"
    },
    {
      "anonymous": false,
      "inputs": [
        {
          "indexed": false,
          "internalType": "int256",
          "name": "pollId",
          "type": "int256"
        },
        {
          "indexed": true,
          "internalType": "address",
          "name": "candidate",
          "type": "address"
        }
      ],
      "name": "Candidated",
      "type": "event"
    },
    {
      "anonymous": false,
      "inputs": [
        {
          "indexed": false,
          "internalType": "int256",
          "name": "pollId",
          "type": "int256"
        }
      ],
      "name": "CreatePoll",
      "type": "event"
    },
    {
      "anonymous": false,
      "inputs": [
        {
          "indexed": true,
          "internalType": "address",
          "name": "sender",
          "type": "address"
        },
        {
          "indexed": false,
          "internalType": "uint256",
          "name": "amount",
          "type": "uint256"
        }
      ],
      "name": "Deposited",
      "type": "event"
    },
    {
      "anonymous": false,
      "inputs": [
        {
          "indexed": true,
          "internalType": "address",
          "name": "previousOwner",
          "type": "address"
        },
        {
          "indexed": true,
          "internalType": "address",
          "name": "newOwner",
          "type": "address"
        }
      ],
      "name": "OwnershipTransferred",
      "type": "event"
    },
    {
      "anonymous": false,
      "inputs": [
        {
          "indexed": false,
          "internalType": "address",
          "name": "account",
          "type": "address"
        }
      ],
      "name": "Paused",
      "type": "event"
    },
    {
      "anonymous": false,
      "inputs": [
        {
          "indexed": true,
          "internalType": "bytes32",
          "name": "role",
          "type": "bytes32"
        },
        {
          "indexed": true,
          "internalType": "bytes32",
          "name": "previousAdminRole",
          "type": "bytes32"
        },
        {
          "indexed": true,
          "internalType": "bytes32",
          "name": "newAdminRole",
          "type": "bytes32"
        }
      ],
      "name": "RoleAdminChanged",
      "type": "event"
    },
    {
      "anonymous": false,
      "inputs": [
        {
          "indexed": true,
          "internalType": "bytes32",
          "name": "role",
          "type": "bytes32"
        },
        {
          "indexed": true,
          "internalType": "address",
          "name": "account",
          "type": "address"
        },
        {
          "indexed": true,
          "internalType": "address",
          "name": "sender",
          "type": "address"
        }
      ],
      "name": "RoleGranted",
      "type": "event"
    },
    {
      "anonymous": false,
      "inputs": [
        {
          "indexed": true,
          "internalType": "bytes32",
          "name": "role",
          "type": "bytes32"
        },
        {
          "indexed": true,
          "internalType": "address",
          "name": "account",
          "type": "address"
        },
        {
          "indexed": true,
          "internalType": "address",
          "name": "sender",
          "type": "address"
        }
      ],
      "name": "RoleRevoked",
      "type": "event"
    },
    {
      "anonymous": false,
      "inputs": [
        {
          "indexed": false,
          "internalType": "int256",
          "name": "pollId",
          "type": "int256"
        }
      ],
      "name": "SettlePoll",
      "type": "event"
    },
    {
      "anonymous": false,
      "inputs": [
        {
          "indexed": false,
          "internalType": "address",
          "name": "account",
          "type": "address"
        }
      ],
      "name": "Unpaused",
      "type": "event"
    },
    {
      "anonymous": false,
      "inputs": [
        {
          "indexed": false,
          "internalType": "int256",
          "name": "pollId",
          "type": "int256"
        },
        {
          "indexed": true,
          "internalType": "address",
          "name": "voter",
          "type": "address"
        }
      ],
      "name": "Voted",
      "type": "event"
    },
    {
      "anonymous": false,
      "inputs": [
        {
          "indexed": false,
          "internalType": "int256",
          "name": "pollId",
          "type": "int256"
        },
        {
          "indexed": false,
          "internalType": "bool",
          "name": "enabled",
          "type": "bool"
        }
      ],
      "name": "VotingEnabled",
      "type": "event"
    },
    {
      "anonymous": false,
      "inputs": [
        {
          "indexed": false,
          "internalType": "uint256",
          "name": "amount",
          "type": "uint256"
        },
        {
          "indexed": false,
          "internalType": "uint256",
          "name": "payedAmount",
          "type": "uint256"
        }
      ],
      "name": "WithdrawEth",
      "type": "event"
    },
    {
      "inputs": [],
      "name": "CONTRIBUTOR_ASSIGNMENT_TOKEN",
      "outputs": [
        {
          "internalType": "uint256",
          "name": "",
          "type": "uint256"
        }
      ],
      "stateMutability": "view",
      "type": "function"
    },
    {
      "inputs": [],
      "name": "DEFAULT_ADMIN_ROLE",
      "outputs": [
        {
          "internalType": "bytes32",
          "name": "",
          "type": "bytes32"
        }
      ],
      "stateMutability": "view",
      "type": "function"
    },
    {
      "inputs": [],
      "name": "POLL_ADMIN_ROLE",
      "outputs": [
        {
          "internalType": "bytes32",
          "name": "",
          "type": "bytes32"
        }
      ],
      "stateMutability": "view",
      "type": "function"
    },
    {
      "inputs": [],
      "name": "REQUIRED_TOKEN_FOR_VOTE",
      "outputs": [
        {
          "internalType": "uint256",
          "name": "",
          "type": "uint256"
        }
      ],
      "stateMutability": "view",
      "type": "function"
    },
    {
      "inputs": [],
      "name": "SUPPORTER_ASSIGNMENT_TOKEN",
      "outputs": [
        {
          "internalType": "uint256",
          "name": "",
          "type": "uint256"
        }
      ],
      "stateMutability": "view",
      "type": "function"
    },
    {
      "inputs": [],
      "name": "VOTE_MAX_POINT",
      "outputs": [
        {
          "internalType": "uint256",
          "name": "",
          "type": "uint256"
        }
      ],
      "stateMutability": "view",
      "type": "function"
    },
    {
      "inputs": [],
      "name": "activePerspective",
      "outputs": [
        {
          "internalType": "uint256",
          "name": "",
          "type": "uint256"
        }
      ],
      "stateMutability": "view",
      "type": "function"
    },
    {
      "inputs": [
        {
          "internalType": "string",
          "name": "contributionText",
          "type": "string"
        },
        {
          "internalType": "string[]",
          "name": "evidences",
          "type": "string[]"
        },
        {
          "internalType": "string[]",
          "name": "roles",
          "type": "string[]"
        }
      ],
      "name": "candidateToCurrentPoll",
      "outputs": [],
      "stateMutability": "nonpayable",
      "type": "function"
    },
    {
      "inputs": [
        {
          "internalType": "int256",
          "name": "",
          "type": "int256"
        },
        {
          "internalType": "uint256",
          "name": "",
          "type": "uint256"
        }
      ],
      "name": "candidates",
      "outputs": [
        {
          "internalType": "address",
          "name": "",
          "type": "address"
        }
      ],
      "stateMutability": "view",
      "type": "function"
    },
    {
      "inputs": [
        {
          "internalType": "string[]",
          "name": "perspectiveTexts",
          "type": "string[]"
        }
      ],
      "name": "changePerspective",
      "outputs": [],
      "stateMutability": "nonpayable",
      "type": "function"
    },
    {
      "inputs": [
        {
          "internalType": "int256",
          "name": "",
          "type": "int256"
        },
        {
          "internalType": "uint256",
          "name": "",
          "type": "uint256"
        }
      ],
      "name": "contributions",
      "outputs": [
        {
          "internalType": "string",
          "name": "contributionText",
          "type": "string"
        },
        {
          "internalType": "address",
          "name": "contributor",
          "type": "address"
        },
        {
          "internalType": "int256",
          "name": "pollId",
          "type": "int256"
        }
      ],
      "stateMutability": "view",
      "type": "function"
    },
    {
      "inputs": [],
      "name": "currentMexPollId",
      "outputs": [
        {
          "internalType": "int256",
          "name": "",
          "type": "int256"
        }
      ],
      "stateMutability": "view",
      "type": "function"
    },
    {
      "inputs": [],
      "name": "daoHistoryAddress",
      "outputs": [
        {
          "internalType": "address",
          "name": "",
          "type": "address"
        }
      ],
      "stateMutability": "view",
      "type": "function"
    },
    {
      "inputs": [],
      "name": "daoId",
      "outputs": [
        {
          "internalType": "string",
          "name": "",
          "type": "string"
        }
      ],
      "stateMutability": "view",
      "type": "function"
    },
    {
      "inputs": [],
      "name": "daoTokenAddress",
      "outputs": [
        {
          "internalType": "address",
          "name": "",
          "type": "address"
        }
      ],
      "stateMutability": "view",
      "type": "function"
    },
    {
      "inputs": [
        {
          "internalType": "int256",
          "name": "",
          "type": "int256"
        }
      ],
      "name": "endTimeStamp",
      "outputs": [
        {
          "internalType": "uint256",
          "name": "",
          "type": "uint256"
        }
      ],
      "stateMutability": "view",
      "type": "function"
    },
    {
      "inputs": [],
      "name": "getActivePolls",
      "outputs": [
        {
          "components": [
            {
              "internalType": "int256",
              "name": "pollId",
              "type": "int256"
            },
            {
              "internalType": "uint256",
              "name": "votersCount",
              "type": "uint256"
            },
            {
              "internalType": "uint256",
              "name": "candidatesCount",
              "type": "uint256"
            },
            {
              "internalType": "uint256",
              "name": "startTimeStamp",
              "type": "uint256"
            }
          ],
          "internalType": "struct AbstractPollItem[]",
          "name": "",
          "type": "tuple[]"
        }
      ],
      "stateMutability": "view",
      "type": "function"
    },
    {
      "inputs": [],
      "name": "getCurrentCandidates",
      "outputs": [
        {
          "internalType": "address[]",
          "name": "",
          "type": "address[]"
        }
      ],
      "stateMutability": "view",
      "type": "function"
    },
    {
      "inputs": [],
      "name": "getCurrentPerspectives",
      "outputs": [
        {
          "internalType": "string[]",
          "name": "",
          "type": "string[]"
        }
      ],
      "stateMutability": "view",
      "type": "function"
    },
    {
      "inputs": [],
      "name": "getCurrentVotes",
      "outputs": [
        {
          "components": [
            {
              "internalType": "address",
              "name": "voter",
              "type": "address"
            },
            {
              "internalType": "address[]",
              "name": "candidates",
              "type": "address[]"
            },
            {
              "internalType": "uint256[][]",
              "name": "points",
              "type": "uint256[][]"
            },
            {
              "internalType": "string[]",
              "name": "comments",
              "type": "string[]"
            },
            {
              "internalType": "uint256",
              "name": "perspectiveId",
              "type": "uint256"
            }
          ],
          "internalType": "struct Vote[]",
          "name": "",
          "type": "tuple[]"
        }
      ],
      "stateMutability": "view",
      "type": "function"
    },
    {
      "inputs": [
        {
          "internalType": "uint256",
          "name": "_perspectiveId",
          "type": "uint256"
        }
      ],
      "name": "getPerspectives",
      "outputs": [
        {
          "internalType": "string[]",
          "name": "",
          "type": "string[]"
        }
      ],
      "stateMutability": "view",
      "type": "function"
    },
    {
      "inputs": [
        {
          "internalType": "int256",
          "name": "_pollId",
          "type": "int256"
        }
      ],
      "name": "getPollDetail",
      "outputs": [
        {
          "components": [
            {
              "internalType": "int256",
              "name": "pollId",
              "type": "int256"
            },
            {
              "components": [
                {
                  "internalType": "string",
                  "name": "contributionText",
                  "type": "string"
                },
                {
                  "internalType": "string[]",
                  "name": "evidences",
                  "type": "string[]"
                },
                {
                  "internalType": "string[]",
                  "name": "roles",
                  "type": "string[]"
                },
                {
                  "internalType": "address",
                  "name": "contributor",
                  "type": "address"
                },
                {
                  "internalType": "int256",
                  "name": "pollId",
                  "type": "int256"
                }
              ],
              "internalType": "struct ContributionItem[]",
              "name": "contributions",
              "type": "tuple[]"
            },
            {
              "internalType": "address[]",
              "name": "voters",
              "type": "address[]"
            },
            {
              "internalType": "uint256",
              "name": "startTimeStamp",
              "type": "uint256"
            }
          ],
          "internalType": "struct DetailPollItem",
          "name": "",
          "type": "tuple"
        }
      ],
      "stateMutability": "view",
      "type": "function"
    },
    {
      "inputs": [
        {
          "internalType": "bytes32",
          "name": "role",
          "type": "bytes32"
        }
      ],
      "name": "getRoleAdmin",
      "outputs": [
        {
          "internalType": "bytes32",
          "name": "",
          "type": "bytes32"
        }
      ],
      "stateMutability": "view",
      "type": "function"
    },
    {
      "inputs": [
        {
          "internalType": "int256",
          "name": "_pollId",
          "type": "int256"
        }
      ],
      "name": "getVoters",
      "outputs": [
        {
          "internalType": "address[]",
          "name": "",
          "type": "address[]"
        }
      ],
      "stateMutability": "view",
      "type": "function"
    },
    {
      "inputs": [
        {
          "internalType": "int256",
          "name": "_pollId",
          "type": "int256"
        }
      ],
      "name": "getVotes",
      "outputs": [
        {
          "components": [
            {
              "internalType": "address",
              "name": "voter",
              "type": "address"
            },
            {
              "internalType": "address[]",
              "name": "candidates",
              "type": "address[]"
            },
            {
              "internalType": "uint256[][]",
              "name": "points",
              "type": "uint256[][]"
            },
            {
              "internalType": "string[]",
              "name": "comments",
              "type": "string[]"
            },
            {
              "internalType": "uint256",
              "name": "perspectiveId",
              "type": "uint256"
            }
          ],
          "internalType": "struct Vote[]",
          "name": "",
          "type": "tuple[]"
        }
      ],
      "stateMutability": "view",
      "type": "function"
    },
    {
      "inputs": [
        {
          "internalType": "bytes32",
          "name": "role",
          "type": "bytes32"
        },
        {
          "internalType": "address",
          "name": "account",
          "type": "address"
        }
      ],
      "name": "grantRole",
      "outputs": [],
      "stateMutability": "nonpayable",
      "type": "function"
    },
    {
      "inputs": [
        {
          "internalType": "bytes32",
          "name": "role",
          "type": "bytes32"
        },
        {
          "internalType": "address",
          "name": "account",
          "type": "address"
        }
      ],
      "name": "hasRole",
      "outputs": [
        {
          "internalType": "bool",
          "name": "",
          "type": "bool"
        }
      ],
      "stateMutability": "view",
      "type": "function"
    },
    {
      "inputs": [
        {
          "internalType": "address",
          "name": "_address",
          "type": "address"
        }
      ],
      "name": "isEligibleToVote",
      "outputs": [
        {
          "internalType": "bool",
          "name": "",
          "type": "bool"
        }
      ],
      "stateMutability": "view",
      "type": "function"
    },
    {
      "inputs": [],
      "name": "nftAddress",
      "outputs": [
        {
          "internalType": "address",
          "name": "",
          "type": "address"
        }
      ],
      "stateMutability": "view",
      "type": "function"
    },
    {
      "inputs": [],
      "name": "owner",
      "outputs": [
        {
          "internalType": "address",
          "name": "",
          "type": "address"
        }
      ],
      "stateMutability": "view",
      "type": "function"
    },
    {
      "inputs": [],
      "name": "pause",
      "outputs": [],
      "stateMutability": "nonpayable",
      "type": "function"
    },
    {
      "inputs": [],
      "name": "paused",
      "outputs": [
        {
          "internalType": "bool",
          "name": "",
          "type": "bool"
        }
      ],
      "stateMutability": "view",
      "type": "function"
    },
    {
      "inputs": [
        {
          "internalType": "uint256",
          "name": "",
          "type": "uint256"
        },
        {
          "internalType": "uint256",
          "name": "",
          "type": "uint256"
        }
      ],
      "name": "perspectives",
      "outputs": [
        {
          "internalType": "string",
          "name": "",
          "type": "string"
        }
      ],
      "stateMutability": "view",
      "type": "function"
    },
    {
      "inputs": [],
      "name": "projectId",
      "outputs": [
        {
          "internalType": "string",
          "name": "",
          "type": "string"
        }
      ],
      "stateMutability": "view",
      "type": "function"
    },
    {
      "inputs": [],
      "name": "renounceOwnership",
      "outputs": [],
      "stateMutability": "nonpayable",
      "type": "function"
    },
    {
      "inputs": [
        {
          "internalType": "bytes32",
          "name": "role",
          "type": "bytes32"
        },
        {
          "internalType": "address",
          "name": "account",
          "type": "address"
        }
      ],
      "name": "renounceRole",
      "outputs": [],
      "stateMutability": "nonpayable",
      "type": "function"
    },
    {
      "inputs": [
        {
          "internalType": "bytes32",
          "name": "role",
          "type": "bytes32"
        },
        {
          "internalType": "address",
          "name": "account",
          "type": "address"
        }
      ],
      "name": "revokeRole",
      "outputs": [],
      "stateMutability": "nonpayable",
      "type": "function"
    },
    {
      "inputs": [
        {
          "internalType": "uint256",
          "name": "_contributorAssignmentToken",
          "type": "uint256"
        }
      ],
      "name": "setContributorAssignmentToken",
      "outputs": [],
      "stateMutability": "nonpayable",
      "type": "function"
    },
    {
      "inputs": [
        {
          "internalType": "address",
          "name": "_daoHistoryAddress",
          "type": "address"
        }
      ],
      "name": "setDaoHistoryAddress",
      "outputs": [],
      "stateMutability": "nonpayable",
      "type": "function"
    },
    {
      "inputs": [
        {
          "internalType": "address",
          "name": "_daoTokenAddress",
          "type": "address"
        }
      ],
      "name": "setDaoTokenAddress",
      "outputs": [],
      "stateMutability": "nonpayable",
      "type": "function"
    },
    {
      "inputs": [
        {
          "internalType": "address",
          "name": "_nftAddress",
          "type": "address"
        }
      ],
      "name": "setNftAddress",
      "outputs": [],
      "stateMutability": "nonpayable",
      "type": "function"
    },
    {
      "inputs": [
        {
          "internalType": "address",
          "name": "_address",
          "type": "address"
        }
      ],
      "name": "setPollAdminRole",
      "outputs": [],
      "stateMutability": "nonpayable",
      "type": "function"
    },
    {
      "inputs": [
        {
          "internalType": "uint256",
          "name": "_rankForVote",
          "type": "uint256"
        }
      ],
      "name": "setRequiredTokenForVote",
      "outputs": [],
      "stateMutability": "nonpayable",
      "type": "function"
    },
    {
      "inputs": [
        {
          "internalType": "uint256",
          "name": "_supporterAssignmentToken",
          "type": "uint256"
        }
      ],
      "name": "setSupporterAssignmentToken",
      "outputs": [],
      "stateMutability": "nonpayable",
      "type": "function"
    },
    {
      "inputs": [
        {
          "internalType": "uint256",
          "name": "_voteMaxPoint",
          "type": "uint256"
        }
      ],
      "name": "setVoteMaxPoint",
      "outputs": [],
      "stateMutability": "nonpayable",
      "type": "function"
    },
    {
      "inputs": [
        {
          "internalType": "int256",
          "name": "pollId",
          "type": "int256"
        },
        {
          "internalType": "bool",
          "name": "_votingEnabled",
          "type": "bool"
        }
      ],
      "name": "setVotingEnabled",
      "outputs": [],
      "stateMutability": "nonpayable",
      "type": "function"
    },
    {
      "inputs": [],
      "name": "settleCurrentPollAndCreateNewPoll",
      "outputs": [],
      "stateMutability": "nonpayable",
      "type": "function"
    },
    {
      "inputs": [
        {
          "internalType": "int256",
          "name": "",
          "type": "int256"
        }
      ],
      "name": "startTimeStamp",
      "outputs": [
        {
          "internalType": "uint256",
          "name": "",
          "type": "uint256"
        }
      ],
      "stateMutability": "view",
      "type": "function"
    },
    {
      "inputs": [
        {
          "internalType": "bytes4",
          "name": "interfaceId",
          "type": "bytes4"
        }
      ],
      "name": "supportsInterface",
      "outputs": [
        {
          "internalType": "bool",
          "name": "",
          "type": "bool"
        }
      ],
      "stateMutability": "view",
      "type": "function"
    },
    {
      "inputs": [
        {
          "internalType": "address",
          "name": "newOwner",
          "type": "address"
        }
      ],
      "name": "transferOwnership",
      "outputs": [],
      "stateMutability": "nonpayable",
      "type": "function"
    },
    {
      "inputs": [],
      "name": "unpause",
      "outputs": [],
      "stateMutability": "nonpayable",
      "type": "function"
    },
    {
      "inputs": [
        {
          "internalType": "int256",
          "name": "_pollId",
          "type": "int256"
        },
        {
          "internalType": "address[]",
          "name": "_candidates",
          "type": "address[]"
        },
        {
          "internalType": "uint256[][]",
          "name": "_points",
          "type": "uint256[][]"
        },
        {
          "internalType": "string[]",
          "name": "_comments",
          "type": "string[]"
        }
      ],
      "name": "vote",
      "outputs": [
        {
          "internalType": "bool",
          "name": "",
          "type": "bool"
        }
      ],
      "stateMutability": "nonpayable",
      "type": "function"
    },
    {
      "inputs": [
        {
          "internalType": "int256",
          "name": "",
          "type": "int256"
        },
        {
          "internalType": "uint256",
          "name": "",
          "type": "uint256"
        }
      ],
      "name": "votes",
      "outputs": [
        {
          "internalType": "address",
          "name": "voter",
          "type": "address"
        },
        {
          "internalType": "uint256",
          "name": "perspectiveId",
          "type": "uint256"
        }
      ],
      "stateMutability": "view",
      "type": "function"
    },
    {
      "inputs": [],
      "name": "votingEnabled",
      "outputs": [
        {
          "internalType": "bool",
          "name": "",
          "type": "bool"
        }
      ],
      "stateMutability": "view",
      "type": "function"
    }
  ],
  "bytecode": "0x60806040526000600555600060095569017b7883c06916600000600a5568a2a15d09519be00000600b556014600c556001600d60006101000a81548160ff02191690831515021790555060006014553480156200005b57600080fd5b5060405162007ede38038062007ede833981810160405281019062000081919062000419565b620000a162000095620000fe60201b60201c565b6200010660201b60201c565b6000600160146101000a81548160ff02191690831515021790555060016002819055508160039080519060200190620000dc929190620001cc565b508060049080519060200190620000f5929190620001cc565b50505062000503565b600033905090565b6000600160009054906101000a900473ffffffffffffffffffffffffffffffffffffffff16905081600160006101000a81548173ffffffffffffffffffffffffffffffffffffffff021916908373ffffffffffffffffffffffffffffffffffffffff1602179055508173ffffffffffffffffffffffffffffffffffffffff168173ffffffffffffffffffffffffffffffffffffffff167f8be0079c531659141344cd1fd0a4f28419497f9722a3daafe3b4186f6b6457e060405160405180910390a35050565b828054620001da90620004cd565b90600052602060002090601f016020900481019282620001fe57600085556200024a565b82601f106200021957805160ff19168380011785556200024a565b828001600101855582156200024a579182015b82811115620002495782518255916020019190600101906200022c565b5b5090506200025991906200025d565b5090565b5b80821115620002785760008160009055506001016200025e565b5090565b6000604051905090565b600080fd5b600080fd5b600080fd5b600080fd5b6000601f19601f8301169050919050565b7f4e487b7100000000000000000000000000000000000000000000000000000000600052604160045260246000fd5b620002e5826200029a565b810181811067ffffffffffffffff82111715620003075762000306620002ab565b5b80604052505050565b60006200031c6200027c565b90506200032a8282620002da565b919050565b600067ffffffffffffffff8211156200034d576200034c620002ab565b5b62000358826200029a565b9050602081019050919050565b60005b838110156200038557808201518184015260208101905062000368565b8381111562000395576000848401525b50505050565b6000620003b2620003ac846200032f565b62000310565b905082815260208101848484011115620003d157620003d062000295565b5b620003de84828562000365565b509392505050565b600082601f830112620003fe57620003fd62000290565b5b8151620004108482602086016200039b565b91505092915050565b6000806040838503121562000433576200043262000286565b5b600083015167ffffffffffffffff8111156200045457620004536200028b565b5b6200046285828601620003e6565b925050602083015167ffffffffffffffff8111156200048657620004856200028b565b5b6200049485828601620003e6565b9150509250929050565b7f4e487b7100000000000000000000000000000000000000000000000000000000600052602260045260246000fd5b60006002820490506001821680620004e657607f821691505b60208210811415620004fd57620004fc6200049e565b5b50919050565b6179cb80620005136000396000f3fe608060405234801561001057600080fd5b50600436106103425760003560e01c806391d14854116101b8578063d47587f211610104578063d972b590116100a2578063ea8f16831161007c578063ea8f1683146109a6578063f2fde38b146109d6578063fc39870b146109f2578063fe98bbc714610a0e57610342565b8063d972b5901461093a578063d9b0b8a91461096a578063e499943f1461098857610342565b8063d76e79d4116100de578063d76e79d4146108b1578063d899744f146108bb578063d8b1ebac146108d9578063d8f8f07a1461090a57610342565b8063d47587f21461085b578063d519ffa414610879578063d547741f1461089557610342565b8063c01cd23c11610171578063c97e60e31161014b578063c97e60e3146107d1578063cac2699b146107ed578063d0967c381461080b578063d384e4d41461083d57610342565b8063c01cd23c14610779578063c2f33e5414610797578063c46d6495146107b357610342565b806391d14854146106a3578063a092a7a8146106d3578063a217fddf14610703578063a5f38fa314610721578063b8cb6b791461073f578063bb3c6ebb1461075b57610342565b80635bf8633a11610292578063715622db116102305780638456cb591161020a5780638456cb591461062f5780638a3e8620146106395780638b8ef8d2146106695780638da5cb5b1461068557610342565b8063715622db146105c557806372b4ca47146105e15780637e78d68a146105ff57610342565b8063640e11681161026c578063640e11681461054f5780637034482a1461056d57806370bd8e931461058b578063715018a6146105bb57610342565b80635bf8633a146104f55780635c975abb1461051357806363a9492f1461053157610342565b806323628d0e116102ff57806336568abe116102d957806336568abe146104955780633f4ba83a146104b15780633fafa127146104bb5780634617c06a146104d957610342565b806323628d0e1461042d578063248a9ca3146104495780632f2ff15d1461047957610342565b806301ffc9a714610347578063022a2d911461037757806302decedb146103a75780630b102d1a146103c35780631c004729146103df5780631dbc1366146103fd575b600080fd5b610361600480360381019061035c9190615537565b610a3e565b60405161036e919061557f565b60405180910390f35b610391600480360381019061038c91906155d0565b610ab8565b60405161039e9190615b18565b60405180910390f35b6103c160048036038101906103bc9190615b66565b610d90565b005b6103dd60048036038101906103d89190615bbf565b610e03565b005b6103e7610e4f565b6040516103f49190615bfb565b60405180910390f35b61041760048036038101906104129190615c16565b610e75565b6040516104249190615bfb565b60405180910390f35b61044760048036038101906104429190615e71565b610ec3565b005b610463600480360381019061045e9190615f4e565b61127c565b6040516104709190615f8a565b60405180910390f35b610493600480360381019061048e9190615fa5565b61129b565b005b6104af60048036038101906104aa9190615fa5565b6112bc565b005b6104b961133f565b005b6104c3611351565b6040516104d0919061602f565b60405180910390f35b6104f360048036038101906104ee9190615b66565b6113df565b005b6104fd611452565b60405161050a9190615bfb565b60405180910390f35b61051b611478565b604051610528919061557f565b60405180910390f35b61053961148f565b6040516105469190616164565b60405180910390f35b6105576118cb565b604051610564919061557f565b60405180910390f35b6105756118de565b604051610582919061620c565b60405180910390f35b6105a560048036038101906105a09190615bbf565b6119ca565b6040516105b2919061557f565b60405180910390f35b6105c3611a88565b005b6105df60048036038101906105da919061625a565b611a9c565b005b6105e9611b6b565b6040516105f69190615b18565b60405180910390f35b610619600480360381019061061491906155d0565b611e43565b60405161062691906162a9565b60405180910390f35b610637611e5b565b005b610653600480360381019061064e91906155d0565b611e6d565b6040516106609190616474565b60405180910390f35b610683600480360381019061067e9190615b66565b6121dc565b005b61068d61224f565b60405161069a9190615bfb565b60405180910390f35b6106bd60048036038101906106b89190615fa5565b612279565b6040516106ca919061557f565b60405180910390f35b6106ed60048036038101906106e891906155d0565b6122e3565b6040516106fa9190616505565b60405180910390f35b61070b61269c565b6040516107189190615f8a565b60405180910390f35b6107296126a3565b60405161073691906162a9565b60405180910390f35b61075960048036038101906107549190615bbf565b6126a9565b005b6107636126f5565b60405161077091906162a9565b60405180910390f35b6107816126fb565b60405161078e9190615bfb565b60405180910390f35b6107b160048036038101906107ac9190615b66565b612721565b005b6107bb612794565b6040516107c89190616536565b60405180910390f35b6107eb60048036038101906107e69190616551565b61279a565b005b6107f56127e1565b604051610802919061602f565b60405180910390f35b61082560048036038101906108209190615c16565b61286f565b6040516108349392919061659a565b60405180910390f35b61084561295e565b6040516108529190616505565b60405180910390f35b6108636129ff565b60405161087091906162a9565b60405180910390f35b610893600480360381019061088e9190615bbf565b612a05565b005b6108af60048036038101906108aa9190615fa5565b612a51565b005b6108b9612a72565b005b6108c3612b49565b6040516108d091906162a9565b60405180910390f35b6108f360048036038101906108ee9190615c16565b612b4f565b6040516109019291906165d8565b60405180910390f35b610924600480360381019061091f9190616868565b612bb0565b604051610931919061557f565b60405180910390f35b610954600480360381019061094f9190616923565b613375565b604051610961919061602f565b60405180910390f35b61097261342e565b60405161097f91906162a9565b60405180910390f35b610990613434565b60405161099d9190615f8a565b60405180910390f35b6109c060048036038101906109bb9190615b66565b613458565b6040516109cd919061620c565b60405180910390f35b6109f060048036038101906109eb9190615bbf565b613544565b005b610a0c6004803603810190610a079190615bbf565b6135c8565b005b610a286004803603810190610a2391906155d0565b6135fd565b604051610a3591906162a9565b60405180910390f35b60007f7965db0b000000000000000000000000000000000000000000000000000000007bffffffffffffffffffffffffffffffffffffffffffffffffffffffff1916827bffffffffffffffffffffffffffffffffffffffffffffffffffffffff19161480610ab15750610ab082613615565b5b9050919050565b606060106000838152602001908152602001600020805480602002602001604051908101604052809291908181526020016000905b82821015610d8557838290600052602060002090600502016040518060a00160405290816000820160009054906101000a900473ffffffffffffffffffffffffffffffffffffffff1673ffffffffffffffffffffffffffffffffffffffff1673ffffffffffffffffffffffffffffffffffffffff16815260200160018201805480602002602001604051908101604052809291908181526020018280548015610beb57602002820191906000526020600020905b8160009054906101000a900473ffffffffffffffffffffffffffffffffffffffff1673ffffffffffffffffffffffffffffffffffffffff1681526020019060010190808311610ba1575b5050505050815260200160028201805480602002602001604051908101604052809291908181526020016000905b82821015610c8b57838290600052602060002001805480602002602001604051908101604052809291908181526020018280548015610c7757602002820191906000526020600020905b815481526020019060010190808311610c63575b505050505081526020019060010190610c19565b50505050815260200160038201805480602002602001604051908101604052809291908181526020016000905b82821015610d64578382906000526020600020018054610cd790616992565b80601f0160208091040260200160405190810160405280929190818152602001828054610d0390616992565b8015610d505780601f10610d2557610100808354040283529160200191610d50565b820191906000526020600020905b815481529060010190602001808311610d3357829003601f168201915b505050505081526020019060010190610cb8565b50505050815260200160048201548152505081526020019060010190610aed565b505050509050919050565b610dba7f05477c39c14a8a45f68e248e875c7b89913df266bcc8ea9804f3160438f36dfd33612279565b610df9576040517f08c379a0000000000000000000000000000000000000000000000000000000008152600401610df090616a10565b60405180910390fd5b80600a8190555050565b610e0b61367f565b80600760006101000a81548173ffffffffffffffffffffffffffffffffffffffff021916908373ffffffffffffffffffffffffffffffffffffffff16021790555050565b600660009054906101000a900473ffffffffffffffffffffffffffffffffffffffff1681565b600e6020528160005260406000208181548110610e9157600080fd5b906000526020600020016000915091509054906101000a900473ffffffffffffffffffffffffffffffffffffffff1681565b610ecb6136fd565b60006103e7905060005b600e6000600554815260200190815260200160002080549050811015610f91573373ffffffffffffffffffffffffffffffffffffffff16600e600060055481526020019081526020016000208281548110610f3357610f32616a30565b5b9060005260206000200160009054906101000a900473ffffffffffffffffffffffffffffffffffffffff1673ffffffffffffffffffffffffffffffffffffffff161415610f7e578091505b8080610f8990616a8e565b915050610ed5565b506103e781141561113e57600e60006005548152602001908152602001600020339080600181540180825580915050600190039060005260206000200160009091909190916101000a81548173ffffffffffffffffffffffffffffffffffffffff021916908373ffffffffffffffffffffffffffffffffffffffff160217905550600f600060055481526020019081526020016000206040518060a001604052808681526020018581526020018481526020013373ffffffffffffffffffffffffffffffffffffffff168152602001600554815250908060018154018082558091505060019003906000526020600020906005020160009091909190915060008201518160000190805190602001906110ab929190615136565b5060208201518160010190805190602001906110c89291906151bc565b5060408201518160020190805190602001906110e59291906151bc565b5060608201518160030160006101000a81548173ffffffffffffffffffffffffffffffffffffffff021916908373ffffffffffffffffffffffffffffffffffffffff160217905550608082015181600401555050611226565b83600f60006005548152602001908152602001600020828154811061116657611165616a30565b5b9060005260206000209060050201600001908051906020019061118a929190615136565b5082600f6000600554815260200190815260200160002082815481106111b3576111b2616a30565b5b906000526020600020906005020160010190805190602001906111d79291906151bc565b5081600f600060055481526020019081526020016000208281548110611200576111ff616a30565b5b906000526020600020906005020160020190805190602001906112249291906151bc565b505b3373ffffffffffffffffffffffffffffffffffffffff167f48f50cc4c081867b26157ea6fbeb68ca3459ce4cfbfcf65d23a369dea7a0eacb60055460405161126e9190616536565b60405180910390a250505050565b6000806000838152602001908152602001600020600101549050919050565b6112a48261127c565b6112ad81613747565b6112b7838361375b565b505050565b6112c461383b565b73ffffffffffffffffffffffffffffffffffffffff168173ffffffffffffffffffffffffffffffffffffffff1614611331576040517f08c379a000000000000000000000000000000000000000000000000000000000815260040161132890616b49565b60405180910390fd5b61133b8282613843565b5050565b61134761367f565b61134f613924565b565b6004805461135e90616992565b80601f016020809104026020016040519081016040528092919081815260200182805461138a90616992565b80156113d75780601f106113ac576101008083540402835291602001916113d7565b820191906000526020600020905b8154815290600101906020018083116113ba57829003601f168201915b505050505081565b6114097f05477c39c14a8a45f68e248e875c7b89913df266bcc8ea9804f3160438f36dfd33612279565b611448576040517f08c379a000000000000000000000000000000000000000000000000000000000815260040161143f90616a10565b60405180910390fd5b8060098190555050565b600760009054906101000a900473ffffffffffffffffffffffffffffffffffffffff1681565b6000600160149054906101000a900460ff16905090565b60606000601060006005548152602001908152602001600020805480602002602001604051908101604052809291908181526020016000905b8282101561176057838290600052602060002090600502016040518060a00160405290816000820160009054906101000a900473ffffffffffffffffffffffffffffffffffffffff1673ffffffffffffffffffffffffffffffffffffffff1673ffffffffffffffffffffffffffffffffffffffff168152602001600182018054806020026020016040519081016040528092919081815260200182805480156115c657602002820191906000526020600020905b8160009054906101000a900473ffffffffffffffffffffffffffffffffffffffff1673ffffffffffffffffffffffffffffffffffffffff168152602001906001019080831161157c575b5050505050815260200160028201805480602002602001604051908101604052809291908181526020016000905b828210156116665783829060005260206000200180548060200260200160405190810160405280929190818152602001828054801561165257602002820191906000526020600020905b81548152602001906001019080831161163e575b5050505050815260200190600101906115f4565b50505050815260200160038201805480602002602001604051908101604052809291908181526020016000905b8282101561173f5783829060005260206000200180546116b290616992565b80601f01602080910402602001604051908101604052809291908181526020018280546116de90616992565b801561172b5780601f106117005761010080835404028352916020019161172b565b820191906000526020600020905b81548152906001019060200180831161170e57829003601f168201915b505050505081526020019060010190611693565b505050508152602001600482015481525050815260200190600101906114c8565b5050505090506000600e600060055481526020019081526020016000208054806020026020016040519081016040528092919081815260200182805480156117fd57602002820191906000526020600020905b8160009054906101000a900473ffffffffffffffffffffffffffffffffffffffff1673ffffffffffffffffffffffffffffffffffffffff16815260200190600101908083116117b3575b50505050509050600060116000600554815260200190815260200160002054905060006040518060800160405280600554815260200185518152602001845181526020018381525090506000600167ffffffffffffffff81111561186457611863615c60565b5b60405190808252806020026020018201604052801561189d57816020015b61188a61521c565b8152602001906001900390816118825790505b50905081816000815181106118b5576118b4616a30565b5b6020026020010181905250809550505050505090565b600d60009054906101000a900460ff1681565b6060601360006014548152602001908152602001600020805480602002602001604051908101604052809291908181526020016000905b828210156119c157838290600052602060002001805461193490616992565b80601f016020809104026020016040519081016040528092919081815260200182805461196090616992565b80156119ad5780601f10611982576101008083540402835291602001916119ad565b820191906000526020600020905b81548152906001019060200180831161199057829003601f168201915b505050505081526020019060010190611915565b50505050905090565b600080600760009054906101000a900473ffffffffffffffffffffffffffffffffffffffff1690506009548173ffffffffffffffffffffffffffffffffffffffff166370a08231856040518263ffffffff1660e01b8152600401611a2e9190615bfb565b60206040518083038186803b158015611a4657600080fd5b505afa158015611a5a573d6000803e3d6000fd5b505050506040513d601f19601f82011682018060405250810190611a7e9190616b7e565b1015915050919050565b611a9061367f565b611a9a6000613987565b565b611ac67f05477c39c14a8a45f68e248e875c7b89913df266bcc8ea9804f3160438f36dfd33612279565b611b05576040517f08c379a0000000000000000000000000000000000000000000000000000000008152600401611afc90616a10565b60405180910390fd5b80600d60006101000a81548160ff0219169083151502179055507f067b18de61d0dc3585d5a4ff767f5521c1a49e022ff8cd0d3e510748dc3f5c1a82600d60009054906101000a900460ff16604051611b5f929190616bab565b60405180910390a15050565b6060601060006005548152602001908152602001600020805480602002602001604051908101604052809291908181526020016000905b82821015611e3a57838290600052602060002090600502016040518060a00160405290816000820160009054906101000a900473ffffffffffffffffffffffffffffffffffffffff1673ffffffffffffffffffffffffffffffffffffffff1673ffffffffffffffffffffffffffffffffffffffff16815260200160018201805480602002602001604051908101604052809291908181526020018280548015611ca057602002820191906000526020600020905b8160009054906101000a900473ffffffffffffffffffffffffffffffffffffffff1673ffffffffffffffffffffffffffffffffffffffff1681526020019060010190808311611c56575b5050505050815260200160028201805480602002602001604051908101604052809291908181526020016000905b82821015611d4057838290600052602060002001805480602002602001604051908101604052809291908181526020018280548015611d2c57602002820191906000526020600020905b815481526020019060010190808311611d18575b505050505081526020019060010190611cce565b50505050815260200160038201805480602002602001604051908101604052809291908181526020016000905b82821015611e19578382906000526020600020018054611d8c90616992565b80601f0160208091040260200160405190810160405280929190818152602001828054611db890616992565b8015611e055780601f10611dda57610100808354040283529160200191611e05565b820191906000526020600020905b815481529060010190602001808311611de857829003601f168201915b505050505081526020019060010190611d6d565b50505050815260200160048201548152505081526020019060010190611ba2565b50505050905090565b60126020528060005260406000206000915090505481565b611e6361367f565b611e6b613a4d565b565b611e75615244565b6000600f6000848152602001908152602001600020805480602002602001604051908101604052809291908181526020016000905b8282101561218057838290600052602060002090600502016040518060a0016040529081600082018054611edd90616992565b80601f0160208091040260200160405190810160405280929190818152602001828054611f0990616992565b8015611f565780601f10611f2b57610100808354040283529160200191611f56565b820191906000526020600020905b815481529060010190602001808311611f3957829003601f168201915b5050505050815260200160018201805480602002602001604051908101604052809291908181526020016000905b82821015612030578382906000526020600020018054611fa390616992565b80601f0160208091040260200160405190810160405280929190818152602001828054611fcf90616992565b801561201c5780601f10611ff15761010080835404028352916020019161201c565b820191906000526020600020905b815481529060010190602001808311611fff57829003601f168201915b505050505081526020019060010190611f84565b50505050815260200160028201805480602002602001604051908101604052809291908181526020016000905b8282101561210957838290600052602060002001805461207c90616992565b80601f01602080910402602001604051908101604052809291908181526020018280546120a890616992565b80156120f55780601f106120ca576101008083540402835291602001916120f5565b820191906000526020600020905b8154815290600101906020018083116120d857829003601f168201915b50505050508152602001906001019061205d565b5050505081526020016003820160009054906101000a900473ffffffffffffffffffffffffffffffffffffffff1673ffffffffffffffffffffffffffffffffffffffff1673ffffffffffffffffffffffffffffffffffffffff16815260200160048201548152505081526020019060010190611eaa565b5050505090506000612191846122e3565b90506000601160008681526020019081526020016000205490506000604051806080016040528087815260200185815260200184815260200183815250905080945050505050919050565b6122067f05477c39c14a8a45f68e248e875c7b89913df266bcc8ea9804f3160438f36dfd33612279565b612245576040517f08c379a000000000000000000000000000000000000000000000000000000000815260040161223c90616a10565b60405180910390fd5b80600b8190555050565b6000600160009054906101000a900473ffffffffffffffffffffffffffffffffffffffff16905090565b600080600084815260200190815260200160002060000160008373ffffffffffffffffffffffffffffffffffffffff1673ffffffffffffffffffffffffffffffffffffffff16815260200190815260200160002060009054906101000a900460ff16905092915050565b6060600060106000848152602001908152602001600020805480602002602001604051908101604052809291908181526020016000905b828210156125b257838290600052602060002090600502016040518060a00160405290816000820160009054906101000a900473ffffffffffffffffffffffffffffffffffffffff1673ffffffffffffffffffffffffffffffffffffffff1673ffffffffffffffffffffffffffffffffffffffff1681526020016001820180548060200260200160405190810160405280929190818152602001828054801561241857602002820191906000526020600020905b8160009054906101000a900473ffffffffffffffffffffffffffffffffffffffff1673ffffffffffffffffffffffffffffffffffffffff16815260200190600101908083116123ce575b5050505050815260200160028201805480602002602001604051908101604052809291908181526020016000905b828210156124b8578382906000526020600020018054806020026020016040519081016040528092919081815260200182805480156124a457602002820191906000526020600020905b815481526020019060010190808311612490575b505050505081526020019060010190612446565b50505050815260200160038201805480602002602001604051908101604052809291908181526020016000905b8282101561259157838290600052602060002001805461250490616992565b80601f016020809104026020016040519081016040528092919081815260200182805461253090616992565b801561257d5780601f106125525761010080835404028352916020019161257d565b820191906000526020600020905b81548152906001019060200180831161256057829003601f168201915b5050505050815260200190600101906124e5565b5050505081526020016004820154815250508152602001906001019061231a565b5050505090506000815167ffffffffffffffff8111156125d5576125d4615c60565b5b6040519080825280602002602001820160405280156126035781602001602082028036833780820191505090505b50905060005b82518110156126915782818151811061262557612624616a30565b5b60200260200101516000015182828151811061264457612643616a30565b5b602002602001019073ffffffffffffffffffffffffffffffffffffffff16908173ffffffffffffffffffffffffffffffffffffffff1681525050808061268990616a8e565b915050612609565b508092505050919050565b6000801b81565b600b5481565b6126b161367f565b80600860006101000a81548173ffffffffffffffffffffffffffffffffffffffff021916908373ffffffffffffffffffffffffffffffffffffffff16021790555050565b600c5481565b600860009054906101000a900473ffffffffffffffffffffffffffffffffffffffff1681565b61274b7f05477c39c14a8a45f68e248e875c7b89913df266bcc8ea9804f3160438f36dfd33612279565b61278a576040517f08c379a000000000000000000000000000000000000000000000000000000000815260040161278190616a10565b60405180910390fd5b80600c8190555050565b60055481565b6127a261367f565b80601360006014600081546127b690616a8e565b919050819055815260200190815260200160002090805190602001906127dd9291906151bc565b5050565b600380546127ee90616992565b80601f016020809104026020016040519081016040528092919081815260200182805461281a90616992565b80156128675780601f1061283c57610100808354040283529160200191612867565b820191906000526020600020905b81548152906001019060200180831161284a57829003601f168201915b505050505081565b600f602052816000526040600020818154811061288b57600080fd5b9060005260206000209060050201600091509150508060000180546128af90616992565b80601f01602080910402602001604051908101604052809291908181526020018280546128db90616992565b80156129285780601f106128fd57610100808354040283529160200191612928565b820191906000526020600020905b81548152906001019060200180831161290b57829003601f168201915b5050505050908060030160009054906101000a900473ffffffffffffffffffffffffffffffffffffffff16908060040154905083565b6060600e600060055481526020019081526020016000208054806020026020016040519081016040528092919081815260200182805480156129f557602002820191906000526020600020905b8160009054906101000a900473ffffffffffffffffffffffffffffffffffffffff1673ffffffffffffffffffffffffffffffffffffffff16815260200190600101908083116129ab575b5050505050905090565b600a5481565b612a0d61367f565b80600660006101000a81548173ffffffffffffffffffffffffffffffffffffffff021916908373ffffffffffffffffffffffffffffffffffffffff16021790555050565b612a5a8261127c565b612a6381613747565b612a6d8383613843565b505050565b612a7a6136fd565b600280541415612abf576040517f08c379a0000000000000000000000000000000000000000000000000000000008152600401612ab690616c20565b60405180910390fd5b60028081905550612af07f05477c39c14a8a45f68e248e875c7b89913df266bcc8ea9804f3160438f36dfd33612279565b612b2f576040517f08c379a0000000000000000000000000000000000000000000000000000000008152600401612b2690616a10565b60405180910390fd5b612b37613aaf565b612b3f6149e7565b6001600281905550565b60145481565b60106020528160005260406000208181548110612b6b57600080fd5b9060005260206000209060050201600091509150508060000160009054906101000a900473ffffffffffffffffffffffffffffffffffffffff16908060040154905082565b6000612bba6136fd565b600d60009054906101000a900460ff16612c09576040517f08c379a0000000000000000000000000000000000000000000000000000000008152600401612c0090616cd8565b60405180910390fd5b6000612c14866122e3565b9050612c1f336119ca565b612c5e576040517f08c379a0000000000000000000000000000000000000000000000000000000008152600401612c5590616d44565b60405180910390fd5b600085511415612ca3576040517f08c379a0000000000000000000000000000000000000000000000000000000008152600401612c9a90616db0565b60405180910390fd5b8451845114612ce7576040517f08c379a0000000000000000000000000000000000000000000000000000000008152600401612cde90616e42565b60405180910390fd5b6000601360006014548152602001908152602001600020805480602002602001604051908101604052809291908181526020016000905b82821015612dca578382906000526020600020018054612d3d90616992565b80601f0160208091040260200160405190810160405280929190818152602001828054612d6990616992565b8015612db65780601f10612d8b57610100808354040283529160200191612db6565b820191906000526020600020905b815481529060010190602001808311612d9957829003601f168201915b505050505081526020019060010190612d1e565b50505050905060005b865181101561308457612e97600e60008a8152602001908152602001600020805480602002602001604051908101604052809291908181526020018280548015612e7257602002820191906000526020600020905b8160009054906101000a900473ffffffffffffffffffffffffffffffffffffffff1673ffffffffffffffffffffffffffffffffffffffff1681526020019060010190808311612e28575b5050505050888381518110612e8a57612e89616a30565b5b6020026020010151614a54565b612ed6576040517f08c379a0000000000000000000000000000000000000000000000000000000008152600401612ecd90616ed4565b60405180910390fd5b60005b8251811015613070576000878381518110612ef757612ef6616a30565b5b60200260200101518281518110612f1157612f10616a30565b5b60200260200101511015612f5a576040517f08c379a0000000000000000000000000000000000000000000000000000000008152600401612f5190616f66565b60405180910390fd5b600c54878381518110612f7057612f6f616a30565b5b60200260200101518281518110612f8a57612f89616a30565b5b60200260200101511115612fd3576040517f08c379a0000000000000000000000000000000000000000000000000000000008152600401612fca90616ff8565b60405180910390fd5b3373ffffffffffffffffffffffffffffffffffffffff16888381518110612ffd57612ffc616a30565b5b602002602001015173ffffffffffffffffffffffffffffffffffffffff16141561305d57600087838151811061303657613035616a30565b5b602002602001015182815181106130505761304f616a30565b5b6020026020010181815250505b808061306890616a8e565b915050612ed9565b50808061307c90616a8e565b915050612dd3565b5060006103e7905060005b83518110156130fd573373ffffffffffffffffffffffffffffffffffffffff168482815181106130c2576130c1616a30565b5b602002602001015173ffffffffffffffffffffffffffffffffffffffff1614156130ea578091505b80806130f590616a8e565b91505061308f565b5060006040518060a001604052803373ffffffffffffffffffffffffffffffffffffffff16815260200189815260200188815260200187815260200160145481525090506103e782141561323757601060008a815260200190815260200160002081908060018154018082558091505060019003906000526020600020906005020160009091909190915060008201518160000160006101000a81548173ffffffffffffffffffffffffffffffffffffffff021916908373ffffffffffffffffffffffffffffffffffffffff16021790555060208201518160010190805190602001906131eb92919061526c565b5060408201518160020190805190602001906132089291906152f6565b5060608201518160030190805190602001906132259291906151bc565b50608082015181600401555050613317565b80601060008b8152602001908152602001600020838154811061325d5761325c616a30565b5b906000526020600020906005020160008201518160000160006101000a81548173ffffffffffffffffffffffffffffffffffffffff021916908373ffffffffffffffffffffffffffffffffffffffff16021790555060208201518160010190805190602001906132ce92919061526c565b5060408201518160020190805190602001906132eb9291906152f6565b5060608201518160030190805190602001906133089291906151bc565b50608082015181600401559050505b3373ffffffffffffffffffffffffffffffffffffffff167f74d71f5f66a08d53492d6aa116e026a64e461e6de2bad0b1c35d27bb7c5158a68a60405161335d9190616536565b60405180910390a26001945050505050949350505050565b6013602052816000526040600020818154811061339157600080fd5b906000526020600020016000915091505080546133ad90616992565b80601f01602080910402602001604051908101604052809291908181526020018280546133d990616992565b80156134265780601f106133fb57610100808354040283529160200191613426565b820191906000526020600020905b81548152906001019060200180831161340957829003601f168201915b505050505081565b60095481565b7f05477c39c14a8a45f68e248e875c7b89913df266bcc8ea9804f3160438f36dfd81565b606060136000838152602001908152602001600020805480602002602001604051908101604052809291908181526020016000905b828210156135395783829060005260206000200180546134ac90616992565b80601f01602080910402602001604051908101604052809291908181526020018280546134d890616992565b80156135255780601f106134fa57610100808354040283529160200191613525565b820191906000526020600020905b81548152906001019060200180831161350857829003601f168201915b50505050508152602001906001019061348d565b505050509050919050565b61354c61367f565b600073ffffffffffffffffffffffffffffffffffffffff168173ffffffffffffffffffffffffffffffffffffffff1614156135bc576040517f08c379a00000000000000000000000000000000000000000000000000000000081526004016135b39061708a565b60405180910390fd5b6135c581613987565b50565b6135d061367f565b6135fa7f05477c39c14a8a45f68e248e875c7b89913df266bcc8ea9804f3160438f36dfd82614adc565b50565b60116020528060005260406000206000915090505481565b60007f01ffc9a7000000000000000000000000000000000000000000000000000000007bffffffffffffffffffffffffffffffffffffffffffffffffffffffff1916827bffffffffffffffffffffffffffffffffffffffffffffffffffffffff1916149050919050565b61368761383b565b73ffffffffffffffffffffffffffffffffffffffff166136a561224f565b73ffffffffffffffffffffffffffffffffffffffff16146136fb576040517f08c379a00000000000000000000000000000000000000000000000000000000081526004016136f2906170f6565b60405180910390fd5b565b613705611478565b15613745576040517f08c379a000000000000000000000000000000000000000000000000000000000815260040161373c90617162565b60405180910390fd5b565b6137588161375361383b565b614aea565b50565b6137658282612279565b61383757600160008084815260200190815260200160002060000160008373ffffffffffffffffffffffffffffffffffffffff1673ffffffffffffffffffffffffffffffffffffffff16815260200190815260200160002060006101000a81548160ff0219169083151502179055506137dc61383b565b73ffffffffffffffffffffffffffffffffffffffff168173ffffffffffffffffffffffffffffffffffffffff16837f2f8788117e7eff1d82e926ec794901d17c78024a50270940304540a733656f0d60405160405180910390a45b5050565b600033905090565b61384d8282612279565b1561392057600080600084815260200190815260200160002060000160008373ffffffffffffffffffffffffffffffffffffffff1673ffffffffffffffffffffffffffffffffffffffff16815260200190815260200160002060006101000a81548160ff0219169083151502179055506138c561383b565b73ffffffffffffffffffffffffffffffffffffffff168173ffffffffffffffffffffffffffffffffffffffff16837ff6391f5c32d9c69d2a47ea670b442974b53935d1edc7fd64eb21e047a839171b60405160405180910390a45b5050565b61392c614b87565b6000600160146101000a81548160ff0219169083151502179055507f5db9ee0a495bf2e6ff9c91a7834c1ba4fdd244a5e8aa4e537bd38aeae4b073aa61397061383b565b60405161397d9190615bfb565b60405180910390a1565b6000600160009054906101000a900473ffffffffffffffffffffffffffffffffffffffff16905081600160006101000a81548173ffffffffffffffffffffffffffffffffffffffff021916908373ffffffffffffffffffffffffffffffffffffffff1602179055508173ffffffffffffffffffffffffffffffffffffffff168173ffffffffffffffffffffffffffffffffffffffff167f8be0079c531659141344cd1fd0a4f28419497f9722a3daafe3b4186f6b6457e060405160405180910390a35050565b613a556136fd565b60018060146101000a81548160ff0219169083151502179055507f62e78cea01bee320cd4e420270b5ea74000d11b0c9f74754ebdbfc544b05a258613a9861383b565b604051613aa59190615bfb565b60405180910390a1565b6000600e60006005548152602001908152602001600020805480602002602001604051908101604052809291908181526020018280548015613b4657602002820191906000526020600020905b8160009054906101000a900473ffffffffffffffffffffffffffffffffffffffff1673ffffffffffffffffffffffffffffffffffffffff1681526020019060010190808311613afc575b505050505090506000601060006005548152602001908152602001600020805480602002602001604051908101604052809291908181526020016000905b82821015613e1c57838290600052602060002090600502016040518060a00160405290816000820160009054906101000a900473ffffffffffffffffffffffffffffffffffffffff1673ffffffffffffffffffffffffffffffffffffffff1673ffffffffffffffffffffffffffffffffffffffff16815260200160018201805480602002602001604051908101604052809291908181526020018280548015613c8257602002820191906000526020600020905b8160009054906101000a900473ffffffffffffffffffffffffffffffffffffffff1673ffffffffffffffffffffffffffffffffffffffff1681526020019060010190808311613c38575b5050505050815260200160028201805480602002602001604051908101604052809291908181526020016000905b82821015613d2257838290600052602060002001805480602002602001604051908101604052809291908181526020018280548015613d0e57602002820191906000526020600020905b815481526020019060010190808311613cfa575b505050505081526020019060010190613cb0565b50505050815260200160038201805480602002602001604051908101604052809291908181526020016000905b82821015613dfb578382906000526020600020018054613d6e90616992565b80601f0160208091040260200160405190810160405280929190818152602001828054613d9a90616992565b8015613de75780601f10613dbc57610100808354040283529160200191613de7565b820191906000526020600020905b815481529060010190602001808311613dca57829003601f168201915b505050505081526020019060010190613d4f565b50505050815260200160048201548152505081526020019060010190613b84565b5050505090506000601360006014548152602001908152602001600020805480602002602001604051908101604052809291908181526020016000905b82821015613f05578382906000526020600020018054613e7890616992565b80601f0160208091040260200160405190810160405280929190818152602001828054613ea490616992565b8015613ef15780601f10613ec657610100808354040283529160200191613ef1565b820191906000526020600020905b815481529060010190602001808311613ed457829003601f168201915b505050505081526020019060010190613e59565b5050505090506000835167ffffffffffffffff811115613f2857613f27615c60565b5b604051908082528060200260200182016040528015613f5b57816020015b6060815260200190600190039081613f465790505b5090506000845167ffffffffffffffff811115613f7b57613f7a615c60565b5b604051908082528060200260200182016040528015613fa95781602001602082028036833780820191505090505b50905060005b855181101561436157845167ffffffffffffffff811115613fd357613fd2615c60565b5b60405190808252806020026020018201604052801561400c57816020015b613ff9615356565b815260200190600190039081613ff15790505b508382815181106140205761401f616a30565b5b602002602001018190525060005b855181101561434d5760145486828151811061404d5761404c616a30565b5b602002602001015160800151146140635761433a565b86828151811061407657614075616a30565b5b602002602001015173ffffffffffffffffffffffffffffffffffffffff168682815181106140a7576140a6616a30565b5b60200260200101516000015173ffffffffffffffffffffffffffffffffffffffff1614156140d45761433a565b6040518060c001604052808783815181106140f2576140f1616a30565b5b60200260200101516000015173ffffffffffffffffffffffffffffffffffffffff16815260200188848151811061412c5761412b616a30565b5b602002602001015173ffffffffffffffffffffffffffffffffffffffff16815260200187838151811061416257614161616a30565b5b60200260200101516040015184815181106141805761417f616a30565b5b602002602001015181526020018783815181106141a05761419f616a30565b5b60200260200101516060015184815181106141be576141bd616a30565b5b6020026020010151815260200160145481526020016005548152508483815181106141ec576141eb616a30565b5b6020026020010151828151811061420657614205616a30565b5b602002602001018190525060005b8551811015614338578783815181106142305761422f616a30565b5b602002602001015173ffffffffffffffffffffffffffffffffffffffff1687838151811061426157614260616a30565b5b602002602001015160200151848151811061427f5761427e616a30565b5b602002602001015173ffffffffffffffffffffffffffffffffffffffff161415614325578682815181106142b6576142b5616a30565b5b60200260200101516040015183815181106142d4576142d3616a30565b5b602002602001015181815181106142ee576142ed616a30565b5b602002602001015184848151811061430957614308616a30565b5b6020026020010181815161431d9190617182565b915081815250505b808061433090616a8e565b915050614214565b505b808061434590616a8e565b91505061402e565b50808061435990616a8e565b915050613faf565b506000805b82518110156143ae57600083828151811061438457614383616a30565b5b602002602001015190506143988382614bd0565b92505080806143a690616a8e565b915050614366565b506000600e600060055481526020019081526020016000208054905067ffffffffffffffff8111156143e3576143e2615c60565b5b6040519080825280602002602001820160405280156144115781602001602082028036833780820191505090505b509050600082111561449c5760005b875181101561449057600084828151811061443e5761443d616a30565b5b6020026020010151905061445d61445782600a54614bf8565b85614c35565b8383815181106144705761446f616a30565b5b60200260200101818152505050808061448890616a8e565b915050614420565b5061449b8782614cf6565b5b60006144a96005546122e3565b905060008151905060008111156144d65760006144c8600b5483614c35565b90506144d48382614e27565b505b42601260006005548152602001908152602001600020819055506000600860009054906101000a900473ffffffffffffffffffffffffffffffffffffffff16905060005b8a518110156149a1576000600f60006005548152602001908152602001600020828154811061454c5761454b616a30565b5b90600052602060002090600502016040518060a001604052908160008201805461457590616992565b80601f01602080910402602001604051908101604052809291908181526020018280546145a190616992565b80156145ee5780601f106145c3576101008083540402835291602001916145ee565b820191906000526020600020905b8154815290600101906020018083116145d157829003601f168201915b5050505050815260200160018201805480602002602001604051908101604052809291908181526020016000905b828210156146c857838290600052602060002001805461463b90616992565b80601f016020809104026020016040519081016040528092919081815260200182805461466790616992565b80156146b45780601f10614689576101008083540402835291602001916146b4565b820191906000526020600020905b81548152906001019060200180831161469757829003601f168201915b50505050508152602001906001019061461c565b50505050815260200160028201805480602002602001604051908101604052809291908181526020016000905b828210156147a157838290600052602060002001805461471490616992565b80601f016020809104026020016040519081016040528092919081815260200182805461474090616992565b801561478d5780601f106147625761010080835404028352916020019161478d565b820191906000526020600020905b81548152906001019060200180831161477057829003601f168201915b5050505050815260200190600101906146f5565b5050505081526020016003820160009054906101000a900473ffffffffffffffffffffffffffffffffffffffff1673ffffffffffffffffffffffffffffffffffffffff1673ffffffffffffffffffffffffffffffffffffffff168152602001600482015481525050905060006040518060c001604052808360000151815260200188858151811061483557614834616a30565b5b60200260200101518152602001836040015181526020014281526020018e858151811061486557614864616a30565b5b602002602001015173ffffffffffffffffffffffffffffffffffffffff16815260200160055481525090508373ffffffffffffffffffffffffffffffffffffffff1663fdf06fbd60036004846040518463ffffffff1660e01b81526004016148cf939291906172fd565b600060405180830381600087803b1580156148e957600080fd5b505af11580156148fd573d6000803e3d6000fd5b505050508373ffffffffffffffffffffffffffffffffffffffff16635b080940600360048d878151811061493457614933616a30565b5b60200260200101516040518463ffffffff1660e01b815260040161495a9392919061749b565b600060405180830381600087803b15801561497457600080fd5b505af1158015614988573d6000803e3d6000fd5b505050505050808061499990616a8e565b91505061451a565b507f836fbb2ba05500745734fe64e2bda52f3b9fb41e0d12d75481b0d4ac45379c7e6005546040516149d39190616536565b60405180910390a150505050505050505050565b600560008154809291906149fa906174e7565b919050555042601160006005548152602001908152602001600020819055507ffaa2c351c484bd08e21503332728506f3b088dc0c0d22e7a285d889e718d5d0d600554604051614a4a9190616536565b60405180910390a1565b600080600090505b8351811015614ad0578273ffffffffffffffffffffffffffffffffffffffff16848281518110614a8f57614a8e616a30565b5b602002602001015173ffffffffffffffffffffffffffffffffffffffff161415614abd576001915050614ad6565b8080614ac890616a8e565b915050614a5c565b50600090505b92915050565b614ae6828261375b565b5050565b614af48282612279565b614b8357614b198173ffffffffffffffffffffffffffffffffffffffff166014614efa565b614b278360001c6020614efa565b604051602001614b38929190617604565b6040516020818303038152906040526040517f08c379a0000000000000000000000000000000000000000000000000000000008152600401614b7a919061602f565b60405180910390fd5b5050565b614b8f611478565b614bce576040517f08c379a0000000000000000000000000000000000000000000000000000000008152600401614bc59061768a565b60405180910390fd5b565b6000808284614bdf9190617182565b905083811015614bee57600080fd5b8091505092915050565b6000808284614c0791906176aa565b90506000841480614c225750828482614c209190617733565b145b614c2b57600080fd5b8091505092915050565b6000808211614c79576040517f08c379a0000000000000000000000000000000000000000000000000000000008152600401614c70906177b0565b60405180910390fd5b60008284614c879190617733565b90508284614c9591906177d0565b8184614ca191906176aa565b614cab9190617182565b8414614cec576040517f08c379a0000000000000000000000000000000000000000000000000000000008152600401614ce39061784d565b60405180910390fd5b8091505092915050565b8051825114614d3a576040517f08c379a0000000000000000000000000000000000000000000000000000000008152600401614d31906178df565b60405180910390fd5b6000600660009054906101000a900473ffffffffffffffffffffffffffffffffffffffff16905060005b8351811015614e21578173ffffffffffffffffffffffffffffffffffffffff166340c10f19858381518110614d9c57614d9b616a30565b5b6020026020010151858481518110614db757614db6616a30565b5b60200260200101516040518363ffffffff1660e01b8152600401614ddc9291906165d8565b600060405180830381600087803b158015614df657600080fd5b505af1158015614e0a573d6000803e3d6000fd5b505050508080614e1990616a8e565b915050614d64565b50505050565b6000600660009054906101000a900473ffffffffffffffffffffffffffffffffffffffff16905060005b8351811015614ef4578173ffffffffffffffffffffffffffffffffffffffff166340c10f19858381518110614e8957614e88616a30565b5b6020026020010151856040518363ffffffff1660e01b8152600401614eaf9291906165d8565b600060405180830381600087803b158015614ec957600080fd5b505af1158015614edd573d6000803e3d6000fd5b505050508080614eec90616a8e565b915050614e51565b50505050565b606060006002836002614f0d91906176aa565b614f179190617182565b67ffffffffffffffff811115614f3057614f2f615c60565b5b6040519080825280601f01601f191660200182016040528015614f625781602001600182028036833780820191505090505b5090507f300000000000000000000000000000000000000000000000000000000000000081600081518110614f9a57614f99616a30565b5b60200101907effffffffffffffffffffffffffffffffffffffffffffffffffffffffffffff1916908160001a9053507f780000000000000000000000000000000000000000000000000000000000000081600181518110614ffe57614ffd616a30565b5b60200101907effffffffffffffffffffffffffffffffffffffffffffffffffffffffffffff1916908160001a9053506000600184600261503e91906176aa565b6150489190617182565b90505b60018111156150e8577f3031323334353637383961626364656600000000000000000000000000000000600f86166010811061508a57615089616a30565b5b1a60f81b8282815181106150a1576150a0616a30565b5b60200101907effffffffffffffffffffffffffffffffffffffffffffffffffffffffffffff1916908160001a905350600485901c9450806150e1906178ff565b905061504b565b506000841461512c576040517f08c379a000000000000000000000000000000000000000000000000000000000815260040161512390617975565b60405180910390fd5b8091505092915050565b82805461514290616992565b90600052602060002090601f01602090048101928261516457600085556151ab565b82601f1061517d57805160ff19168380011785556151ab565b828001600101855582156151ab579182015b828111156151aa57825182559160200191906001019061518f565b5b5090506151b891906153b8565b5090565b82805482825590600052602060002090810192821561520b579160200282015b8281111561520a5782518290805190602001906151fa929190615136565b50916020019190600101906151dc565b5b50905061521891906153d5565b5090565b6040518060800160405280600081526020016000815260200160008152602001600081525090565b6040518060800160405280600081526020016060815260200160608152602001600081525090565b8280548282559060005260206000209081019282156152e5579160200282015b828111156152e45782518260006101000a81548173ffffffffffffffffffffffffffffffffffffffff021916908373ffffffffffffffffffffffffffffffffffffffff1602179055509160200191906001019061528c565b5b5090506152f291906153b8565b5090565b828054828255906000526020600020908101928215615345579160200282015b828111156153445782518290805190602001906153349291906153f9565b5091602001919060010190615316565b5b5090506153529190615446565b5090565b6040518060c00160405280600073ffffffffffffffffffffffffffffffffffffffff168152602001600073ffffffffffffffffffffffffffffffffffffffff168152602001606081526020016060815260200160008152602001600081525090565b5b808211156153d15760008160009055506001016153b9565b5090565b5b808211156153f557600081816153ec919061546a565b506001016153d6565b5090565b828054828255906000526020600020908101928215615435579160200282015b82811115615434578251825591602001919060010190615419565b5b50905061544291906153b8565b5090565b5b80821115615466576000818161545d91906154aa565b50600101615447565b5090565b50805461547690616992565b6000825580601f1061548857506154a7565b601f0160209004906000526020600020908101906154a691906153b8565b5b50565b50805460008255906000526020600020908101906154c891906153b8565b50565b6000604051905090565b600080fd5b600080fd5b60007fffffffff0000000000000000000000000000000000000000000000000000000082169050919050565b615514816154df565b811461551f57600080fd5b50565b6000813590506155318161550b565b92915050565b60006020828403121561554d5761554c6154d5565b5b600061555b84828501615522565b91505092915050565b60008115159050919050565b61557981615564565b82525050565b60006020820190506155946000830184615570565b92915050565b6000819050919050565b6155ad8161559a565b81146155b857600080fd5b50565b6000813590506155ca816155a4565b92915050565b6000602082840312156155e6576155e56154d5565b5b60006155f4848285016155bb565b91505092915050565b600081519050919050565b600082825260208201905092915050565b6000819050602082019050919050565b600073ffffffffffffffffffffffffffffffffffffffff82169050919050565b600061565482615629565b9050919050565b61566481615649565b82525050565b600081519050919050565b600082825260208201905092915050565b6000819050602082019050919050565b60006156a2838361565b565b60208301905092915050565b6000602082019050919050565b60006156c68261566a565b6156d08185615675565b93506156db83615686565b8060005b8381101561570c5781516156f38882615696565b97506156fe836156ae565b9250506001810190506156df565b5085935050505092915050565b600081519050919050565b600082825260208201905092915050565b6000819050602082019050919050565b600081519050919050565b600082825260208201905092915050565b6000819050602082019050919050565b6000819050919050565b61578481615771565b82525050565b6000615796838361577b565b60208301905092915050565b6000602082019050919050565b60006157ba82615745565b6157c48185615750565b93506157cf83615761565b8060005b838110156158005781516157e7888261578a565b97506157f2836157a2565b9250506001810190506157d3565b5085935050505092915050565b600061581983836157af565b905092915050565b6000602082019050919050565b600061583982615719565b6158438185615724565b93508360208202850161585585615735565b8060005b858110156158915784840389528151615872858261580d565b945061587d83615821565b925060208a01995050600181019050615859565b50829750879550505050505092915050565b600081519050919050565b600082825260208201905092915050565b6000819050602082019050919050565b600081519050919050565b600082825260208201905092915050565b60005b838110156159095780820151818401526020810190506158ee565b83811115615918576000848401525b50505050565b6000601f19601f8301169050919050565b600061593a826158cf565b61594481856158da565b93506159548185602086016158eb565b61595d8161591e565b840191505092915050565b6000615974838361592f565b905092915050565b6000602082019050919050565b6000615994826158a3565b61599e81856158ae565b9350836020820285016159b0856158bf565b8060005b858110156159ec57848403895281516159cd8582615968565b94506159d88361597c565b925060208a019950506001810190506159b4565b50829750879550505050505092915050565b600060a083016000830151615a16600086018261565b565b5060208301518482036020860152615a2e82826156bb565b91505060408301518482036040860152615a48828261582e565b91505060608301518482036060860152615a628282615989565b9150506080830151615a77608086018261577b565b508091505092915050565b6000615a8e83836159fe565b905092915050565b6000602082019050919050565b6000615aae826155fd565b615ab88185615608565b935083602082028501615aca85615619565b8060005b85811015615b065784840389528151615ae78582615a82565b9450615af283615a96565b925060208a01995050600181019050615ace565b50829750879550505050505092915050565b60006020820190508181036000830152615b328184615aa3565b905092915050565b615b4381615771565b8114615b4e57600080fd5b50565b600081359050615b6081615b3a565b92915050565b600060208284031215615b7c57615b7b6154d5565b5b6000615b8a84828501615b51565b91505092915050565b615b9c81615649565b8114615ba757600080fd5b50565b600081359050615bb981615b93565b92915050565b600060208284031215615bd557615bd46154d5565b5b6000615be384828501615baa565b91505092915050565b615bf581615649565b82525050565b6000602082019050615c106000830184615bec565b92915050565b60008060408385031215615c2d57615c2c6154d5565b5b6000615c3b858286016155bb565b9250506020615c4c85828601615b51565b9150509250929050565b600080fd5b600080fd5b7f4e487b7100000000000000000000000000000000000000000000000000000000600052604160045260246000fd5b615c988261591e565b810181811067ffffffffffffffff82111715615cb757615cb6615c60565b5b80604052505050565b6000615cca6154cb565b9050615cd68282615c8f565b919050565b600067ffffffffffffffff821115615cf657615cf5615c60565b5b615cff8261591e565b9050602081019050919050565b82818337600083830152505050565b6000615d2e615d2984615cdb565b615cc0565b905082815260208101848484011115615d4a57615d49615c5b565b5b615d55848285615d0c565b509392505050565b600082601f830112615d7257615d71615c56565b5b8135615d82848260208601615d1b565b91505092915050565b600067ffffffffffffffff821115615da657615da5615c60565b5b602082029050602081019050919050565b600080fd5b6000615dcf615dca84615d8b565b615cc0565b90508083825260208201905060208402830185811115615df257615df1615db7565b5b835b81811015615e3957803567ffffffffffffffff811115615e1757615e16615c56565b5b808601615e248982615d5d565b85526020850194505050602081019050615df4565b5050509392505050565b600082601f830112615e5857615e57615c56565b5b8135615e68848260208601615dbc565b91505092915050565b600080600060608486031215615e8a57615e896154d5565b5b600084013567ffffffffffffffff811115615ea857615ea76154da565b5b615eb486828701615d5d565b935050602084013567ffffffffffffffff811115615ed557615ed46154da565b5b615ee186828701615e43565b925050604084013567ffffffffffffffff811115615f0257615f016154da565b5b615f0e86828701615e43565b9150509250925092565b6000819050919050565b615f2b81615f18565b8114615f3657600080fd5b50565b600081359050615f4881615f22565b92915050565b600060208284031215615f6457615f636154d5565b5b6000615f7284828501615f39565b91505092915050565b615f8481615f18565b82525050565b6000602082019050615f9f6000830184615f7b565b92915050565b60008060408385031215615fbc57615fbb6154d5565b5b6000615fca85828601615f39565b9250506020615fdb85828601615baa565b9150509250929050565b600082825260208201905092915050565b6000616001826158cf565b61600b8185615fe5565b935061601b8185602086016158eb565b6160248161591e565b840191505092915050565b600060208201905081810360008301526160498184615ff6565b905092915050565b600081519050919050565b600082825260208201905092915050565b6000819050602082019050919050565b6160868161559a565b82525050565b6080820160008201516160a2600085018261607d565b5060208201516160b5602085018261577b565b5060408201516160c8604085018261577b565b5060608201516160db606085018261577b565b50505050565b60006160ed838361608c565b60808301905092915050565b6000602082019050919050565b600061611182616051565b61611b818561605c565b93506161268361606d565b8060005b8381101561615757815161613e88826160e1565b9750616149836160f9565b92505060018101905061612a565b5085935050505092915050565b6000602082019050818103600083015261617e8184616106565b905092915050565b600082825260208201905092915050565b60006161a2826158a3565b6161ac8185616186565b9350836020820285016161be856158bf565b8060005b858110156161fa57848403895281516161db8582615968565b94506161e68361597c565b925060208a019950506001810190506161c2565b50829750879550505050505092915050565b600060208201905081810360008301526162268184616197565b905092915050565b61623781615564565b811461624257600080fd5b50565b6000813590506162548161622e565b92915050565b60008060408385031215616271576162706154d5565b5b600061627f858286016155bb565b925050602061629085828601616245565b9150509250929050565b6162a381615771565b82525050565b60006020820190506162be600083018461629a565b92915050565b600081519050919050565b600082825260208201905092915050565b6000819050602082019050919050565b600060a083016000830151848203600086015261630d828261592f565b915050602083015184820360208601526163278282615989565b915050604083015184820360408601526163418282615989565b9150506060830151616356606086018261565b565b506080830151616369608086018261607d565b508091505092915050565b600061638083836162f0565b905092915050565b6000602082019050919050565b60006163a0826162c4565b6163aa81856162cf565b9350836020820285016163bc856162e0565b8060005b858110156163f857848403895281516163d98582616374565b94506163e483616388565b925060208a019950506001810190506163c0565b50829750879550505050505092915050565b6000608083016000830151616422600086018261607d565b506020830151848203602086015261643a8282616395565b9150506040830151848203604086015261645482826156bb565b9150506060830151616469606086018261577b565b508091505092915050565b6000602082019050818103600083015261648e818461640a565b905092915050565b600082825260208201905092915050565b60006164b28261566a565b6164bc8185616496565b93506164c783615686565b8060005b838110156164f85781516164df8882615696565b97506164ea836156ae565b9250506001810190506164cb565b5085935050505092915050565b6000602082019050818103600083015261651f81846164a7565b905092915050565b6165308161559a565b82525050565b600060208201905061654b6000830184616527565b92915050565b600060208284031215616567576165666154d5565b5b600082013567ffffffffffffffff811115616585576165846154da565b5b61659184828501615e43565b91505092915050565b600060608201905081810360008301526165b48186615ff6565b90506165c36020830185615bec565b6165d06040830184616527565b949350505050565b60006040820190506165ed6000830185615bec565b6165fa602083018461629a565b9392505050565b600067ffffffffffffffff82111561661c5761661b615c60565b5b602082029050602081019050919050565b600061664061663b84616601565b615cc0565b9050808382526020820190506020840283018581111561666357616662615db7565b5b835b8181101561668c57806166788882615baa565b845260208401935050602081019050616665565b5050509392505050565b600082601f8301126166ab576166aa615c56565b5b81356166bb84826020860161662d565b91505092915050565b600067ffffffffffffffff8211156166df576166de615c60565b5b602082029050602081019050919050565b600067ffffffffffffffff82111561670b5761670a615c60565b5b602082029050602081019050919050565b600061672f61672a846166f0565b615cc0565b9050808382526020820190506020840283018581111561675257616751615db7565b5b835b8181101561677b57806167678882615b51565b845260208401935050602081019050616754565b5050509392505050565b600082601f83011261679a57616799615c56565b5b81356167aa84826020860161671c565b91505092915050565b60006167c66167c1846166c4565b615cc0565b905080838252602082019050602084028301858111156167e9576167e8615db7565b5b835b8181101561683057803567ffffffffffffffff81111561680e5761680d615c56565b5b80860161681b8982616785565b855260208501945050506020810190506167eb565b5050509392505050565b600082601f83011261684f5761684e615c56565b5b813561685f8482602086016167b3565b91505092915050565b60008060008060808587031215616882576168816154d5565b5b6000616890878288016155bb565b945050602085013567ffffffffffffffff8111156168b1576168b06154da565b5b6168bd87828801616696565b935050604085013567ffffffffffffffff8111156168de576168dd6154da565b5b6168ea8782880161683a565b925050606085013567ffffffffffffffff81111561690b5761690a6154da565b5b61691787828801615e43565b91505092959194509250565b6000806040838503121561693a576169396154d5565b5b600061694885828601615b51565b925050602061695985828601615b51565b9150509250929050565b7f4e487b7100000000000000000000000000000000000000000000000000000000600052602260045260246000fd5b600060028204905060018216806169aa57607f821691505b602082108114156169be576169bd616963565b5b50919050565b7f43616c6c6572206973206e6f74206120706f6c6c2061646d696e000000000000600082015250565b60006169fa601a83615fe5565b9150616a05826169c4565b602082019050919050565b60006020820190508181036000830152616a29816169ed565b9050919050565b7f4e487b7100000000000000000000000000000000000000000000000000000000600052603260045260246000fd5b7f4e487b7100000000000000000000000000000000000000000000000000000000600052601160045260246000fd5b6000616a9982615771565b91507fffffffffffffffffffffffffffffffffffffffffffffffffffffffffffffffff821415616acc57616acb616a5f565b5b600182019050919050565b7f416363657373436f6e74726f6c3a2063616e206f6e6c792072656e6f756e636560008201527f20726f6c657320666f722073656c660000000000000000000000000000000000602082015250565b6000616b33602f83615fe5565b9150616b3e82616ad7565b604082019050919050565b60006020820190508181036000830152616b6281616b26565b9050919050565b600081519050616b7881615b3a565b92915050565b600060208284031215616b9457616b936154d5565b5b6000616ba284828501616b69565b91505092915050565b6000604082019050616bc06000830185616527565b616bcd6020830184615570565b9392505050565b7f5265656e7472616e637947756172643a207265656e7472616e742063616c6c00600082015250565b6000616c0a601f83615fe5565b9150616c1582616bd4565b602082019050919050565b60006020820190508181036000830152616c3981616bfd565b9050919050565b7f566f74696e67206973206e6f7420656e61626c6564207269676874206e6f772e60008201527f20436f6e74616374207468652061646d696e20746f20737461727420766f746960208201527f6e672e0000000000000000000000000000000000000000000000000000000000604082015250565b6000616cc2604383615fe5565b9150616ccd82616c40565b606082019050919050565b60006020820190508181036000830152616cf181616cb5565b9050919050565b7f596f7520617265206e6f7420656c696769626c6520746f20766f74652e000000600082015250565b6000616d2e601d83615fe5565b9150616d3982616cf8565b602082019050919050565b60006020820190508181036000830152616d5d81616d21565b9050919050565b7f43616e64696461746573206d757374206e6f7420626520656d7074792e000000600082015250565b6000616d9a601d83615fe5565b9150616da582616d64565b602082019050919050565b60006020820190508181036000830152616dc981616d8d565b9050919050565b7f546865206e756d626572206f6620706f696e7473206973206e6f742076616c6960008201527f642e000000000000000000000000000000000000000000000000000000000000602082015250565b6000616e2c602283615fe5565b9150616e3782616dd0565b604082019050919050565b60006020820190508181036000830152616e5b81616e1f565b9050919050565b7f5468652063616e646964617465206973206e6f7420696e20746865206375727260008201527f656e7420706f6c6c2e0000000000000000000000000000000000000000000000602082015250565b6000616ebe602983615fe5565b9150616ec982616e62565b604082019050919050565b60006020820190508181036000830152616eed81616eb1565b9050919050565b7f54686520706f696e747320617265206e6f742076616c69642e202830203c3d2060008201527f706f696e74732900000000000000000000000000000000000000000000000000602082015250565b6000616f50602783615fe5565b9150616f5b82616ef4565b604082019050919050565b60006020820190508181036000830152616f7f81616f43565b9050919050565b7f54686520706f696e747320617265206e6f742076616c69642e2028706f696e7460008201527f73203c20564f54455f4d41585f504f494e542900000000000000000000000000602082015250565b6000616fe2603383615fe5565b9150616fed82616f86565b604082019050919050565b6000602082019050818103600083015261701181616fd5565b9050919050565b7f4f776e61626c653a206e6577206f776e657220697320746865207a65726f206160008201527f6464726573730000000000000000000000000000000000000000000000000000602082015250565b6000617074602683615fe5565b915061707f82617018565b604082019050919050565b600060208201905081810360008301526170a381617067565b9050919050565b7f4f776e61626c653a2063616c6c6572206973206e6f7420746865206f776e6572600082015250565b60006170e0602083615fe5565b91506170eb826170aa565b602082019050919050565b6000602082019050818103600083015261710f816170d3565b9050919050565b7f5061757361626c653a2070617573656400000000000000000000000000000000600082015250565b600061714c601083615fe5565b915061715782617116565b602082019050919050565b6000602082019050818103600083015261717b8161713f565b9050919050565b600061718d82615771565b915061719883615771565b9250827fffffffffffffffffffffffffffffffffffffffffffffffffffffffffffffffff038211156171cd576171cc616a5f565b5b828201905092915050565b60008190508160005260206000209050919050565b600081546171fa81616992565b6172048186615fe5565b9450600182166000811461721f576001811461723157617264565b60ff1983168652602086019350617264565b61723a856171d8565b60005b8381101561725c5781548189015260018201915060208101905061723d565b808801955050505b50505092915050565b600060c083016000830151848203600086015261728a828261592f565b915050602083015161729f602086018261577b565b50604083015184820360408601526172b78282615989565b91505060608301516172cc606086018261577b565b5060808301516172df608086018261565b565b5060a08301516172f260a086018261607d565b508091505092915050565b6000606082019050818103600083015261731781866171ed565b9050818103602083015261732b81856171ed565b9050818103604083015261733f818461726d565b9050949350505050565b600081519050919050565b600082825260208201905092915050565b6000819050602082019050919050565b600060c08301600083015161738d600086018261565b565b5060208301516173a0602086018261565b565b50604083015184820360408601526173b882826157af565b915050606083015184820360608601526173d2828261592f565b91505060808301516173e7608086018261577b565b5060a08301516173fa60a086018261607d565b508091505092915050565b60006174118383617375565b905092915050565b6000602082019050919050565b600061743182617349565b61743b8185617354565b93508360208202850161744d85617365565b8060005b85811015617489578484038952815161746a8582617405565b945061747583617419565b925060208a01995050600181019050617451565b50829750879550505050505092915050565b600060608201905081810360008301526174b581866171ed565b905081810360208301526174c981856171ed565b905081810360408301526174dd8184617426565b9050949350505050565b60006174f28261559a565b91507f7fffffffffffffffffffffffffffffffffffffffffffffffffffffffffffffff82141561752557617524616a5f565b5b600182019050919050565b600081905092915050565b7f416363657373436f6e74726f6c3a206163636f756e7420000000000000000000600082015250565b6000617571601783617530565b915061757c8261753b565b601782019050919050565b6000617592826158cf565b61759c8185617530565b93506175ac8185602086016158eb565b80840191505092915050565b7f206973206d697373696e6720726f6c6520000000000000000000000000000000600082015250565b60006175ee601183617530565b91506175f9826175b8565b601182019050919050565b600061760f82617564565b915061761b8285617587565b9150617626826175e1565b91506176328284617587565b91508190509392505050565b7f5061757361626c653a206e6f7420706175736564000000000000000000000000600082015250565b6000617674601483615fe5565b915061767f8261763e565b602082019050919050565b600060208201905081810360008301526176a381617667565b9050919050565b60006176b582615771565b91506176c083615771565b9250817fffffffffffffffffffffffffffffffffffffffffffffffffffffffffffffffff04831182151516156176f9576176f8616a5f565b5b828202905092915050565b7f4e487b7100000000000000000000000000000000000000000000000000000000600052601260045260246000fd5b600061773e82615771565b915061774983615771565b92508261775957617758617704565b5b828204905092915050565b7f646976696465206279207a65726f000000000000000000000000000000000000600082015250565b600061779a600e83615fe5565b91506177a582617764565b602082019050919050565b600060208201905081810360008301526177c98161778d565b9050919050565b60006177db82615771565b91506177e683615771565b9250826177f6576177f5617704565b5b828206905092915050565b7f6f766572666c6f77000000000000000000000000000000000000000000000000600082015250565b6000617837600883615fe5565b915061784282617801565b602082019050919050565b600060208201905081810360008301526178668161782a565b9050919050565b7f746f20616e6420616d6f756e74206d7573742062652073616d65206c656e677460008201527f6800000000000000000000000000000000000000000000000000000000000000602082015250565b60006178c9602183615fe5565b91506178d48261786d565b604082019050919050565b600060208201905081810360008301526178f8816178bc565b9050919050565b600061790a82615771565b9150600082141561791e5761791d616a5f565b5b600182039050919050565b7f537472696e67733a20686578206c656e67746820696e73756666696369656e74600082015250565b600061795f602083615fe5565b915061796a82617929565b602082019050919050565b6000602082019050818103600083015261798e81617952565b905091905056fea2646970667358221220faa8f47ac43392cfc1988586ae6cb3d82836f09d84e3e9b9a4034a91fc73b58564736f6c63430008090033",
  "linkReferences": {},
  "deployedLinkReferences": {}
}