{
  "_format": "hh-sol-artifact-1",
  "contractName": "Poll",
  "sourceName": "contracts/Poll.sol",
  "abi": [
    {
      "inputs": [
        {
          "internalType": "string",
          "name": "_daoId",
          "type": "string"
        },
        {
          "internalType": "string",
          "name": "_projectId",
          "type": "string"
        }
      ],
      "stateMutability": "nonpayable",
      "type": "constructor"
    },
    {
      "anonymous": false,
      "inputs": [
        {
          "indexed": false,
          "internalType": "int256",
          "name": "pollId",
          "type": "int256"
        },
        {
          "indexed": true,
          "internalType": "address",
          "name": "candidate",
          "type": "address"
        }
      ],
      "name": "Candidated",
      "type": "event"
    },
    {
      "anonymous": false,
      "inputs": [
        {
          "indexed": false,
          "internalType": "int256",
          "name": "pollId",
          "type": "int256"
        }
      ],
      "name": "CreatePoll",
      "type": "event"
    },
    {
      "anonymous": false,
      "inputs": [
        {
          "indexed": true,
          "internalType": "address",
          "name": "sender",
          "type": "address"
        },
        {
          "indexed": false,
          "internalType": "uint256",
          "name": "amount",
          "type": "uint256"
        }
      ],
      "name": "Deposited",
      "type": "event"
    },
    {
      "anonymous": false,
      "inputs": [
        {
          "indexed": true,
          "internalType": "address",
          "name": "previousOwner",
          "type": "address"
        },
        {
          "indexed": true,
          "internalType": "address",
          "name": "newOwner",
          "type": "address"
        }
      ],
      "name": "OwnershipTransferred",
      "type": "event"
    },
    {
      "anonymous": false,
      "inputs": [
        {
          "indexed": false,
          "internalType": "address",
          "name": "account",
          "type": "address"
        }
      ],
      "name": "Paused",
      "type": "event"
    },
    {
      "anonymous": false,
      "inputs": [
        {
          "indexed": true,
          "internalType": "bytes32",
          "name": "role",
          "type": "bytes32"
        },
        {
          "indexed": true,
          "internalType": "bytes32",
          "name": "previousAdminRole",
          "type": "bytes32"
        },
        {
          "indexed": true,
          "internalType": "bytes32",
          "name": "newAdminRole",
          "type": "bytes32"
        }
      ],
      "name": "RoleAdminChanged",
      "type": "event"
    },
    {
      "anonymous": false,
      "inputs": [
        {
          "indexed": true,
          "internalType": "bytes32",
          "name": "role",
          "type": "bytes32"
        },
        {
          "indexed": true,
          "internalType": "address",
          "name": "account",
          "type": "address"
        },
        {
          "indexed": true,
          "internalType": "address",
          "name": "sender",
          "type": "address"
        }
      ],
      "name": "RoleGranted",
      "type": "event"
    },
    {
      "anonymous": false,
      "inputs": [
        {
          "indexed": true,
          "internalType": "bytes32",
          "name": "role",
          "type": "bytes32"
        },
        {
          "indexed": true,
          "internalType": "address",
          "name": "account",
          "type": "address"
        },
        {
          "indexed": true,
          "internalType": "address",
          "name": "sender",
          "type": "address"
        }
      ],
      "name": "RoleRevoked",
      "type": "event"
    },
    {
      "anonymous": false,
      "inputs": [
        {
          "indexed": false,
          "internalType": "int256",
          "name": "pollId",
          "type": "int256"
        }
      ],
      "name": "SettlePoll",
      "type": "event"
    },
    {
      "anonymous": false,
      "inputs": [
        {
          "indexed": false,
          "internalType": "address",
          "name": "account",
          "type": "address"
        }
      ],
      "name": "Unpaused",
      "type": "event"
    },
    {
      "anonymous": false,
      "inputs": [
        {
          "indexed": false,
          "internalType": "int256",
          "name": "pollId",
          "type": "int256"
        },
        {
          "indexed": true,
          "internalType": "address",
          "name": "voter",
          "type": "address"
        }
      ],
      "name": "Voted",
      "type": "event"
    },
    {
      "anonymous": false,
      "inputs": [
        {
          "indexed": false,
          "internalType": "int256",
          "name": "pollId",
          "type": "int256"
        },
        {
          "indexed": false,
          "internalType": "bool",
          "name": "enabled",
          "type": "bool"
        }
      ],
      "name": "VotingEnabled",
      "type": "event"
    },
    {
      "anonymous": false,
      "inputs": [
        {
          "indexed": false,
          "internalType": "uint256",
          "name": "amount",
          "type": "uint256"
        },
        {
          "indexed": false,
          "internalType": "uint256",
          "name": "payedAmount",
          "type": "uint256"
        }
      ],
      "name": "WithdrawEth",
      "type": "event"
    },
    {
      "inputs": [],
      "name": "CONTRIBUTOR_ASSIGNMENT_TOKEN",
      "outputs": [
        {
          "internalType": "uint256",
          "name": "",
          "type": "uint256"
        }
      ],
      "stateMutability": "view",
      "type": "function"
    },
    {
      "inputs": [],
      "name": "DEFAULT_ADMIN_ROLE",
      "outputs": [
        {
          "internalType": "bytes32",
          "name": "",
          "type": "bytes32"
        }
      ],
      "stateMutability": "view",
      "type": "function"
    },
    {
      "inputs": [],
      "name": "POLL_ADMIN_ROLE",
      "outputs": [
        {
          "internalType": "bytes32",
          "name": "",
          "type": "bytes32"
        }
      ],
      "stateMutability": "view",
      "type": "function"
    },
    {
      "inputs": [],
      "name": "REQUIRED_TOKEN_FOR_VOTE",
      "outputs": [
        {
          "internalType": "uint256",
          "name": "",
          "type": "uint256"
        }
      ],
      "stateMutability": "view",
      "type": "function"
    },
    {
      "inputs": [],
      "name": "SUPPORTER_ASSIGNMENT_TOKEN",
      "outputs": [
        {
          "internalType": "uint256",
          "name": "",
          "type": "uint256"
        }
      ],
      "stateMutability": "view",
      "type": "function"
    },
    {
      "inputs": [],
      "name": "VOTE_MAX_POINT",
      "outputs": [
        {
          "internalType": "uint256",
          "name": "",
          "type": "uint256"
        }
      ],
      "stateMutability": "view",
      "type": "function"
    },
    {
      "inputs": [],
      "name": "activePerspective",
      "outputs": [
        {
          "internalType": "uint256",
          "name": "",
          "type": "uint256"
        }
      ],
      "stateMutability": "view",
      "type": "function"
    },
    {
      "inputs": [
        {
          "internalType": "string",
          "name": "contributionText",
          "type": "string"
        },
        {
          "internalType": "string[]",
          "name": "evidences",
          "type": "string[]"
        },
        {
          "internalType": "string[]",
          "name": "roles",
          "type": "string[]"
        }
      ],
      "name": "candidateToCurrentPoll",
      "outputs": [],
      "stateMutability": "nonpayable",
      "type": "function"
    },
    {
      "inputs": [
        {
          "internalType": "int256",
          "name": "",
          "type": "int256"
        },
        {
          "internalType": "uint256",
          "name": "",
          "type": "uint256"
        }
      ],
      "name": "candidates",
      "outputs": [
        {
          "internalType": "address",
          "name": "",
          "type": "address"
        }
      ],
      "stateMutability": "view",
      "type": "function"
    },
    {
      "inputs": [
        {
          "internalType": "string[]",
          "name": "perspectiveTexts",
          "type": "string[]"
        }
      ],
      "name": "changePerspective",
      "outputs": [],
      "stateMutability": "nonpayable",
      "type": "function"
    },
    {
      "inputs": [
        {
          "internalType": "int256",
          "name": "",
          "type": "int256"
        },
        {
          "internalType": "uint256",
          "name": "",
          "type": "uint256"
        }
      ],
      "name": "contributions",
      "outputs": [
        {
          "internalType": "string",
          "name": "contributionText",
          "type": "string"
        },
        {
          "internalType": "address",
          "name": "contributor",
          "type": "address"
        },
        {
          "internalType": "int256",
          "name": "pollId",
          "type": "int256"
        }
      ],
      "stateMutability": "view",
      "type": "function"
    },
    {
      "inputs": [],
      "name": "daoHistoryAddress",
      "outputs": [
        {
          "internalType": "address",
          "name": "",
          "type": "address"
        }
      ],
      "stateMutability": "view",
      "type": "function"
    },
    {
      "inputs": [],
      "name": "daoId",
      "outputs": [
        {
          "internalType": "string",
          "name": "",
          "type": "string"
        }
      ],
      "stateMutability": "view",
      "type": "function"
    },
    {
      "inputs": [],
      "name": "daoTokenAddress",
      "outputs": [
        {
          "internalType": "address",
          "name": "",
          "type": "address"
        }
      ],
      "stateMutability": "view",
      "type": "function"
    },
    {
      "inputs": [
        {
          "internalType": "int256",
          "name": "",
          "type": "int256"
        }
      ],
      "name": "endTimeStamp",
      "outputs": [
        {
          "internalType": "uint256",
          "name": "",
          "type": "uint256"
        }
      ],
      "stateMutability": "view",
      "type": "function"
    },
    {
      "inputs": [],
      "name": "getActivePolls",
      "outputs": [
        {
          "components": [
            {
              "internalType": "int256",
              "name": "pollId",
              "type": "int256"
            },
            {
              "internalType": "uint256",
              "name": "votersCount",
              "type": "uint256"
            },
            {
              "internalType": "uint256",
              "name": "candidatesCount",
              "type": "uint256"
            },
            {
              "internalType": "uint256",
              "name": "startTimeStamp",
              "type": "uint256"
            }
          ],
          "internalType": "struct AbstractPollItem[]",
          "name": "",
          "type": "tuple[]"
        }
      ],
      "stateMutability": "view",
      "type": "function"
    },
    {
      "inputs": [],
      "name": "getCurrentCandidates",
      "outputs": [
        {
          "internalType": "address[]",
          "name": "",
          "type": "address[]"
        }
      ],
      "stateMutability": "view",
      "type": "function"
    },
    {
      "inputs": [],
      "name": "getCurrentPerspectives",
      "outputs": [
        {
          "internalType": "string[]",
          "name": "",
          "type": "string[]"
        }
      ],
      "stateMutability": "view",
      "type": "function"
    },
    {
      "inputs": [],
      "name": "getCurrentVotes",
      "outputs": [
        {
          "components": [
            {
              "internalType": "address",
              "name": "voter",
              "type": "address"
            },
            {
              "internalType": "address[]",
              "name": "candidates",
              "type": "address[]"
            },
            {
              "internalType": "uint256[][]",
              "name": "points",
              "type": "uint256[][]"
            },
            {
              "internalType": "string[]",
              "name": "comments",
              "type": "string[]"
            },
            {
              "internalType": "uint256",
              "name": "perspectiveId",
              "type": "uint256"
            }
          ],
          "internalType": "struct Vote[]",
          "name": "",
          "type": "tuple[]"
        }
      ],
      "stateMutability": "view",
      "type": "function"
    },
    {
      "inputs": [
        {
          "internalType": "uint256",
          "name": "_perspectiveId",
          "type": "uint256"
        }
      ],
      "name": "getPerspectives",
      "outputs": [
        {
          "internalType": "string[]",
          "name": "",
          "type": "string[]"
        }
      ],
      "stateMutability": "view",
      "type": "function"
    },
    {
      "inputs": [
        {
          "internalType": "int256",
          "name": "_pollId",
          "type": "int256"
        }
      ],
      "name": "getPollDetail",
      "outputs": [
        {
          "components": [
            {
              "internalType": "int256",
              "name": "pollId",
              "type": "int256"
            },
            {
              "components": [
                {
                  "internalType": "string",
                  "name": "contributionText",
                  "type": "string"
                },
                {
                  "internalType": "string[]",
                  "name": "evidences",
                  "type": "string[]"
                },
                {
                  "internalType": "string[]",
                  "name": "roles",
                  "type": "string[]"
                },
                {
                  "internalType": "address",
                  "name": "contributor",
                  "type": "address"
                },
                {
                  "internalType": "int256",
                  "name": "pollId",
                  "type": "int256"
                }
              ],
              "internalType": "struct ContributionItem[]",
              "name": "contributions",
              "type": "tuple[]"
            },
            {
              "internalType": "address[]",
              "name": "voters",
              "type": "address[]"
            },
            {
              "internalType": "uint256",
              "name": "startTimeStamp",
              "type": "uint256"
            }
          ],
          "internalType": "struct DetailPollItem",
          "name": "",
          "type": "tuple"
        }
      ],
      "stateMutability": "view",
      "type": "function"
    },
    {
      "inputs": [
        {
          "internalType": "bytes32",
          "name": "role",
          "type": "bytes32"
        }
      ],
      "name": "getRoleAdmin",
      "outputs": [
        {
          "internalType": "bytes32",
          "name": "",
          "type": "bytes32"
        }
      ],
      "stateMutability": "view",
      "type": "function"
    },
    {
      "inputs": [
        {
          "internalType": "int256",
          "name": "_pollId",
          "type": "int256"
        }
      ],
      "name": "getVoters",
      "outputs": [
        {
          "internalType": "address[]",
          "name": "",
          "type": "address[]"
        }
      ],
      "stateMutability": "view",
      "type": "function"
    },
    {
      "inputs": [
        {
          "internalType": "int256",
          "name": "_pollId",
          "type": "int256"
        }
      ],
      "name": "getVotes",
      "outputs": [
        {
          "components": [
            {
              "internalType": "address",
              "name": "voter",
              "type": "address"
            },
            {
              "internalType": "address[]",
              "name": "candidates",
              "type": "address[]"
            },
            {
              "internalType": "uint256[][]",
              "name": "points",
              "type": "uint256[][]"
            },
            {
              "internalType": "string[]",
              "name": "comments",
              "type": "string[]"
            },
            {
              "internalType": "uint256",
              "name": "perspectiveId",
              "type": "uint256"
            }
          ],
          "internalType": "struct Vote[]",
          "name": "",
          "type": "tuple[]"
        }
      ],
      "stateMutability": "view",
      "type": "function"
    },
    {
      "inputs": [
        {
          "internalType": "bytes32",
          "name": "role",
          "type": "bytes32"
        },
        {
          "internalType": "address",
          "name": "account",
          "type": "address"
        }
      ],
      "name": "grantRole",
      "outputs": [],
      "stateMutability": "nonpayable",
      "type": "function"
    },
    {
      "inputs": [
        {
          "internalType": "bytes32",
          "name": "role",
          "type": "bytes32"
        },
        {
          "internalType": "address",
          "name": "account",
          "type": "address"
        }
      ],
      "name": "hasRole",
      "outputs": [
        {
          "internalType": "bool",
          "name": "",
          "type": "bool"
        }
      ],
      "stateMutability": "view",
      "type": "function"
    },
    {
      "inputs": [
        {
          "internalType": "address",
          "name": "_address",
          "type": "address"
        }
      ],
      "name": "isEligibleToVote",
      "outputs": [
        {
          "internalType": "bool",
          "name": "",
          "type": "bool"
        }
      ],
      "stateMutability": "view",
      "type": "function"
    },
    {
      "inputs": [],
      "name": "nftAddress",
      "outputs": [
        {
          "internalType": "address",
          "name": "",
          "type": "address"
        }
      ],
      "stateMutability": "view",
      "type": "function"
    },
    {
      "inputs": [],
      "name": "owner",
      "outputs": [
        {
          "internalType": "address",
          "name": "",
          "type": "address"
        }
      ],
      "stateMutability": "view",
      "type": "function"
    },
    {
      "inputs": [],
      "name": "pause",
      "outputs": [],
      "stateMutability": "nonpayable",
      "type": "function"
    },
    {
      "inputs": [],
      "name": "paused",
      "outputs": [
        {
          "internalType": "bool",
          "name": "",
          "type": "bool"
        }
      ],
      "stateMutability": "view",
      "type": "function"
    },
    {
      "inputs": [
        {
          "internalType": "uint256",
          "name": "",
          "type": "uint256"
        },
        {
          "internalType": "uint256",
          "name": "",
          "type": "uint256"
        }
      ],
      "name": "perspectives",
      "outputs": [
        {
          "internalType": "string",
          "name": "",
          "type": "string"
        }
      ],
      "stateMutability": "view",
      "type": "function"
    },
    {
      "inputs": [],
      "name": "pollId",
      "outputs": [
        {
          "internalType": "int256",
          "name": "",
          "type": "int256"
        }
      ],
      "stateMutability": "view",
      "type": "function"
    },
    {
      "inputs": [],
      "name": "projectId",
      "outputs": [
        {
          "internalType": "string",
          "name": "",
          "type": "string"
        }
      ],
      "stateMutability": "view",
      "type": "function"
    },
    {
      "inputs": [],
      "name": "renounceOwnership",
      "outputs": [],
      "stateMutability": "nonpayable",
      "type": "function"
    },
    {
      "inputs": [
        {
          "internalType": "bytes32",
          "name": "role",
          "type": "bytes32"
        },
        {
          "internalType": "address",
          "name": "account",
          "type": "address"
        }
      ],
      "name": "renounceRole",
      "outputs": [],
      "stateMutability": "nonpayable",
      "type": "function"
    },
    {
      "inputs": [
        {
          "internalType": "bytes32",
          "name": "role",
          "type": "bytes32"
        },
        {
          "internalType": "address",
          "name": "account",
          "type": "address"
        }
      ],
      "name": "revokeRole",
      "outputs": [],
      "stateMutability": "nonpayable",
      "type": "function"
    },
    {
      "inputs": [
        {
          "internalType": "uint256",
          "name": "_contributorAssignmentToken",
          "type": "uint256"
        }
      ],
      "name": "setContributorAssignmentToken",
      "outputs": [],
      "stateMutability": "nonpayable",
      "type": "function"
    },
    {
      "inputs": [
        {
          "internalType": "address",
          "name": "_daoHistoryAddress",
          "type": "address"
        }
      ],
      "name": "setDaoHistoryAddress",
      "outputs": [],
      "stateMutability": "nonpayable",
      "type": "function"
    },
    {
      "inputs": [
        {
          "internalType": "address",
          "name": "_daoTokenAddress",
          "type": "address"
        }
      ],
      "name": "setDaoTokenAddress",
      "outputs": [],
      "stateMutability": "nonpayable",
      "type": "function"
    },
    {
      "inputs": [
        {
          "internalType": "address",
          "name": "_nftAddress",
          "type": "address"
        }
      ],
      "name": "setNftAddress",
      "outputs": [],
      "stateMutability": "nonpayable",
      "type": "function"
    },
    {
      "inputs": [
        {
          "internalType": "address",
          "name": "_address",
          "type": "address"
        }
      ],
      "name": "setPollAdminRole",
      "outputs": [],
      "stateMutability": "nonpayable",
      "type": "function"
    },
    {
      "inputs": [
        {
          "internalType": "uint256",
          "name": "_rankForVote",
          "type": "uint256"
        }
      ],
      "name": "setRequiredTokenForVote",
      "outputs": [],
      "stateMutability": "nonpayable",
      "type": "function"
    },
    {
      "inputs": [
        {
          "internalType": "uint256",
          "name": "_supporterAssignmentToken",
          "type": "uint256"
        }
      ],
      "name": "setSupporterAssignmentToken",
      "outputs": [],
      "stateMutability": "nonpayable",
      "type": "function"
    },
    {
      "inputs": [
        {
          "internalType": "uint256",
          "name": "_voteMaxPoint",
          "type": "uint256"
        }
      ],
      "name": "setVoteMaxPoint",
      "outputs": [],
      "stateMutability": "nonpayable",
      "type": "function"
    },
    {
      "inputs": [
        {
          "internalType": "bool",
          "name": "_votingEnabled",
          "type": "bool"
        }
      ],
      "name": "setVotingEnabled",
      "outputs": [],
      "stateMutability": "nonpayable",
      "type": "function"
    },
    {
      "inputs": [],
      "name": "settleCurrentPollAndCreateNewPoll",
      "outputs": [],
      "stateMutability": "nonpayable",
      "type": "function"
    },
    {
      "inputs": [
        {
          "internalType": "int256",
          "name": "",
          "type": "int256"
        }
      ],
      "name": "startTimeStamp",
      "outputs": [
        {
          "internalType": "uint256",
          "name": "",
          "type": "uint256"
        }
      ],
      "stateMutability": "view",
      "type": "function"
    },
    {
      "inputs": [
        {
          "internalType": "bytes4",
          "name": "interfaceId",
          "type": "bytes4"
        }
      ],
      "name": "supportsInterface",
      "outputs": [
        {
          "internalType": "bool",
          "name": "",
          "type": "bool"
        }
      ],
      "stateMutability": "view",
      "type": "function"
    },
    {
      "inputs": [
        {
          "internalType": "address",
          "name": "newOwner",
          "type": "address"
        }
      ],
      "name": "transferOwnership",
      "outputs": [],
      "stateMutability": "nonpayable",
      "type": "function"
    },
    {
      "inputs": [],
      "name": "unpause",
      "outputs": [],
      "stateMutability": "nonpayable",
      "type": "function"
    },
    {
      "inputs": [
        {
          "internalType": "int256",
          "name": "_pollId",
          "type": "int256"
        },
        {
          "internalType": "address[]",
          "name": "_candidates",
          "type": "address[]"
        },
        {
          "internalType": "uint256[][]",
          "name": "_points",
          "type": "uint256[][]"
        },
        {
          "internalType": "string[]",
          "name": "_comments",
          "type": "string[]"
        }
      ],
      "name": "vote",
      "outputs": [
        {
          "internalType": "bool",
          "name": "",
          "type": "bool"
        }
      ],
      "stateMutability": "nonpayable",
      "type": "function"
    },
    {
      "inputs": [
        {
          "internalType": "int256",
          "name": "",
          "type": "int256"
        },
        {
          "internalType": "uint256",
          "name": "",
          "type": "uint256"
        }
      ],
      "name": "votes",
      "outputs": [
        {
          "internalType": "address",
          "name": "voter",
          "type": "address"
        },
        {
          "internalType": "uint256",
          "name": "perspectiveId",
          "type": "uint256"
        }
      ],
      "stateMutability": "view",
      "type": "function"
    },
    {
      "inputs": [],
      "name": "votingEnabled",
      "outputs": [
        {
          "internalType": "bool",
          "name": "",
          "type": "bool"
        }
      ],
      "stateMutability": "view",
      "type": "function"
    }
  ],
  "bytecode": "0x60806040526000600555600060095569017b7883c06916600000600a5568a2a15d09519be00000600b556014600c556001600d60006101000a81548160ff02191690831515021790555060006014553480156200005b57600080fd5b5060405162007b4338038062007b43833981810160405281019062000081919062000419565b620000a162000095620000fe60201b60201c565b6200010660201b60201c565b6000600160146101000a81548160ff02191690831515021790555060016002819055508160039080519060200190620000dc929190620001cc565b508060049080519060200190620000f5929190620001cc565b50505062000503565b600033905090565b6000600160009054906101000a900473ffffffffffffffffffffffffffffffffffffffff16905081600160006101000a81548173ffffffffffffffffffffffffffffffffffffffff021916908373ffffffffffffffffffffffffffffffffffffffff1602179055508173ffffffffffffffffffffffffffffffffffffffff168173ffffffffffffffffffffffffffffffffffffffff167f8be0079c531659141344cd1fd0a4f28419497f9722a3daafe3b4186f6b6457e060405160405180910390a35050565b828054620001da90620004cd565b90600052602060002090601f016020900481019282620001fe57600085556200024a565b82601f106200021957805160ff19168380011785556200024a565b828001600101855582156200024a579182015b82811115620002495782518255916020019190600101906200022c565b5b5090506200025991906200025d565b5090565b5b80821115620002785760008160009055506001016200025e565b5090565b6000604051905090565b600080fd5b600080fd5b600080fd5b600080fd5b6000601f19601f8301169050919050565b7f4e487b7100000000000000000000000000000000000000000000000000000000600052604160045260246000fd5b620002e5826200029a565b810181811067ffffffffffffffff82111715620003075762000306620002ab565b5b80604052505050565b60006200031c6200027c565b90506200032a8282620002da565b919050565b600067ffffffffffffffff8211156200034d576200034c620002ab565b5b62000358826200029a565b9050602081019050919050565b60005b838110156200038557808201518184015260208101905062000368565b8381111562000395576000848401525b50505050565b6000620003b2620003ac846200032f565b62000310565b905082815260208101848484011115620003d157620003d062000295565b5b620003de84828562000365565b509392505050565b600082601f830112620003fe57620003fd62000290565b5b8151620004108482602086016200039b565b91505092915050565b6000806040838503121562000433576200043262000286565b5b600083015167ffffffffffffffff8111156200045457620004536200028b565b5b6200046285828601620003e6565b925050602083015167ffffffffffffffff8111156200048657620004856200028b565b5b6200049485828601620003e6565b9150509250929050565b7f4e487b7100000000000000000000000000000000000000000000000000000000600052602260045260246000fd5b60006002820490506001821680620004e657607f821691505b60208210811415620004fd57620004fc6200049e565b5b50919050565b61763080620005136000396000f3fe608060405234801561001057600080fd5b50600436106103425760003560e01c80638da5cb5b116101b8578063d47587f211610104578063d972b590116100a2578063ea8f16831161007c578063ea8f1683146109a6578063f2fde38b146109d6578063fc39870b146109f2578063fe98bbc714610a0e57610342565b8063d972b5901461093a578063d9b0b8a91461096a578063e499943f1461098857610342565b8063d76e79d4116100de578063d76e79d4146108b1578063d899744f146108bb578063d8b1ebac146108d9578063d8f8f07a1461090a57610342565b8063d47587f21461085b578063d519ffa414610879578063d547741f1461089557610342565b8063bb3c6ebb11610171578063c97e60e31161014b578063c97e60e3146107d1578063cac2699b146107ed578063d0967c381461080b578063d384e4d41461083d57610342565b8063bb3c6ebb14610779578063c01cd23c14610797578063c2f33e54146107b557610342565b80638da5cb5b146106a357806391d14854146106c1578063a092a7a8146106f1578063a217fddf14610721578063a5f38fa31461073f578063b8cb6b791461075d57610342565b80634617c06a1161029257806370bd8e93116102305780637e78d68a1161020a5780637e78d68a1461061d5780638456cb591461064d5780638a3e8620146106575780638b8ef8d21461068757610342565b806370bd8e93146105c5578063715018a6146105f557806372b4ca47146105ff57610342565b806363a9492f1161026c57806363a9492f1461054d578063640e11681461056b5780636f13ab00146105895780637034482a146105a757610342565b80634617c06a146104f55780635bf8633a146105115780635c975abb1461052f57610342565b806323628d0e116102ff5780632f2ff15d116102d95780632f2ff15d1461049557806336568abe146104b15780633f4ba83a146104cd5780633fafa127146104d757610342565b806323628d0e1461042d5780632386849114610449578063248a9ca31461046557610342565b806301ffc9a714610347578063022a2d911461037757806302decedb146103a75780630b102d1a146103c35780631c004729146103df5780631dbc1366146103fd575b600080fd5b610361600480360381019061035c91906152f6565b610a3e565b60405161036e919061533e565b60405180910390f35b610391600480360381019061038c919061538f565b610ab8565b60405161039e91906158d7565b60405180910390f35b6103c160048036038101906103bc9190615925565b610d90565b005b6103dd60048036038101906103d8919061597e565b610e03565b005b6103e7610e4f565b6040516103f491906159ba565b60405180910390f35b610417600480360381019061041291906159d5565b610e75565b60405161042491906159ba565b60405180910390f35b61044760048036038101906104429190615c30565b610ec3565b005b610463600480360381019061045e9190615d03565b61127c565b005b61047f600480360381019061047a9190615d66565b61134c565b60405161048c9190615da2565b60405180910390f35b6104af60048036038101906104aa9190615dbd565b61136b565b005b6104cb60048036038101906104c69190615dbd565b61138c565b005b6104d561140f565b005b6104df611421565b6040516104ec9190615e47565b60405180910390f35b61050f600480360381019061050a9190615925565b6114af565b005b610519611522565b60405161052691906159ba565b60405180910390f35b610537611548565b604051610544919061533e565b60405180910390f35b61055561155f565b6040516105629190615f7c565b60405180910390f35b61057361199b565b604051610580919061533e565b60405180910390f35b6105916119ae565b60405161059e9190615fad565b60405180910390f35b6105af6119b4565b6040516105bc919061604e565b60405180910390f35b6105df60048036038101906105da919061597e565b611aa0565b6040516105ec919061533e565b60405180910390f35b6105fd611b5e565b005b610607611b72565b60405161061491906158d7565b60405180910390f35b6106376004803603810190610632919061538f565b611e4a565b604051610644919061607f565b60405180910390f35b610655611e62565b005b610671600480360381019061066c919061538f565b611e74565b60405161067e919061624a565b60405180910390f35b6106a1600480360381019061069c9190615925565b6121e5565b005b6106ab612258565b6040516106b891906159ba565b60405180910390f35b6106db60048036038101906106d69190615dbd565b612282565b6040516106e8919061533e565b60405180910390f35b61070b6004803603810190610706919061538f565b6122ec565b60405161071891906162db565b60405180910390f35b6107296126a5565b6040516107369190615da2565b60405180910390f35b6107476126ac565b604051610754919061607f565b60405180910390f35b6107776004803603810190610772919061597e565b6126b2565b005b6107816126fe565b60405161078e919061607f565b60405180910390f35b61079f612704565b6040516107ac91906159ba565b60405180910390f35b6107cf60048036038101906107ca9190615925565b61272a565b005b6107eb60048036038101906107e691906162fd565b61279d565b005b6107f56127e4565b6040516108029190615e47565b60405180910390f35b610825600480360381019061082091906159d5565b612872565b60405161083493929190616346565b60405180910390f35b610845612961565b60405161085291906162db565b60405180910390f35b610863612a02565b604051610870919061607f565b60405180910390f35b610893600480360381019061088e919061597e565b612a08565b005b6108af60048036038101906108aa9190615dbd565b612a54565b005b6108b9612a75565b005b6108c3612b4c565b6040516108d0919061607f565b60405180910390f35b6108f360048036038101906108ee91906159d5565b612b52565b604051610901929190616384565b60405180910390f35b610924600480360381019061091f9190616614565b612bb3565b604051610931919061533e565b60405180910390f35b610954600480360381019061094f91906166cf565b61337a565b6040516109619190615e47565b60405180910390f35b610972613433565b60405161097f919061607f565b60405180910390f35b610990613439565b60405161099d9190615da2565b60405180910390f35b6109c060048036038101906109bb9190615925565b61345d565b6040516109cd919061604e565b60405180910390f35b6109f060048036038101906109eb919061597e565b613549565b005b610a0c6004803603810190610a07919061597e565b6135cd565b005b610a286004803603810190610a23919061538f565b613602565b604051610a35919061607f565b60405180910390f35b60007f7965db0b000000000000000000000000000000000000000000000000000000007bffffffffffffffffffffffffffffffffffffffffffffffffffffffff1916827bffffffffffffffffffffffffffffffffffffffffffffffffffffffff19161480610ab15750610ab08261361a565b5b9050919050565b606060106000838152602001908152602001600020805480602002602001604051908101604052809291908181526020016000905b82821015610d8557838290600052602060002090600502016040518060a00160405290816000820160009054906101000a900473ffffffffffffffffffffffffffffffffffffffff1673ffffffffffffffffffffffffffffffffffffffff1673ffffffffffffffffffffffffffffffffffffffff16815260200160018201805480602002602001604051908101604052809291908181526020018280548015610beb57602002820191906000526020600020905b8160009054906101000a900473ffffffffffffffffffffffffffffffffffffffff1673ffffffffffffffffffffffffffffffffffffffff1681526020019060010190808311610ba1575b5050505050815260200160028201805480602002602001604051908101604052809291908181526020016000905b82821015610c8b57838290600052602060002001805480602002602001604051908101604052809291908181526020018280548015610c7757602002820191906000526020600020905b815481526020019060010190808311610c63575b505050505081526020019060010190610c19565b50505050815260200160038201805480602002602001604051908101604052809291908181526020016000905b82821015610d64578382906000526020600020018054610cd79061673e565b80601f0160208091040260200160405190810160405280929190818152602001828054610d039061673e565b8015610d505780601f10610d2557610100808354040283529160200191610d50565b820191906000526020600020905b815481529060010190602001808311610d3357829003601f168201915b505050505081526020019060010190610cb8565b50505050815260200160048201548152505081526020019060010190610aed565b505050509050919050565b610dba7f05477c39c14a8a45f68e248e875c7b89913df266bcc8ea9804f3160438f36dfd33612282565b610df9576040517f08c379a0000000000000000000000000000000000000000000000000000000008152600401610df0906167bc565b60405180910390fd5b80600a8190555050565b610e0b613684565b80600760006101000a81548173ffffffffffffffffffffffffffffffffffffffff021916908373ffffffffffffffffffffffffffffffffffffffff16021790555050565b600660009054906101000a900473ffffffffffffffffffffffffffffffffffffffff1681565b600e6020528160005260406000208181548110610e9157600080fd5b906000526020600020016000915091509054906101000a900473ffffffffffffffffffffffffffffffffffffffff1681565b610ecb613702565b60006103e7905060005b600e6000600554815260200190815260200160002080549050811015610f91573373ffffffffffffffffffffffffffffffffffffffff16600e600060055481526020019081526020016000208281548110610f3357610f326167dc565b5b9060005260206000200160009054906101000a900473ffffffffffffffffffffffffffffffffffffffff1673ffffffffffffffffffffffffffffffffffffffff161415610f7e578091505b8080610f899061683a565b915050610ed5565b506103e781141561113e57600e60006005548152602001908152602001600020339080600181540180825580915050600190039060005260206000200160009091909190916101000a81548173ffffffffffffffffffffffffffffffffffffffff021916908373ffffffffffffffffffffffffffffffffffffffff160217905550600f600060055481526020019081526020016000206040518060a001604052808681526020018581526020018481526020013373ffffffffffffffffffffffffffffffffffffffff168152602001600554815250908060018154018082558091505060019003906000526020600020906005020160009091909190915060008201518160000190805190602001906110ab929190614f57565b5060208201518160010190805190602001906110c8929190614fdd565b5060408201518160020190805190602001906110e5929190614fdd565b5060608201518160030160006101000a81548173ffffffffffffffffffffffffffffffffffffffff021916908373ffffffffffffffffffffffffffffffffffffffff160217905550608082015181600401555050611226565b83600f600060055481526020019081526020016000208281548110611166576111656167dc565b5b9060005260206000209060050201600001908051906020019061118a929190614f57565b5082600f6000600554815260200190815260200160002082815481106111b3576111b26167dc565b5b906000526020600020906005020160010190805190602001906111d7929190614fdd565b5081600f600060055481526020019081526020016000208281548110611200576111ff6167dc565b5b90600052602060002090600502016002019080519060200190611224929190614fdd565b505b3373ffffffffffffffffffffffffffffffffffffffff167f48f50cc4c081867b26157ea6fbeb68ca3459ce4cfbfcf65d23a369dea7a0eacb60055460405161126e9190615fad565b60405180910390a250505050565b6112a67f05477c39c14a8a45f68e248e875c7b89913df266bcc8ea9804f3160438f36dfd33612282565b6112e5576040517f08c379a00000000000000000000000000000000000000000000000000000000081526004016112dc906167bc565b60405180910390fd5b80600d60006101000a81548160ff0219169083151502179055507f067b18de61d0dc3585d5a4ff767f5521c1a49e022ff8cd0d3e510748dc3f5c1a600554600d60009054906101000a900460ff16604051611341929190616883565b60405180910390a150565b6000806000838152602001908152602001600020600101549050919050565b6113748261134c565b61137d8161374c565b6113878383613760565b505050565b611394613840565b73ffffffffffffffffffffffffffffffffffffffff168173ffffffffffffffffffffffffffffffffffffffff1614611401576040517f08c379a00000000000000000000000000000000000000000000000000000000081526004016113f89061691e565b60405180910390fd5b61140b8282613848565b5050565b611417613684565b61141f613929565b565b6004805461142e9061673e565b80601f016020809104026020016040519081016040528092919081815260200182805461145a9061673e565b80156114a75780601f1061147c576101008083540402835291602001916114a7565b820191906000526020600020905b81548152906001019060200180831161148a57829003601f168201915b505050505081565b6114d97f05477c39c14a8a45f68e248e875c7b89913df266bcc8ea9804f3160438f36dfd33612282565b611518576040517f08c379a000000000000000000000000000000000000000000000000000000000815260040161150f906167bc565b60405180910390fd5b8060098190555050565b600760009054906101000a900473ffffffffffffffffffffffffffffffffffffffff1681565b6000600160149054906101000a900460ff16905090565b60606000601060006005548152602001908152602001600020805480602002602001604051908101604052809291908181526020016000905b8282101561183057838290600052602060002090600502016040518060a00160405290816000820160009054906101000a900473ffffffffffffffffffffffffffffffffffffffff1673ffffffffffffffffffffffffffffffffffffffff1673ffffffffffffffffffffffffffffffffffffffff1681526020016001820180548060200260200160405190810160405280929190818152602001828054801561169657602002820191906000526020600020905b8160009054906101000a900473ffffffffffffffffffffffffffffffffffffffff1673ffffffffffffffffffffffffffffffffffffffff168152602001906001019080831161164c575b5050505050815260200160028201805480602002602001604051908101604052809291908181526020016000905b828210156117365783829060005260206000200180548060200260200160405190810160405280929190818152602001828054801561172257602002820191906000526020600020905b81548152602001906001019080831161170e575b5050505050815260200190600101906116c4565b50505050815260200160038201805480602002602001604051908101604052809291908181526020016000905b8282101561180f5783829060005260206000200180546117829061673e565b80601f01602080910402602001604051908101604052809291908181526020018280546117ae9061673e565b80156117fb5780601f106117d0576101008083540402835291602001916117fb565b820191906000526020600020905b8154815290600101906020018083116117de57829003601f168201915b505050505081526020019060010190611763565b50505050815260200160048201548152505081526020019060010190611598565b5050505090506000600e600060055481526020019081526020016000208054806020026020016040519081016040528092919081815260200182805480156118cd57602002820191906000526020600020905b8160009054906101000a900473ffffffffffffffffffffffffffffffffffffffff1673ffffffffffffffffffffffffffffffffffffffff1681526020019060010190808311611883575b50505050509050600060116000600554815260200190815260200160002054905060006040518060800160405280600554815260200185518152602001845181526020018381525090506000600167ffffffffffffffff81111561193457611933615a1f565b5b60405190808252806020026020018201604052801561196d57816020015b61195a61503d565b8152602001906001900390816119525790505b5090508181600081518110611985576119846167dc565b5b6020026020010181905250809550505050505090565b600d60009054906101000a900460ff1681565b60055481565b6060601360006014548152602001908152602001600020805480602002602001604051908101604052809291908181526020016000905b82821015611a97578382906000526020600020018054611a0a9061673e565b80601f0160208091040260200160405190810160405280929190818152602001828054611a369061673e565b8015611a835780601f10611a5857610100808354040283529160200191611a83565b820191906000526020600020905b815481529060010190602001808311611a6657829003601f168201915b5050505050815260200190600101906119eb565b50505050905090565b600080600760009054906101000a900473ffffffffffffffffffffffffffffffffffffffff1690506009548173ffffffffffffffffffffffffffffffffffffffff166370a08231856040518263ffffffff1660e01b8152600401611b0491906159ba565b60206040518083038186803b158015611b1c57600080fd5b505afa158015611b30573d6000803e3d6000fd5b505050506040513d601f19601f82011682018060405250810190611b549190616953565b1015915050919050565b611b66613684565b611b70600061398c565b565b6060601060006005548152602001908152602001600020805480602002602001604051908101604052809291908181526020016000905b82821015611e4157838290600052602060002090600502016040518060a00160405290816000820160009054906101000a900473ffffffffffffffffffffffffffffffffffffffff1673ffffffffffffffffffffffffffffffffffffffff1673ffffffffffffffffffffffffffffffffffffffff16815260200160018201805480602002602001604051908101604052809291908181526020018280548015611ca757602002820191906000526020600020905b8160009054906101000a900473ffffffffffffffffffffffffffffffffffffffff1673ffffffffffffffffffffffffffffffffffffffff1681526020019060010190808311611c5d575b5050505050815260200160028201805480602002602001604051908101604052809291908181526020016000905b82821015611d4757838290600052602060002001805480602002602001604051908101604052809291908181526020018280548015611d3357602002820191906000526020600020905b815481526020019060010190808311611d1f575b505050505081526020019060010190611cd5565b50505050815260200160038201805480602002602001604051908101604052809291908181526020016000905b82821015611e20578382906000526020600020018054611d939061673e565b80601f0160208091040260200160405190810160405280929190818152602001828054611dbf9061673e565b8015611e0c5780601f10611de157610100808354040283529160200191611e0c565b820191906000526020600020905b815481529060010190602001808311611def57829003601f168201915b505050505081526020019060010190611d74565b50505050815260200160048201548152505081526020019060010190611ba9565b50505050905090565b60126020528060005260406000206000915090505481565b611e6a613684565b611e72613a52565b565b611e7c615065565b6000600f6000848152602001908152602001600020805480602002602001604051908101604052809291908181526020016000905b8282101561218757838290600052602060002090600502016040518060a0016040529081600082018054611ee49061673e565b80601f0160208091040260200160405190810160405280929190818152602001828054611f109061673e565b8015611f5d5780601f10611f3257610100808354040283529160200191611f5d565b820191906000526020600020905b815481529060010190602001808311611f4057829003601f168201915b5050505050815260200160018201805480602002602001604051908101604052809291908181526020016000905b82821015612037578382906000526020600020018054611faa9061673e565b80601f0160208091040260200160405190810160405280929190818152602001828054611fd69061673e565b80156120235780601f10611ff857610100808354040283529160200191612023565b820191906000526020600020905b81548152906001019060200180831161200657829003601f168201915b505050505081526020019060010190611f8b565b50505050815260200160028201805480602002602001604051908101604052809291908181526020016000905b828210156121105783829060005260206000200180546120839061673e565b80601f01602080910402602001604051908101604052809291908181526020018280546120af9061673e565b80156120fc5780601f106120d1576101008083540402835291602001916120fc565b820191906000526020600020905b8154815290600101906020018083116120df57829003601f168201915b505050505081526020019060010190612064565b5050505081526020016003820160009054906101000a900473ffffffffffffffffffffffffffffffffffffffff1673ffffffffffffffffffffffffffffffffffffffff1673ffffffffffffffffffffffffffffffffffffffff16815260200160048201548152505081526020019060010190611eb1565b5050505090506000612198846122ec565b905060006011600086815260200190815260200160002054905060006040518060800160405280600554815260200185815260200184815260200183815250905080945050505050919050565b61220f7f05477c39c14a8a45f68e248e875c7b89913df266bcc8ea9804f3160438f36dfd33612282565b61224e576040517f08c379a0000000000000000000000000000000000000000000000000000000008152600401612245906167bc565b60405180910390fd5b80600b8190555050565b6000600160009054906101000a900473ffffffffffffffffffffffffffffffffffffffff16905090565b600080600084815260200190815260200160002060000160008373ffffffffffffffffffffffffffffffffffffffff1673ffffffffffffffffffffffffffffffffffffffff16815260200190815260200160002060009054906101000a900460ff16905092915050565b6060600060106000848152602001908152602001600020805480602002602001604051908101604052809291908181526020016000905b828210156125bb57838290600052602060002090600502016040518060a00160405290816000820160009054906101000a900473ffffffffffffffffffffffffffffffffffffffff1673ffffffffffffffffffffffffffffffffffffffff1673ffffffffffffffffffffffffffffffffffffffff1681526020016001820180548060200260200160405190810160405280929190818152602001828054801561242157602002820191906000526020600020905b8160009054906101000a900473ffffffffffffffffffffffffffffffffffffffff1673ffffffffffffffffffffffffffffffffffffffff16815260200190600101908083116123d7575b5050505050815260200160028201805480602002602001604051908101604052809291908181526020016000905b828210156124c1578382906000526020600020018054806020026020016040519081016040528092919081815260200182805480156124ad57602002820191906000526020600020905b815481526020019060010190808311612499575b50505050508152602001906001019061244f565b50505050815260200160038201805480602002602001604051908101604052809291908181526020016000905b8282101561259a57838290600052602060002001805461250d9061673e565b80601f01602080910402602001604051908101604052809291908181526020018280546125399061673e565b80156125865780601f1061255b57610100808354040283529160200191612586565b820191906000526020600020905b81548152906001019060200180831161256957829003601f168201915b5050505050815260200190600101906124ee565b50505050815260200160048201548152505081526020019060010190612323565b5050505090506000815167ffffffffffffffff8111156125de576125dd615a1f565b5b60405190808252806020026020018201604052801561260c5781602001602082028036833780820191505090505b50905060005b825181101561269a5782818151811061262e5761262d6167dc565b5b60200260200101516000015182828151811061264d5761264c6167dc565b5b602002602001019073ffffffffffffffffffffffffffffffffffffffff16908173ffffffffffffffffffffffffffffffffffffffff168152505080806126929061683a565b915050612612565b508092505050919050565b6000801b81565b600b5481565b6126ba613684565b80600860006101000a81548173ffffffffffffffffffffffffffffffffffffffff021916908373ffffffffffffffffffffffffffffffffffffffff16021790555050565b600c5481565b600860009054906101000a900473ffffffffffffffffffffffffffffffffffffffff1681565b6127547f05477c39c14a8a45f68e248e875c7b89913df266bcc8ea9804f3160438f36dfd33612282565b612793576040517f08c379a000000000000000000000000000000000000000000000000000000000815260040161278a906167bc565b60405180910390fd5b80600c8190555050565b6127a5613684565b80601360006014600081546127b99061683a565b919050819055815260200190815260200160002090805190602001906127e0929190614fdd565b5050565b600380546127f19061673e565b80601f016020809104026020016040519081016040528092919081815260200182805461281d9061673e565b801561286a5780601f1061283f5761010080835404028352916020019161286a565b820191906000526020600020905b81548152906001019060200180831161284d57829003601f168201915b505050505081565b600f602052816000526040600020818154811061288e57600080fd5b9060005260206000209060050201600091509150508060000180546128b29061673e565b80601f01602080910402602001604051908101604052809291908181526020018280546128de9061673e565b801561292b5780601f106129005761010080835404028352916020019161292b565b820191906000526020600020905b81548152906001019060200180831161290e57829003601f168201915b5050505050908060030160009054906101000a900473ffffffffffffffffffffffffffffffffffffffff16908060040154905083565b6060600e600060055481526020019081526020016000208054806020026020016040519081016040528092919081815260200182805480156129f857602002820191906000526020600020905b8160009054906101000a900473ffffffffffffffffffffffffffffffffffffffff1673ffffffffffffffffffffffffffffffffffffffff16815260200190600101908083116129ae575b5050505050905090565b600a5481565b612a10613684565b80600660006101000a81548173ffffffffffffffffffffffffffffffffffffffff021916908373ffffffffffffffffffffffffffffffffffffffff16021790555050565b612a5d8261134c565b612a668161374c565b612a708383613848565b505050565b612a7d613702565b600280541415612ac2576040517f08c379a0000000000000000000000000000000000000000000000000000000008152600401612ab9906169cc565b60405180910390fd5b60028081905550612af37f05477c39c14a8a45f68e248e875c7b89913df266bcc8ea9804f3160438f36dfd33612282565b612b32576040517f08c379a0000000000000000000000000000000000000000000000000000000008152600401612b29906167bc565b60405180910390fd5b612b3a613ab4565b612b42614808565b6001600281905550565b60145481565b60106020528160005260406000208181548110612b6e57600080fd5b9060005260206000209060050201600091509150508060000160009054906101000a900473ffffffffffffffffffffffffffffffffffffffff16908060040154905082565b6000612bbd613702565b600d60009054906101000a900460ff16612c0c576040517f08c379a0000000000000000000000000000000000000000000000000000000008152600401612c0390616a84565b60405180910390fd5b6000612c17866122ec565b9050612c2233611aa0565b612c61576040517f08c379a0000000000000000000000000000000000000000000000000000000008152600401612c5890616af0565b60405180910390fd5b600085511415612ca6576040517f08c379a0000000000000000000000000000000000000000000000000000000008152600401612c9d90616b5c565b60405180910390fd5b8451845114612cea576040517f08c379a0000000000000000000000000000000000000000000000000000000008152600401612ce190616bee565b60405180910390fd5b6000601360006014548152602001908152602001600020805480602002602001604051908101604052809291908181526020016000905b82821015612dcd578382906000526020600020018054612d409061673e565b80601f0160208091040260200160405190810160405280929190818152602001828054612d6c9061673e565b8015612db95780601f10612d8e57610100808354040283529160200191612db9565b820191906000526020600020905b815481529060010190602001808311612d9c57829003601f168201915b505050505081526020019060010190612d21565b50505050905060005b865181101561308957612e9c600e60006005548152602001908152602001600020805480602002602001604051908101604052809291908181526020018280548015612e7757602002820191906000526020600020905b8160009054906101000a900473ffffffffffffffffffffffffffffffffffffffff1673ffffffffffffffffffffffffffffffffffffffff1681526020019060010190808311612e2d575b5050505050888381518110612e8f57612e8e6167dc565b5b6020026020010151614875565b612edb576040517f08c379a0000000000000000000000000000000000000000000000000000000008152600401612ed290616c80565b60405180910390fd5b60005b8251811015613075576000878381518110612efc57612efb6167dc565b5b60200260200101518281518110612f1657612f156167dc565b5b60200260200101511015612f5f576040517f08c379a0000000000000000000000000000000000000000000000000000000008152600401612f5690616d12565b60405180910390fd5b600c54878381518110612f7557612f746167dc565b5b60200260200101518281518110612f8f57612f8e6167dc565b5b60200260200101511115612fd8576040517f08c379a0000000000000000000000000000000000000000000000000000000008152600401612fcf90616da4565b60405180910390fd5b3373ffffffffffffffffffffffffffffffffffffffff16888381518110613002576130016167dc565b5b602002602001015173ffffffffffffffffffffffffffffffffffffffff16141561306257600087838151811061303b5761303a6167dc565b5b60200260200101518281518110613055576130546167dc565b5b6020026020010181815250505b808061306d9061683a565b915050612ede565b5080806130819061683a565b915050612dd6565b5060006103e7905060005b8351811015613102573373ffffffffffffffffffffffffffffffffffffffff168482815181106130c7576130c66167dc565b5b602002602001015173ffffffffffffffffffffffffffffffffffffffff1614156130ef578091505b80806130fa9061683a565b915050613094565b5060006040518060a001604052803373ffffffffffffffffffffffffffffffffffffffff16815260200189815260200188815260200187815260200160145481525090506103e782141561323c57601060008a815260200190815260200160002081908060018154018082558091505060019003906000526020600020906005020160009091909190915060008201518160000160006101000a81548173ffffffffffffffffffffffffffffffffffffffff021916908373ffffffffffffffffffffffffffffffffffffffff16021790555060208201518160010190805190602001906131f092919061508d565b50604082015181600201908051906020019061320d929190615117565b50606082015181600301908051906020019061322a929190614fdd565b5060808201518160040155505061331c565b80601060008b81526020019081526020016000208381548110613262576132616167dc565b5b906000526020600020906005020160008201518160000160006101000a81548173ffffffffffffffffffffffffffffffffffffffff021916908373ffffffffffffffffffffffffffffffffffffffff16021790555060208201518160010190805190602001906132d392919061508d565b5060408201518160020190805190602001906132f0929190615117565b50606082015181600301908051906020019061330d929190614fdd565b50608082015181600401559050505b3373ffffffffffffffffffffffffffffffffffffffff167f74d71f5f66a08d53492d6aa116e026a64e461e6de2bad0b1c35d27bb7c5158a68a6040516133629190615fad565b60405180910390a26001945050505050949350505050565b6013602052816000526040600020818154811061339657600080fd5b906000526020600020016000915091505080546133b29061673e565b80601f01602080910402602001604051908101604052809291908181526020018280546133de9061673e565b801561342b5780601f106134005761010080835404028352916020019161342b565b820191906000526020600020905b81548152906001019060200180831161340e57829003601f168201915b505050505081565b60095481565b7f05477c39c14a8a45f68e248e875c7b89913df266bcc8ea9804f3160438f36dfd81565b606060136000838152602001908152602001600020805480602002602001604051908101604052809291908181526020016000905b8282101561353e5783829060005260206000200180546134b19061673e565b80601f01602080910402602001604051908101604052809291908181526020018280546134dd9061673e565b801561352a5780601f106134ff5761010080835404028352916020019161352a565b820191906000526020600020905b81548152906001019060200180831161350d57829003601f168201915b505050505081526020019060010190613492565b505050509050919050565b613551613684565b600073ffffffffffffffffffffffffffffffffffffffff168173ffffffffffffffffffffffffffffffffffffffff1614156135c1576040517f08c379a00000000000000000000000000000000000000000000000000000000081526004016135b890616e36565b60405180910390fd5b6135ca8161398c565b50565b6135d5613684565b6135ff7f05477c39c14a8a45f68e248e875c7b89913df266bcc8ea9804f3160438f36dfd826148fd565b50565b60116020528060005260406000206000915090505481565b60007f01ffc9a7000000000000000000000000000000000000000000000000000000007bffffffffffffffffffffffffffffffffffffffffffffffffffffffff1916827bffffffffffffffffffffffffffffffffffffffffffffffffffffffff1916149050919050565b61368c613840565b73ffffffffffffffffffffffffffffffffffffffff166136aa612258565b73ffffffffffffffffffffffffffffffffffffffff1614613700576040517f08c379a00000000000000000000000000000000000000000000000000000000081526004016136f790616ea2565b60405180910390fd5b565b61370a611548565b1561374a576040517f08c379a000000000000000000000000000000000000000000000000000000000815260040161374190616f0e565b60405180910390fd5b565b61375d81613758613840565b61490b565b50565b61376a8282612282565b61383c57600160008084815260200190815260200160002060000160008373ffffffffffffffffffffffffffffffffffffffff1673ffffffffffffffffffffffffffffffffffffffff16815260200190815260200160002060006101000a81548160ff0219169083151502179055506137e1613840565b73ffffffffffffffffffffffffffffffffffffffff168173ffffffffffffffffffffffffffffffffffffffff16837f2f8788117e7eff1d82e926ec794901d17c78024a50270940304540a733656f0d60405160405180910390a45b5050565b600033905090565b6138528282612282565b1561392557600080600084815260200190815260200160002060000160008373ffffffffffffffffffffffffffffffffffffffff1673ffffffffffffffffffffffffffffffffffffffff16815260200190815260200160002060006101000a81548160ff0219169083151502179055506138ca613840565b73ffffffffffffffffffffffffffffffffffffffff168173ffffffffffffffffffffffffffffffffffffffff16837ff6391f5c32d9c69d2a47ea670b442974b53935d1edc7fd64eb21e047a839171b60405160405180910390a45b5050565b6139316149a8565b6000600160146101000a81548160ff0219169083151502179055507f5db9ee0a495bf2e6ff9c91a7834c1ba4fdd244a5e8aa4e537bd38aeae4b073aa613975613840565b60405161398291906159ba565b60405180910390a1565b6000600160009054906101000a900473ffffffffffffffffffffffffffffffffffffffff16905081600160006101000a81548173ffffffffffffffffffffffffffffffffffffffff021916908373ffffffffffffffffffffffffffffffffffffffff1602179055508173ffffffffffffffffffffffffffffffffffffffff168173ffffffffffffffffffffffffffffffffffffffff167f8be0079c531659141344cd1fd0a4f28419497f9722a3daafe3b4186f6b6457e060405160405180910390a35050565b613a5a613702565b60018060146101000a81548160ff0219169083151502179055507f62e78cea01bee320cd4e420270b5ea74000d11b0c9f74754ebdbfc544b05a258613a9d613840565b604051613aaa91906159ba565b60405180910390a1565b6000600e60006005548152602001908152602001600020805480602002602001604051908101604052809291908181526020018280548015613b4b57602002820191906000526020600020905b8160009054906101000a900473ffffffffffffffffffffffffffffffffffffffff1673ffffffffffffffffffffffffffffffffffffffff1681526020019060010190808311613b01575b505050505090506000601060006005548152602001908152602001600020805480602002602001604051908101604052809291908181526020016000905b82821015613e2157838290600052602060002090600502016040518060a00160405290816000820160009054906101000a900473ffffffffffffffffffffffffffffffffffffffff1673ffffffffffffffffffffffffffffffffffffffff1673ffffffffffffffffffffffffffffffffffffffff16815260200160018201805480602002602001604051908101604052809291908181526020018280548015613c8757602002820191906000526020600020905b8160009054906101000a900473ffffffffffffffffffffffffffffffffffffffff1673ffffffffffffffffffffffffffffffffffffffff1681526020019060010190808311613c3d575b5050505050815260200160028201805480602002602001604051908101604052809291908181526020016000905b82821015613d2757838290600052602060002001805480602002602001604051908101604052809291908181526020018280548015613d1357602002820191906000526020600020905b815481526020019060010190808311613cff575b505050505081526020019060010190613cb5565b50505050815260200160038201805480602002602001604051908101604052809291908181526020016000905b82821015613e00578382906000526020600020018054613d739061673e565b80601f0160208091040260200160405190810160405280929190818152602001828054613d9f9061673e565b8015613dec5780601f10613dc157610100808354040283529160200191613dec565b820191906000526020600020905b815481529060010190602001808311613dcf57829003601f168201915b505050505081526020019060010190613d54565b50505050815260200160048201548152505081526020019060010190613b89565b5050505090506000601360006014548152602001908152602001600020805480602002602001604051908101604052809291908181526020016000905b82821015613f0a578382906000526020600020018054613e7d9061673e565b80601f0160208091040260200160405190810160405280929190818152602001828054613ea99061673e565b8015613ef65780601f10613ecb57610100808354040283529160200191613ef6565b820191906000526020600020905b815481529060010190602001808311613ed957829003601f168201915b505050505081526020019060010190613e5e565b5050505090506000835167ffffffffffffffff811115613f2d57613f2c615a1f565b5b604051908082528060200260200182016040528015613f6057816020015b6060815260200190600190039081613f4b5790505b5090506000845167ffffffffffffffff811115613f8057613f7f615a1f565b5b604051908082528060200260200182016040528015613fae5781602001602082028036833780820191505090505b50905060005b85518110156141d15760005b85518110156141bd57601454868281518110613fdf57613fde6167dc565b5b60200260200101516080015114613ff5576141aa565b60005b85518110156141a857878381518110614014576140136167dc565b5b602002602001015173ffffffffffffffffffffffffffffffffffffffff16878381518110614045576140446167dc565b5b6020026020010151602001518481518110614063576140626167dc565b5b602002602001015173ffffffffffffffffffffffffffffffffffffffff1614156141955786828151811061409a576140996167dc565b5b60200260200101516040015183815181106140b8576140b76167dc565b5b602002602001015181815181106140d2576140d16167dc565b5b60200260200101518484815181106140ed576140ec6167dc565b5b602002602001018181516141019190616f2e565b9150818152505086828151811061411b5761411a6167dc565b5b6020026020010151604001518381518110614139576141386167dc565b5b60200260200101518181518110614153576141526167dc565b5b602002602001015185848151811061416e5761416d6167dc565b5b60200260200101518281518110614188576141876167dc565b5b6020026020010181815250505b80806141a09061683a565b915050613ff8565b505b80806141b59061683a565b915050613fc0565b5080806141c99061683a565b915050613fb4565b506000805b825181101561421e5760008382815181106141f4576141f36167dc565b5b6020026020010151905061420883826149f1565b92505080806142169061683a565b9150506141d6565b506000600e600060055481526020019081526020016000208054905067ffffffffffffffff81111561425357614252615a1f565b5b6040519080825280602002602001820160405280156142815781602001602082028036833780820191505090505b509050600082111561430c5760005b87518110156143005760008482815181106142ae576142ad6167dc565b5b602002602001015190506142cd6142c782600a54614a19565b85614a56565b8383815181106142e0576142df6167dc565b5b6020026020010181815250505080806142f89061683a565b915050614290565b5061430b8782614b17565b5b60006143196005546122ec565b90506000815190506000811115614346576000614338600b5483614a56565b90506143448382614c48565b505b42601260006005548152602001908152602001600020819055506000600860009054906101000a900473ffffffffffffffffffffffffffffffffffffffff16905060005b8a518110156147c2576000600f6000600554815260200190815260200160002082815481106143bc576143bb6167dc565b5b90600052602060002090600502016040518060a00160405290816000820180546143e59061673e565b80601f01602080910402602001604051908101604052809291908181526020018280546144119061673e565b801561445e5780601f106144335761010080835404028352916020019161445e565b820191906000526020600020905b81548152906001019060200180831161444157829003601f168201915b5050505050815260200160018201805480602002602001604051908101604052809291908181526020016000905b828210156145385783829060005260206000200180546144ab9061673e565b80601f01602080910402602001604051908101604052809291908181526020018280546144d79061673e565b80156145245780601f106144f957610100808354040283529160200191614524565b820191906000526020600020905b81548152906001019060200180831161450757829003601f168201915b50505050508152602001906001019061448c565b50505050815260200160028201805480602002602001604051908101604052809291908181526020016000905b828210156146115783829060005260206000200180546145849061673e565b80601f01602080910402602001604051908101604052809291908181526020018280546145b09061673e565b80156145fd5780601f106145d2576101008083540402835291602001916145fd565b820191906000526020600020905b8154815290600101906020018083116145e057829003601f168201915b505050505081526020019060010190614565565b5050505081526020016003820160009054906101000a900473ffffffffffffffffffffffffffffffffffffffff1673ffffffffffffffffffffffffffffffffffffffff1673ffffffffffffffffffffffffffffffffffffffff1681526020016004820154815250509050600060405180604001604052808b858151811061469b5761469a6167dc565b5b60200260200101518152602001601454815250905060006040518060e00160405280846000015181526020018986815181106146da576146d96167dc565b5b60200260200101518152602001846040015181526020014281526020018f868151811061470a576147096167dc565b5b602002602001015173ffffffffffffffffffffffffffffffffffffffff16815260200160055481526020018381525090508473ffffffffffffffffffffffffffffffffffffffff1663510bf1df60036004846040518463ffffffff1660e01b815260040161477a93929190617100565b600060405180830381600087803b15801561479457600080fd5b505af11580156147a8573d6000803e3d6000fd5b5050505050505080806147ba9061683a565b91505061438a565b507f836fbb2ba05500745734fe64e2bda52f3b9fb41e0d12d75481b0d4ac45379c7e6005546040516147f49190615fad565b60405180910390a150505050505050505050565b6005600081548092919061481b9061714c565b919050555042601160006005548152602001908152602001600020819055507ffaa2c351c484bd08e21503332728506f3b088dc0c0d22e7a285d889e718d5d0d60055460405161486b9190615fad565b60405180910390a1565b600080600090505b83518110156148f1578273ffffffffffffffffffffffffffffffffffffffff168482815181106148b0576148af6167dc565b5b602002602001015173ffffffffffffffffffffffffffffffffffffffff1614156148de5760019150506148f7565b80806148e99061683a565b91505061487d565b50600090505b92915050565b6149078282613760565b5050565b6149158282612282565b6149a45761493a8173ffffffffffffffffffffffffffffffffffffffff166014614d1b565b6149488360001c6020614d1b565b604051602001614959929190617269565b6040516020818303038152906040526040517f08c379a000000000000000000000000000000000000000000000000000000000815260040161499b9190615e47565b60405180910390fd5b5050565b6149b0611548565b6149ef576040517f08c379a00000000000000000000000000000000000000000000000000000000081526004016149e6906172ef565b60405180910390fd5b565b6000808284614a009190616f2e565b905083811015614a0f57600080fd5b8091505092915050565b6000808284614a28919061730f565b90506000841480614a435750828482614a419190617398565b145b614a4c57600080fd5b8091505092915050565b6000808211614a9a576040517f08c379a0000000000000000000000000000000000000000000000000000000008152600401614a9190617415565b60405180910390fd5b60008284614aa89190617398565b90508284614ab69190617435565b8184614ac2919061730f565b614acc9190616f2e565b8414614b0d576040517f08c379a0000000000000000000000000000000000000000000000000000000008152600401614b04906174b2565b60405180910390fd5b8091505092915050565b8051825114614b5b576040517f08c379a0000000000000000000000000000000000000000000000000000000008152600401614b5290617544565b60405180910390fd5b6000600660009054906101000a900473ffffffffffffffffffffffffffffffffffffffff16905060005b8351811015614c42578173ffffffffffffffffffffffffffffffffffffffff166340c10f19858381518110614bbd57614bbc6167dc565b5b6020026020010151858481518110614bd857614bd76167dc565b5b60200260200101516040518363ffffffff1660e01b8152600401614bfd929190616384565b600060405180830381600087803b158015614c1757600080fd5b505af1158015614c2b573d6000803e3d6000fd5b505050508080614c3a9061683a565b915050614b85565b50505050565b6000600660009054906101000a900473ffffffffffffffffffffffffffffffffffffffff16905060005b8351811015614d15578173ffffffffffffffffffffffffffffffffffffffff166340c10f19858381518110614caa57614ca96167dc565b5b6020026020010151856040518363ffffffff1660e01b8152600401614cd0929190616384565b600060405180830381600087803b158015614cea57600080fd5b505af1158015614cfe573d6000803e3d6000fd5b505050508080614d0d9061683a565b915050614c72565b50505050565b606060006002836002614d2e919061730f565b614d389190616f2e565b67ffffffffffffffff811115614d5157614d50615a1f565b5b6040519080825280601f01601f191660200182016040528015614d835781602001600182028036833780820191505090505b5090507f300000000000000000000000000000000000000000000000000000000000000081600081518110614dbb57614dba6167dc565b5b60200101907effffffffffffffffffffffffffffffffffffffffffffffffffffffffffffff1916908160001a9053507f780000000000000000000000000000000000000000000000000000000000000081600181518110614e1f57614e1e6167dc565b5b60200101907effffffffffffffffffffffffffffffffffffffffffffffffffffffffffffff1916908160001a90535060006001846002614e5f919061730f565b614e699190616f2e565b90505b6001811115614f09577f3031323334353637383961626364656600000000000000000000000000000000600f861660108110614eab57614eaa6167dc565b5b1a60f81b828281518110614ec257614ec16167dc565b5b60200101907effffffffffffffffffffffffffffffffffffffffffffffffffffffffffffff1916908160001a905350600485901c945080614f0290617564565b9050614e6c565b5060008414614f4d576040517f08c379a0000000000000000000000000000000000000000000000000000000008152600401614f44906175da565b60405180910390fd5b8091505092915050565b828054614f639061673e565b90600052602060002090601f016020900481019282614f855760008555614fcc565b82601f10614f9e57805160ff1916838001178555614fcc565b82800160010185558215614fcc579182015b82811115614fcb578251825591602001919060010190614fb0565b5b509050614fd99190615177565b5090565b82805482825590600052602060002090810192821561502c579160200282015b8281111561502b57825182908051906020019061501b929190614f57565b5091602001919060010190614ffd565b5b5090506150399190615194565b5090565b6040518060800160405280600081526020016000815260200160008152602001600081525090565b6040518060800160405280600081526020016060815260200160608152602001600081525090565b828054828255906000526020600020908101928215615106579160200282015b828111156151055782518260006101000a81548173ffffffffffffffffffffffffffffffffffffffff021916908373ffffffffffffffffffffffffffffffffffffffff160217905550916020019190600101906150ad565b5b5090506151139190615177565b5090565b828054828255906000526020600020908101928215615166579160200282015b828111156151655782518290805190602001906151559291906151b8565b5091602001919060010190615137565b5b5090506151739190615205565b5090565b5b80821115615190576000816000905550600101615178565b5090565b5b808211156151b457600081816151ab9190615229565b50600101615195565b5090565b8280548282559060005260206000209081019282156151f4579160200282015b828111156151f35782518255916020019190600101906151d8565b5b5090506152019190615177565b5090565b5b80821115615225576000818161521c9190615269565b50600101615206565b5090565b5080546152359061673e565b6000825580601f106152475750615266565b601f0160209004906000526020600020908101906152659190615177565b5b50565b50805460008255906000526020600020908101906152879190615177565b50565b6000604051905090565b600080fd5b600080fd5b60007fffffffff0000000000000000000000000000000000000000000000000000000082169050919050565b6152d38161529e565b81146152de57600080fd5b50565b6000813590506152f0816152ca565b92915050565b60006020828403121561530c5761530b615294565b5b600061531a848285016152e1565b91505092915050565b60008115159050919050565b61533881615323565b82525050565b6000602082019050615353600083018461532f565b92915050565b6000819050919050565b61536c81615359565b811461537757600080fd5b50565b60008135905061538981615363565b92915050565b6000602082840312156153a5576153a4615294565b5b60006153b38482850161537a565b91505092915050565b600081519050919050565b600082825260208201905092915050565b6000819050602082019050919050565b600073ffffffffffffffffffffffffffffffffffffffff82169050919050565b6000615413826153e8565b9050919050565b61542381615408565b82525050565b600081519050919050565b600082825260208201905092915050565b6000819050602082019050919050565b6000615461838361541a565b60208301905092915050565b6000602082019050919050565b600061548582615429565b61548f8185615434565b935061549a83615445565b8060005b838110156154cb5781516154b28882615455565b97506154bd8361546d565b92505060018101905061549e565b5085935050505092915050565b600081519050919050565b600082825260208201905092915050565b6000819050602082019050919050565b600081519050919050565b600082825260208201905092915050565b6000819050602082019050919050565b6000819050919050565b61554381615530565b82525050565b6000615555838361553a565b60208301905092915050565b6000602082019050919050565b600061557982615504565b615583818561550f565b935061558e83615520565b8060005b838110156155bf5781516155a68882615549565b97506155b183615561565b925050600181019050615592565b5085935050505092915050565b60006155d8838361556e565b905092915050565b6000602082019050919050565b60006155f8826154d8565b61560281856154e3565b935083602082028501615614856154f4565b8060005b85811015615650578484038952815161563185826155cc565b945061563c836155e0565b925060208a01995050600181019050615618565b50829750879550505050505092915050565b600081519050919050565b600082825260208201905092915050565b6000819050602082019050919050565b600081519050919050565b600082825260208201905092915050565b60005b838110156156c85780820151818401526020810190506156ad565b838111156156d7576000848401525b50505050565b6000601f19601f8301169050919050565b60006156f98261568e565b6157038185615699565b93506157138185602086016156aa565b61571c816156dd565b840191505092915050565b600061573383836156ee565b905092915050565b6000602082019050919050565b600061575382615662565b61575d818561566d565b93508360208202850161576f8561567e565b8060005b858110156157ab578484038952815161578c8582615727565b94506157978361573b565b925060208a01995050600181019050615773565b50829750879550505050505092915050565b600060a0830160008301516157d5600086018261541a565b50602083015184820360208601526157ed828261547a565b9150506040830151848203604086015261580782826155ed565b915050606083015184820360608601526158218282615748565b9150506080830151615836608086018261553a565b508091505092915050565b600061584d83836157bd565b905092915050565b6000602082019050919050565b600061586d826153bc565b61587781856153c7565b935083602082028501615889856153d8565b8060005b858110156158c557848403895281516158a68582615841565b94506158b183615855565b925060208a0199505060018101905061588d565b50829750879550505050505092915050565b600060208201905081810360008301526158f18184615862565b905092915050565b61590281615530565b811461590d57600080fd5b50565b60008135905061591f816158f9565b92915050565b60006020828403121561593b5761593a615294565b5b600061594984828501615910565b91505092915050565b61595b81615408565b811461596657600080fd5b50565b60008135905061597881615952565b92915050565b60006020828403121561599457615993615294565b5b60006159a284828501615969565b91505092915050565b6159b481615408565b82525050565b60006020820190506159cf60008301846159ab565b92915050565b600080604083850312156159ec576159eb615294565b5b60006159fa8582860161537a565b9250506020615a0b85828601615910565b9150509250929050565b600080fd5b600080fd5b7f4e487b7100000000000000000000000000000000000000000000000000000000600052604160045260246000fd5b615a57826156dd565b810181811067ffffffffffffffff82111715615a7657615a75615a1f565b5b80604052505050565b6000615a8961528a565b9050615a958282615a4e565b919050565b600067ffffffffffffffff821115615ab557615ab4615a1f565b5b615abe826156dd565b9050602081019050919050565b82818337600083830152505050565b6000615aed615ae884615a9a565b615a7f565b905082815260208101848484011115615b0957615b08615a1a565b5b615b14848285615acb565b509392505050565b600082601f830112615b3157615b30615a15565b5b8135615b41848260208601615ada565b91505092915050565b600067ffffffffffffffff821115615b6557615b64615a1f565b5b602082029050602081019050919050565b600080fd5b6000615b8e615b8984615b4a565b615a7f565b90508083825260208201905060208402830185811115615bb157615bb0615b76565b5b835b81811015615bf857803567ffffffffffffffff811115615bd657615bd5615a15565b5b808601615be38982615b1c565b85526020850194505050602081019050615bb3565b5050509392505050565b600082601f830112615c1757615c16615a15565b5b8135615c27848260208601615b7b565b91505092915050565b600080600060608486031215615c4957615c48615294565b5b600084013567ffffffffffffffff811115615c6757615c66615299565b5b615c7386828701615b1c565b935050602084013567ffffffffffffffff811115615c9457615c93615299565b5b615ca086828701615c02565b925050604084013567ffffffffffffffff811115615cc157615cc0615299565b5b615ccd86828701615c02565b9150509250925092565b615ce081615323565b8114615ceb57600080fd5b50565b600081359050615cfd81615cd7565b92915050565b600060208284031215615d1957615d18615294565b5b6000615d2784828501615cee565b91505092915050565b6000819050919050565b615d4381615d30565b8114615d4e57600080fd5b50565b600081359050615d6081615d3a565b92915050565b600060208284031215615d7c57615d7b615294565b5b6000615d8a84828501615d51565b91505092915050565b615d9c81615d30565b82525050565b6000602082019050615db76000830184615d93565b92915050565b60008060408385031215615dd457615dd3615294565b5b6000615de285828601615d51565b9250506020615df385828601615969565b9150509250929050565b600082825260208201905092915050565b6000615e198261568e565b615e238185615dfd565b9350615e338185602086016156aa565b615e3c816156dd565b840191505092915050565b60006020820190508181036000830152615e618184615e0e565b905092915050565b600081519050919050565b600082825260208201905092915050565b6000819050602082019050919050565b615e9e81615359565b82525050565b608082016000820151615eba6000850182615e95565b506020820151615ecd602085018261553a565b506040820151615ee0604085018261553a565b506060820151615ef3606085018261553a565b50505050565b6000615f058383615ea4565b60808301905092915050565b6000602082019050919050565b6000615f2982615e69565b615f338185615e74565b9350615f3e83615e85565b8060005b83811015615f6f578151615f568882615ef9565b9750615f6183615f11565b925050600181019050615f42565b5085935050505092915050565b60006020820190508181036000830152615f968184615f1e565b905092915050565b615fa781615359565b82525050565b6000602082019050615fc26000830184615f9e565b92915050565b600082825260208201905092915050565b6000615fe482615662565b615fee8185615fc8565b9350836020820285016160008561567e565b8060005b8581101561603c578484038952815161601d8582615727565b94506160288361573b565b925060208a01995050600181019050616004565b50829750879550505050505092915050565b600060208201905081810360008301526160688184615fd9565b905092915050565b61607981615530565b82525050565b60006020820190506160946000830184616070565b92915050565b600081519050919050565b600082825260208201905092915050565b6000819050602082019050919050565b600060a08301600083015184820360008601526160e382826156ee565b915050602083015184820360208601526160fd8282615748565b915050604083015184820360408601526161178282615748565b915050606083015161612c606086018261541a565b50608083015161613f6080860182615e95565b508091505092915050565b600061615683836160c6565b905092915050565b6000602082019050919050565b60006161768261609a565b61618081856160a5565b935083602082028501616192856160b6565b8060005b858110156161ce57848403895281516161af858261614a565b94506161ba8361615e565b925060208a01995050600181019050616196565b50829750879550505050505092915050565b60006080830160008301516161f86000860182615e95565b5060208301518482036020860152616210828261616b565b9150506040830151848203604086015261622a828261547a565b915050606083015161623f606086018261553a565b508091505092915050565b6000602082019050818103600083015261626481846161e0565b905092915050565b600082825260208201905092915050565b600061628882615429565b616292818561626c565b935061629d83615445565b8060005b838110156162ce5781516162b58882615455565b97506162c08361546d565b9250506001810190506162a1565b5085935050505092915050565b600060208201905081810360008301526162f5818461627d565b905092915050565b60006020828403121561631357616312615294565b5b600082013567ffffffffffffffff81111561633157616330615299565b5b61633d84828501615c02565b91505092915050565b600060608201905081810360008301526163608186615e0e565b905061636f60208301856159ab565b61637c6040830184615f9e565b949350505050565b600060408201905061639960008301856159ab565b6163a66020830184616070565b9392505050565b600067ffffffffffffffff8211156163c8576163c7615a1f565b5b602082029050602081019050919050565b60006163ec6163e7846163ad565b615a7f565b9050808382526020820190506020840283018581111561640f5761640e615b76565b5b835b8181101561643857806164248882615969565b845260208401935050602081019050616411565b5050509392505050565b600082601f83011261645757616456615a15565b5b81356164678482602086016163d9565b91505092915050565b600067ffffffffffffffff82111561648b5761648a615a1f565b5b602082029050602081019050919050565b600067ffffffffffffffff8211156164b7576164b6615a1f565b5b602082029050602081019050919050565b60006164db6164d68461649c565b615a7f565b905080838252602082019050602084028301858111156164fe576164fd615b76565b5b835b8181101561652757806165138882615910565b845260208401935050602081019050616500565b5050509392505050565b600082601f83011261654657616545615a15565b5b81356165568482602086016164c8565b91505092915050565b600061657261656d84616470565b615a7f565b9050808382526020820190506020840283018581111561659557616594615b76565b5b835b818110156165dc57803567ffffffffffffffff8111156165ba576165b9615a15565b5b8086016165c78982616531565b85526020850194505050602081019050616597565b5050509392505050565b600082601f8301126165fb576165fa615a15565b5b813561660b84826020860161655f565b91505092915050565b6000806000806080858703121561662e5761662d615294565b5b600061663c8782880161537a565b945050602085013567ffffffffffffffff81111561665d5761665c615299565b5b61666987828801616442565b935050604085013567ffffffffffffffff81111561668a57616689615299565b5b616696878288016165e6565b925050606085013567ffffffffffffffff8111156166b7576166b6615299565b5b6166c387828801615c02565b91505092959194509250565b600080604083850312156166e6576166e5615294565b5b60006166f485828601615910565b925050602061670585828601615910565b9150509250929050565b7f4e487b7100000000000000000000000000000000000000000000000000000000600052602260045260246000fd5b6000600282049050600182168061675657607f821691505b6020821081141561676a5761676961670f565b5b50919050565b7f43616c6c6572206973206e6f74206120706f6c6c2061646d696e000000000000600082015250565b60006167a6601a83615dfd565b91506167b182616770565b602082019050919050565b600060208201905081810360008301526167d581616799565b9050919050565b7f4e487b7100000000000000000000000000000000000000000000000000000000600052603260045260246000fd5b7f4e487b7100000000000000000000000000000000000000000000000000000000600052601160045260246000fd5b600061684582615530565b91507fffffffffffffffffffffffffffffffffffffffffffffffffffffffffffffffff8214156168785761687761680b565b5b600182019050919050565b60006040820190506168986000830185615f9e565b6168a5602083018461532f565b9392505050565b7f416363657373436f6e74726f6c3a2063616e206f6e6c792072656e6f756e636560008201527f20726f6c657320666f722073656c660000000000000000000000000000000000602082015250565b6000616908602f83615dfd565b9150616913826168ac565b604082019050919050565b60006020820190508181036000830152616937816168fb565b9050919050565b60008151905061694d816158f9565b92915050565b60006020828403121561696957616968615294565b5b60006169778482850161693e565b91505092915050565b7f5265656e7472616e637947756172643a207265656e7472616e742063616c6c00600082015250565b60006169b6601f83615dfd565b91506169c182616980565b602082019050919050565b600060208201905081810360008301526169e5816169a9565b9050919050565b7f566f74696e67206973206e6f7420656e61626c6564207269676874206e6f772e60008201527f20436f6e74616374207468652061646d696e20746f20737461727420766f746960208201527f6e672e0000000000000000000000000000000000000000000000000000000000604082015250565b6000616a6e604383615dfd565b9150616a79826169ec565b606082019050919050565b60006020820190508181036000830152616a9d81616a61565b9050919050565b7f596f7520617265206e6f7420656c696769626c6520746f20766f74652e000000600082015250565b6000616ada601d83615dfd565b9150616ae582616aa4565b602082019050919050565b60006020820190508181036000830152616b0981616acd565b9050919050565b7f43616e64696461746573206d757374206e6f7420626520656d7074792e000000600082015250565b6000616b46601d83615dfd565b9150616b5182616b10565b602082019050919050565b60006020820190508181036000830152616b7581616b39565b9050919050565b7f546865206e756d626572206f6620706f696e7473206973206e6f742076616c6960008201527f642e000000000000000000000000000000000000000000000000000000000000602082015250565b6000616bd8602283615dfd565b9150616be382616b7c565b604082019050919050565b60006020820190508181036000830152616c0781616bcb565b9050919050565b7f5468652063616e646964617465206973206e6f7420696e20746865206375727260008201527f656e7420706f6c6c2e0000000000000000000000000000000000000000000000602082015250565b6000616c6a602983615dfd565b9150616c7582616c0e565b604082019050919050565b60006020820190508181036000830152616c9981616c5d565b9050919050565b7f54686520706f696e747320617265206e6f742076616c69642e202830203c3d2060008201527f706f696e74732900000000000000000000000000000000000000000000000000602082015250565b6000616cfc602783615dfd565b9150616d0782616ca0565b604082019050919050565b60006020820190508181036000830152616d2b81616cef565b9050919050565b7f54686520706f696e747320617265206e6f742076616c69642e2028706f696e7460008201527f73203c20564f54455f4d41585f504f494e542900000000000000000000000000602082015250565b6000616d8e603383615dfd565b9150616d9982616d32565b604082019050919050565b60006020820190508181036000830152616dbd81616d81565b9050919050565b7f4f776e61626c653a206e6577206f776e657220697320746865207a65726f206160008201527f6464726573730000000000000000000000000000000000000000000000000000602082015250565b6000616e20602683615dfd565b9150616e2b82616dc4565b604082019050919050565b60006020820190508181036000830152616e4f81616e13565b9050919050565b7f4f776e61626c653a2063616c6c6572206973206e6f7420746865206f776e6572600082015250565b6000616e8c602083615dfd565b9150616e9782616e56565b602082019050919050565b60006020820190508181036000830152616ebb81616e7f565b9050919050565b7f5061757361626c653a2070617573656400000000000000000000000000000000600082015250565b6000616ef8601083615dfd565b9150616f0382616ec2565b602082019050919050565b60006020820190508181036000830152616f2781616eeb565b9050919050565b6000616f3982615530565b9150616f4483615530565b9250827fffffffffffffffffffffffffffffffffffffffffffffffffffffffffffffffff03821115616f7957616f7861680b565b5b828201905092915050565b60008190508160005260206000209050919050565b60008154616fa68161673e565b616fb08186615dfd565b94506001821660008114616fcb5760018114616fdd57617010565b60ff1983168652602086019350617010565b616fe685616f84565b60005b8381101561700857815481890152600182019150602081019050616fe9565b808801955050505b50505092915050565b60006040830160008301518482036000860152617036828261556e565b915050602083015161704b602086018261553a565b508091505092915050565b600060e083016000830151848203600086015261707382826156ee565b9150506020830151617088602086018261553a565b50604083015184820360408601526170a08282615748565b91505060608301516170b5606086018261553a565b5060808301516170c8608086018261541a565b5060a08301516170db60a0860182615e95565b5060c083015184820360c08601526170f38282617019565b9150508091505092915050565b6000606082019050818103600083015261711a8186616f99565b9050818103602083015261712e8185616f99565b905081810360408301526171428184617056565b9050949350505050565b600061715782615359565b91507f7fffffffffffffffffffffffffffffffffffffffffffffffffffffffffffffff82141561718a5761718961680b565b5b600182019050919050565b600081905092915050565b7f416363657373436f6e74726f6c3a206163636f756e7420000000000000000000600082015250565b60006171d6601783617195565b91506171e1826171a0565b601782019050919050565b60006171f78261568e565b6172018185617195565b93506172118185602086016156aa565b80840191505092915050565b7f206973206d697373696e6720726f6c6520000000000000000000000000000000600082015250565b6000617253601183617195565b915061725e8261721d565b601182019050919050565b6000617274826171c9565b915061728082856171ec565b915061728b82617246565b915061729782846171ec565b91508190509392505050565b7f5061757361626c653a206e6f7420706175736564000000000000000000000000600082015250565b60006172d9601483615dfd565b91506172e4826172a3565b602082019050919050565b60006020820190508181036000830152617308816172cc565b9050919050565b600061731a82615530565b915061732583615530565b9250817fffffffffffffffffffffffffffffffffffffffffffffffffffffffffffffffff048311821515161561735e5761735d61680b565b5b828202905092915050565b7f4e487b7100000000000000000000000000000000000000000000000000000000600052601260045260246000fd5b60006173a382615530565b91506173ae83615530565b9250826173be576173bd617369565b5b828204905092915050565b7f646976696465206279207a65726f000000000000000000000000000000000000600082015250565b60006173ff600e83615dfd565b915061740a826173c9565b602082019050919050565b6000602082019050818103600083015261742e816173f2565b9050919050565b600061744082615530565b915061744b83615530565b92508261745b5761745a617369565b5b828206905092915050565b7f6f766572666c6f77000000000000000000000000000000000000000000000000600082015250565b600061749c600883615dfd565b91506174a782617466565b602082019050919050565b600060208201905081810360008301526174cb8161748f565b9050919050565b7f746f20616e6420616d6f756e74206d7573742062652073616d65206c656e677460008201527f6800000000000000000000000000000000000000000000000000000000000000602082015250565b600061752e602183615dfd565b9150617539826174d2565b604082019050919050565b6000602082019050818103600083015261755d81617521565b9050919050565b600061756f82615530565b915060008214156175835761758261680b565b5b600182039050919050565b7f537472696e67733a20686578206c656e67746820696e73756666696369656e74600082015250565b60006175c4602083615dfd565b91506175cf8261758e565b602082019050919050565b600060208201905081810360008301526175f3816175b7565b905091905056fea2646970667358221220d7caba56093b854ad7968d899a2426ea711d50b5dc420d6f6c4921ca0e4973a564736f6c63430008090033",
  "linkReferences": {},
  "deployedLinkReferences": {}
}