{
  "_format": "hh-sol-artifact-1",
  "contractName": "Poll",
  "sourceName": "contracts/Poll.sol",
  "abi": [
    {
      "inputs": [
        {
          "internalType": "string",
          "name": "_daoId",
          "type": "string"
        },
        {
          "internalType": "string",
          "name": "_projectId",
          "type": "string"
        }
      ],
      "stateMutability": "nonpayable",
      "type": "constructor"
    },
    {
      "anonymous": false,
      "inputs": [
        {
          "indexed": false,
          "internalType": "int256",
          "name": "pollId",
          "type": "int256"
        },
        {
          "indexed": true,
          "internalType": "address",
          "name": "candidate",
          "type": "address"
        }
      ],
      "name": "Candidated",
      "type": "event"
    },
    {
      "anonymous": false,
      "inputs": [
        {
          "indexed": false,
          "internalType": "int256",
          "name": "pollId",
          "type": "int256"
        }
      ],
      "name": "CreatePoll",
      "type": "event"
    },
    {
      "anonymous": false,
      "inputs": [
        {
          "indexed": true,
          "internalType": "address",
          "name": "sender",
          "type": "address"
        },
        {
          "indexed": false,
          "internalType": "uint256",
          "name": "amount",
          "type": "uint256"
        }
      ],
      "name": "Deposited",
      "type": "event"
    },
    {
      "anonymous": false,
      "inputs": [
        {
          "indexed": true,
          "internalType": "address",
          "name": "previousOwner",
          "type": "address"
        },
        {
          "indexed": true,
          "internalType": "address",
          "name": "newOwner",
          "type": "address"
        }
      ],
      "name": "OwnershipTransferred",
      "type": "event"
    },
    {
      "anonymous": false,
      "inputs": [
        {
          "indexed": false,
          "internalType": "address",
          "name": "account",
          "type": "address"
        }
      ],
      "name": "Paused",
      "type": "event"
    },
    {
      "anonymous": false,
      "inputs": [
        {
          "indexed": true,
          "internalType": "bytes32",
          "name": "role",
          "type": "bytes32"
        },
        {
          "indexed": true,
          "internalType": "bytes32",
          "name": "previousAdminRole",
          "type": "bytes32"
        },
        {
          "indexed": true,
          "internalType": "bytes32",
          "name": "newAdminRole",
          "type": "bytes32"
        }
      ],
      "name": "RoleAdminChanged",
      "type": "event"
    },
    {
      "anonymous": false,
      "inputs": [
        {
          "indexed": true,
          "internalType": "bytes32",
          "name": "role",
          "type": "bytes32"
        },
        {
          "indexed": true,
          "internalType": "address",
          "name": "account",
          "type": "address"
        },
        {
          "indexed": true,
          "internalType": "address",
          "name": "sender",
          "type": "address"
        }
      ],
      "name": "RoleGranted",
      "type": "event"
    },
    {
      "anonymous": false,
      "inputs": [
        {
          "indexed": true,
          "internalType": "bytes32",
          "name": "role",
          "type": "bytes32"
        },
        {
          "indexed": true,
          "internalType": "address",
          "name": "account",
          "type": "address"
        },
        {
          "indexed": true,
          "internalType": "address",
          "name": "sender",
          "type": "address"
        }
      ],
      "name": "RoleRevoked",
      "type": "event"
    },
    {
      "anonymous": false,
      "inputs": [
        {
          "indexed": false,
          "internalType": "int256",
          "name": "pollId",
          "type": "int256"
        }
      ],
      "name": "SettlePoll",
      "type": "event"
    },
    {
      "anonymous": false,
      "inputs": [
        {
          "indexed": false,
          "internalType": "address",
          "name": "account",
          "type": "address"
        }
      ],
      "name": "Unpaused",
      "type": "event"
    },
    {
      "anonymous": false,
      "inputs": [
        {
          "indexed": false,
          "internalType": "int256",
          "name": "pollId",
          "type": "int256"
        },
        {
          "indexed": true,
          "internalType": "address",
          "name": "voter",
          "type": "address"
        }
      ],
      "name": "Voted",
      "type": "event"
    },
    {
      "anonymous": false,
      "inputs": [
        {
          "indexed": false,
          "internalType": "int256",
          "name": "pollId",
          "type": "int256"
        },
        {
          "indexed": false,
          "internalType": "bool",
          "name": "enabled",
          "type": "bool"
        }
      ],
      "name": "VotingEnabled",
      "type": "event"
    },
    {
      "anonymous": false,
      "inputs": [
        {
          "indexed": false,
          "internalType": "uint256",
          "name": "amount",
          "type": "uint256"
        },
        {
          "indexed": false,
          "internalType": "uint256",
          "name": "payedAmount",
          "type": "uint256"
        }
      ],
      "name": "WithdrawEth",
      "type": "event"
    },
    {
      "inputs": [],
      "name": "CONTRIBUTOR_ASSIGNMENT_TOKEN",
      "outputs": [
        {
          "internalType": "uint256",
          "name": "",
          "type": "uint256"
        }
      ],
      "stateMutability": "view",
      "type": "function"
    },
    {
      "inputs": [],
      "name": "DEFAULT_ADMIN_ROLE",
      "outputs": [
        {
          "internalType": "bytes32",
          "name": "",
          "type": "bytes32"
        }
      ],
      "stateMutability": "view",
      "type": "function"
    },
    {
      "inputs": [],
      "name": "POLL_ADMIN_ROLE",
      "outputs": [
        {
          "internalType": "bytes32",
          "name": "",
          "type": "bytes32"
        }
      ],
      "stateMutability": "view",
      "type": "function"
    },
    {
      "inputs": [],
      "name": "REQUIRED_TOKEN_FOR_VOTE",
      "outputs": [
        {
          "internalType": "uint256",
          "name": "",
          "type": "uint256"
        }
      ],
      "stateMutability": "view",
      "type": "function"
    },
    {
      "inputs": [],
      "name": "SUPPORTER_ASSIGNMENT_TOKEN",
      "outputs": [
        {
          "internalType": "uint256",
          "name": "",
          "type": "uint256"
        }
      ],
      "stateMutability": "view",
      "type": "function"
    },
    {
      "inputs": [],
      "name": "VOTE_MAX_POINT",
      "outputs": [
        {
          "internalType": "uint256",
          "name": "",
          "type": "uint256"
        }
      ],
      "stateMutability": "view",
      "type": "function"
    },
    {
      "inputs": [],
      "name": "activePerspective",
      "outputs": [
        {
          "internalType": "uint256",
          "name": "",
          "type": "uint256"
        }
      ],
      "stateMutability": "view",
      "type": "function"
    },
    {
      "inputs": [
        {
          "internalType": "string",
          "name": "contributionText",
          "type": "string"
        },
        {
          "internalType": "string[]",
          "name": "evidences",
          "type": "string[]"
        },
        {
          "internalType": "string[]",
          "name": "roles",
          "type": "string[]"
        }
      ],
      "name": "candidateToCurrentPoll",
      "outputs": [],
      "stateMutability": "nonpayable",
      "type": "function"
    },
    {
      "inputs": [
        {
          "internalType": "int256",
          "name": "",
          "type": "int256"
        },
        {
          "internalType": "uint256",
          "name": "",
          "type": "uint256"
        }
      ],
      "name": "candidates",
      "outputs": [
        {
          "internalType": "address",
          "name": "",
          "type": "address"
        }
      ],
      "stateMutability": "view",
      "type": "function"
    },
    {
      "inputs": [
        {
          "internalType": "string[]",
          "name": "perspectiveTexts",
          "type": "string[]"
        }
      ],
      "name": "changePerspective",
      "outputs": [],
      "stateMutability": "nonpayable",
      "type": "function"
    },
    {
      "inputs": [
        {
          "internalType": "int256",
          "name": "",
          "type": "int256"
        },
        {
          "internalType": "uint256",
          "name": "",
          "type": "uint256"
        }
      ],
      "name": "contributions",
      "outputs": [
        {
          "internalType": "string",
          "name": "contributionText",
          "type": "string"
        },
        {
          "internalType": "address",
          "name": "contributor",
          "type": "address"
        },
        {
          "internalType": "int256",
          "name": "pollId",
          "type": "int256"
        }
      ],
      "stateMutability": "view",
      "type": "function"
    },
    {
      "inputs": [],
      "name": "currentMexPollId",
      "outputs": [
        {
          "internalType": "int256",
          "name": "",
          "type": "int256"
        }
      ],
      "stateMutability": "view",
      "type": "function"
    },
    {
      "inputs": [],
      "name": "daoHistoryAddress",
      "outputs": [
        {
          "internalType": "address",
          "name": "",
          "type": "address"
        }
      ],
      "stateMutability": "view",
      "type": "function"
    },
    {
      "inputs": [],
      "name": "daoId",
      "outputs": [
        {
          "internalType": "string",
          "name": "",
          "type": "string"
        }
      ],
      "stateMutability": "view",
      "type": "function"
    },
    {
      "inputs": [],
      "name": "daoTokenAddress",
      "outputs": [
        {
          "internalType": "address",
          "name": "",
          "type": "address"
        }
      ],
      "stateMutability": "view",
      "type": "function"
    },
    {
      "inputs": [
        {
          "internalType": "int256",
          "name": "",
          "type": "int256"
        }
      ],
      "name": "endTimeStamp",
      "outputs": [
        {
          "internalType": "uint256",
          "name": "",
          "type": "uint256"
        }
      ],
      "stateMutability": "view",
      "type": "function"
    },
    {
      "inputs": [],
      "name": "getActivePolls",
      "outputs": [
        {
          "components": [
            {
              "internalType": "int256",
              "name": "pollId",
              "type": "int256"
            },
            {
              "internalType": "uint256",
              "name": "votersCount",
              "type": "uint256"
            },
            {
              "internalType": "uint256",
              "name": "candidatesCount",
              "type": "uint256"
            },
            {
              "internalType": "uint256",
              "name": "startTimeStamp",
              "type": "uint256"
            }
          ],
          "internalType": "struct AbstractPollItem[]",
          "name": "",
          "type": "tuple[]"
        }
      ],
      "stateMutability": "view",
      "type": "function"
    },
    {
      "inputs": [],
      "name": "getCurrentCandidates",
      "outputs": [
        {
          "internalType": "address[]",
          "name": "",
          "type": "address[]"
        }
      ],
      "stateMutability": "view",
      "type": "function"
    },
    {
      "inputs": [],
      "name": "getCurrentPerspectives",
      "outputs": [
        {
          "internalType": "string[]",
          "name": "",
          "type": "string[]"
        }
      ],
      "stateMutability": "view",
      "type": "function"
    },
    {
      "inputs": [],
      "name": "getCurrentVotes",
      "outputs": [
        {
          "components": [
            {
              "internalType": "address",
              "name": "voter",
              "type": "address"
            },
            {
              "internalType": "address[]",
              "name": "candidates",
              "type": "address[]"
            },
            {
              "internalType": "uint256[][]",
              "name": "points",
              "type": "uint256[][]"
            },
            {
              "internalType": "string[]",
              "name": "comments",
              "type": "string[]"
            },
            {
              "internalType": "uint256",
              "name": "perspectiveId",
              "type": "uint256"
            }
          ],
          "internalType": "struct Vote[]",
          "name": "",
          "type": "tuple[]"
        }
      ],
      "stateMutability": "view",
      "type": "function"
    },
    {
      "inputs": [
        {
          "internalType": "uint256",
          "name": "_perspectiveId",
          "type": "uint256"
        }
      ],
      "name": "getPerspectives",
      "outputs": [
        {
          "internalType": "string[]",
          "name": "",
          "type": "string[]"
        }
      ],
      "stateMutability": "view",
      "type": "function"
    },
    {
      "inputs": [
        {
          "internalType": "int256",
          "name": "_pollId",
          "type": "int256"
        }
      ],
      "name": "getPollDetail",
      "outputs": [
        {
          "components": [
            {
              "internalType": "int256",
              "name": "pollId",
              "type": "int256"
            },
            {
              "components": [
                {
                  "internalType": "string",
                  "name": "contributionText",
                  "type": "string"
                },
                {
                  "internalType": "string[]",
                  "name": "evidences",
                  "type": "string[]"
                },
                {
                  "internalType": "string[]",
                  "name": "roles",
                  "type": "string[]"
                },
                {
                  "internalType": "address",
                  "name": "contributor",
                  "type": "address"
                },
                {
                  "internalType": "int256",
                  "name": "pollId",
                  "type": "int256"
                }
              ],
              "internalType": "struct ContributionItem[]",
              "name": "contributions",
              "type": "tuple[]"
            },
            {
              "internalType": "address[]",
              "name": "voters",
              "type": "address[]"
            },
            {
              "internalType": "uint256",
              "name": "startTimeStamp",
              "type": "uint256"
            },
            {
              "internalType": "string[]",
              "name": "perspectives",
              "type": "string[]"
            }
          ],
          "internalType": "struct DetailPollItem",
          "name": "",
          "type": "tuple"
        }
      ],
      "stateMutability": "view",
      "type": "function"
    },
    {
      "inputs": [
        {
          "internalType": "bytes32",
          "name": "role",
          "type": "bytes32"
        }
      ],
      "name": "getRoleAdmin",
      "outputs": [
        {
          "internalType": "bytes32",
          "name": "",
          "type": "bytes32"
        }
      ],
      "stateMutability": "view",
      "type": "function"
    },
    {
      "inputs": [
        {
          "internalType": "int256",
          "name": "_pollId",
          "type": "int256"
        }
      ],
      "name": "getVoters",
      "outputs": [
        {
          "internalType": "address[]",
          "name": "",
          "type": "address[]"
        }
      ],
      "stateMutability": "view",
      "type": "function"
    },
    {
      "inputs": [
        {
          "internalType": "int256",
          "name": "_pollId",
          "type": "int256"
        }
      ],
      "name": "getVotes",
      "outputs": [
        {
          "components": [
            {
              "internalType": "address",
              "name": "voter",
              "type": "address"
            },
            {
              "internalType": "address[]",
              "name": "candidates",
              "type": "address[]"
            },
            {
              "internalType": "uint256[][]",
              "name": "points",
              "type": "uint256[][]"
            },
            {
              "internalType": "string[]",
              "name": "comments",
              "type": "string[]"
            },
            {
              "internalType": "uint256",
              "name": "perspectiveId",
              "type": "uint256"
            }
          ],
          "internalType": "struct Vote[]",
          "name": "",
          "type": "tuple[]"
        }
      ],
      "stateMutability": "view",
      "type": "function"
    },
    {
      "inputs": [
        {
          "internalType": "bytes32",
          "name": "role",
          "type": "bytes32"
        },
        {
          "internalType": "address",
          "name": "account",
          "type": "address"
        }
      ],
      "name": "grantRole",
      "outputs": [],
      "stateMutability": "nonpayable",
      "type": "function"
    },
    {
      "inputs": [
        {
          "internalType": "bytes32",
          "name": "role",
          "type": "bytes32"
        },
        {
          "internalType": "address",
          "name": "account",
          "type": "address"
        }
      ],
      "name": "hasRole",
      "outputs": [
        {
          "internalType": "bool",
          "name": "",
          "type": "bool"
        }
      ],
      "stateMutability": "view",
      "type": "function"
    },
    {
      "inputs": [
        {
          "internalType": "address",
          "name": "_address",
          "type": "address"
        }
      ],
      "name": "isEligibleToVote",
      "outputs": [
        {
          "internalType": "bool",
          "name": "",
          "type": "bool"
        }
      ],
      "stateMutability": "view",
      "type": "function"
    },
    {
      "inputs": [],
      "name": "nftAddress",
      "outputs": [
        {
          "internalType": "address",
          "name": "",
          "type": "address"
        }
      ],
      "stateMutability": "view",
      "type": "function"
    },
    {
      "inputs": [],
      "name": "owner",
      "outputs": [
        {
          "internalType": "address",
          "name": "",
          "type": "address"
        }
      ],
      "stateMutability": "view",
      "type": "function"
    },
    {
      "inputs": [],
      "name": "pause",
      "outputs": [],
      "stateMutability": "nonpayable",
      "type": "function"
    },
    {
      "inputs": [],
      "name": "paused",
      "outputs": [
        {
          "internalType": "bool",
          "name": "",
          "type": "bool"
        }
      ],
      "stateMutability": "view",
      "type": "function"
    },
    {
      "inputs": [
        {
          "internalType": "uint256",
          "name": "",
          "type": "uint256"
        },
        {
          "internalType": "uint256",
          "name": "",
          "type": "uint256"
        }
      ],
      "name": "perspectives",
      "outputs": [
        {
          "internalType": "string",
          "name": "",
          "type": "string"
        }
      ],
      "stateMutability": "view",
      "type": "function"
    },
    {
      "inputs": [],
      "name": "projectId",
      "outputs": [
        {
          "internalType": "string",
          "name": "",
          "type": "string"
        }
      ],
      "stateMutability": "view",
      "type": "function"
    },
    {
      "inputs": [],
      "name": "renounceOwnership",
      "outputs": [],
      "stateMutability": "nonpayable",
      "type": "function"
    },
    {
      "inputs": [
        {
          "internalType": "bytes32",
          "name": "role",
          "type": "bytes32"
        },
        {
          "internalType": "address",
          "name": "account",
          "type": "address"
        }
      ],
      "name": "renounceRole",
      "outputs": [],
      "stateMutability": "nonpayable",
      "type": "function"
    },
    {
      "inputs": [
        {
          "internalType": "bytes32",
          "name": "role",
          "type": "bytes32"
        },
        {
          "internalType": "address",
          "name": "account",
          "type": "address"
        }
      ],
      "name": "revokeRole",
      "outputs": [],
      "stateMutability": "nonpayable",
      "type": "function"
    },
    {
      "inputs": [
        {
          "internalType": "uint256",
          "name": "_contributorAssignmentToken",
          "type": "uint256"
        }
      ],
      "name": "setContributorAssignmentToken",
      "outputs": [],
      "stateMutability": "nonpayable",
      "type": "function"
    },
    {
      "inputs": [
        {
          "internalType": "address",
          "name": "_daoHistoryAddress",
          "type": "address"
        }
      ],
      "name": "setDaoHistoryAddress",
      "outputs": [],
      "stateMutability": "nonpayable",
      "type": "function"
    },
    {
      "inputs": [
        {
          "internalType": "address",
          "name": "_daoTokenAddress",
          "type": "address"
        }
      ],
      "name": "setDaoTokenAddress",
      "outputs": [],
      "stateMutability": "nonpayable",
      "type": "function"
    },
    {
      "inputs": [
        {
          "internalType": "address",
          "name": "_nftAddress",
          "type": "address"
        }
      ],
      "name": "setNftAddress",
      "outputs": [],
      "stateMutability": "nonpayable",
      "type": "function"
    },
    {
      "inputs": [
        {
          "internalType": "address",
          "name": "_address",
          "type": "address"
        }
      ],
      "name": "setPollAdminRole",
      "outputs": [],
      "stateMutability": "nonpayable",
      "type": "function"
    },
    {
      "inputs": [
        {
          "internalType": "uint256",
          "name": "_rankForVote",
          "type": "uint256"
        }
      ],
      "name": "setRequiredTokenForVote",
      "outputs": [],
      "stateMutability": "nonpayable",
      "type": "function"
    },
    {
      "inputs": [
        {
          "internalType": "uint256",
          "name": "_supporterAssignmentToken",
          "type": "uint256"
        }
      ],
      "name": "setSupporterAssignmentToken",
      "outputs": [],
      "stateMutability": "nonpayable",
      "type": "function"
    },
    {
      "inputs": [
        {
          "internalType": "uint256",
          "name": "_voteMaxPoint",
          "type": "uint256"
        }
      ],
      "name": "setVoteMaxPoint",
      "outputs": [],
      "stateMutability": "nonpayable",
      "type": "function"
    },
    {
      "inputs": [
        {
          "internalType": "int256",
          "name": "pollId",
          "type": "int256"
        },
        {
          "internalType": "bool",
          "name": "_votingEnabled",
          "type": "bool"
        }
      ],
      "name": "setVotingEnabled",
      "outputs": [],
      "stateMutability": "nonpayable",
      "type": "function"
    },
    {
      "inputs": [],
      "name": "settleCurrentPollAndCreateNewPoll",
      "outputs": [],
      "stateMutability": "nonpayable",
      "type": "function"
    },
    {
      "inputs": [
        {
          "internalType": "int256",
          "name": "",
          "type": "int256"
        }
      ],
      "name": "startTimeStamp",
      "outputs": [
        {
          "internalType": "uint256",
          "name": "",
          "type": "uint256"
        }
      ],
      "stateMutability": "view",
      "type": "function"
    },
    {
      "inputs": [
        {
          "internalType": "bytes4",
          "name": "interfaceId",
          "type": "bytes4"
        }
      ],
      "name": "supportsInterface",
      "outputs": [
        {
          "internalType": "bool",
          "name": "",
          "type": "bool"
        }
      ],
      "stateMutability": "view",
      "type": "function"
    },
    {
      "inputs": [
        {
          "internalType": "address",
          "name": "newOwner",
          "type": "address"
        }
      ],
      "name": "transferOwnership",
      "outputs": [],
      "stateMutability": "nonpayable",
      "type": "function"
    },
    {
      "inputs": [],
      "name": "unpause",
      "outputs": [],
      "stateMutability": "nonpayable",
      "type": "function"
    },
    {
      "inputs": [
        {
          "internalType": "int256",
          "name": "_pollId",
          "type": "int256"
        },
        {
          "internalType": "address[]",
          "name": "_candidates",
          "type": "address[]"
        },
        {
          "internalType": "uint256[][]",
          "name": "_points",
          "type": "uint256[][]"
        },
        {
          "internalType": "string[]",
          "name": "_comments",
          "type": "string[]"
        }
      ],
      "name": "vote",
      "outputs": [
        {
          "internalType": "bool",
          "name": "",
          "type": "bool"
        }
      ],
      "stateMutability": "nonpayable",
      "type": "function"
    },
    {
      "inputs": [
        {
          "internalType": "int256",
          "name": "",
          "type": "int256"
        },
        {
          "internalType": "uint256",
          "name": "",
          "type": "uint256"
        }
      ],
      "name": "votes",
      "outputs": [
        {
          "internalType": "address",
          "name": "voter",
          "type": "address"
        },
        {
          "internalType": "uint256",
          "name": "perspectiveId",
          "type": "uint256"
        }
      ],
      "stateMutability": "view",
      "type": "function"
    },
    {
      "inputs": [],
      "name": "votingEnabled",
      "outputs": [
        {
          "internalType": "bool",
          "name": "",
          "type": "bool"
        }
      ],
      "stateMutability": "view",
      "type": "function"
    }
  ],
  "bytecode": "0x60806040526000600555600060095569017b7883c06916600000600a5568a2a15d09519be00000600b556014600c556001600d60006101000a81548160ff02191690831515021790555060006014553480156200005b57600080fd5b5060405162007f1238038062007f12833981810160405281019062000081919062000419565b620000a162000095620000fe60201b60201c565b6200010660201b60201c565b6000600160146101000a81548160ff02191690831515021790555060016002819055508160039080519060200190620000dc929190620001cc565b508060049080519060200190620000f5929190620001cc565b50505062000503565b600033905090565b6000600160009054906101000a900473ffffffffffffffffffffffffffffffffffffffff16905081600160006101000a81548173ffffffffffffffffffffffffffffffffffffffff021916908373ffffffffffffffffffffffffffffffffffffffff1602179055508173ffffffffffffffffffffffffffffffffffffffff168173ffffffffffffffffffffffffffffffffffffffff167f8be0079c531659141344cd1fd0a4f28419497f9722a3daafe3b4186f6b6457e060405160405180910390a35050565b828054620001da90620004cd565b90600052602060002090601f016020900481019282620001fe57600085556200024a565b82601f106200021957805160ff19168380011785556200024a565b828001600101855582156200024a579182015b82811115620002495782518255916020019190600101906200022c565b5b5090506200025991906200025d565b5090565b5b80821115620002785760008160009055506001016200025e565b5090565b6000604051905090565b600080fd5b600080fd5b600080fd5b600080fd5b6000601f19601f8301169050919050565b7f4e487b7100000000000000000000000000000000000000000000000000000000600052604160045260246000fd5b620002e5826200029a565b810181811067ffffffffffffffff82111715620003075762000306620002ab565b5b80604052505050565b60006200031c6200027c565b90506200032a8282620002da565b919050565b600067ffffffffffffffff8211156200034d576200034c620002ab565b5b62000358826200029a565b9050602081019050919050565b60005b838110156200038557808201518184015260208101905062000368565b8381111562000395576000848401525b50505050565b6000620003b2620003ac846200032f565b62000310565b905082815260208101848484011115620003d157620003d062000295565b5b620003de84828562000365565b509392505050565b600082601f830112620003fe57620003fd62000290565b5b8151620004108482602086016200039b565b91505092915050565b6000806040838503121562000433576200043262000286565b5b600083015167ffffffffffffffff8111156200045457620004536200028b565b5b6200046285828601620003e6565b925050602083015167ffffffffffffffff8111156200048657620004856200028b565b5b6200049485828601620003e6565b9150509250929050565b7f4e487b7100000000000000000000000000000000000000000000000000000000600052602260045260246000fd5b60006002820490506001821680620004e657607f821691505b60208210811415620004fd57620004fc6200049e565b5b50919050565b6179ff80620005136000396000f3fe608060405234801561001057600080fd5b50600436106103425760003560e01c806391d14854116101b8578063d47587f211610104578063d972b590116100a2578063ea8f16831161007c578063ea8f1683146109a6578063f2fde38b146109d6578063fc39870b146109f2578063fe98bbc714610a0e57610342565b8063d972b5901461093a578063d9b0b8a91461096a578063e499943f1461098857610342565b8063d76e79d4116100de578063d76e79d4146108b1578063d899744f146108bb578063d8b1ebac146108d9578063d8f8f07a1461090a57610342565b8063d47587f21461085b578063d519ffa414610879578063d547741f1461089557610342565b8063c01cd23c11610171578063c97e60e31161014b578063c97e60e3146107d1578063cac2699b146107ed578063d0967c381461080b578063d384e4d41461083d57610342565b8063c01cd23c14610779578063c2f33e5414610797578063c46d6495146107b357610342565b806391d14854146106a3578063a092a7a8146106d3578063a217fddf14610703578063a5f38fa314610721578063b8cb6b791461073f578063bb3c6ebb1461075b57610342565b80635bf8633a11610292578063715622db116102305780638456cb591161020a5780638456cb591461062f5780638a3e8620146106395780638b8ef8d2146106695780638da5cb5b1461068557610342565b8063715622db146105c557806372b4ca47146105e15780637e78d68a146105ff57610342565b8063640e11681161026c578063640e11681461054f5780637034482a1461056d57806370bd8e931461058b578063715018a6146105bb57610342565b80635bf8633a146104f55780635c975abb1461051357806363a9492f1461053157610342565b806323628d0e116102ff57806336568abe116102d957806336568abe146104955780633f4ba83a146104b15780633fafa127146104bb5780634617c06a146104d957610342565b806323628d0e1461042d578063248a9ca3146104495780632f2ff15d1461047957610342565b806301ffc9a714610347578063022a2d911461037757806302decedb146103a75780630b102d1a146103c35780631c004729146103df5780631dbc1366146103fd575b600080fd5b610361600480360381019061035c9190615551565b610a3e565b60405161036e9190615599565b60405180910390f35b610391600480360381019061038c91906155ea565b610ab8565b60405161039e9190615b32565b60405180910390f35b6103c160048036038101906103bc9190615b80565b610d90565b005b6103dd60048036038101906103d89190615bd9565b610e03565b005b6103e7610e4f565b6040516103f49190615c15565b60405180910390f35b61041760048036038101906104129190615c30565b610e75565b6040516104249190615c15565b60405180910390f35b61044760048036038101906104429190615e8b565b610ec3565b005b610463600480360381019061045e9190615f68565b61127c565b6040516104709190615fa4565b60405180910390f35b610493600480360381019061048e9190615fbf565b61129b565b005b6104af60048036038101906104aa9190615fbf565b6112bc565b005b6104b961133f565b005b6104c3611351565b6040516104d09190616049565b60405180910390f35b6104f360048036038101906104ee9190615b80565b6113df565b005b6104fd611452565b60405161050a9190615c15565b60405180910390f35b61051b611478565b6040516105289190615599565b60405180910390f35b61053961148f565b604051610546919061617e565b60405180910390f35b6105576118cb565b6040516105649190615599565b60405180910390f35b6105756118de565b6040516105829190616226565b60405180910390f35b6105a560048036038101906105a09190615bd9565b6119ca565b6040516105b29190615599565b60405180910390f35b6105c3611a88565b005b6105df60048036038101906105da9190616274565b611a9c565b005b6105e9611b6b565b6040516105f69190615b32565b60405180910390f35b610619600480360381019061061491906155ea565b611e43565b60405161062691906162c3565b60405180910390f35b610637611e5b565b005b610653600480360381019061064e91906155ea565b611e6d565b60405161066091906164a8565b60405180910390f35b610683600480360381019061067e9190615b80565b6121ef565b005b61068d612262565b60405161069a9190615c15565b60405180910390f35b6106bd60048036038101906106b89190615fbf565b61228c565b6040516106ca9190615599565b60405180910390f35b6106ed60048036038101906106e891906155ea565b6122f6565b6040516106fa9190616539565b60405180910390f35b61070b6126af565b6040516107189190615fa4565b60405180910390f35b6107296126b6565b60405161073691906162c3565b60405180910390f35b61075960048036038101906107549190615bd9565b6126bc565b005b610763612708565b60405161077091906162c3565b60405180910390f35b61078161270e565b60405161078e9190615c15565b60405180910390f35b6107b160048036038101906107ac9190615b80565b612734565b005b6107bb6127a7565b6040516107c8919061656a565b60405180910390f35b6107eb60048036038101906107e69190616585565b6127ad565b005b6107f56127f4565b6040516108029190616049565b60405180910390f35b61082560048036038101906108209190615c30565b612882565b604051610834939291906165ce565b60405180910390f35b610845612971565b6040516108529190616539565b60405180910390f35b610863612a12565b60405161087091906162c3565b60405180910390f35b610893600480360381019061088e9190615bd9565b612a18565b005b6108af60048036038101906108aa9190615fbf565b612a64565b005b6108b9612a85565b005b6108c3612b5c565b6040516108d091906162c3565b60405180910390f35b6108f360048036038101906108ee9190615c30565b612b62565b60405161090192919061660c565b60405180910390f35b610924600480360381019061091f919061689c565b612bc3565b6040516109319190615599565b60405180910390f35b610954600480360381019061094f9190616957565b613388565b6040516109619190616049565b60405180910390f35b610972613441565b60405161097f91906162c3565b60405180910390f35b610990613447565b60405161099d9190615fa4565b60405180910390f35b6109c060048036038101906109bb9190615b80565b61346b565b6040516109cd9190616226565b60405180910390f35b6109f060048036038101906109eb9190615bd9565b613557565b005b610a0c6004803603810190610a079190615bd9565b6135db565b005b610a286004803603810190610a2391906155ea565b613610565b604051610a3591906162c3565b60405180910390f35b60007f7965db0b000000000000000000000000000000000000000000000000000000007bffffffffffffffffffffffffffffffffffffffffffffffffffffffff1916827bffffffffffffffffffffffffffffffffffffffffffffffffffffffff19161480610ab15750610ab082613628565b5b9050919050565b606060106000838152602001908152602001600020805480602002602001604051908101604052809291908181526020016000905b82821015610d8557838290600052602060002090600502016040518060a00160405290816000820160009054906101000a900473ffffffffffffffffffffffffffffffffffffffff1673ffffffffffffffffffffffffffffffffffffffff1673ffffffffffffffffffffffffffffffffffffffff16815260200160018201805480602002602001604051908101604052809291908181526020018280548015610beb57602002820191906000526020600020905b8160009054906101000a900473ffffffffffffffffffffffffffffffffffffffff1673ffffffffffffffffffffffffffffffffffffffff1681526020019060010190808311610ba1575b5050505050815260200160028201805480602002602001604051908101604052809291908181526020016000905b82821015610c8b57838290600052602060002001805480602002602001604051908101604052809291908181526020018280548015610c7757602002820191906000526020600020905b815481526020019060010190808311610c63575b505050505081526020019060010190610c19565b50505050815260200160038201805480602002602001604051908101604052809291908181526020016000905b82821015610d64578382906000526020600020018054610cd7906169c6565b80601f0160208091040260200160405190810160405280929190818152602001828054610d03906169c6565b8015610d505780601f10610d2557610100808354040283529160200191610d50565b820191906000526020600020905b815481529060010190602001808311610d3357829003601f168201915b505050505081526020019060010190610cb8565b50505050815260200160048201548152505081526020019060010190610aed565b505050509050919050565b610dba7f05477c39c14a8a45f68e248e875c7b89913df266bcc8ea9804f3160438f36dfd3361228c565b610df9576040517f08c379a0000000000000000000000000000000000000000000000000000000008152600401610df090616a44565b60405180910390fd5b80600a8190555050565b610e0b613692565b80600760006101000a81548173ffffffffffffffffffffffffffffffffffffffff021916908373ffffffffffffffffffffffffffffffffffffffff16021790555050565b600660009054906101000a900473ffffffffffffffffffffffffffffffffffffffff1681565b600e6020528160005260406000208181548110610e9157600080fd5b906000526020600020016000915091509054906101000a900473ffffffffffffffffffffffffffffffffffffffff1681565b610ecb613710565b60006103e7905060005b600e6000600554815260200190815260200160002080549050811015610f91573373ffffffffffffffffffffffffffffffffffffffff16600e600060055481526020019081526020016000208281548110610f3357610f32616a64565b5b9060005260206000200160009054906101000a900473ffffffffffffffffffffffffffffffffffffffff1673ffffffffffffffffffffffffffffffffffffffff161415610f7e578091505b8080610f8990616ac2565b915050610ed5565b506103e781141561113e57600e60006005548152602001908152602001600020339080600181540180825580915050600190039060005260206000200160009091909190916101000a81548173ffffffffffffffffffffffffffffffffffffffff021916908373ffffffffffffffffffffffffffffffffffffffff160217905550600f600060055481526020019081526020016000206040518060a001604052808681526020018581526020018481526020013373ffffffffffffffffffffffffffffffffffffffff168152602001600554815250908060018154018082558091505060019003906000526020600020906005020160009091909190915060008201518160000190805190602001906110ab929190615149565b5060208201518160010190805190602001906110c89291906151cf565b5060408201518160020190805190602001906110e59291906151cf565b5060608201518160030160006101000a81548173ffffffffffffffffffffffffffffffffffffffff021916908373ffffffffffffffffffffffffffffffffffffffff160217905550608082015181600401555050611226565b83600f60006005548152602001908152602001600020828154811061116657611165616a64565b5b9060005260206000209060050201600001908051906020019061118a929190615149565b5082600f6000600554815260200190815260200160002082815481106111b3576111b2616a64565b5b906000526020600020906005020160010190805190602001906111d79291906151cf565b5081600f600060055481526020019081526020016000208281548110611200576111ff616a64565b5b906000526020600020906005020160020190805190602001906112249291906151cf565b505b3373ffffffffffffffffffffffffffffffffffffffff167f48f50cc4c081867b26157ea6fbeb68ca3459ce4cfbfcf65d23a369dea7a0eacb60055460405161126e919061656a565b60405180910390a250505050565b6000806000838152602001908152602001600020600101549050919050565b6112a48261127c565b6112ad8161375a565b6112b7838361376e565b505050565b6112c461384e565b73ffffffffffffffffffffffffffffffffffffffff168173ffffffffffffffffffffffffffffffffffffffff1614611331576040517f08c379a000000000000000000000000000000000000000000000000000000000815260040161132890616b7d565b60405180910390fd5b61133b8282613856565b5050565b611347613692565b61134f613937565b565b6004805461135e906169c6565b80601f016020809104026020016040519081016040528092919081815260200182805461138a906169c6565b80156113d75780601f106113ac576101008083540402835291602001916113d7565b820191906000526020600020905b8154815290600101906020018083116113ba57829003601f168201915b505050505081565b6114097f05477c39c14a8a45f68e248e875c7b89913df266bcc8ea9804f3160438f36dfd3361228c565b611448576040517f08c379a000000000000000000000000000000000000000000000000000000000815260040161143f90616a44565b60405180910390fd5b8060098190555050565b600760009054906101000a900473ffffffffffffffffffffffffffffffffffffffff1681565b6000600160149054906101000a900460ff16905090565b60606000601060006005548152602001908152602001600020805480602002602001604051908101604052809291908181526020016000905b8282101561176057838290600052602060002090600502016040518060a00160405290816000820160009054906101000a900473ffffffffffffffffffffffffffffffffffffffff1673ffffffffffffffffffffffffffffffffffffffff1673ffffffffffffffffffffffffffffffffffffffff168152602001600182018054806020026020016040519081016040528092919081815260200182805480156115c657602002820191906000526020600020905b8160009054906101000a900473ffffffffffffffffffffffffffffffffffffffff1673ffffffffffffffffffffffffffffffffffffffff168152602001906001019080831161157c575b5050505050815260200160028201805480602002602001604051908101604052809291908181526020016000905b828210156116665783829060005260206000200180548060200260200160405190810160405280929190818152602001828054801561165257602002820191906000526020600020905b81548152602001906001019080831161163e575b5050505050815260200190600101906115f4565b50505050815260200160038201805480602002602001604051908101604052809291908181526020016000905b8282101561173f5783829060005260206000200180546116b2906169c6565b80601f01602080910402602001604051908101604052809291908181526020018280546116de906169c6565b801561172b5780601f106117005761010080835404028352916020019161172b565b820191906000526020600020905b81548152906001019060200180831161170e57829003601f168201915b505050505081526020019060010190611693565b505050508152602001600482015481525050815260200190600101906114c8565b5050505090506000600e600060055481526020019081526020016000208054806020026020016040519081016040528092919081815260200182805480156117fd57602002820191906000526020600020905b8160009054906101000a900473ffffffffffffffffffffffffffffffffffffffff1673ffffffffffffffffffffffffffffffffffffffff16815260200190600101908083116117b3575b50505050509050600060116000600554815260200190815260200160002054905060006040518060800160405280600554815260200185518152602001845181526020018381525090506000600167ffffffffffffffff81111561186457611863615c7a565b5b60405190808252806020026020018201604052801561189d57816020015b61188a61522f565b8152602001906001900390816118825790505b50905081816000815181106118b5576118b4616a64565b5b6020026020010181905250809550505050505090565b600d60009054906101000a900460ff1681565b6060601360006014548152602001908152602001600020805480602002602001604051908101604052809291908181526020016000905b828210156119c1578382906000526020600020018054611934906169c6565b80601f0160208091040260200160405190810160405280929190818152602001828054611960906169c6565b80156119ad5780601f10611982576101008083540402835291602001916119ad565b820191906000526020600020905b81548152906001019060200180831161199057829003601f168201915b505050505081526020019060010190611915565b50505050905090565b600080600760009054906101000a900473ffffffffffffffffffffffffffffffffffffffff1690506009548173ffffffffffffffffffffffffffffffffffffffff166370a08231856040518263ffffffff1660e01b8152600401611a2e9190615c15565b60206040518083038186803b158015611a4657600080fd5b505afa158015611a5a573d6000803e3d6000fd5b505050506040513d601f19601f82011682018060405250810190611a7e9190616bb2565b1015915050919050565b611a90613692565b611a9a600061399a565b565b611ac67f05477c39c14a8a45f68e248e875c7b89913df266bcc8ea9804f3160438f36dfd3361228c565b611b05576040517f08c379a0000000000000000000000000000000000000000000000000000000008152600401611afc90616a44565b60405180910390fd5b80600d60006101000a81548160ff0219169083151502179055507f067b18de61d0dc3585d5a4ff767f5521c1a49e022ff8cd0d3e510748dc3f5c1a82600d60009054906101000a900460ff16604051611b5f929190616bdf565b60405180910390a15050565b6060601060006005548152602001908152602001600020805480602002602001604051908101604052809291908181526020016000905b82821015611e3a57838290600052602060002090600502016040518060a00160405290816000820160009054906101000a900473ffffffffffffffffffffffffffffffffffffffff1673ffffffffffffffffffffffffffffffffffffffff1673ffffffffffffffffffffffffffffffffffffffff16815260200160018201805480602002602001604051908101604052809291908181526020018280548015611ca057602002820191906000526020600020905b8160009054906101000a900473ffffffffffffffffffffffffffffffffffffffff1673ffffffffffffffffffffffffffffffffffffffff1681526020019060010190808311611c56575b5050505050815260200160028201805480602002602001604051908101604052809291908181526020016000905b82821015611d4057838290600052602060002001805480602002602001604051908101604052809291908181526020018280548015611d2c57602002820191906000526020600020905b815481526020019060010190808311611d18575b505050505081526020019060010190611cce565b50505050815260200160038201805480602002602001604051908101604052809291908181526020016000905b82821015611e19578382906000526020600020018054611d8c906169c6565b80601f0160208091040260200160405190810160405280929190818152602001828054611db8906169c6565b8015611e055780601f10611dda57610100808354040283529160200191611e05565b820191906000526020600020905b815481529060010190602001808311611de857829003601f168201915b505050505081526020019060010190611d6d565b50505050815260200160048201548152505081526020019060010190611ba2565b50505050905090565b60126020528060005260406000206000915090505481565b611e63613692565b611e6b613a60565b565b611e75615257565b6000600f6000848152602001908152602001600020805480602002602001604051908101604052809291908181526020016000905b8282101561218057838290600052602060002090600502016040518060a0016040529081600082018054611edd906169c6565b80601f0160208091040260200160405190810160405280929190818152602001828054611f09906169c6565b8015611f565780601f10611f2b57610100808354040283529160200191611f56565b820191906000526020600020905b815481529060010190602001808311611f3957829003601f168201915b5050505050815260200160018201805480602002602001604051908101604052809291908181526020016000905b82821015612030578382906000526020600020018054611fa3906169c6565b80601f0160208091040260200160405190810160405280929190818152602001828054611fcf906169c6565b801561201c5780601f10611ff15761010080835404028352916020019161201c565b820191906000526020600020905b815481529060010190602001808311611fff57829003601f168201915b505050505081526020019060010190611f84565b50505050815260200160028201805480602002602001604051908101604052809291908181526020016000905b8282101561210957838290600052602060002001805461207c906169c6565b80601f01602080910402602001604051908101604052809291908181526020018280546120a8906169c6565b80156120f55780601f106120ca576101008083540402835291602001916120f5565b820191906000526020600020905b8154815290600101906020018083116120d857829003601f168201915b50505050508152602001906001019061205d565b5050505081526020016003820160009054906101000a900473ffffffffffffffffffffffffffffffffffffffff1673ffffffffffffffffffffffffffffffffffffffff1673ffffffffffffffffffffffffffffffffffffffff16815260200160048201548152505081526020019060010190611eaa565b5050505090506000612191846122f6565b905060006011600086815260200190815260200160002054905060006121b56118de565b905060006040518060a001604052808881526020018681526020018581526020018481526020018381525090508095505050505050919050565b6122197f05477c39c14a8a45f68e248e875c7b89913df266bcc8ea9804f3160438f36dfd3361228c565b612258576040517f08c379a000000000000000000000000000000000000000000000000000000000815260040161224f90616a44565b60405180910390fd5b80600b8190555050565b6000600160009054906101000a900473ffffffffffffffffffffffffffffffffffffffff16905090565b600080600084815260200190815260200160002060000160008373ffffffffffffffffffffffffffffffffffffffff1673ffffffffffffffffffffffffffffffffffffffff16815260200190815260200160002060009054906101000a900460ff16905092915050565b6060600060106000848152602001908152602001600020805480602002602001604051908101604052809291908181526020016000905b828210156125c557838290600052602060002090600502016040518060a00160405290816000820160009054906101000a900473ffffffffffffffffffffffffffffffffffffffff1673ffffffffffffffffffffffffffffffffffffffff1673ffffffffffffffffffffffffffffffffffffffff1681526020016001820180548060200260200160405190810160405280929190818152602001828054801561242b57602002820191906000526020600020905b8160009054906101000a900473ffffffffffffffffffffffffffffffffffffffff1673ffffffffffffffffffffffffffffffffffffffff16815260200190600101908083116123e1575b5050505050815260200160028201805480602002602001604051908101604052809291908181526020016000905b828210156124cb578382906000526020600020018054806020026020016040519081016040528092919081815260200182805480156124b757602002820191906000526020600020905b8154815260200190600101908083116124a3575b505050505081526020019060010190612459565b50505050815260200160038201805480602002602001604051908101604052809291908181526020016000905b828210156125a4578382906000526020600020018054612517906169c6565b80601f0160208091040260200160405190810160405280929190818152602001828054612543906169c6565b80156125905780601f1061256557610100808354040283529160200191612590565b820191906000526020600020905b81548152906001019060200180831161257357829003601f168201915b5050505050815260200190600101906124f8565b5050505081526020016004820154815250508152602001906001019061232d565b5050505090506000815167ffffffffffffffff8111156125e8576125e7615c7a565b5b6040519080825280602002602001820160405280156126165781602001602082028036833780820191505090505b50905060005b82518110156126a45782818151811061263857612637616a64565b5b60200260200101516000015182828151811061265757612656616a64565b5b602002602001019073ffffffffffffffffffffffffffffffffffffffff16908173ffffffffffffffffffffffffffffffffffffffff1681525050808061269c90616ac2565b91505061261c565b508092505050919050565b6000801b81565b600b5481565b6126c4613692565b80600860006101000a81548173ffffffffffffffffffffffffffffffffffffffff021916908373ffffffffffffffffffffffffffffffffffffffff16021790555050565b600c5481565b600860009054906101000a900473ffffffffffffffffffffffffffffffffffffffff1681565b61275e7f05477c39c14a8a45f68e248e875c7b89913df266bcc8ea9804f3160438f36dfd3361228c565b61279d576040517f08c379a000000000000000000000000000000000000000000000000000000000815260040161279490616a44565b60405180910390fd5b80600c8190555050565b60055481565b6127b5613692565b80601360006014600081546127c990616ac2565b919050819055815260200190815260200160002090805190602001906127f09291906151cf565b5050565b60038054612801906169c6565b80601f016020809104026020016040519081016040528092919081815260200182805461282d906169c6565b801561287a5780601f1061284f5761010080835404028352916020019161287a565b820191906000526020600020905b81548152906001019060200180831161285d57829003601f168201915b505050505081565b600f602052816000526040600020818154811061289e57600080fd5b9060005260206000209060050201600091509150508060000180546128c2906169c6565b80601f01602080910402602001604051908101604052809291908181526020018280546128ee906169c6565b801561293b5780601f106129105761010080835404028352916020019161293b565b820191906000526020600020905b81548152906001019060200180831161291e57829003601f168201915b5050505050908060030160009054906101000a900473ffffffffffffffffffffffffffffffffffffffff16908060040154905083565b6060600e60006005548152602001908152602001600020805480602002602001604051908101604052809291908181526020018280548015612a0857602002820191906000526020600020905b8160009054906101000a900473ffffffffffffffffffffffffffffffffffffffff1673ffffffffffffffffffffffffffffffffffffffff16815260200190600101908083116129be575b5050505050905090565b600a5481565b612a20613692565b80600660006101000a81548173ffffffffffffffffffffffffffffffffffffffff021916908373ffffffffffffffffffffffffffffffffffffffff16021790555050565b612a6d8261127c565b612a768161375a565b612a808383613856565b505050565b612a8d613710565b600280541415612ad2576040517f08c379a0000000000000000000000000000000000000000000000000000000008152600401612ac990616c54565b60405180910390fd5b60028081905550612b037f05477c39c14a8a45f68e248e875c7b89913df266bcc8ea9804f3160438f36dfd3361228c565b612b42576040517f08c379a0000000000000000000000000000000000000000000000000000000008152600401612b3990616a44565b60405180910390fd5b612b4a613ac2565b612b526149fa565b6001600281905550565b60145481565b60106020528160005260406000208181548110612b7e57600080fd5b9060005260206000209060050201600091509150508060000160009054906101000a900473ffffffffffffffffffffffffffffffffffffffff16908060040154905082565b6000612bcd613710565b600d60009054906101000a900460ff16612c1c576040517f08c379a0000000000000000000000000000000000000000000000000000000008152600401612c1390616d0c565b60405180910390fd5b6000612c27866122f6565b9050612c32336119ca565b612c71576040517f08c379a0000000000000000000000000000000000000000000000000000000008152600401612c6890616d78565b60405180910390fd5b600085511415612cb6576040517f08c379a0000000000000000000000000000000000000000000000000000000008152600401612cad90616de4565b60405180910390fd5b8451845114612cfa576040517f08c379a0000000000000000000000000000000000000000000000000000000008152600401612cf190616e76565b60405180910390fd5b6000601360006014548152602001908152602001600020805480602002602001604051908101604052809291908181526020016000905b82821015612ddd578382906000526020600020018054612d50906169c6565b80601f0160208091040260200160405190810160405280929190818152602001828054612d7c906169c6565b8015612dc95780601f10612d9e57610100808354040283529160200191612dc9565b820191906000526020600020905b815481529060010190602001808311612dac57829003601f168201915b505050505081526020019060010190612d31565b50505050905060005b865181101561309757612eaa600e60008a8152602001908152602001600020805480602002602001604051908101604052809291908181526020018280548015612e8557602002820191906000526020600020905b8160009054906101000a900473ffffffffffffffffffffffffffffffffffffffff1673ffffffffffffffffffffffffffffffffffffffff1681526020019060010190808311612e3b575b5050505050888381518110612e9d57612e9c616a64565b5b6020026020010151614a67565b612ee9576040517f08c379a0000000000000000000000000000000000000000000000000000000008152600401612ee090616f08565b60405180910390fd5b60005b8251811015613083576000878381518110612f0a57612f09616a64565b5b60200260200101518281518110612f2457612f23616a64565b5b60200260200101511015612f6d576040517f08c379a0000000000000000000000000000000000000000000000000000000008152600401612f6490616f9a565b60405180910390fd5b600c54878381518110612f8357612f82616a64565b5b60200260200101518281518110612f9d57612f9c616a64565b5b60200260200101511115612fe6576040517f08c379a0000000000000000000000000000000000000000000000000000000008152600401612fdd9061702c565b60405180910390fd5b3373ffffffffffffffffffffffffffffffffffffffff168883815181106130105761300f616a64565b5b602002602001015173ffffffffffffffffffffffffffffffffffffffff16141561307057600087838151811061304957613048616a64565b5b6020026020010151828151811061306357613062616a64565b5b6020026020010181815250505b808061307b90616ac2565b915050612eec565b50808061308f90616ac2565b915050612de6565b5060006103e7905060005b8351811015613110573373ffffffffffffffffffffffffffffffffffffffff168482815181106130d5576130d4616a64565b5b602002602001015173ffffffffffffffffffffffffffffffffffffffff1614156130fd578091505b808061310890616ac2565b9150506130a2565b5060006040518060a001604052803373ffffffffffffffffffffffffffffffffffffffff16815260200189815260200188815260200187815260200160145481525090506103e782141561324a57601060008a815260200190815260200160002081908060018154018082558091505060019003906000526020600020906005020160009091909190915060008201518160000160006101000a81548173ffffffffffffffffffffffffffffffffffffffff021916908373ffffffffffffffffffffffffffffffffffffffff16021790555060208201518160010190805190602001906131fe929190615286565b50604082015181600201908051906020019061321b929190615310565b5060608201518160030190805190602001906132389291906151cf565b5060808201518160040155505061332a565b80601060008b815260200190815260200160002083815481106132705761326f616a64565b5b906000526020600020906005020160008201518160000160006101000a81548173ffffffffffffffffffffffffffffffffffffffff021916908373ffffffffffffffffffffffffffffffffffffffff16021790555060208201518160010190805190602001906132e1929190615286565b5060408201518160020190805190602001906132fe929190615310565b50606082015181600301908051906020019061331b9291906151cf565b50608082015181600401559050505b3373ffffffffffffffffffffffffffffffffffffffff167f74d71f5f66a08d53492d6aa116e026a64e461e6de2bad0b1c35d27bb7c5158a68a604051613370919061656a565b60405180910390a26001945050505050949350505050565b601360205281600052604060002081815481106133a457600080fd5b906000526020600020016000915091505080546133c0906169c6565b80601f01602080910402602001604051908101604052809291908181526020018280546133ec906169c6565b80156134395780601f1061340e57610100808354040283529160200191613439565b820191906000526020600020905b81548152906001019060200180831161341c57829003601f168201915b505050505081565b60095481565b7f05477c39c14a8a45f68e248e875c7b89913df266bcc8ea9804f3160438f36dfd81565b606060136000838152602001908152602001600020805480602002602001604051908101604052809291908181526020016000905b8282101561354c5783829060005260206000200180546134bf906169c6565b80601f01602080910402602001604051908101604052809291908181526020018280546134eb906169c6565b80156135385780601f1061350d57610100808354040283529160200191613538565b820191906000526020600020905b81548152906001019060200180831161351b57829003601f168201915b5050505050815260200190600101906134a0565b505050509050919050565b61355f613692565b600073ffffffffffffffffffffffffffffffffffffffff168173ffffffffffffffffffffffffffffffffffffffff1614156135cf576040517f08c379a00000000000000000000000000000000000000000000000000000000081526004016135c6906170be565b60405180910390fd5b6135d88161399a565b50565b6135e3613692565b61360d7f05477c39c14a8a45f68e248e875c7b89913df266bcc8ea9804f3160438f36dfd82614aef565b50565b60116020528060005260406000206000915090505481565b60007f01ffc9a7000000000000000000000000000000000000000000000000000000007bffffffffffffffffffffffffffffffffffffffffffffffffffffffff1916827bffffffffffffffffffffffffffffffffffffffffffffffffffffffff1916149050919050565b61369a61384e565b73ffffffffffffffffffffffffffffffffffffffff166136b8612262565b73ffffffffffffffffffffffffffffffffffffffff161461370e576040517f08c379a00000000000000000000000000000000000000000000000000000000081526004016137059061712a565b60405180910390fd5b565b613718611478565b15613758576040517f08c379a000000000000000000000000000000000000000000000000000000000815260040161374f90617196565b60405180910390fd5b565b61376b8161376661384e565b614afd565b50565b613778828261228c565b61384a57600160008084815260200190815260200160002060000160008373ffffffffffffffffffffffffffffffffffffffff1673ffffffffffffffffffffffffffffffffffffffff16815260200190815260200160002060006101000a81548160ff0219169083151502179055506137ef61384e565b73ffffffffffffffffffffffffffffffffffffffff168173ffffffffffffffffffffffffffffffffffffffff16837f2f8788117e7eff1d82e926ec794901d17c78024a50270940304540a733656f0d60405160405180910390a45b5050565b600033905090565b613860828261228c565b1561393357600080600084815260200190815260200160002060000160008373ffffffffffffffffffffffffffffffffffffffff1673ffffffffffffffffffffffffffffffffffffffff16815260200190815260200160002060006101000a81548160ff0219169083151502179055506138d861384e565b73ffffffffffffffffffffffffffffffffffffffff168173ffffffffffffffffffffffffffffffffffffffff16837ff6391f5c32d9c69d2a47ea670b442974b53935d1edc7fd64eb21e047a839171b60405160405180910390a45b5050565b61393f614b9a565b6000600160146101000a81548160ff0219169083151502179055507f5db9ee0a495bf2e6ff9c91a7834c1ba4fdd244a5e8aa4e537bd38aeae4b073aa61398361384e565b6040516139909190615c15565b60405180910390a1565b6000600160009054906101000a900473ffffffffffffffffffffffffffffffffffffffff16905081600160006101000a81548173ffffffffffffffffffffffffffffffffffffffff021916908373ffffffffffffffffffffffffffffffffffffffff1602179055508173ffffffffffffffffffffffffffffffffffffffff168173ffffffffffffffffffffffffffffffffffffffff167f8be0079c531659141344cd1fd0a4f28419497f9722a3daafe3b4186f6b6457e060405160405180910390a35050565b613a68613710565b60018060146101000a81548160ff0219169083151502179055507f62e78cea01bee320cd4e420270b5ea74000d11b0c9f74754ebdbfc544b05a258613aab61384e565b604051613ab89190615c15565b60405180910390a1565b6000600e60006005548152602001908152602001600020805480602002602001604051908101604052809291908181526020018280548015613b5957602002820191906000526020600020905b8160009054906101000a900473ffffffffffffffffffffffffffffffffffffffff1673ffffffffffffffffffffffffffffffffffffffff1681526020019060010190808311613b0f575b505050505090506000601060006005548152602001908152602001600020805480602002602001604051908101604052809291908181526020016000905b82821015613e2f57838290600052602060002090600502016040518060a00160405290816000820160009054906101000a900473ffffffffffffffffffffffffffffffffffffffff1673ffffffffffffffffffffffffffffffffffffffff1673ffffffffffffffffffffffffffffffffffffffff16815260200160018201805480602002602001604051908101604052809291908181526020018280548015613c9557602002820191906000526020600020905b8160009054906101000a900473ffffffffffffffffffffffffffffffffffffffff1673ffffffffffffffffffffffffffffffffffffffff1681526020019060010190808311613c4b575b5050505050815260200160028201805480602002602001604051908101604052809291908181526020016000905b82821015613d3557838290600052602060002001805480602002602001604051908101604052809291908181526020018280548015613d2157602002820191906000526020600020905b815481526020019060010190808311613d0d575b505050505081526020019060010190613cc3565b50505050815260200160038201805480602002602001604051908101604052809291908181526020016000905b82821015613e0e578382906000526020600020018054613d81906169c6565b80601f0160208091040260200160405190810160405280929190818152602001828054613dad906169c6565b8015613dfa5780601f10613dcf57610100808354040283529160200191613dfa565b820191906000526020600020905b815481529060010190602001808311613ddd57829003601f168201915b505050505081526020019060010190613d62565b50505050815260200160048201548152505081526020019060010190613b97565b5050505090506000601360006014548152602001908152602001600020805480602002602001604051908101604052809291908181526020016000905b82821015613f18578382906000526020600020018054613e8b906169c6565b80601f0160208091040260200160405190810160405280929190818152602001828054613eb7906169c6565b8015613f045780601f10613ed957610100808354040283529160200191613f04565b820191906000526020600020905b815481529060010190602001808311613ee757829003601f168201915b505050505081526020019060010190613e6c565b5050505090506000835167ffffffffffffffff811115613f3b57613f3a615c7a565b5b604051908082528060200260200182016040528015613f6e57816020015b6060815260200190600190039081613f595790505b5090506000845167ffffffffffffffff811115613f8e57613f8d615c7a565b5b604051908082528060200260200182016040528015613fbc5781602001602082028036833780820191505090505b50905060005b855181101561437457845167ffffffffffffffff811115613fe657613fe5615c7a565b5b60405190808252806020026020018201604052801561401f57816020015b61400c615370565b8152602001906001900390816140045790505b5083828151811061403357614032616a64565b5b602002602001018190525060005b8551811015614360576014548682815181106140605761405f616a64565b5b602002602001015160800151146140765761434d565b86828151811061408957614088616a64565b5b602002602001015173ffffffffffffffffffffffffffffffffffffffff168682815181106140ba576140b9616a64565b5b60200260200101516000015173ffffffffffffffffffffffffffffffffffffffff1614156140e75761434d565b6040518060c0016040528087838151811061410557614104616a64565b5b60200260200101516000015173ffffffffffffffffffffffffffffffffffffffff16815260200188848151811061413f5761413e616a64565b5b602002602001015173ffffffffffffffffffffffffffffffffffffffff16815260200187838151811061417557614174616a64565b5b602002602001015160400151848151811061419357614192616a64565b5b602002602001015181526020018783815181106141b3576141b2616a64565b5b60200260200101516060015184815181106141d1576141d0616a64565b5b6020026020010151815260200160145481526020016005548152508483815181106141ff576141fe616a64565b5b6020026020010151828151811061421957614218616a64565b5b602002602001018190525060005b855181101561434b5787838151811061424357614242616a64565b5b602002602001015173ffffffffffffffffffffffffffffffffffffffff1687838151811061427457614273616a64565b5b602002602001015160200151848151811061429257614291616a64565b5b602002602001015173ffffffffffffffffffffffffffffffffffffffff161415614338578682815181106142c9576142c8616a64565b5b60200260200101516040015183815181106142e7576142e6616a64565b5b6020026020010151818151811061430157614300616a64565b5b602002602001015184848151811061431c5761431b616a64565b5b6020026020010181815161433091906171b6565b915081815250505b808061434390616ac2565b915050614227565b505b808061435890616ac2565b915050614041565b50808061436c90616ac2565b915050613fc2565b506000805b82518110156143c157600083828151811061439757614396616a64565b5b602002602001015190506143ab8382614be3565b92505080806143b990616ac2565b915050614379565b506000600e600060055481526020019081526020016000208054905067ffffffffffffffff8111156143f6576143f5615c7a565b5b6040519080825280602002602001820160405280156144245781602001602082028036833780820191505090505b50905060008211156144af5760005b87518110156144a357600084828151811061445157614450616a64565b5b6020026020010151905061447061446a82600a54614c0b565b85614c48565b83838151811061448357614482616a64565b5b60200260200101818152505050808061449b90616ac2565b915050614433565b506144ae8782614d09565b5b60006144bc6005546122f6565b905060008151905060008111156144e95760006144db600b5483614c48565b90506144e78382614e3a565b505b42601260006005548152602001908152602001600020819055506000600860009054906101000a900473ffffffffffffffffffffffffffffffffffffffff16905060005b8a518110156149b4576000600f60006005548152602001908152602001600020828154811061455f5761455e616a64565b5b90600052602060002090600502016040518060a0016040529081600082018054614588906169c6565b80601f01602080910402602001604051908101604052809291908181526020018280546145b4906169c6565b80156146015780601f106145d657610100808354040283529160200191614601565b820191906000526020600020905b8154815290600101906020018083116145e457829003601f168201915b5050505050815260200160018201805480602002602001604051908101604052809291908181526020016000905b828210156146db57838290600052602060002001805461464e906169c6565b80601f016020809104026020016040519081016040528092919081815260200182805461467a906169c6565b80156146c75780601f1061469c576101008083540402835291602001916146c7565b820191906000526020600020905b8154815290600101906020018083116146aa57829003601f168201915b50505050508152602001906001019061462f565b50505050815260200160028201805480602002602001604051908101604052809291908181526020016000905b828210156147b4578382906000526020600020018054614727906169c6565b80601f0160208091040260200160405190810160405280929190818152602001828054614753906169c6565b80156147a05780601f10614775576101008083540402835291602001916147a0565b820191906000526020600020905b81548152906001019060200180831161478357829003601f168201915b505050505081526020019060010190614708565b5050505081526020016003820160009054906101000a900473ffffffffffffffffffffffffffffffffffffffff1673ffffffffffffffffffffffffffffffffffffffff1673ffffffffffffffffffffffffffffffffffffffff168152602001600482015481525050905060006040518060c001604052808360000151815260200188858151811061484857614847616a64565b5b60200260200101518152602001836040015181526020014281526020018e858151811061487857614877616a64565b5b602002602001015173ffffffffffffffffffffffffffffffffffffffff16815260200160055481525090508373ffffffffffffffffffffffffffffffffffffffff1663fdf06fbd60036004846040518463ffffffff1660e01b81526004016148e293929190617331565b600060405180830381600087803b1580156148fc57600080fd5b505af1158015614910573d6000803e3d6000fd5b505050508373ffffffffffffffffffffffffffffffffffffffff16635b080940600360048d878151811061494757614946616a64565b5b60200260200101516040518463ffffffff1660e01b815260040161496d939291906174cf565b600060405180830381600087803b15801561498757600080fd5b505af115801561499b573d6000803e3d6000fd5b50505050505080806149ac90616ac2565b91505061452d565b507f836fbb2ba05500745734fe64e2bda52f3b9fb41e0d12d75481b0d4ac45379c7e6005546040516149e6919061656a565b60405180910390a150505050505050505050565b60056000815480929190614a0d9061751b565b919050555042601160006005548152602001908152602001600020819055507ffaa2c351c484bd08e21503332728506f3b088dc0c0d22e7a285d889e718d5d0d600554604051614a5d919061656a565b60405180910390a1565b600080600090505b8351811015614ae3578273ffffffffffffffffffffffffffffffffffffffff16848281518110614aa257614aa1616a64565b5b602002602001015173ffffffffffffffffffffffffffffffffffffffff161415614ad0576001915050614ae9565b8080614adb90616ac2565b915050614a6f565b50600090505b92915050565b614af9828261376e565b5050565b614b07828261228c565b614b9657614b2c8173ffffffffffffffffffffffffffffffffffffffff166014614f0d565b614b3a8360001c6020614f0d565b604051602001614b4b929190617638565b6040516020818303038152906040526040517f08c379a0000000000000000000000000000000000000000000000000000000008152600401614b8d9190616049565b60405180910390fd5b5050565b614ba2611478565b614be1576040517f08c379a0000000000000000000000000000000000000000000000000000000008152600401614bd8906176be565b60405180910390fd5b565b6000808284614bf291906171b6565b905083811015614c0157600080fd5b8091505092915050565b6000808284614c1a91906176de565b90506000841480614c355750828482614c339190617767565b145b614c3e57600080fd5b8091505092915050565b6000808211614c8c576040517f08c379a0000000000000000000000000000000000000000000000000000000008152600401614c83906177e4565b60405180910390fd5b60008284614c9a9190617767565b90508284614ca89190617804565b8184614cb491906176de565b614cbe91906171b6565b8414614cff576040517f08c379a0000000000000000000000000000000000000000000000000000000008152600401614cf690617881565b60405180910390fd5b8091505092915050565b8051825114614d4d576040517f08c379a0000000000000000000000000000000000000000000000000000000008152600401614d4490617913565b60405180910390fd5b6000600660009054906101000a900473ffffffffffffffffffffffffffffffffffffffff16905060005b8351811015614e34578173ffffffffffffffffffffffffffffffffffffffff166340c10f19858381518110614daf57614dae616a64565b5b6020026020010151858481518110614dca57614dc9616a64565b5b60200260200101516040518363ffffffff1660e01b8152600401614def92919061660c565b600060405180830381600087803b158015614e0957600080fd5b505af1158015614e1d573d6000803e3d6000fd5b505050508080614e2c90616ac2565b915050614d77565b50505050565b6000600660009054906101000a900473ffffffffffffffffffffffffffffffffffffffff16905060005b8351811015614f07578173ffffffffffffffffffffffffffffffffffffffff166340c10f19858381518110614e9c57614e9b616a64565b5b6020026020010151856040518363ffffffff1660e01b8152600401614ec292919061660c565b600060405180830381600087803b158015614edc57600080fd5b505af1158015614ef0573d6000803e3d6000fd5b505050508080614eff90616ac2565b915050614e64565b50505050565b606060006002836002614f2091906176de565b614f2a91906171b6565b67ffffffffffffffff811115614f4357614f42615c7a565b5b6040519080825280601f01601f191660200182016040528015614f755781602001600182028036833780820191505090505b5090507f300000000000000000000000000000000000000000000000000000000000000081600081518110614fad57614fac616a64565b5b60200101907effffffffffffffffffffffffffffffffffffffffffffffffffffffffffffff1916908160001a9053507f78000000000000000000000000000000000000000000000000000000000000008160018151811061501157615010616a64565b5b60200101907effffffffffffffffffffffffffffffffffffffffffffffffffffffffffffff1916908160001a9053506000600184600261505191906176de565b61505b91906171b6565b90505b60018111156150fb577f3031323334353637383961626364656600000000000000000000000000000000600f86166010811061509d5761509c616a64565b5b1a60f81b8282815181106150b4576150b3616a64565b5b60200101907effffffffffffffffffffffffffffffffffffffffffffffffffffffffffffff1916908160001a905350600485901c9450806150f490617933565b905061505e565b506000841461513f576040517f08c379a0000000000000000000000000000000000000000000000000000000008152600401615136906179a9565b60405180910390fd5b8091505092915050565b828054615155906169c6565b90600052602060002090601f01602090048101928261517757600085556151be565b82601f1061519057805160ff19168380011785556151be565b828001600101855582156151be579182015b828111156151bd5782518255916020019190600101906151a2565b5b5090506151cb91906153d2565b5090565b82805482825590600052602060002090810192821561521e579160200282015b8281111561521d57825182908051906020019061520d929190615149565b50916020019190600101906151ef565b5b50905061522b91906153ef565b5090565b6040518060800160405280600081526020016000815260200160008152602001600081525090565b6040518060a0016040528060008152602001606081526020016060815260200160008152602001606081525090565b8280548282559060005260206000209081019282156152ff579160200282015b828111156152fe5782518260006101000a81548173ffffffffffffffffffffffffffffffffffffffff021916908373ffffffffffffffffffffffffffffffffffffffff160217905550916020019190600101906152a6565b5b50905061530c91906153d2565b5090565b82805482825590600052602060002090810192821561535f579160200282015b8281111561535e57825182908051906020019061534e929190615413565b5091602001919060010190615330565b5b50905061536c9190615460565b5090565b6040518060c00160405280600073ffffffffffffffffffffffffffffffffffffffff168152602001600073ffffffffffffffffffffffffffffffffffffffff168152602001606081526020016060815260200160008152602001600081525090565b5b808211156153eb5760008160009055506001016153d3565b5090565b5b8082111561540f57600081816154069190615484565b506001016153f0565b5090565b82805482825590600052602060002090810192821561544f579160200282015b8281111561544e578251825591602001919060010190615433565b5b50905061545c91906153d2565b5090565b5b80821115615480576000818161547791906154c4565b50600101615461565b5090565b508054615490906169c6565b6000825580601f106154a257506154c1565b601f0160209004906000526020600020908101906154c091906153d2565b5b50565b50805460008255906000526020600020908101906154e291906153d2565b50565b6000604051905090565b600080fd5b600080fd5b60007fffffffff0000000000000000000000000000000000000000000000000000000082169050919050565b61552e816154f9565b811461553957600080fd5b50565b60008135905061554b81615525565b92915050565b600060208284031215615567576155666154ef565b5b60006155758482850161553c565b91505092915050565b60008115159050919050565b6155938161557e565b82525050565b60006020820190506155ae600083018461558a565b92915050565b6000819050919050565b6155c7816155b4565b81146155d257600080fd5b50565b6000813590506155e4816155be565b92915050565b600060208284031215615600576155ff6154ef565b5b600061560e848285016155d5565b91505092915050565b600081519050919050565b600082825260208201905092915050565b6000819050602082019050919050565b600073ffffffffffffffffffffffffffffffffffffffff82169050919050565b600061566e82615643565b9050919050565b61567e81615663565b82525050565b600081519050919050565b600082825260208201905092915050565b6000819050602082019050919050565b60006156bc8383615675565b60208301905092915050565b6000602082019050919050565b60006156e082615684565b6156ea818561568f565b93506156f5836156a0565b8060005b8381101561572657815161570d88826156b0565b9750615718836156c8565b9250506001810190506156f9565b5085935050505092915050565b600081519050919050565b600082825260208201905092915050565b6000819050602082019050919050565b600081519050919050565b600082825260208201905092915050565b6000819050602082019050919050565b6000819050919050565b61579e8161578b565b82525050565b60006157b08383615795565b60208301905092915050565b6000602082019050919050565b60006157d48261575f565b6157de818561576a565b93506157e98361577b565b8060005b8381101561581a57815161580188826157a4565b975061580c836157bc565b9250506001810190506157ed565b5085935050505092915050565b600061583383836157c9565b905092915050565b6000602082019050919050565b600061585382615733565b61585d818561573e565b93508360208202850161586f8561574f565b8060005b858110156158ab578484038952815161588c8582615827565b94506158978361583b565b925060208a01995050600181019050615873565b50829750879550505050505092915050565b600081519050919050565b600082825260208201905092915050565b6000819050602082019050919050565b600081519050919050565b600082825260208201905092915050565b60005b83811015615923578082015181840152602081019050615908565b83811115615932576000848401525b50505050565b6000601f19601f8301169050919050565b6000615954826158e9565b61595e81856158f4565b935061596e818560208601615905565b61597781615938565b840191505092915050565b600061598e8383615949565b905092915050565b6000602082019050919050565b60006159ae826158bd565b6159b881856158c8565b9350836020820285016159ca856158d9565b8060005b85811015615a0657848403895281516159e78582615982565b94506159f283615996565b925060208a019950506001810190506159ce565b50829750879550505050505092915050565b600060a083016000830151615a306000860182615675565b5060208301518482036020860152615a4882826156d5565b91505060408301518482036040860152615a628282615848565b91505060608301518482036060860152615a7c82826159a3565b9150506080830151615a916080860182615795565b508091505092915050565b6000615aa88383615a18565b905092915050565b6000602082019050919050565b6000615ac882615617565b615ad28185615622565b935083602082028501615ae485615633565b8060005b85811015615b205784840389528151615b018582615a9c565b9450615b0c83615ab0565b925060208a01995050600181019050615ae8565b50829750879550505050505092915050565b60006020820190508181036000830152615b4c8184615abd565b905092915050565b615b5d8161578b565b8114615b6857600080fd5b50565b600081359050615b7a81615b54565b92915050565b600060208284031215615b9657615b956154ef565b5b6000615ba484828501615b6b565b91505092915050565b615bb681615663565b8114615bc157600080fd5b50565b600081359050615bd381615bad565b92915050565b600060208284031215615bef57615bee6154ef565b5b6000615bfd84828501615bc4565b91505092915050565b615c0f81615663565b82525050565b6000602082019050615c2a6000830184615c06565b92915050565b60008060408385031215615c4757615c466154ef565b5b6000615c55858286016155d5565b9250506020615c6685828601615b6b565b9150509250929050565b600080fd5b600080fd5b7f4e487b7100000000000000000000000000000000000000000000000000000000600052604160045260246000fd5b615cb282615938565b810181811067ffffffffffffffff82111715615cd157615cd0615c7a565b5b80604052505050565b6000615ce46154e5565b9050615cf08282615ca9565b919050565b600067ffffffffffffffff821115615d1057615d0f615c7a565b5b615d1982615938565b9050602081019050919050565b82818337600083830152505050565b6000615d48615d4384615cf5565b615cda565b905082815260208101848484011115615d6457615d63615c75565b5b615d6f848285615d26565b509392505050565b600082601f830112615d8c57615d8b615c70565b5b8135615d9c848260208601615d35565b91505092915050565b600067ffffffffffffffff821115615dc057615dbf615c7a565b5b602082029050602081019050919050565b600080fd5b6000615de9615de484615da5565b615cda565b90508083825260208201905060208402830185811115615e0c57615e0b615dd1565b5b835b81811015615e5357803567ffffffffffffffff811115615e3157615e30615c70565b5b808601615e3e8982615d77565b85526020850194505050602081019050615e0e565b5050509392505050565b600082601f830112615e7257615e71615c70565b5b8135615e82848260208601615dd6565b91505092915050565b600080600060608486031215615ea457615ea36154ef565b5b600084013567ffffffffffffffff811115615ec257615ec16154f4565b5b615ece86828701615d77565b935050602084013567ffffffffffffffff811115615eef57615eee6154f4565b5b615efb86828701615e5d565b925050604084013567ffffffffffffffff811115615f1c57615f1b6154f4565b5b615f2886828701615e5d565b9150509250925092565b6000819050919050565b615f4581615f32565b8114615f5057600080fd5b50565b600081359050615f6281615f3c565b92915050565b600060208284031215615f7e57615f7d6154ef565b5b6000615f8c84828501615f53565b91505092915050565b615f9e81615f32565b82525050565b6000602082019050615fb96000830184615f95565b92915050565b60008060408385031215615fd657615fd56154ef565b5b6000615fe485828601615f53565b9250506020615ff585828601615bc4565b9150509250929050565b600082825260208201905092915050565b600061601b826158e9565b6160258185615fff565b9350616035818560208601615905565b61603e81615938565b840191505092915050565b600060208201905081810360008301526160638184616010565b905092915050565b600081519050919050565b600082825260208201905092915050565b6000819050602082019050919050565b6160a0816155b4565b82525050565b6080820160008201516160bc6000850182616097565b5060208201516160cf6020850182615795565b5060408201516160e26040850182615795565b5060608201516160f56060850182615795565b50505050565b600061610783836160a6565b60808301905092915050565b6000602082019050919050565b600061612b8261606b565b6161358185616076565b935061614083616087565b8060005b8381101561617157815161615888826160fb565b975061616383616113565b925050600181019050616144565b5085935050505092915050565b600060208201905081810360008301526161988184616120565b905092915050565b600082825260208201905092915050565b60006161bc826158bd565b6161c681856161a0565b9350836020820285016161d8856158d9565b8060005b8581101561621457848403895281516161f58582615982565b945061620083615996565b925060208a019950506001810190506161dc565b50829750879550505050505092915050565b6000602082019050818103600083015261624081846161b1565b905092915050565b6162518161557e565b811461625c57600080fd5b50565b60008135905061626e81616248565b92915050565b6000806040838503121561628b5761628a6154ef565b5b6000616299858286016155d5565b92505060206162aa8582860161625f565b9150509250929050565b6162bd8161578b565b82525050565b60006020820190506162d860008301846162b4565b92915050565b600081519050919050565b600082825260208201905092915050565b6000819050602082019050919050565b600060a08301600083015184820360008601526163278282615949565b9150506020830151848203602086015261634182826159a3565b9150506040830151848203604086015261635b82826159a3565b91505060608301516163706060860182615675565b5060808301516163836080860182616097565b508091505092915050565b600061639a838361630a565b905092915050565b6000602082019050919050565b60006163ba826162de565b6163c481856162e9565b9350836020820285016163d6856162fa565b8060005b8581101561641257848403895281516163f3858261638e565b94506163fe836163a2565b925060208a019950506001810190506163da565b50829750879550505050505092915050565b600060a08301600083015161643c6000860182616097565b506020830151848203602086015261645482826163af565b9150506040830151848203604086015261646e82826156d5565b91505060608301516164836060860182615795565b506080830151848203608086015261649b82826159a3565b9150508091505092915050565b600060208201905081810360008301526164c28184616424565b905092915050565b600082825260208201905092915050565b60006164e682615684565b6164f081856164ca565b93506164fb836156a0565b8060005b8381101561652c57815161651388826156b0565b975061651e836156c8565b9250506001810190506164ff565b5085935050505092915050565b6000602082019050818103600083015261655381846164db565b905092915050565b616564816155b4565b82525050565b600060208201905061657f600083018461655b565b92915050565b60006020828403121561659b5761659a6154ef565b5b600082013567ffffffffffffffff8111156165b9576165b86154f4565b5b6165c584828501615e5d565b91505092915050565b600060608201905081810360008301526165e88186616010565b90506165f76020830185615c06565b616604604083018461655b565b949350505050565b60006040820190506166216000830185615c06565b61662e60208301846162b4565b9392505050565b600067ffffffffffffffff8211156166505761664f615c7a565b5b602082029050602081019050919050565b600061667461666f84616635565b615cda565b9050808382526020820190506020840283018581111561669757616696615dd1565b5b835b818110156166c057806166ac8882615bc4565b845260208401935050602081019050616699565b5050509392505050565b600082601f8301126166df576166de615c70565b5b81356166ef848260208601616661565b91505092915050565b600067ffffffffffffffff82111561671357616712615c7a565b5b602082029050602081019050919050565b600067ffffffffffffffff82111561673f5761673e615c7a565b5b602082029050602081019050919050565b600061676361675e84616724565b615cda565b9050808382526020820190506020840283018581111561678657616785615dd1565b5b835b818110156167af578061679b8882615b6b565b845260208401935050602081019050616788565b5050509392505050565b600082601f8301126167ce576167cd615c70565b5b81356167de848260208601616750565b91505092915050565b60006167fa6167f5846166f8565b615cda565b9050808382526020820190506020840283018581111561681d5761681c615dd1565b5b835b8181101561686457803567ffffffffffffffff81111561684257616841615c70565b5b80860161684f89826167b9565b8552602085019450505060208101905061681f565b5050509392505050565b600082601f83011261688357616882615c70565b5b81356168938482602086016167e7565b91505092915050565b600080600080608085870312156168b6576168b56154ef565b5b60006168c4878288016155d5565b945050602085013567ffffffffffffffff8111156168e5576168e46154f4565b5b6168f1878288016166ca565b935050604085013567ffffffffffffffff811115616912576169116154f4565b5b61691e8782880161686e565b925050606085013567ffffffffffffffff81111561693f5761693e6154f4565b5b61694b87828801615e5d565b91505092959194509250565b6000806040838503121561696e5761696d6154ef565b5b600061697c85828601615b6b565b925050602061698d85828601615b6b565b9150509250929050565b7f4e487b7100000000000000000000000000000000000000000000000000000000600052602260045260246000fd5b600060028204905060018216806169de57607f821691505b602082108114156169f2576169f1616997565b5b50919050565b7f43616c6c6572206973206e6f74206120706f6c6c2061646d696e000000000000600082015250565b6000616a2e601a83615fff565b9150616a39826169f8565b602082019050919050565b60006020820190508181036000830152616a5d81616a21565b9050919050565b7f4e487b7100000000000000000000000000000000000000000000000000000000600052603260045260246000fd5b7f4e487b7100000000000000000000000000000000000000000000000000000000600052601160045260246000fd5b6000616acd8261578b565b91507fffffffffffffffffffffffffffffffffffffffffffffffffffffffffffffffff821415616b0057616aff616a93565b5b600182019050919050565b7f416363657373436f6e74726f6c3a2063616e206f6e6c792072656e6f756e636560008201527f20726f6c657320666f722073656c660000000000000000000000000000000000602082015250565b6000616b67602f83615fff565b9150616b7282616b0b565b604082019050919050565b60006020820190508181036000830152616b9681616b5a565b9050919050565b600081519050616bac81615b54565b92915050565b600060208284031215616bc857616bc76154ef565b5b6000616bd684828501616b9d565b91505092915050565b6000604082019050616bf4600083018561655b565b616c01602083018461558a565b9392505050565b7f5265656e7472616e637947756172643a207265656e7472616e742063616c6c00600082015250565b6000616c3e601f83615fff565b9150616c4982616c08565b602082019050919050565b60006020820190508181036000830152616c6d81616c31565b9050919050565b7f566f74696e67206973206e6f7420656e61626c6564207269676874206e6f772e60008201527f20436f6e74616374207468652061646d696e20746f20737461727420766f746960208201527f6e672e0000000000000000000000000000000000000000000000000000000000604082015250565b6000616cf6604383615fff565b9150616d0182616c74565b606082019050919050565b60006020820190508181036000830152616d2581616ce9565b9050919050565b7f596f7520617265206e6f7420656c696769626c6520746f20766f74652e000000600082015250565b6000616d62601d83615fff565b9150616d6d82616d2c565b602082019050919050565b60006020820190508181036000830152616d9181616d55565b9050919050565b7f43616e64696461746573206d757374206e6f7420626520656d7074792e000000600082015250565b6000616dce601d83615fff565b9150616dd982616d98565b602082019050919050565b60006020820190508181036000830152616dfd81616dc1565b9050919050565b7f546865206e756d626572206f6620706f696e7473206973206e6f742076616c6960008201527f642e000000000000000000000000000000000000000000000000000000000000602082015250565b6000616e60602283615fff565b9150616e6b82616e04565b604082019050919050565b60006020820190508181036000830152616e8f81616e53565b9050919050565b7f5468652063616e646964617465206973206e6f7420696e20746865206375727260008201527f656e7420706f6c6c2e0000000000000000000000000000000000000000000000602082015250565b6000616ef2602983615fff565b9150616efd82616e96565b604082019050919050565b60006020820190508181036000830152616f2181616ee5565b9050919050565b7f54686520706f696e747320617265206e6f742076616c69642e202830203c3d2060008201527f706f696e74732900000000000000000000000000000000000000000000000000602082015250565b6000616f84602783615fff565b9150616f8f82616f28565b604082019050919050565b60006020820190508181036000830152616fb381616f77565b9050919050565b7f54686520706f696e747320617265206e6f742076616c69642e2028706f696e7460008201527f73203c20564f54455f4d41585f504f494e542900000000000000000000000000602082015250565b6000617016603383615fff565b915061702182616fba565b604082019050919050565b6000602082019050818103600083015261704581617009565b9050919050565b7f4f776e61626c653a206e6577206f776e657220697320746865207a65726f206160008201527f6464726573730000000000000000000000000000000000000000000000000000602082015250565b60006170a8602683615fff565b91506170b38261704c565b604082019050919050565b600060208201905081810360008301526170d78161709b565b9050919050565b7f4f776e61626c653a2063616c6c6572206973206e6f7420746865206f776e6572600082015250565b6000617114602083615fff565b915061711f826170de565b602082019050919050565b6000602082019050818103600083015261714381617107565b9050919050565b7f5061757361626c653a2070617573656400000000000000000000000000000000600082015250565b6000617180601083615fff565b915061718b8261714a565b602082019050919050565b600060208201905081810360008301526171af81617173565b9050919050565b60006171c18261578b565b91506171cc8361578b565b9250827fffffffffffffffffffffffffffffffffffffffffffffffffffffffffffffffff0382111561720157617200616a93565b5b828201905092915050565b60008190508160005260206000209050919050565b6000815461722e816169c6565b6172388186615fff565b94506001821660008114617253576001811461726557617298565b60ff1983168652602086019350617298565b61726e8561720c565b60005b8381101561729057815481890152600182019150602081019050617271565b808801955050505b50505092915050565b600060c08301600083015184820360008601526172be8282615949565b91505060208301516172d36020860182615795565b50604083015184820360408601526172eb82826159a3565b91505060608301516173006060860182615795565b5060808301516173136080860182615675565b5060a083015161732660a0860182616097565b508091505092915050565b6000606082019050818103600083015261734b8186617221565b9050818103602083015261735f8185617221565b9050818103604083015261737381846172a1565b9050949350505050565b600081519050919050565b600082825260208201905092915050565b6000819050602082019050919050565b600060c0830160008301516173c16000860182615675565b5060208301516173d46020860182615675565b50604083015184820360408601526173ec82826157c9565b915050606083015184820360608601526174068282615949565b915050608083015161741b6080860182615795565b5060a083015161742e60a0860182616097565b508091505092915050565b600061744583836173a9565b905092915050565b6000602082019050919050565b60006174658261737d565b61746f8185617388565b93508360208202850161748185617399565b8060005b858110156174bd578484038952815161749e8582617439565b94506174a98361744d565b925060208a01995050600181019050617485565b50829750879550505050505092915050565b600060608201905081810360008301526174e98186617221565b905081810360208301526174fd8185617221565b90508181036040830152617511818461745a565b9050949350505050565b6000617526826155b4565b91507f7fffffffffffffffffffffffffffffffffffffffffffffffffffffffffffffff82141561755957617558616a93565b5b600182019050919050565b600081905092915050565b7f416363657373436f6e74726f6c3a206163636f756e7420000000000000000000600082015250565b60006175a5601783617564565b91506175b08261756f565b601782019050919050565b60006175c6826158e9565b6175d08185617564565b93506175e0818560208601615905565b80840191505092915050565b7f206973206d697373696e6720726f6c6520000000000000000000000000000000600082015250565b6000617622601183617564565b915061762d826175ec565b601182019050919050565b600061764382617598565b915061764f82856175bb565b915061765a82617615565b915061766682846175bb565b91508190509392505050565b7f5061757361626c653a206e6f7420706175736564000000000000000000000000600082015250565b60006176a8601483615fff565b91506176b382617672565b602082019050919050565b600060208201905081810360008301526176d78161769b565b9050919050565b60006176e98261578b565b91506176f48361578b565b9250817fffffffffffffffffffffffffffffffffffffffffffffffffffffffffffffffff048311821515161561772d5761772c616a93565b5b828202905092915050565b7f4e487b7100000000000000000000000000000000000000000000000000000000600052601260045260246000fd5b60006177728261578b565b915061777d8361578b565b92508261778d5761778c617738565b5b828204905092915050565b7f646976696465206279207a65726f000000000000000000000000000000000000600082015250565b60006177ce600e83615fff565b91506177d982617798565b602082019050919050565b600060208201905081810360008301526177fd816177c1565b9050919050565b600061780f8261578b565b915061781a8361578b565b92508261782a57617829617738565b5b828206905092915050565b7f6f766572666c6f77000000000000000000000000000000000000000000000000600082015250565b600061786b600883615fff565b915061787682617835565b602082019050919050565b6000602082019050818103600083015261789a8161785e565b9050919050565b7f746f20616e6420616d6f756e74206d7573742062652073616d65206c656e677460008201527f6800000000000000000000000000000000000000000000000000000000000000602082015250565b60006178fd602183615fff565b9150617908826178a1565b604082019050919050565b6000602082019050818103600083015261792c816178f0565b9050919050565b600061793e8261578b565b9150600082141561795257617951616a93565b5b600182039050919050565b7f537472696e67733a20686578206c656e67746820696e73756666696369656e74600082015250565b6000617993602083615fff565b915061799e8261795d565b602082019050919050565b600060208201905081810360008301526179c281617986565b905091905056fea2646970667358221220734fb50ad67be24bd3829c25ae89c591dba85a7f44491799057994f129c5935564736f6c63430008090033",
  "linkReferences": {},
  "deployedLinkReferences": {}
}