{
  "_format": "hh-sol-artifact-1",
  "contractName": "DAOHistory",
  "sourceName": "contracts/DAOHistory.sol",
  "abi": [
    {
      "anonymous": false,
      "inputs": [
        {
          "indexed": true,
          "internalType": "address",
          "name": "previousOwner",
          "type": "address"
        },
        {
          "indexed": true,
          "internalType": "address",
          "name": "newOwner",
          "type": "address"
        }
      ],
      "name": "OwnershipTransferred",
      "type": "event"
    },
    {
      "anonymous": false,
      "inputs": [
        {
          "indexed": true,
          "internalType": "bytes32",
          "name": "role",
          "type": "bytes32"
        },
        {
          "indexed": true,
          "internalType": "bytes32",
          "name": "previousAdminRole",
          "type": "bytes32"
        },
        {
          "indexed": true,
          "internalType": "bytes32",
          "name": "newAdminRole",
          "type": "bytes32"
        }
      ],
      "name": "RoleAdminChanged",
      "type": "event"
    },
    {
      "anonymous": false,
      "inputs": [
        {
          "indexed": true,
          "internalType": "bytes32",
          "name": "role",
          "type": "bytes32"
        },
        {
          "indexed": true,
          "internalType": "address",
          "name": "account",
          "type": "address"
        },
        {
          "indexed": true,
          "internalType": "address",
          "name": "sender",
          "type": "address"
        }
      ],
      "name": "RoleGranted",
      "type": "event"
    },
    {
      "anonymous": false,
      "inputs": [
        {
          "indexed": true,
          "internalType": "bytes32",
          "name": "role",
          "type": "bytes32"
        },
        {
          "indexed": true,
          "internalType": "address",
          "name": "account",
          "type": "address"
        },
        {
          "indexed": true,
          "internalType": "address",
          "name": "sender",
          "type": "address"
        }
      ],
      "name": "RoleRevoked",
      "type": "event"
    },
    {
      "inputs": [],
      "name": "ADD_HISTORY_ROLE",
      "outputs": [
        {
          "internalType": "bytes32",
          "name": "",
          "type": "bytes32"
        }
      ],
      "stateMutability": "view",
      "type": "function"
    },
    {
      "inputs": [],
      "name": "DEFAULT_ADMIN_ROLE",
      "outputs": [
        {
          "internalType": "bytes32",
          "name": "",
          "type": "bytes32"
        }
      ],
      "stateMutability": "view",
      "type": "function"
    },
    {
      "inputs": [
        {
          "internalType": "string",
          "name": "daoId",
          "type": "string"
        },
        {
          "internalType": "string",
          "name": "projectId",
          "type": "string"
        },
        {
          "components": [
            {
              "internalType": "string",
              "name": "contributionText",
              "type": "string"
            },
            {
              "internalType": "uint256",
              "name": "reward",
              "type": "uint256"
            },
            {
              "internalType": "string[]",
              "name": "roles",
              "type": "string[]"
            },
            {
              "internalType": "uint256",
              "name": "timestamp",
              "type": "uint256"
            },
            {
              "internalType": "address",
              "name": "contributor",
              "type": "address"
            },
            {
              "internalType": "int256",
              "name": "pollId",
              "type": "int256"
            },
            {
              "components": [
                {
                  "internalType": "uint256[]",
                  "name": "scores",
                  "type": "uint256[]"
                },
                {
                  "internalType": "uint256",
                  "name": "perspectiveId",
                  "type": "uint256"
                }
              ],
              "internalType": "struct Score",
              "name": "score",
              "type": "tuple"
            }
          ],
          "internalType": "struct DAOHistoryItem",
          "name": "daoHistoryItem",
          "type": "tuple"
        }
      ],
      "name": "addDaoHistory",
      "outputs": [],
      "stateMutability": "nonpayable",
      "type": "function"
    },
    {
      "inputs": [
        {
          "internalType": "string",
          "name": "daoId",
          "type": "string"
        },
        {
          "internalType": "string",
          "name": "projectId",
          "type": "string"
        }
      ],
      "name": "getDaoHistory",
      "outputs": [
        {
          "components": [
            {
              "internalType": "string",
              "name": "contributionText",
              "type": "string"
            },
            {
              "internalType": "uint256",
              "name": "reward",
              "type": "uint256"
            },
            {
              "internalType": "string[]",
              "name": "roles",
              "type": "string[]"
            },
            {
              "internalType": "uint256",
              "name": "timestamp",
              "type": "uint256"
            },
            {
              "internalType": "address",
              "name": "contributor",
              "type": "address"
            },
            {
              "internalType": "int256",
              "name": "pollId",
              "type": "int256"
            },
            {
              "components": [
                {
                  "internalType": "uint256[]",
                  "name": "scores",
                  "type": "uint256[]"
                },
                {
                  "internalType": "uint256",
                  "name": "perspectiveId",
                  "type": "uint256"
                }
              ],
              "internalType": "struct Score",
              "name": "score",
              "type": "tuple"
            }
          ],
          "internalType": "struct DAOHistoryItem[]",
          "name": "",
          "type": "tuple[]"
        }
      ],
      "stateMutability": "view",
      "type": "function"
    },
    {
      "inputs": [
        {
          "internalType": "bytes32",
          "name": "role",
          "type": "bytes32"
        }
      ],
      "name": "getRoleAdmin",
      "outputs": [
        {
          "internalType": "bytes32",
          "name": "",
          "type": "bytes32"
        }
      ],
      "stateMutability": "view",
      "type": "function"
    },
    {
      "inputs": [
        {
          "internalType": "bytes32",
          "name": "role",
          "type": "bytes32"
        },
        {
          "internalType": "address",
          "name": "account",
          "type": "address"
        }
      ],
      "name": "grantRole",
      "outputs": [],
      "stateMutability": "nonpayable",
      "type": "function"
    },
    {
      "inputs": [
        {
          "internalType": "bytes32",
          "name": "role",
          "type": "bytes32"
        },
        {
          "internalType": "address",
          "name": "account",
          "type": "address"
        }
      ],
      "name": "hasRole",
      "outputs": [
        {
          "internalType": "bool",
          "name": "",
          "type": "bool"
        }
      ],
      "stateMutability": "view",
      "type": "function"
    },
    {
      "inputs": [],
      "name": "owner",
      "outputs": [
        {
          "internalType": "address",
          "name": "",
          "type": "address"
        }
      ],
      "stateMutability": "view",
      "type": "function"
    },
    {
      "inputs": [],
      "name": "renounceOwnership",
      "outputs": [],
      "stateMutability": "nonpayable",
      "type": "function"
    },
    {
      "inputs": [
        {
          "internalType": "bytes32",
          "name": "role",
          "type": "bytes32"
        },
        {
          "internalType": "address",
          "name": "account",
          "type": "address"
        }
      ],
      "name": "renounceRole",
      "outputs": [],
      "stateMutability": "nonpayable",
      "type": "function"
    },
    {
      "inputs": [
        {
          "internalType": "bytes32",
          "name": "role",
          "type": "bytes32"
        },
        {
          "internalType": "address",
          "name": "account",
          "type": "address"
        }
      ],
      "name": "revokeRole",
      "outputs": [],
      "stateMutability": "nonpayable",
      "type": "function"
    },
    {
      "inputs": [
        {
          "internalType": "address",
          "name": "contractAddress",
          "type": "address"
        }
      ],
      "name": "setupAddHistoryRole",
      "outputs": [
        {
          "internalType": "bool",
          "name": "",
          "type": "bool"
        }
      ],
      "stateMutability": "nonpayable",
      "type": "function"
    },
    {
      "inputs": [
        {
          "internalType": "bytes4",
          "name": "interfaceId",
          "type": "bytes4"
        }
      ],
      "name": "supportsInterface",
      "outputs": [
        {
          "internalType": "bool",
          "name": "",
          "type": "bool"
        }
      ],
      "stateMutability": "view",
      "type": "function"
    },
    {
      "inputs": [
        {
          "internalType": "address",
          "name": "newOwner",
          "type": "address"
        }
      ],
      "name": "transferOwnership",
      "outputs": [],
      "stateMutability": "nonpayable",
      "type": "function"
    }
  ],
  "bytecode": "0x608060405234801561001057600080fd5b5061002d61002261003260201b60201c565b61003a60201b60201c565b610100565b600033905090565b6000600160009054906101000a900473ffffffffffffffffffffffffffffffffffffffff16905081600160006101000a81548173ffffffffffffffffffffffffffffffffffffffff021916908373ffffffffffffffffffffffffffffffffffffffff1602179055508173ffffffffffffffffffffffffffffffffffffffff168173ffffffffffffffffffffffffffffffffffffffff167f8be0079c531659141344cd1fd0a4f28419497f9722a3daafe3b4186f6b6457e060405160405180910390a35050565b61247d80620001106000396000f3fe608060405234801561001057600080fd5b50600436106100ea5760003560e01c80638da5cb5b1161008c578063bc78ede211610066578063bc78ede214610237578063ce7066fc14610267578063d547741f14610297578063f2fde38b146102b3576100ea565b80638da5cb5b146101cb57806391d14854146101e9578063a217fddf14610219576100ea565b80632f2ff15d116100c85780632f2ff15d1461016d57806336568abe14610189578063510bf1df146101a5578063715018a6146101c1576100ea565b806301ffc9a7146100ef57806304258a771461011f578063248a9ca31461013d575b600080fd5b610109600480360381019061010491906112e7565b6102cf565b604051610116919061132f565b60405180910390f35b610127610349565b6040516101349190611363565b60405180910390f35b610157600480360381019061015291906113aa565b61036d565b6040516101649190611363565b60405180910390f35b61018760048036038101906101829190611435565b61038c565b005b6101a3600480360381019061019e9190611435565b6103ad565b005b6101bf60048036038101906101ba919061194e565b610430565b005b6101c96105d5565b005b6101d36105e9565b6040516101e09190611a04565b60405180910390f35b61020360048036038101906101fe9190611435565b610613565b604051610210919061132f565b60405180910390f35b61022161067d565b60405161022e9190611363565b60405180910390f35b610251600480360381019061024c9190611a1f565b610684565b60405161025e919061132f565b60405180910390f35b610281600480360381019061027c9190611a4c565b6106c1565b60405161028e9190611e93565b60405180910390f35b6102b160048036038101906102ac9190611435565b6109b0565b005b6102cd60048036038101906102c89190611a1f565b6109d1565b005b60007f7965db0b000000000000000000000000000000000000000000000000000000007bffffffffffffffffffffffffffffffffffffffffffffffffffffffff1916827bffffffffffffffffffffffffffffffffffffffffffffffffffffffff19161480610342575061034182610a55565b5b9050919050565b7f05fca76124d524bcdb2fb8974d299fae80904f4a8534dd4f993795ebeaf9530c81565b6000806000838152602001908152602001600020600101549050919050565b6103958261036d565b61039e81610abf565b6103a88383610ad3565b505050565b6103b5610bb3565b73ffffffffffffffffffffffffffffffffffffffff168173ffffffffffffffffffffffffffffffffffffffff1614610422576040517f08c379a000000000000000000000000000000000000000000000000000000000815260040161041990611f38565b60405180910390fd5b61042c8282610bbb565b5050565b61045a7f05fca76124d524bcdb2fb8974d299fae80904f4a8534dd4f993795ebeaf9530c33610613565b610499576040517f08c379a000000000000000000000000000000000000000000000000000000000815260040161049090611fa4565b60405180910390fd5b6002836040516104a99190612000565b9081526020016040518091039020826040516104c59190612000565b908152602001604051809103902081908060018154018082558091505060019003906000526020600020906008020160009091909190915060008201518160000190805190602001906105199291906110c7565b5060208201518160010155604082015181600201908051906020019061054092919061114d565b506060820151816003015560808201518160040160006101000a81548173ffffffffffffffffffffffffffffffffffffffff021916908373ffffffffffffffffffffffffffffffffffffffff16021790555060a0820151816005015560c08201518160060160008201518160000190805190602001906105c19291906111ad565b506020820151816001015550505050505050565b6105dd610c9c565b6105e76000610d1a565b565b6000600160009054906101000a900473ffffffffffffffffffffffffffffffffffffffff16905090565b600080600084815260200190815260200160002060000160008373ffffffffffffffffffffffffffffffffffffffff1673ffffffffffffffffffffffffffffffffffffffff16815260200190815260200160002060009054906101000a900460ff16905092915050565b6000801b81565b600061068e610c9c565b6106b87f05fca76124d524bcdb2fb8974d299fae80904f4a8534dd4f993795ebeaf9530c83610de0565b60019050919050565b60606002836040516106d39190612000565b9081526020016040518091039020826040516106ef9190612000565b9081526020016040518091039020805480602002602001604051908101604052809291908181526020016000905b828210156109a457838290600052602060002090600802016040518060e001604052908160008201805461075090612046565b80601f016020809104026020016040519081016040528092919081815260200182805461077c90612046565b80156107c95780601f1061079e576101008083540402835291602001916107c9565b820191906000526020600020905b8154815290600101906020018083116107ac57829003601f168201915b505050505081526020016001820154815260200160028201805480602002602001604051908101604052809291908181526020016000905b828210156108ad57838290600052602060002001805461082090612046565b80601f016020809104026020016040519081016040528092919081815260200182805461084c90612046565b80156108995780601f1061086e57610100808354040283529160200191610899565b820191906000526020600020905b81548152906001019060200180831161087c57829003601f168201915b505050505081526020019060010190610801565b505050508152602001600382015481526020016004820160009054906101000a900473ffffffffffffffffffffffffffffffffffffffff1673ffffffffffffffffffffffffffffffffffffffff1673ffffffffffffffffffffffffffffffffffffffff16815260200160058201548152602001600682016040518060400160405290816000820180548060200260200160405190810160405280929190818152602001828054801561097e57602002820191906000526020600020905b81548152602001906001019080831161096a575b50505050508152602001600182015481525050815250508152602001906001019061071d565b50505050905092915050565b6109b98261036d565b6109c281610abf565b6109cc8383610bbb565b505050565b6109d9610c9c565b600073ffffffffffffffffffffffffffffffffffffffff168173ffffffffffffffffffffffffffffffffffffffff161415610a49576040517f08c379a0000000000000000000000000000000000000000000000000000000008152600401610a40906120ea565b60405180910390fd5b610a5281610d1a565b50565b60007f01ffc9a7000000000000000000000000000000000000000000000000000000007bffffffffffffffffffffffffffffffffffffffffffffffffffffffff1916827bffffffffffffffffffffffffffffffffffffffffffffffffffffffff1916149050919050565b610ad081610acb610bb3565b610dee565b50565b610add8282610613565b610baf57600160008084815260200190815260200160002060000160008373ffffffffffffffffffffffffffffffffffffffff1673ffffffffffffffffffffffffffffffffffffffff16815260200190815260200160002060006101000a81548160ff021916908315150217905550610b54610bb3565b73ffffffffffffffffffffffffffffffffffffffff168173ffffffffffffffffffffffffffffffffffffffff16837f2f8788117e7eff1d82e926ec794901d17c78024a50270940304540a733656f0d60405160405180910390a45b5050565b600033905090565b610bc58282610613565b15610c9857600080600084815260200190815260200160002060000160008373ffffffffffffffffffffffffffffffffffffffff1673ffffffffffffffffffffffffffffffffffffffff16815260200190815260200160002060006101000a81548160ff021916908315150217905550610c3d610bb3565b73ffffffffffffffffffffffffffffffffffffffff168173ffffffffffffffffffffffffffffffffffffffff16837ff6391f5c32d9c69d2a47ea670b442974b53935d1edc7fd64eb21e047a839171b60405160405180910390a45b5050565b610ca4610bb3565b73ffffffffffffffffffffffffffffffffffffffff16610cc26105e9565b73ffffffffffffffffffffffffffffffffffffffff1614610d18576040517f08c379a0000000000000000000000000000000000000000000000000000000008152600401610d0f90612156565b60405180910390fd5b565b6000600160009054906101000a900473ffffffffffffffffffffffffffffffffffffffff16905081600160006101000a81548173ffffffffffffffffffffffffffffffffffffffff021916908373ffffffffffffffffffffffffffffffffffffffff1602179055508173ffffffffffffffffffffffffffffffffffffffff168173ffffffffffffffffffffffffffffffffffffffff167f8be0079c531659141344cd1fd0a4f28419497f9722a3daafe3b4186f6b6457e060405160405180910390a35050565b610dea8282610ad3565b5050565b610df88282610613565b610e8757610e1d8173ffffffffffffffffffffffffffffffffffffffff166014610e8b565b610e2b8360001c6020610e8b565b604051602001610e3c92919061220e565b6040516020818303038152906040526040517f08c379a0000000000000000000000000000000000000000000000000000000008152600401610e7e9190612281565b60405180910390fd5b5050565b606060006002836002610e9e91906122d2565b610ea8919061232c565b67ffffffffffffffff811115610ec157610ec0611490565b5b6040519080825280601f01601f191660200182016040528015610ef35781602001600182028036833780820191505090505b5090507f300000000000000000000000000000000000000000000000000000000000000081600081518110610f2b57610f2a612382565b5b60200101907effffffffffffffffffffffffffffffffffffffffffffffffffffffffffffff1916908160001a9053507f780000000000000000000000000000000000000000000000000000000000000081600181518110610f8f57610f8e612382565b5b60200101907effffffffffffffffffffffffffffffffffffffffffffffffffffffffffffff1916908160001a90535060006001846002610fcf91906122d2565b610fd9919061232c565b90505b6001811115611079577f3031323334353637383961626364656600000000000000000000000000000000600f86166010811061101b5761101a612382565b5b1a60f81b82828151811061103257611031612382565b5b60200101907effffffffffffffffffffffffffffffffffffffffffffffffffffffffffffff1916908160001a905350600485901c945080611072906123b1565b9050610fdc565b50600084146110bd576040517f08c379a00000000000000000000000000000000000000000000000000000000081526004016110b490612427565b60405180910390fd5b8091505092915050565b8280546110d390612046565b90600052602060002090601f0160209004810192826110f5576000855561113c565b82601f1061110e57805160ff191683800117855561113c565b8280016001018555821561113c579182015b8281111561113b578251825591602001919060010190611120565b5b50905061114991906111fa565b5090565b82805482825590600052602060002090810192821561119c579160200282015b8281111561119b57825182908051906020019061118b9291906110c7565b509160200191906001019061116d565b5b5090506111a99190611217565b5090565b8280548282559060005260206000209081019282156111e9579160200282015b828111156111e85782518255916020019190600101906111cd565b5b5090506111f691906111fa565b5090565b5b808211156112135760008160009055506001016111fb565b5090565b5b80821115611237576000818161122e919061123b565b50600101611218565b5090565b50805461124790612046565b6000825580601f106112595750611278565b601f01602090049060005260206000209081019061127791906111fa565b5b50565b6000604051905090565b600080fd5b600080fd5b60007fffffffff0000000000000000000000000000000000000000000000000000000082169050919050565b6112c48161128f565b81146112cf57600080fd5b50565b6000813590506112e1816112bb565b92915050565b6000602082840312156112fd576112fc611285565b5b600061130b848285016112d2565b91505092915050565b60008115159050919050565b61132981611314565b82525050565b60006020820190506113446000830184611320565b92915050565b6000819050919050565b61135d8161134a565b82525050565b60006020820190506113786000830184611354565b92915050565b6113878161134a565b811461139257600080fd5b50565b6000813590506113a48161137e565b92915050565b6000602082840312156113c0576113bf611285565b5b60006113ce84828501611395565b91505092915050565b600073ffffffffffffffffffffffffffffffffffffffff82169050919050565b6000611402826113d7565b9050919050565b611412816113f7565b811461141d57600080fd5b50565b60008135905061142f81611409565b92915050565b6000806040838503121561144c5761144b611285565b5b600061145a85828601611395565b925050602061146b85828601611420565b9150509250929050565b600080fd5b600080fd5b6000601f19601f8301169050919050565b7f4e487b7100000000000000000000000000000000000000000000000000000000600052604160045260246000fd5b6114c88261147f565b810181811067ffffffffffffffff821117156114e7576114e6611490565b5b80604052505050565b60006114fa61127b565b905061150682826114bf565b919050565b600067ffffffffffffffff82111561152657611525611490565b5b61152f8261147f565b9050602081019050919050565b82818337600083830152505050565b600061155e6115598461150b565b6114f0565b90508281526020810184848401111561157a5761157961147a565b5b61158584828561153c565b509392505050565b600082601f8301126115a2576115a1611475565b5b81356115b284826020860161154b565b91505092915050565b600080fd5b600080fd5b6000819050919050565b6115d8816115c5565b81146115e357600080fd5b50565b6000813590506115f5816115cf565b92915050565b600067ffffffffffffffff82111561161657611615611490565b5b602082029050602081019050919050565b600080fd5b600061163f61163a846115fb565b6114f0565b9050808382526020820190506020840283018581111561166257611661611627565b5b835b818110156116a957803567ffffffffffffffff81111561168757611686611475565b5b808601611694898261158d565b85526020850194505050602081019050611664565b5050509392505050565b600082601f8301126116c8576116c7611475565b5b81356116d884826020860161162c565b91505092915050565b6000819050919050565b6116f4816116e1565b81146116ff57600080fd5b50565b600081359050611711816116eb565b92915050565b600067ffffffffffffffff82111561173257611731611490565b5b602082029050602081019050919050565b600061175661175184611717565b6114f0565b9050808382526020820190506020840283018581111561177957611778611627565b5b835b818110156117a2578061178e88826115e6565b84526020840193505060208101905061177b565b5050509392505050565b600082601f8301126117c1576117c0611475565b5b81356117d1848260208601611743565b91505092915050565b6000604082840312156117f0576117ef6115bb565b5b6117fa60406114f0565b9050600082013567ffffffffffffffff81111561181a576118196115c0565b5b611826848285016117ac565b600083015250602061183a848285016115e6565b60208301525092915050565b600060e0828403121561185c5761185b6115bb565b5b61186660e06114f0565b9050600082013567ffffffffffffffff811115611886576118856115c0565b5b6118928482850161158d565b60008301525060206118a6848285016115e6565b602083015250604082013567ffffffffffffffff8111156118ca576118c96115c0565b5b6118d6848285016116b3565b60408301525060606118ea848285016115e6565b60608301525060806118fe84828501611420565b60808301525060a061191284828501611702565b60a08301525060c082013567ffffffffffffffff811115611936576119356115c0565b5b611942848285016117da565b60c08301525092915050565b60008060006060848603121561196757611966611285565b5b600084013567ffffffffffffffff8111156119855761198461128a565b5b6119918682870161158d565b935050602084013567ffffffffffffffff8111156119b2576119b161128a565b5b6119be8682870161158d565b925050604084013567ffffffffffffffff8111156119df576119de61128a565b5b6119eb86828701611846565b9150509250925092565b6119fe816113f7565b82525050565b6000602082019050611a1960008301846119f5565b92915050565b600060208284031215611a3557611a34611285565b5b6000611a4384828501611420565b91505092915050565b60008060408385031215611a6357611a62611285565b5b600083013567ffffffffffffffff811115611a8157611a8061128a565b5b611a8d8582860161158d565b925050602083013567ffffffffffffffff811115611aae57611aad61128a565b5b611aba8582860161158d565b9150509250929050565b600081519050919050565b600082825260208201905092915050565b6000819050602082019050919050565b600081519050919050565b600082825260208201905092915050565b60005b83811015611b2a578082015181840152602081019050611b0f565b83811115611b39576000848401525b50505050565b6000611b4a82611af0565b611b548185611afb565b9350611b64818560208601611b0c565b611b6d8161147f565b840191505092915050565b611b81816115c5565b82525050565b600081519050919050565b600082825260208201905092915050565b6000819050602082019050919050565b6000611bbf8383611b3f565b905092915050565b6000602082019050919050565b6000611bdf82611b87565b611be98185611b92565b935083602082028501611bfb85611ba3565b8060005b85811015611c375784840389528151611c188582611bb3565b9450611c2383611bc7565b925060208a01995050600181019050611bff565b50829750879550505050505092915050565b611c52816113f7565b82525050565b611c61816116e1565b82525050565b600081519050919050565b600082825260208201905092915050565b6000819050602082019050919050565b6000611c9f8383611b78565b60208301905092915050565b6000602082019050919050565b6000611cc382611c67565b611ccd8185611c72565b9350611cd883611c83565b8060005b83811015611d09578151611cf08882611c93565b9750611cfb83611cab565b925050600181019050611cdc565b5085935050505092915050565b60006040830160008301518482036000860152611d338282611cb8565b9150506020830151611d486020860182611b78565b508091505092915050565b600060e0830160008301518482036000860152611d708282611b3f565b9150506020830151611d856020860182611b78565b5060408301518482036040860152611d9d8282611bd4565b9150506060830151611db26060860182611b78565b506080830151611dc56080860182611c49565b5060a0830151611dd860a0860182611c58565b5060c083015184820360c0860152611df08282611d16565b9150508091505092915050565b6000611e098383611d53565b905092915050565b6000602082019050919050565b6000611e2982611ac4565b611e338185611acf565b935083602082028501611e4585611ae0565b8060005b85811015611e815784840389528151611e628582611dfd565b9450611e6d83611e11565b925060208a01995050600181019050611e49565b50829750879550505050505092915050565b60006020820190508181036000830152611ead8184611e1e565b905092915050565b600082825260208201905092915050565b7f416363657373436f6e74726f6c3a2063616e206f6e6c792072656e6f756e636560008201527f20726f6c657320666f722073656c660000000000000000000000000000000000602082015250565b6000611f22602f83611eb5565b9150611f2d82611ec6565b604082019050919050565b60006020820190508181036000830152611f5181611f15565b9050919050565b7f43616c6c6572206973206e6f7420612061646420686973746f727920726f6c65600082015250565b6000611f8e602083611eb5565b9150611f9982611f58565b602082019050919050565b60006020820190508181036000830152611fbd81611f81565b9050919050565b600081905092915050565b6000611fda82611af0565b611fe48185611fc4565b9350611ff4818560208601611b0c565b80840191505092915050565b600061200c8284611fcf565b915081905092915050565b7f4e487b7100000000000000000000000000000000000000000000000000000000600052602260045260246000fd5b6000600282049050600182168061205e57607f821691505b6020821081141561207257612071612017565b5b50919050565b7f4f776e61626c653a206e6577206f776e657220697320746865207a65726f206160008201527f6464726573730000000000000000000000000000000000000000000000000000602082015250565b60006120d4602683611eb5565b91506120df82612078565b604082019050919050565b60006020820190508181036000830152612103816120c7565b9050919050565b7f4f776e61626c653a2063616c6c6572206973206e6f7420746865206f776e6572600082015250565b6000612140602083611eb5565b915061214b8261210a565b602082019050919050565b6000602082019050818103600083015261216f81612133565b9050919050565b7f416363657373436f6e74726f6c3a206163636f756e7420000000000000000000600082015250565b60006121ac601783611fc4565b91506121b782612176565b601782019050919050565b7f206973206d697373696e6720726f6c6520000000000000000000000000000000600082015250565b60006121f8601183611fc4565b9150612203826121c2565b601182019050919050565b60006122198261219f565b91506122258285611fcf565b9150612230826121eb565b915061223c8284611fcf565b91508190509392505050565b600061225382611af0565b61225d8185611eb5565b935061226d818560208601611b0c565b6122768161147f565b840191505092915050565b6000602082019050818103600083015261229b8184612248565b905092915050565b7f4e487b7100000000000000000000000000000000000000000000000000000000600052601160045260246000fd5b60006122dd826115c5565b91506122e8836115c5565b9250817fffffffffffffffffffffffffffffffffffffffffffffffffffffffffffffffff0483118215151615612321576123206122a3565b5b828202905092915050565b6000612337826115c5565b9150612342836115c5565b9250827fffffffffffffffffffffffffffffffffffffffffffffffffffffffffffffffff03821115612377576123766122a3565b5b828201905092915050565b7f4e487b7100000000000000000000000000000000000000000000000000000000600052603260045260246000fd5b60006123bc826115c5565b915060008214156123d0576123cf6122a3565b5b600182039050919050565b7f537472696e67733a20686578206c656e67746820696e73756666696369656e74600082015250565b6000612411602083611eb5565b915061241c826123db565b602082019050919050565b6000602082019050818103600083015261244081612404565b905091905056fea2646970667358221220110b35e7206ea85942f1fb9a38bcfee8a3f7729b9bb6a59d3a865486871c1c5164736f6c63430008090033",
  "linkReferences": {},
  "deployedLinkReferences": {}
}