{
  "_format": "hh-sol-artifact-1",
  "contractName": "DAOHistory",
  "sourceName": "contracts/DAOHistory.sol",
  "abi": [
    {
      "anonymous": false,
      "inputs": [
        {
          "indexed": true,
          "internalType": "address",
          "name": "previousOwner",
          "type": "address"
        },
        {
          "indexed": true,
          "internalType": "address",
          "name": "newOwner",
          "type": "address"
        }
      ],
      "name": "OwnershipTransferred",
      "type": "event"
    },
    {
      "anonymous": false,
      "inputs": [
        {
          "indexed": true,
          "internalType": "bytes32",
          "name": "role",
          "type": "bytes32"
        },
        {
          "indexed": true,
          "internalType": "bytes32",
          "name": "previousAdminRole",
          "type": "bytes32"
        },
        {
          "indexed": true,
          "internalType": "bytes32",
          "name": "newAdminRole",
          "type": "bytes32"
        }
      ],
      "name": "RoleAdminChanged",
      "type": "event"
    },
    {
      "anonymous": false,
      "inputs": [
        {
          "indexed": true,
          "internalType": "bytes32",
          "name": "role",
          "type": "bytes32"
        },
        {
          "indexed": true,
          "internalType": "address",
          "name": "account",
          "type": "address"
        },
        {
          "indexed": true,
          "internalType": "address",
          "name": "sender",
          "type": "address"
        }
      ],
      "name": "RoleGranted",
      "type": "event"
    },
    {
      "anonymous": false,
      "inputs": [
        {
          "indexed": true,
          "internalType": "bytes32",
          "name": "role",
          "type": "bytes32"
        },
        {
          "indexed": true,
          "internalType": "address",
          "name": "account",
          "type": "address"
        },
        {
          "indexed": true,
          "internalType": "address",
          "name": "sender",
          "type": "address"
        }
      ],
      "name": "RoleRevoked",
      "type": "event"
    },
    {
      "inputs": [],
      "name": "ADD_HISTORY_ROLE",
      "outputs": [
        {
          "internalType": "bytes32",
          "name": "",
          "type": "bytes32"
        }
      ],
      "stateMutability": "view",
      "type": "function"
    },
    {
      "inputs": [],
      "name": "DEFAULT_ADMIN_ROLE",
      "outputs": [
        {
          "internalType": "bytes32",
          "name": "",
          "type": "bytes32"
        }
      ],
      "stateMutability": "view",
      "type": "function"
    },
    {
      "inputs": [
        {
          "internalType": "string",
          "name": "daoId",
          "type": "string"
        },
        {
          "internalType": "string",
          "name": "projectId",
          "type": "string"
        },
        {
          "components": [
            {
              "internalType": "address",
              "name": "voter",
              "type": "address"
            },
            {
              "internalType": "address",
              "name": "contributor",
              "type": "address"
            },
            {
              "internalType": "uint256[]",
              "name": "points",
              "type": "uint256[]"
            },
            {
              "internalType": "string",
              "name": "comment",
              "type": "string"
            },
            {
              "internalType": "uint256",
              "name": "perspectiveId",
              "type": "uint256"
            },
            {
              "internalType": "int256",
              "name": "pollId",
              "type": "int256"
            }
          ],
          "internalType": "struct Assessment[]",
          "name": "_assessments",
          "type": "tuple[]"
        }
      ],
      "name": "addAssessment",
      "outputs": [],
      "stateMutability": "nonpayable",
      "type": "function"
    },
    {
      "inputs": [
        {
          "internalType": "string",
          "name": "daoId",
          "type": "string"
        },
        {
          "internalType": "string",
          "name": "projectId",
          "type": "string"
        },
        {
          "internalType": "string",
          "name": "name",
          "type": "string"
        },
        {
          "internalType": "string",
          "name": "description",
          "type": "string"
        },
        {
          "internalType": "string",
          "name": "website",
          "type": "string"
        },
        {
          "internalType": "string",
          "name": "logo",
          "type": "string"
        }
      ],
      "name": "addDao",
      "outputs": [
        {
          "internalType": "address",
          "name": "",
          "type": "address"
        }
      ],
      "stateMutability": "nonpayable",
      "type": "function"
    },
    {
      "inputs": [
        {
          "internalType": "string",
          "name": "daoId",
          "type": "string"
        },
        {
          "internalType": "string",
          "name": "projectId",
          "type": "string"
        },
        {
          "components": [
            {
              "internalType": "string",
              "name": "contributionText",
              "type": "string"
            },
            {
              "internalType": "uint256",
              "name": "reward",
              "type": "uint256"
            },
            {
              "internalType": "string[]",
              "name": "roles",
              "type": "string[]"
            },
            {
              "internalType": "uint256",
              "name": "timestamp",
              "type": "uint256"
            },
            {
              "internalType": "address",
              "name": "contributor",
              "type": "address"
            },
            {
              "internalType": "int256",
              "name": "pollId",
              "type": "int256"
            },
            {
              "internalType": "string[]",
              "name": "evidences",
              "type": "string[]"
            }
          ],
          "internalType": "struct DAOHistoryItem",
          "name": "daoHistoryItem",
          "type": "tuple"
        }
      ],
      "name": "addDaoHistory",
      "outputs": [],
      "stateMutability": "nonpayable",
      "type": "function"
    },
    {
      "inputs": [
        {
          "internalType": "string",
          "name": "daoId",
          "type": "string"
        },
        {
          "internalType": "string",
          "name": "projectId",
          "type": "string"
        }
      ],
      "name": "addProject",
      "outputs": [
        {
          "internalType": "address",
          "name": "",
          "type": "address"
        }
      ],
      "stateMutability": "nonpayable",
      "type": "function"
    },
    {
      "inputs": [
        {
          "internalType": "string",
          "name": "",
          "type": "string"
        },
        {
          "internalType": "string",
          "name": "",
          "type": "string"
        },
        {
          "internalType": "uint256",
          "name": "",
          "type": "uint256"
        }
      ],
      "name": "assessments",
      "outputs": [
        {
          "internalType": "address",
          "name": "voter",
          "type": "address"
        },
        {
          "internalType": "address",
          "name": "contributor",
          "type": "address"
        },
        {
          "internalType": "string",
          "name": "comment",
          "type": "string"
        },
        {
          "internalType": "uint256",
          "name": "perspectiveId",
          "type": "uint256"
        },
        {
          "internalType": "int256",
          "name": "pollId",
          "type": "int256"
        }
      ],
      "stateMutability": "view",
      "type": "function"
    },
    {
      "inputs": [
        {
          "internalType": "string",
          "name": "",
          "type": "string"
        }
      ],
      "name": "daoInfo",
      "outputs": [
        {
          "internalType": "string",
          "name": "name",
          "type": "string"
        },
        {
          "internalType": "string",
          "name": "description",
          "type": "string"
        },
        {
          "internalType": "string",
          "name": "website",
          "type": "string"
        },
        {
          "internalType": "string",
          "name": "logo",
          "type": "string"
        }
      ],
      "stateMutability": "view",
      "type": "function"
    },
    {
      "inputs": [
        {
          "internalType": "string",
          "name": "daoId",
          "type": "string"
        },
        {
          "internalType": "string",
          "name": "projectId",
          "type": "string"
        }
      ],
      "name": "getDaoAssessments",
      "outputs": [
        {
          "components": [
            {
              "internalType": "address",
              "name": "voter",
              "type": "address"
            },
            {
              "internalType": "address",
              "name": "contributor",
              "type": "address"
            },
            {
              "internalType": "uint256[]",
              "name": "points",
              "type": "uint256[]"
            },
            {
              "internalType": "string",
              "name": "comment",
              "type": "string"
            },
            {
              "internalType": "uint256",
              "name": "perspectiveId",
              "type": "uint256"
            },
            {
              "internalType": "int256",
              "name": "pollId",
              "type": "int256"
            }
          ],
          "internalType": "struct Assessment[]",
          "name": "",
          "type": "tuple[]"
        }
      ],
      "stateMutability": "view",
      "type": "function"
    },
    {
      "inputs": [
        {
          "internalType": "string",
          "name": "daoId",
          "type": "string"
        },
        {
          "internalType": "string",
          "name": "projectId",
          "type": "string"
        }
      ],
      "name": "getDaoHistory",
      "outputs": [
        {
          "components": [
            {
              "internalType": "string",
              "name": "contributionText",
              "type": "string"
            },
            {
              "internalType": "uint256",
              "name": "reward",
              "type": "uint256"
            },
            {
              "internalType": "string[]",
              "name": "roles",
              "type": "string[]"
            },
            {
              "internalType": "uint256",
              "name": "timestamp",
              "type": "uint256"
            },
            {
              "internalType": "address",
              "name": "contributor",
              "type": "address"
            },
            {
              "internalType": "int256",
              "name": "pollId",
              "type": "int256"
            },
            {
              "internalType": "string[]",
              "name": "evidences",
              "type": "string[]"
            }
          ],
          "internalType": "struct DAOHistoryItem[]",
          "name": "",
          "type": "tuple[]"
        }
      ],
      "stateMutability": "view",
      "type": "function"
    },
    {
      "inputs": [
        {
          "internalType": "string",
          "name": "daoId",
          "type": "string"
        }
      ],
      "name": "getDaoInfo",
      "outputs": [
        {
          "components": [
            {
              "internalType": "string",
              "name": "name",
              "type": "string"
            },
            {
              "internalType": "string",
              "name": "description",
              "type": "string"
            },
            {
              "internalType": "string",
              "name": "website",
              "type": "string"
            },
            {
              "internalType": "string",
              "name": "logo",
              "type": "string"
            },
            {
              "internalType": "string[]",
              "name": "projects",
              "type": "string[]"
            }
          ],
          "internalType": "struct DAOInfo",
          "name": "",
          "type": "tuple"
        }
      ],
      "stateMutability": "view",
      "type": "function"
    },
    {
      "inputs": [
        {
          "internalType": "bytes32",
          "name": "role",
          "type": "bytes32"
        }
      ],
      "name": "getRoleAdmin",
      "outputs": [
        {
          "internalType": "bytes32",
          "name": "",
          "type": "bytes32"
        }
      ],
      "stateMutability": "view",
      "type": "function"
    },
    {
      "inputs": [
        {
          "internalType": "bytes32",
          "name": "role",
          "type": "bytes32"
        },
        {
          "internalType": "address",
          "name": "account",
          "type": "address"
        }
      ],
      "name": "grantRole",
      "outputs": [],
      "stateMutability": "nonpayable",
      "type": "function"
    },
    {
      "inputs": [
        {
          "internalType": "bytes32",
          "name": "role",
          "type": "bytes32"
        },
        {
          "internalType": "address",
          "name": "account",
          "type": "address"
        }
      ],
      "name": "hasRole",
      "outputs": [
        {
          "internalType": "bool",
          "name": "",
          "type": "bool"
        }
      ],
      "stateMutability": "view",
      "type": "function"
    },
    {
      "inputs": [
        {
          "internalType": "string",
          "name": "",
          "type": "string"
        },
        {
          "internalType": "string",
          "name": "",
          "type": "string"
        },
        {
          "internalType": "uint256",
          "name": "",
          "type": "uint256"
        }
      ],
      "name": "histories",
      "outputs": [
        {
          "internalType": "string",
          "name": "contributionText",
          "type": "string"
        },
        {
          "internalType": "uint256",
          "name": "reward",
          "type": "uint256"
        },
        {
          "internalType": "uint256",
          "name": "timestamp",
          "type": "uint256"
        },
        {
          "internalType": "address",
          "name": "contributor",
          "type": "address"
        },
        {
          "internalType": "int256",
          "name": "pollId",
          "type": "int256"
        }
      ],
      "stateMutability": "view",
      "type": "function"
    },
    {
      "inputs": [],
      "name": "owner",
      "outputs": [
        {
          "internalType": "address",
          "name": "",
          "type": "address"
        }
      ],
      "stateMutability": "view",
      "type": "function"
    },
    {
      "inputs": [
        {
          "internalType": "string",
          "name": "",
          "type": "string"
        },
        {
          "internalType": "string",
          "name": "",
          "type": "string"
        }
      ],
      "name": "pollAddress",
      "outputs": [
        {
          "internalType": "address",
          "name": "",
          "type": "address"
        }
      ],
      "stateMutability": "view",
      "type": "function"
    },
    {
      "inputs": [],
      "name": "renounceOwnership",
      "outputs": [],
      "stateMutability": "nonpayable",
      "type": "function"
    },
    {
      "inputs": [
        {
          "internalType": "bytes32",
          "name": "role",
          "type": "bytes32"
        },
        {
          "internalType": "address",
          "name": "account",
          "type": "address"
        }
      ],
      "name": "renounceRole",
      "outputs": [],
      "stateMutability": "nonpayable",
      "type": "function"
    },
    {
      "inputs": [
        {
          "internalType": "bytes32",
          "name": "role",
          "type": "bytes32"
        },
        {
          "internalType": "address",
          "name": "account",
          "type": "address"
        }
      ],
      "name": "revokeRole",
      "outputs": [],
      "stateMutability": "nonpayable",
      "type": "function"
    },
    {
      "inputs": [
        {
          "internalType": "address",
          "name": "contractAddress",
          "type": "address"
        }
      ],
      "name": "setupAddHistoryRole",
      "outputs": [
        {
          "internalType": "bool",
          "name": "",
          "type": "bool"
        }
      ],
      "stateMutability": "nonpayable",
      "type": "function"
    },
    {
      "inputs": [
        {
          "internalType": "bytes4",
          "name": "interfaceId",
          "type": "bytes4"
        }
      ],
      "name": "supportsInterface",
      "outputs": [
        {
          "internalType": "bool",
          "name": "",
          "type": "bool"
        }
      ],
      "stateMutability": "view",
      "type": "function"
    },
    {
      "inputs": [
        {
          "internalType": "address",
          "name": "newOwner",
          "type": "address"
        }
      ],
      "name": "transferOwnership",
      "outputs": [],
      "stateMutability": "nonpayable",
      "type": "function"
    }
  ],
  "bytecode": "0x60806040523480156200001157600080fd5b5062000032620000266200003860201b60201c565b6200004060201b60201c565b62000106565b600033905090565b6000600160009054906101000a900473ffffffffffffffffffffffffffffffffffffffff16905081600160006101000a81548173ffffffffffffffffffffffffffffffffffffffff021916908373ffffffffffffffffffffffffffffffffffffffff1602179055508173ffffffffffffffffffffffffffffffffffffffff168173ffffffffffffffffffffffffffffffffffffffff167f8be0079c531659141344cd1fd0a4f28419497f9722a3daafe3b4186f6b6457e060405160405180910390a35050565b61cb1480620001166000396000f3fe60806040523480156200001157600080fd5b50600436106200016c5760003560e01c806391d1485411620000d5578063ce7066fc1162000087578063ce7066fc1462000467578063d4eb7343146200049d578063d547741f14620004d3578063eb3bdcce14620004f3578063f24dc80e1462000513578063f2fde38b146200054c576200016c565b806391d148541462000333578063980c308d14620003695780639d44e3cf146200039f578063a217fddf14620003d9578063ae3eea0f14620003fb578063bc78ede21462000431576200016c565b806336568abe116200012f57806336568abe14620002595780633afaa4ab146200027957806358cede6914620002af5780635b08094014620002e5578063715018a614620003055780638da5cb5b1462000311576200016c565b806301ffc9a7146200017157806304258a7714620001a7578063248a9ca314620001c95780632ebb2b9414620001ff5780632f2ff15d1462000239575b600080fd5b6200018f60048036038101906200018991906200297e565b6200056c565b6040516200019e9190620029cd565b60405180910390f35b620001b1620005e9565b604051620001c0919062002a05565b60405180910390f35b620001e76004803603810190620001e1919062002a53565b6200060d565b604051620001f6919062002a05565b60405180910390f35b6200021d600480360381019062000217919062002c22565b6200062c565b6040516200023095949392919062002dc0565b60405180910390f35b62000257600480360381019062000251919062002e55565b62000789565b005b62000277600480360381019062000271919062002e55565b620007b0565b005b62000297600480360381019062000291919062002e9c565b6200083a565b604051620002a6919062002ff2565b60405180910390f35b620002cd6004803603810190620002c791906200300f565b62000a26565b604051620002dc91906200321e565b60405180910390f35b620003036004803603810190620002fd91906200353e565b62000dad565b005b6200030f62000fab565b005b6200031b62000fc3565b6040516200032a919062002ff2565b60405180910390f35b6200035160048036038101906200034b919062002e55565b62000fed565b604051620003609190620029cd565b60405180910390f35b620003876004803603810190620003819190620035f7565b62001057565b60405162000396919062002ff2565b60405180910390f35b620003bd6004803603810190620003b7919062002c22565b620013b4565b604051620003d09594939291906200367c565b60405180910390f35b620003e3620014f1565b604051620003f2919062002a05565b60405180910390f35b620004196004803603810190620004139190620035f7565b620014f8565b6040516200042891906200393c565b60405180910390f35b6200044f600480360381019062000449919062003960565b6200174c565b6040516200045e9190620029cd565b60405180910390f35b6200048560048036038101906200047f9190620035f7565b6200178d565b60405162000494919062003b1a565b60405180910390f35b620004bb6004803603810190620004b59190620035f7565b62001b01565b604051620004ca919062002ff2565b60405180910390f35b620004f16004803603810190620004eb919062002e55565b62001b6f565b005b6200051160048036038101906200050b919062003d59565b62001b96565b005b6200053160048036038101906200052b91906200300f565b62001d35565b60405162000543949392919062003e12565b60405180910390f35b6200056a600480360381019062000564919062003960565b62001fbb565b005b60007f7965db0b000000000000000000000000000000000000000000000000000000007bffffffffffffffffffffffffffffffffffffffffffffffffffffffff1916827bffffffffffffffffffffffffffffffffffffffffffffffffffffffff19161480620005e25750620005e18262002046565b5b9050919050565b7f05fca76124d524bcdb2fb8974d299fae80904f4a8534dd4f993795ebeaf9530c81565b6000806000838152602001908152602001600020600101549050919050565b6003838051602081018201805184825260208301602085012081835280955050505050508280516020810182018051848252602083016020850120818352809550505050505081815481106200068157600080fd5b906000526020600020906006020160009250925050508060000160009054906101000a900473ffffffffffffffffffffffffffffffffffffffff16908060010160009054906101000a900473ffffffffffffffffffffffffffffffffffffffff1690806003018054620006f49062003eaa565b80601f0160208091040260200160405190810160405280929190818152602001828054620007229062003eaa565b8015620007735780601f10620007475761010080835404028352916020019162000773565b820191906000526020600020905b8154815290600101906020018083116200075557829003601f168201915b5050505050908060040154908060050154905085565b62000794826200060d565b6200079f81620020b0565b620007ab8383620020c8565b505050565b620007ba620021ad565b73ffffffffffffffffffffffffffffffffffffffff168173ffffffffffffffffffffffffffffffffffffffff16146200082a576040517f08c379a0000000000000000000000000000000000000000000000000000000008152600401620008219062003f56565b60405180910390fd5b620008368282620021b5565b5050565b6000806005886040516200084f919062003fba565b90815260200160405180910390206004018054905014620008a7576040517f08c379a00000000000000000000000000000000000000000000000000000000081526004016200089e9062004023565b60405180910390fd5b6000600167ffffffffffffffff811115620008c757620008c662002aa0565b5b604051908082528060200260200182016040528015620008fc57816020015b6060815260200190600190039081620008e65790505b509050868160008151811062000917576200091662004045565b5b60200260200101819052506040518060a00160405280878152602001868152602001858152602001848152602001828152506005896040516200095b919062003fba565b9081526020016040518091039020600082015181600001908051906020019062000987929190620026f9565b506020820151816001019080519060200190620009a6929190620026f9565b506040820151816002019080519060200190620009c5929190620026f9565b506060820151816003019080519060200190620009e4929190620026f9565b50608082015181600401908051906020019062000a039291906200278a565b50905050600062000a15898962001057565b905080925050509695505050505050565b62000a30620027f1565b60058260405162000a42919062003fba565b90815260200160405180910390206040518060a001604052908160008201805462000a6d9062003eaa565b80601f016020809104026020016040519081016040528092919081815260200182805462000a9b9062003eaa565b801562000aec5780601f1062000ac05761010080835404028352916020019162000aec565b820191906000526020600020905b81548152906001019060200180831162000ace57829003601f168201915b5050505050815260200160018201805462000b079062003eaa565b80601f016020809104026020016040519081016040528092919081815260200182805462000b359062003eaa565b801562000b865780601f1062000b5a5761010080835404028352916020019162000b86565b820191906000526020600020905b81548152906001019060200180831162000b6857829003601f168201915b5050505050815260200160028201805462000ba19062003eaa565b80601f016020809104026020016040519081016040528092919081815260200182805462000bcf9062003eaa565b801562000c205780601f1062000bf45761010080835404028352916020019162000c20565b820191906000526020600020905b81548152906001019060200180831162000c0257829003601f168201915b5050505050815260200160038201805462000c3b9062003eaa565b80601f016020809104026020016040519081016040528092919081815260200182805462000c699062003eaa565b801562000cba5780601f1062000c8e5761010080835404028352916020019162000cba565b820191906000526020600020905b81548152906001019060200180831162000c9c57829003601f168201915b5050505050815260200160048201805480602002602001604051908101604052809291908181526020016000905b8282101562000d9e57838290600052602060002001805462000d0a9062003eaa565b80601f016020809104026020016040519081016040528092919081815260200182805462000d389062003eaa565b801562000d895780601f1062000d5d5761010080835404028352916020019162000d89565b820191906000526020600020905b81548152906001019060200180831162000d6b57829003601f168201915b50505050508152602001906001019062000ce8565b50505050815250509050919050565b62000dd97f05fca76124d524bcdb2fb8974d299fae80904f4a8534dd4f993795ebeaf9530c3362000fed565b62000e1b576040517f08c379a000000000000000000000000000000000000000000000000000000000815260040162000e1290620040ea565b60405180910390fd5b60005b815181101562000fa55760038460405162000e3a919062003fba565b90815260200160405180910390208360405162000e58919062003fba565b908152602001604051809103902082828151811062000e7c5762000e7b62004045565b5b6020026020010151908060018154018082558091505060019003906000526020600020906006020160009091909190915060008201518160000160006101000a81548173ffffffffffffffffffffffffffffffffffffffff021916908373ffffffffffffffffffffffffffffffffffffffff16021790555060208201518160010160006101000a81548173ffffffffffffffffffffffffffffffffffffffff021916908373ffffffffffffffffffffffffffffffffffffffff160217905550604082015181600201908051906020019062000f5992919062002820565b50606082015181600301908051906020019062000f78929190620026f9565b506080820151816004015560a082015181600501555050808062000f9c906200413b565b91505062000e1e565b50505050565b62000fb56200229b565b62000fc1600062002320565b565b6000600160009054906101000a900473ffffffffffffffffffffffffffffffffffffffff16905090565b600080600084815260200190815260200160002060000160008373ffffffffffffffffffffffffffffffffffffffff1673ffffffffffffffffffffffffffffffffffffffff16815260200190815260200160002060009054906101000a900460ff16905092915050565b6000806005846040516200106c919062003fba565b9081526020016040518091039020600401805490501415620010c5576040517f08c379a0000000000000000000000000000000000000000000000000000000008152600401620010bc90620041d9565b60405180910390fd5b600073ffffffffffffffffffffffffffffffffffffffff16600484604051620010ef919062003fba565b9081526020016040518091039020836040516200110d919062003fba565b908152602001604051809103902060009054906101000a900473ffffffffffffffffffffffffffffffffffffffff1673ffffffffffffffffffffffffffffffffffffffff161462001195576040517f08c379a00000000000000000000000000000000000000000000000000000000081526004016200118c9062004271565b60405180910390fd5b60008383604051620011a79062002872565b620011b492919062004293565b604051809103906000f080158015620011d1573d6000803e3d6000fd5b509050620011df816200174c565b5080600485604051620011f3919062003fba565b90815260200160405180910390208460405162001211919062003fba565b908152602001604051809103902060006101000a81548173ffffffffffffffffffffffffffffffffffffffff021916908373ffffffffffffffffffffffffffffffffffffffff1602179055508073ffffffffffffffffffffffffffffffffffffffff1663b8cb6b79306040518263ffffffff1660e01b815260040162001298919062002ff2565b600060405180830381600087803b158015620012b357600080fd5b505af1158015620012c8573d6000803e3d6000fd5b505050508073ffffffffffffffffffffffffffffffffffffffff1663fc39870b336040518263ffffffff1660e01b815260040162001307919062002ff2565b600060405180830381600087803b1580156200132257600080fd5b505af115801562001337573d6000803e3d6000fd5b505050508073ffffffffffffffffffffffffffffffffffffffff1663f2fde38b336040518263ffffffff1660e01b815260040162001376919062002ff2565b600060405180830381600087803b1580156200139157600080fd5b505af1158015620013a6573d6000803e3d6000fd5b505050508091505092915050565b6002838051602081018201805184825260208301602085012081835280955050505050508280516020810182018051848252602083016020850120818352809550505050505081815481106200140957600080fd5b90600052602060002090600702016000925092505050806000018054620014309062003eaa565b80601f01602080910402602001604051908101604052809291908181526020018280546200145e9062003eaa565b8015620014af5780601f106200148357610100808354040283529160200191620014af565b820191906000526020600020905b8154815290600101906020018083116200149157829003601f168201915b5050505050908060010154908060030154908060040160009054906101000a900473ffffffffffffffffffffffffffffffffffffffff16908060050154905085565b6000801b81565b60606003836040516200150c919062003fba565b9081526020016040518091039020826040516200152a919062003fba565b9081526020016040518091039020805480602002602001604051908101604052809291908181526020016000905b828210156200174057838290600052602060002090600602016040518060c00160405290816000820160009054906101000a900473ffffffffffffffffffffffffffffffffffffffff1673ffffffffffffffffffffffffffffffffffffffff1673ffffffffffffffffffffffffffffffffffffffff1681526020016001820160009054906101000a900473ffffffffffffffffffffffffffffffffffffffff1673ffffffffffffffffffffffffffffffffffffffff1673ffffffffffffffffffffffffffffffffffffffff168152602001600282018054806020026020016040519081016040528092919081815260200182805480156200167957602002820191906000526020600020905b81548152602001906001019080831162001664575b50505050508152602001600382018054620016949062003eaa565b80601f0160208091040260200160405190810160405280929190818152602001828054620016c29062003eaa565b8015620017135780601f10620016e75761010080835404028352916020019162001713565b820191906000526020600020905b815481529060010190602001808311620016f557829003601f168201915b50505050508152602001600482015481526020016005820154815250508152602001906001019062001558565b50505050905092915050565b6000620017586200229b565b620017847f05fca76124d524bcdb2fb8974d299fae80904f4a8534dd4f993795ebeaf9530c83620023e6565b60019050919050565b6060600283604051620017a1919062003fba565b908152602001604051809103902082604051620017bf919062003fba565b9081526020016040518091039020805480602002602001604051908101604052809291908181526020016000905b8282101562001af557838290600052602060002090600702016040518060e0016040529081600082018054620018239062003eaa565b80601f0160208091040260200160405190810160405280929190818152602001828054620018519062003eaa565b8015620018a25780601f106200187657610100808354040283529160200191620018a2565b820191906000526020600020905b8154815290600101906020018083116200188457829003601f168201915b505050505081526020016001820154815260200160028201805480602002602001604051908101604052809291908181526020016000905b8282101562001990578382906000526020600020018054620018fc9062003eaa565b80601f01602080910402602001604051908101604052809291908181526020018280546200192a9062003eaa565b80156200197b5780601f106200194f576101008083540402835291602001916200197b565b820191906000526020600020905b8154815290600101906020018083116200195d57829003601f168201915b505050505081526020019060010190620018da565b505050508152602001600382015481526020016004820160009054906101000a900473ffffffffffffffffffffffffffffffffffffffff1673ffffffffffffffffffffffffffffffffffffffff1673ffffffffffffffffffffffffffffffffffffffff1681526020016005820154815260200160068201805480602002602001604051908101604052809291908181526020016000905b8282101562001add57838290600052602060002001805462001a499062003eaa565b80601f016020809104026020016040519081016040528092919081815260200182805462001a779062003eaa565b801562001ac85780601f1062001a9c5761010080835404028352916020019162001ac8565b820191906000526020600020905b81548152906001019060200180831162001aaa57829003601f168201915b50505050508152602001906001019062001a27565b505050508152505081526020019060010190620017ed565b50505050905092915050565b600482805160208101820180518482526020830160208501208183528095505050505050818051602081018201805184825260208301602085012081835280955050505050506000915091509054906101000a900473ffffffffffffffffffffffffffffffffffffffff1681565b62001b7a826200060d565b62001b8581620020b0565b62001b918383620021b5565b505050565b62001bc27f05fca76124d524bcdb2fb8974d299fae80904f4a8534dd4f993795ebeaf9530c3362000fed565b62001c04576040517f08c379a000000000000000000000000000000000000000000000000000000000815260040162001bfb9062004344565b60405180910390fd5b60028360405162001c16919062003fba565b90815260200160405180910390208260405162001c34919062003fba565b9081526020016040518091039020819080600181540180825580915050600190039060005260206000209060070201600090919091909150600082015181600001908051906020019062001c8a929190620026f9565b5060208201518160010155604082015181600201908051906020019062001cb39291906200278a565b506060820151816003015560808201518160040160006101000a81548173ffffffffffffffffffffffffffffffffffffffff021916908373ffffffffffffffffffffffffffffffffffffffff16021790555060a0820151816005015560c082015181600601908051906020019062001d2d9291906200278a565b505050505050565b60058180516020810182018051848252602083016020850120818352809550505050505060009150905080600001805462001d709062003eaa565b80601f016020809104026020016040519081016040528092919081815260200182805462001d9e9062003eaa565b801562001def5780601f1062001dc35761010080835404028352916020019162001def565b820191906000526020600020905b81548152906001019060200180831162001dd157829003601f168201915b50505050509080600101805462001e069062003eaa565b80601f016020809104026020016040519081016040528092919081815260200182805462001e349062003eaa565b801562001e855780601f1062001e595761010080835404028352916020019162001e85565b820191906000526020600020905b81548152906001019060200180831162001e6757829003601f168201915b50505050509080600201805462001e9c9062003eaa565b80601f016020809104026020016040519081016040528092919081815260200182805462001eca9062003eaa565b801562001f1b5780601f1062001eef5761010080835404028352916020019162001f1b565b820191906000526020600020905b81548152906001019060200180831162001efd57829003601f168201915b50505050509080600301805462001f329062003eaa565b80601f016020809104026020016040519081016040528092919081815260200182805462001f609062003eaa565b801562001fb15780601f1062001f855761010080835404028352916020019162001fb1565b820191906000526020600020905b81548152906001019060200180831162001f9357829003601f168201915b5050505050905084565b62001fc56200229b565b600073ffffffffffffffffffffffffffffffffffffffff168173ffffffffffffffffffffffffffffffffffffffff16141562002038576040517f08c379a00000000000000000000000000000000000000000000000000000000081526004016200202f90620043dc565b60405180910390fd5b620020438162002320565b50565b60007f01ffc9a7000000000000000000000000000000000000000000000000000000007bffffffffffffffffffffffffffffffffffffffffffffffffffffffff1916827bffffffffffffffffffffffffffffffffffffffffffffffffffffffff1916149050919050565b620020c581620020bf620021ad565b620023f6565b50565b620020d4828262000fed565b620021a957600160008084815260200190815260200160002060000160008373ffffffffffffffffffffffffffffffffffffffff1673ffffffffffffffffffffffffffffffffffffffff16815260200190815260200160002060006101000a81548160ff0219169083151502179055506200214e620021ad565b73ffffffffffffffffffffffffffffffffffffffff168173ffffffffffffffffffffffffffffffffffffffff16837f2f8788117e7eff1d82e926ec794901d17c78024a50270940304540a733656f0d60405160405180910390a45b5050565b600033905090565b620021c1828262000fed565b156200229757600080600084815260200190815260200160002060000160008373ffffffffffffffffffffffffffffffffffffffff1673ffffffffffffffffffffffffffffffffffffffff16815260200190815260200160002060006101000a81548160ff0219169083151502179055506200223c620021ad565b73ffffffffffffffffffffffffffffffffffffffff168173ffffffffffffffffffffffffffffffffffffffff16837ff6391f5c32d9c69d2a47ea670b442974b53935d1edc7fd64eb21e047a839171b60405160405180910390a45b5050565b620022a5620021ad565b73ffffffffffffffffffffffffffffffffffffffff16620022c562000fc3565b73ffffffffffffffffffffffffffffffffffffffff16146200231e576040517f08c379a000000000000000000000000000000000000000000000000000000000815260040162002315906200444e565b60405180910390fd5b565b6000600160009054906101000a900473ffffffffffffffffffffffffffffffffffffffff16905081600160006101000a81548173ffffffffffffffffffffffffffffffffffffffff021916908373ffffffffffffffffffffffffffffffffffffffff1602179055508173ffffffffffffffffffffffffffffffffffffffff168173ffffffffffffffffffffffffffffffffffffffff167f8be0079c531659141344cd1fd0a4f28419497f9722a3daafe3b4186f6b6457e060405160405180910390a35050565b620023f28282620020c8565b5050565b62002402828262000fed565b6200249a576200242a8173ffffffffffffffffffffffffffffffffffffffff1660146200249e565b6200243a8360001c60206200249e565b6040516020016200244d92919062004510565b6040516020818303038152906040526040517f08c379a000000000000000000000000000000000000000000000000000000000815260040162002491919062004552565b60405180910390fd5b5050565b606060006002836002620024b3919062004576565b620024bf9190620045d7565b67ffffffffffffffff811115620024db57620024da62002aa0565b5b6040519080825280601f01601f1916602001820160405280156200250e5781602001600182028036833780820191505090505b5090507f30000000000000000000000000000000000000000000000000000000000000008160008151811062002549576200254862004045565b5b60200101907effffffffffffffffffffffffffffffffffffffffffffffffffffffffffffff1916908160001a9053507f780000000000000000000000000000000000000000000000000000000000000081600181518110620025b057620025af62004045565b5b60200101907effffffffffffffffffffffffffffffffffffffffffffffffffffffffffffff1916908160001a90535060006001846002620025f2919062004576565b620025fe9190620045d7565b90505b6001811115620026a8577f3031323334353637383961626364656600000000000000000000000000000000600f86166010811062002644576200264362004045565b5b1a60f81b8282815181106200265e576200265d62004045565b5b60200101907effffffffffffffffffffffffffffffffffffffffffffffffffffffffffffff1916908160001a905350600485901c945080620026a09062004634565b905062002601565b5060008414620026ef576040517f08c379a0000000000000000000000000000000000000000000000000000000008152600401620026e690620046b3565b60405180910390fd5b8091505092915050565b828054620027079062003eaa565b90600052602060002090601f0160209004810192826200272b576000855562002777565b82601f106200274657805160ff191683800117855562002777565b8280016001018555821562002777579182015b828111156200277657825182559160200191906001019062002759565b5b50905062002786919062002880565b5090565b828054828255906000526020600020908101928215620027de579160200282015b82811115620027dd578251829080519060200190620027cc929190620026f9565b5091602001919060010190620027ab565b5b509050620027ed91906200289f565b5090565b6040518060a0016040528060608152602001606081526020016060815260200160608152602001606081525090565b8280548282559060005260206000209081019282156200285f579160200282015b828111156200285e57825182559160200191906001019062002841565b5b5090506200286e919062002880565b5090565b61840980620046d683390190565b5b808211156200289b57600081600090555060010162002881565b5090565b5b80821115620028c35760008181620028b99190620028c7565b50600101620028a0565b5090565b508054620028d59062003eaa565b6000825580601f10620028e957506200290a565b601f01602090049060005260206000209081019062002909919062002880565b5b50565b6000604051905090565b600080fd5b600080fd5b60007fffffffff0000000000000000000000000000000000000000000000000000000082169050919050565b620029588162002921565b81146200296457600080fd5b50565b60008135905062002978816200294d565b92915050565b60006020828403121562002997576200299662002917565b5b6000620029a78482850162002967565b91505092915050565b60008115159050919050565b620029c781620029b0565b82525050565b6000602082019050620029e46000830184620029bc565b92915050565b6000819050919050565b620029ff81620029ea565b82525050565b600060208201905062002a1c6000830184620029f4565b92915050565b62002a2d81620029ea565b811462002a3957600080fd5b50565b60008135905062002a4d8162002a22565b92915050565b60006020828403121562002a6c5762002a6b62002917565b5b600062002a7c8482850162002a3c565b91505092915050565b600080fd5b600080fd5b6000601f19601f8301169050919050565b7f4e487b7100000000000000000000000000000000000000000000000000000000600052604160045260246000fd5b62002ada8262002a8f565b810181811067ffffffffffffffff8211171562002afc5762002afb62002aa0565b5b80604052505050565b600062002b116200290d565b905062002b1f828262002acf565b919050565b600067ffffffffffffffff82111562002b425762002b4162002aa0565b5b62002b4d8262002a8f565b9050602081019050919050565b82818337600083830152505050565b600062002b8062002b7a8462002b24565b62002b05565b90508281526020810184848401111562002b9f5762002b9e62002a8a565b5b62002bac84828562002b5a565b509392505050565b600082601f83011262002bcc5762002bcb62002a85565b5b813562002bde84826020860162002b69565b91505092915050565b6000819050919050565b62002bfc8162002be7565b811462002c0857600080fd5b50565b60008135905062002c1c8162002bf1565b92915050565b60008060006060848603121562002c3e5762002c3d62002917565b5b600084013567ffffffffffffffff81111562002c5f5762002c5e6200291c565b5b62002c6d8682870162002bb4565b935050602084013567ffffffffffffffff81111562002c915762002c906200291c565b5b62002c9f8682870162002bb4565b925050604062002cb28682870162002c0b565b9150509250925092565b600073ffffffffffffffffffffffffffffffffffffffff82169050919050565b600062002ce98262002cbc565b9050919050565b62002cfb8162002cdc565b82525050565b600081519050919050565b600082825260208201905092915050565b60005b8381101562002d3d57808201518184015260208101905062002d20565b8381111562002d4d576000848401525b50505050565b600062002d608262002d01565b62002d6c818562002d0c565b935062002d7e81856020860162002d1d565b62002d898162002a8f565b840191505092915050565b62002d9f8162002be7565b82525050565b6000819050919050565b62002dba8162002da5565b82525050565b600060a08201905062002dd7600083018862002cf0565b62002de6602083018762002cf0565b818103604083015262002dfa818662002d53565b905062002e0b606083018562002d94565b62002e1a608083018462002daf565b9695505050505050565b62002e2f8162002cdc565b811462002e3b57600080fd5b50565b60008135905062002e4f8162002e24565b92915050565b6000806040838503121562002e6f5762002e6e62002917565b5b600062002e7f8582860162002a3c565b925050602062002e928582860162002e3e565b9150509250929050565b60008060008060008060c0878903121562002ebc5762002ebb62002917565b5b600087013567ffffffffffffffff81111562002edd5762002edc6200291c565b5b62002eeb89828a0162002bb4565b965050602087013567ffffffffffffffff81111562002f0f5762002f0e6200291c565b5b62002f1d89828a0162002bb4565b955050604087013567ffffffffffffffff81111562002f415762002f406200291c565b5b62002f4f89828a0162002bb4565b945050606087013567ffffffffffffffff81111562002f735762002f726200291c565b5b62002f8189828a0162002bb4565b935050608087013567ffffffffffffffff81111562002fa55762002fa46200291c565b5b62002fb389828a0162002bb4565b92505060a087013567ffffffffffffffff81111562002fd75762002fd66200291c565b5b62002fe589828a0162002bb4565b9150509295509295509295565b600060208201905062003009600083018462002cf0565b92915050565b60006020828403121562003028576200302762002917565b5b600082013567ffffffffffffffff8111156200304957620030486200291c565b5b620030578482850162002bb4565b91505092915050565b600082825260208201905092915050565b60006200307e8262002d01565b6200308a818562003060565b93506200309c81856020860162002d1d565b620030a78162002a8f565b840191505092915050565b600081519050919050565b600082825260208201905092915050565b6000819050602082019050919050565b6000620030ec838362003071565b905092915050565b6000602082019050919050565b60006200310e82620030b2565b6200311a8185620030bd565b9350836020820285016200312e85620030ce565b8060005b858110156200317057848403895281516200314e8582620030de565b94506200315b83620030f4565b925060208a0199505060018101905062003132565b50829750879550505050505092915050565b600060a0830160008301518482036000860152620031a1828262003071565b91505060208301518482036020860152620031bd828262003071565b91505060408301518482036040860152620031d9828262003071565b91505060608301518482036060860152620031f5828262003071565b9150506080830151848203608086015262003211828262003101565b9150508091505092915050565b600060208201905081810360008301526200323a818462003182565b905092915050565b600067ffffffffffffffff82111562003260576200325f62002aa0565b5b602082029050602081019050919050565b600080fd5b600080fd5b600080fd5b600067ffffffffffffffff8211156200329e576200329d62002aa0565b5b602082029050602081019050919050565b6000620032c6620032c08462003280565b62002b05565b90508083825260208201905060208402830185811115620032ec57620032eb62003271565b5b835b8181101562003319578062003304888262002c0b565b845260208401935050602081019050620032ee565b5050509392505050565b600082601f8301126200333b576200333a62002a85565b5b81356200334d848260208601620032af565b91505092915050565b620033618162002da5565b81146200336d57600080fd5b50565b600081359050620033818162003356565b92915050565b600060c08284031215620033a0576200339f62003276565b5b620033ac60c062002b05565b90506000620033be8482850162002e3e565b6000830152506020620033d48482850162002e3e565b602083015250604082013567ffffffffffffffff811115620033fb57620033fa6200327b565b5b620034098482850162003323565b604083015250606082013567ffffffffffffffff81111562003430576200342f6200327b565b5b6200343e8482850162002bb4565b6060830152506080620034548482850162002c0b565b60808301525060a06200346a8482850162003370565b60a08301525092915050565b60006200348d620034878462003242565b62002b05565b90508083825260208201905060208402830185811115620034b357620034b262003271565b5b835b818110156200350157803567ffffffffffffffff811115620034dc57620034db62002a85565b5b808601620034eb898262003387565b85526020850194505050602081019050620034b5565b5050509392505050565b600082601f83011262003523576200352262002a85565b5b81356200353584826020860162003476565b91505092915050565b6000806000606084860312156200355a576200355962002917565b5b600084013567ffffffffffffffff8111156200357b576200357a6200291c565b5b620035898682870162002bb4565b935050602084013567ffffffffffffffff811115620035ad57620035ac6200291c565b5b620035bb8682870162002bb4565b925050604084013567ffffffffffffffff811115620035df57620035de6200291c565b5b620035ed868287016200350b565b9150509250925092565b6000806040838503121562003611576200361062002917565b5b600083013567ffffffffffffffff8111156200363257620036316200291c565b5b620036408582860162002bb4565b925050602083013567ffffffffffffffff8111156200366457620036636200291c565b5b620036728582860162002bb4565b9150509250929050565b600060a082019050818103600083015262003698818862002d53565b9050620036a9602083018762002d94565b620036b8604083018662002d94565b620036c7606083018562002cf0565b620036d6608083018462002daf565b9695505050505050565b600081519050919050565b600082825260208201905092915050565b6000819050602082019050919050565b620037178162002cdc565b82525050565b600081519050919050565b600082825260208201905092915050565b6000819050602082019050919050565b620037548162002be7565b82525050565b600062003768838362003749565b60208301905092915050565b6000602082019050919050565b60006200378e826200371d565b6200379a818562003728565b9350620037a78362003739565b8060005b83811015620037de578151620037c288826200375a565b9750620037cf8362003774565b925050600181019050620037ab565b5085935050505092915050565b620037f68162002da5565b82525050565b600060c0830160008301516200381660008601826200370c565b5060208301516200382b60208601826200370c565b506040830151848203604086015262003845828262003781565b9150506060830151848203606086015262003861828262003071565b915050608083015162003878608086018262003749565b5060a08301516200388d60a0860182620037eb565b508091505092915050565b6000620038a68383620037fc565b905092915050565b6000602082019050919050565b6000620038c882620036e0565b620038d48185620036eb565b935083602082028501620038e885620036fc565b8060005b858110156200392a578484038952815162003908858262003898565b94506200391583620038ae565b925060208a01995050600181019050620038ec565b50829750879550505050505092915050565b60006020820190508181036000830152620039588184620038bb565b905092915050565b60006020828403121562003979576200397862002917565b5b6000620039898482850162002e3e565b91505092915050565b600081519050919050565b600082825260208201905092915050565b6000819050602082019050919050565b600060e0830160008301518482036000860152620039dd828262003071565b9150506020830151620039f4602086018262003749565b506040830151848203604086015262003a0e828262003101565b915050606083015162003a25606086018262003749565b50608083015162003a3a60808601826200370c565b5060a083015162003a4f60a0860182620037eb565b5060c083015184820360c086015262003a69828262003101565b9150508091505092915050565b600062003a848383620039be565b905092915050565b6000602082019050919050565b600062003aa68262003992565b62003ab281856200399d565b93508360208202850162003ac685620039ae565b8060005b8581101562003b08578484038952815162003ae6858262003a76565b945062003af38362003a8c565b925060208a0199505060018101905062003aca565b50829750879550505050505092915050565b6000602082019050818103600083015262003b36818462003a99565b905092915050565b600067ffffffffffffffff82111562003b5c5762003b5b62002aa0565b5b602082029050602081019050919050565b600062003b8462003b7e8462003b3e565b62002b05565b9050808382526020820190506020840283018581111562003baa5762003ba962003271565b5b835b8181101562003bf857803567ffffffffffffffff81111562003bd35762003bd262002a85565b5b80860162003be2898262002bb4565b8552602085019450505060208101905062003bac565b5050509392505050565b600082601f83011262003c1a5762003c1962002a85565b5b813562003c2c84826020860162003b6d565b91505092915050565b600060e0828403121562003c4e5762003c4d62003276565b5b62003c5a60e062002b05565b9050600082013567ffffffffffffffff81111562003c7d5762003c7c6200327b565b5b62003c8b8482850162002bb4565b600083015250602062003ca18482850162002c0b565b602083015250604082013567ffffffffffffffff81111562003cc85762003cc76200327b565b5b62003cd68482850162003c02565b604083015250606062003cec8482850162002c0b565b606083015250608062003d028482850162002e3e565b60808301525060a062003d188482850162003370565b60a08301525060c082013567ffffffffffffffff81111562003d3f5762003d3e6200327b565b5b62003d4d8482850162003c02565b60c08301525092915050565b60008060006060848603121562003d755762003d7462002917565b5b600084013567ffffffffffffffff81111562003d965762003d956200291c565b5b62003da48682870162002bb4565b935050602084013567ffffffffffffffff81111562003dc85762003dc76200291c565b5b62003dd68682870162002bb4565b925050604084013567ffffffffffffffff81111562003dfa5762003df96200291c565b5b62003e088682870162003c35565b9150509250925092565b6000608082019050818103600083015262003e2e818762002d53565b9050818103602083015262003e44818662002d53565b9050818103604083015262003e5a818562002d53565b9050818103606083015262003e70818462002d53565b905095945050505050565b7f4e487b7100000000000000000000000000000000000000000000000000000000600052602260045260246000fd5b6000600282049050600182168062003ec357607f821691505b6020821081141562003eda5762003ed962003e7b565b5b50919050565b7f416363657373436f6e74726f6c3a2063616e206f6e6c792072656e6f756e636560008201527f20726f6c657320666f722073656c660000000000000000000000000000000000602082015250565b600062003f3e602f8362002d0c565b915062003f4b8262003ee0565b604082019050919050565b6000602082019050818103600083015262003f718162003f2f565b9050919050565b600081905092915050565b600062003f908262002d01565b62003f9c818562003f78565b935062003fae81856020860162002d1d565b80840191505092915050565b600062003fc8828462003f83565b915081905092915050565b7f44414f486973746f72793a2044414f20616c7265616479206578697374730000600082015250565b60006200400b601e8362002d0c565b9150620040188262003fd3565b602082019050919050565b600060208201905081810360008301526200403e8162003ffc565b9050919050565b7f4e487b7100000000000000000000000000000000000000000000000000000000600052603260045260246000fd5b7f43616c6c657220686173206e6f207065726d697373696f6e20746f206164642060008201527f6173736573736d656e7400000000000000000000000000000000000000000000602082015250565b6000620040d2602a8362002d0c565b9150620040df8262004074565b604082019050919050565b600060208201905081810360008301526200410581620040c3565b9050919050565b7f4e487b7100000000000000000000000000000000000000000000000000000000600052601160045260246000fd5b6000620041488262002be7565b91507fffffffffffffffffffffffffffffffffffffffffffffffffffffffffffffffff8214156200417e576200417d6200410c565b5b600182019050919050565b7f44414f486973746f72793a2044414f20646f6573206e6f742065786973740000600082015250565b6000620041c1601e8362002d0c565b9150620041ce8262004189565b602082019050919050565b60006020820190508181036000830152620041f481620041b2565b9050919050565b7f44414f486973746f72793a2050726f6a65637420616c7265616479206578697360008201527f7473000000000000000000000000000000000000000000000000000000000000602082015250565b60006200425960228362002d0c565b91506200426682620041fb565b604082019050919050565b600060208201905081810360008301526200428c816200424a565b9050919050565b60006040820190508181036000830152620042af818562002d53565b90508181036020830152620042c5818462002d53565b90509392505050565b7f43616c6c657220686173206e6f207065726d697373696f6e20746f206164642060008201527f686973746f727900000000000000000000000000000000000000000000000000602082015250565b60006200432c60278362002d0c565b91506200433982620042ce565b604082019050919050565b600060208201905081810360008301526200435f816200431d565b9050919050565b7f4f776e61626c653a206e6577206f776e657220697320746865207a65726f206160008201527f6464726573730000000000000000000000000000000000000000000000000000602082015250565b6000620043c460268362002d0c565b9150620043d18262004366565b604082019050919050565b60006020820190508181036000830152620043f781620043b5565b9050919050565b7f4f776e61626c653a2063616c6c6572206973206e6f7420746865206f776e6572600082015250565b60006200443660208362002d0c565b91506200444382620043fe565b602082019050919050565b60006020820190508181036000830152620044698162004427565b9050919050565b7f416363657373436f6e74726f6c3a206163636f756e7420000000000000000000600082015250565b6000620044a860178362003f78565b9150620044b58262004470565b601782019050919050565b7f206973206d697373696e6720726f6c6520000000000000000000000000000000600082015250565b6000620044f860118362003f78565b91506200450582620044c0565b601182019050919050565b60006200451d8262004499565b91506200452b828562003f83565b91506200453882620044e9565b915062004546828462003f83565b91508190509392505050565b600060208201905081810360008301526200456e818462002d53565b905092915050565b6000620045838262002be7565b9150620045908362002be7565b9250817fffffffffffffffffffffffffffffffffffffffffffffffffffffffffffffffff0483118215151615620045cc57620045cb6200410c565b5b828202905092915050565b6000620045e48262002be7565b9150620045f18362002be7565b9250827fffffffffffffffffffffffffffffffffffffffffffffffffffffffffffffffff038211156200462957620046286200410c565b5b828201905092915050565b6000620046418262002be7565b915060008214156200465857620046576200410c565b5b600182039050919050565b7f537472696e67733a20686578206c656e67746820696e73756666696369656e74600082015250565b60006200469b60208362002d0c565b9150620046a88262004663565b602082019050919050565b60006020820190508181036000830152620046ce816200468c565b905091905056fe6080604052600060055569017b7883c0691660000060095568a2a15d09519be00000600a556014600b556064600c556001600d60006101000a81548160ff02191690831515021790555062093a8060125560006015553480156200006257600080fd5b506040516200840938038062008409833981810160405281019062000088919062000420565b620000a86200009c6200010560201b60201c565b6200010d60201b60201c565b6000600160146101000a81548160ff02191690831515021790555060016002819055508160039080519060200190620000e3929190620001d3565b508060049080519060200190620000fc929190620001d3565b5050506200050a565b600033905090565b6000600160009054906101000a900473ffffffffffffffffffffffffffffffffffffffff16905081600160006101000a81548173ffffffffffffffffffffffffffffffffffffffff021916908373ffffffffffffffffffffffffffffffffffffffff1602179055508173ffffffffffffffffffffffffffffffffffffffff168173ffffffffffffffffffffffffffffffffffffffff167f8be0079c531659141344cd1fd0a4f28419497f9722a3daafe3b4186f6b6457e060405160405180910390a35050565b828054620001e190620004d4565b90600052602060002090601f01602090048101928262000205576000855562000251565b82601f106200022057805160ff191683800117855562000251565b8280016001018555821562000251579182015b828111156200025057825182559160200191906001019062000233565b5b50905062000260919062000264565b5090565b5b808211156200027f57600081600090555060010162000265565b5090565b6000604051905090565b600080fd5b600080fd5b600080fd5b600080fd5b6000601f19601f8301169050919050565b7f4e487b7100000000000000000000000000000000000000000000000000000000600052604160045260246000fd5b620002ec82620002a1565b810181811067ffffffffffffffff821117156200030e576200030d620002b2565b5b80604052505050565b60006200032362000283565b9050620003318282620002e1565b919050565b600067ffffffffffffffff821115620003545762000353620002b2565b5b6200035f82620002a1565b9050602081019050919050565b60005b838110156200038c5780820151818401526020810190506200036f565b838111156200039c576000848401525b50505050565b6000620003b9620003b38462000336565b62000317565b905082815260208101848484011115620003d857620003d76200029c565b5b620003e58482856200036c565b509392505050565b600082601f83011262000405576200040462000297565b5b815162000417848260208601620003a2565b91505092915050565b600080604083850312156200043a57620004396200028d565b5b600083015167ffffffffffffffff8111156200045b576200045a62000292565b5b6200046985828601620003ed565b925050602083015167ffffffffffffffff8111156200048d576200048c62000292565b5b6200049b85828601620003ed565b9150509250929050565b7f4e487b7100000000000000000000000000000000000000000000000000000000600052602260045260246000fd5b60006002820490506001821680620004ed57607f821691505b60208210811415620005045762000503620004a5565b5b50919050565b617eef806200051a6000396000f3fe608060405234801561001057600080fd5b50600436106103785760003560e01c806391d14854116101d3578063d47587f211610104578063d972b590116100a2578063ea9b2ffa1161007c578063ea9b2ffa14610a2a578063f2fde38b14610a46578063fc39870b14610a62578063fe98bbc714610a7e57610378565b8063d972b590146109ac578063e499943f146109dc578063ea8f1683146109fa57610378565b8063d76e79d4116100de578063d76e79d414610923578063d899744f1461092d578063d8b1ebac1461094b578063d8f8f07a1461097c57610378565b8063d47587f2146108cd578063d519ffa4146108eb578063d547741f1461090757610378565b8063bb3c6ebb11610171578063c97e60e31161014b578063c97e60e314610843578063cac2699b1461085f578063d0967c381461087d578063d384e4d4146108af57610378565b8063bb3c6ebb146107eb578063c01cd23c14610809578063c2f33e541461082757610378565b8063a217fddf116101ad578063a217fddf14610775578063a778bc0814610793578063ade93637146107b1578063b8cb6b79146107cf57610378565b806391d14854146106f95780639f4d2dcf14610729578063a092a7a81461074557610378565b80635c975abb116102ad5780637216a2591161024b5780638456cb59116102255780638456cb591461068357806384a0f2cd1461068d5780638a3e8620146106ab5780638da5cb5b146106db57610378565b80637216a2591461061957806372b4ca47146106355780637e78d68a1461065357610378565b80637034482a116102875780637034482a146105a557806370bd8e93146105c3578063715018a6146105f3578063715622db146105fd57610378565b80635c975abb1461054b57806363a9492f14610569578063640e11681461058757610378565b806323628d0e1161031a57806336568abe116102f457806336568abe146104e95780633f4ba83a146105055780633fafa1271461050f5780635bf8633a1461052d57610378565b806323628d0e14610481578063248a9ca31461049d5780632f2ff15d146104cd57610378565b80630b102d1a116103565780630b102d1a146103f9578063132002fc146104155780631c004729146104335780631dbc13661461045157610378565b806301ffc9a71461037d578063022a2d91146103ad57806302decedb146103dd575b600080fd5b6103976004803603810190610392919061581f565b610aae565b6040516103a49190615867565b60405180910390f35b6103c760048036038101906103c291906158b8565b610b28565b6040516103d49190615e00565b60405180910390f35b6103f760048036038101906103f29190615e4e565b610e00565b005b610413600480360381019061040e9190615ea7565b610e73565b005b61041d610f20565b60405161042a9190615ee3565b60405180910390f35b61043b610f26565b6040516104489190615f0d565b60405180910390f35b61046b60048036038101906104669190615f28565b610f4c565b6040516104789190615f0d565b60405180910390f35b61049b60048036038101906104969190616183565b610f9a565b005b6104b760048036038101906104b29190616260565b61131b565b6040516104c4919061629c565b60405180910390f35b6104e760048036038101906104e291906162b7565b61133a565b005b61050360048036038101906104fe91906162b7565b61135b565b005b61050d6113de565b005b6105176113f0565b6040516105249190616341565b60405180910390f35b61053561147e565b6040516105429190615f0d565b60405180910390f35b6105536114a4565b6040516105609190615867565b60405180910390f35b6105716114bb565b60405161057e9190616476565b60405180910390f35b61058f6118f7565b60405161059c9190615867565b60405180910390f35b6105ad61190a565b6040516105ba919061651e565b60405180910390f35b6105dd60048036038101906105d89190615ea7565b6119f6565b6040516105ea9190615867565b60405180910390f35b6105fb611b14565b005b6106176004803603810190610612919061656c565b611b28565b005b610633600480360381019061062e9190615e4e565b611baf565b005b61063d611c22565b60405161064a9190615e00565b60405180910390f35b61066d600480360381019061066891906158b8565b611efa565b60405161067a9190615ee3565b60405180910390f35b61068b611f12565b005b610695611f24565b6040516106a291906165bb565b60405180910390f35b6106c560048036038101906106c091906158b8565b611f2a565b6040516106d291906167b3565b60405180910390f35b6106e36122cb565b6040516106f09190615f0d565b60405180910390f35b610713600480360381019061070e91906162b7565b6122f5565b6040516107209190615867565b60405180910390f35b610743600480360381019061073e9190615f28565b61235f565b005b61075f600480360381019061075a91906158b8565b612409565b60405161076c9190616844565b60405180910390f35b61077d6127c2565b60405161078a919061629c565b60405180910390f35b61079b6127c9565b6040516107a89190615ee3565b60405180910390f35b6107b96127cf565b6040516107c69190615ee3565b60405180910390f35b6107e960048036038101906107e49190615ea7565b6127d5565b005b6107f3612821565b6040516108009190615ee3565b60405180910390f35b610811612827565b60405161081e9190615f0d565b60405180910390f35b610841600480360381019061083c9190615e4e565b61284d565b005b61085d60048036038101906108589190616866565b6128c0565b005b610867612968565b6040516108749190616341565b60405180910390f35b61089760048036038101906108929190615f28565b6129f6565b6040516108a6939291906168af565b60405180910390f35b6108b7612ae5565b6040516108c49190616844565b60405180910390f35b6108d5612b86565b6040516108e29190615ee3565b60405180910390f35b61090560048036038101906109009190615ea7565b612b8c565b005b610921600480360381019061091c91906162b7565b612c39565b005b61092b612c5a565b005b610935612d31565b6040516109429190615ee3565b60405180910390f35b61096560048036038101906109609190615f28565b612d37565b6040516109739291906168ed565b60405180910390f35b61099660048036038101906109919190616b7d565b612d98565b6040516109a39190615867565b60405180910390f35b6109c660048036038101906109c19190616c38565b613527565b6040516109d39190616341565b60405180910390f35b6109e46135e0565b6040516109f1919061629c565b60405180910390f35b610a146004803603810190610a0f9190615e4e565b613604565b604051610a21919061651e565b60405180910390f35b610a446004803603810190610a3f9190615e4e565b6136f0565b005b610a606004803603810190610a5b9190615ea7565b613763565b005b610a7c6004803603810190610a779190615ea7565b6137e7565b005b610a986004803603810190610a9391906158b8565b61381c565b604051610aa59190615ee3565b60405180910390f35b60007f7965db0b000000000000000000000000000000000000000000000000000000007bffffffffffffffffffffffffffffffffffffffffffffffffffffffff1916827bffffffffffffffffffffffffffffffffffffffffffffffffffffffff19161480610b215750610b2082613834565b5b9050919050565b606060106000838152602001908152602001600020805480602002602001604051908101604052809291908181526020016000905b82821015610df557838290600052602060002090600502016040518060a00160405290816000820160009054906101000a900473ffffffffffffffffffffffffffffffffffffffff1673ffffffffffffffffffffffffffffffffffffffff1673ffffffffffffffffffffffffffffffffffffffff16815260200160018201805480602002602001604051908101604052809291908181526020018280548015610c5b57602002820191906000526020600020905b8160009054906101000a900473ffffffffffffffffffffffffffffffffffffffff1673ffffffffffffffffffffffffffffffffffffffff1681526020019060010190808311610c11575b5050505050815260200160028201805480602002602001604051908101604052809291908181526020016000905b82821015610cfb57838290600052602060002001805480602002602001604051908101604052809291908181526020018280548015610ce757602002820191906000526020600020905b815481526020019060010190808311610cd3575b505050505081526020019060010190610c89565b50505050815260200160038201805480602002602001604051908101604052809291908181526020016000905b82821015610dd4578382906000526020600020018054610d4790616ca7565b80601f0160208091040260200160405190810160405280929190818152602001828054610d7390616ca7565b8015610dc05780601f10610d9557610100808354040283529160200191610dc0565b820191906000526020600020905b815481529060010190602001808311610da357829003601f168201915b505050505081526020019060010190610d28565b50505050815260200160048201548152505081526020019060010190610b5d565b505050509050919050565b610e2a7f05477c39c14a8a45f68e248e875c7b89913df266bcc8ea9804f3160438f36dfd336122f5565b610e69576040517f08c379a0000000000000000000000000000000000000000000000000000000008152600401610e6090616d25565b60405180910390fd5b8060098190555050565b610e9d7f05477c39c14a8a45f68e248e875c7b89913df266bcc8ea9804f3160438f36dfd336122f5565b610edc576040517f08c379a0000000000000000000000000000000000000000000000000000000008152600401610ed390616db7565b60405180910390fd5b80600760006101000a81548173ffffffffffffffffffffffffffffffffffffffff021916908373ffffffffffffffffffffffffffffffffffffffff16021790555050565b60125481565b600660009054906101000a900473ffffffffffffffffffffffffffffffffffffffff1681565b600e6020528160005260406000208181548110610f6857600080fd5b906000526020600020016000915091509054906101000a900473ffffffffffffffffffffffffffffffffffffffff1681565b610fa261389e565b60006001600c54610fb39190616e06565b905060005b600e6000600554815260200190815260200160002080549050811015611074573373ffffffffffffffffffffffffffffffffffffffff16600e60006005548152602001908152602001600020828154811061101657611015616e5c565b5b9060005260206000200160009054906101000a900473ffffffffffffffffffffffffffffffffffffffff1673ffffffffffffffffffffffffffffffffffffffff161415611061578091505b808061106c90616e8b565b915050610fb8565b506001600c546110849190616e06565b81141561122d57600e60006005548152602001908152602001600020339080600181540180825580915050600190039060005260206000200160009091909190916101000a81548173ffffffffffffffffffffffffffffffffffffffff021916908373ffffffffffffffffffffffffffffffffffffffff160217905550600f600060055481526020019081526020016000206040518060a001604052808681526020018581526020018481526020013373ffffffffffffffffffffffffffffffffffffffff1681526020016005548152509080600181540180825580915050600190039060005260206000209060050201600090919091909150600082015181600001908051906020019061119a929190615410565b5060208201518160010190805190602001906111b7929190615496565b5060408201518160020190805190602001906111d4929190615496565b5060608201518160030160006101000a81548173ffffffffffffffffffffffffffffffffffffffff021916908373ffffffffffffffffffffffffffffffffffffffff160217905550608082015181600401555050611315565b83600f60006005548152602001908152602001600020828154811061125557611254616e5c565b5b90600052602060002090600502016000019080519060200190611279929190615410565b5082600f6000600554815260200190815260200160002082815481106112a2576112a1616e5c565b5b906000526020600020906005020160010190805190602001906112c6929190615496565b5081600f6000600554815260200190815260200160002082815481106112ef576112ee616e5c565b5b90600052602060002090600502016002019080519060200190611313929190615496565b505b50505050565b6000806000838152602001908152602001600020600101549050919050565b6113438261131b565b61134c816138e8565b61135683836138fc565b505050565b6113636139dc565b73ffffffffffffffffffffffffffffffffffffffff168173ffffffffffffffffffffffffffffffffffffffff16146113d0576040517f08c379a00000000000000000000000000000000000000000000000000000000081526004016113c790616f46565b60405180910390fd5b6113da82826139e4565b5050565b6113e6613ac5565b6113ee613b43565b565b600480546113fd90616ca7565b80601f016020809104026020016040519081016040528092919081815260200182805461142990616ca7565b80156114765780601f1061144b57610100808354040283529160200191611476565b820191906000526020600020905b81548152906001019060200180831161145957829003601f168201915b505050505081565b600760009054906101000a900473ffffffffffffffffffffffffffffffffffffffff1681565b6000600160149054906101000a900460ff16905090565b60606000601060006005548152602001908152602001600020805480602002602001604051908101604052809291908181526020016000905b8282101561178c57838290600052602060002090600502016040518060a00160405290816000820160009054906101000a900473ffffffffffffffffffffffffffffffffffffffff1673ffffffffffffffffffffffffffffffffffffffff1673ffffffffffffffffffffffffffffffffffffffff168152602001600182018054806020026020016040519081016040528092919081815260200182805480156115f257602002820191906000526020600020905b8160009054906101000a900473ffffffffffffffffffffffffffffffffffffffff1673ffffffffffffffffffffffffffffffffffffffff16815260200190600101908083116115a8575b5050505050815260200160028201805480602002602001604051908101604052809291908181526020016000905b828210156116925783829060005260206000200180548060200260200160405190810160405280929190818152602001828054801561167e57602002820191906000526020600020905b81548152602001906001019080831161166a575b505050505081526020019060010190611620565b50505050815260200160038201805480602002602001604051908101604052809291908181526020016000905b8282101561176b5783829060005260206000200180546116de90616ca7565b80601f016020809104026020016040519081016040528092919081815260200182805461170a90616ca7565b80156117575780601f1061172c57610100808354040283529160200191611757565b820191906000526020600020905b81548152906001019060200180831161173a57829003601f168201915b5050505050815260200190600101906116bf565b505050508152602001600482015481525050815260200190600101906114f4565b5050505090506000600e6000600554815260200190815260200160002080548060200260200160405190810160405280929190818152602001828054801561182957602002820191906000526020600020905b8160009054906101000a900473ffffffffffffffffffffffffffffffffffffffff1673ffffffffffffffffffffffffffffffffffffffff16815260200190600101908083116117df575b50505050509050600060116000600554815260200190815260200160002054905060006040518060800160405280600554815260200185518152602001845181526020018381525090506000600167ffffffffffffffff8111156118905761188f615f72565b5b6040519080825280602002602001820160405280156118c957816020015b6118b66154f6565b8152602001906001900390816118ae5790505b50905081816000815181106118e1576118e0616e5c565b5b6020026020010181905250809550505050505090565b600d60009054906101000a900460ff1681565b6060601460006015548152602001908152602001600020805480602002602001604051908101604052809291908181526020016000905b828210156119ed57838290600052602060002001805461196090616ca7565b80601f016020809104026020016040519081016040528092919081815260200182805461198c90616ca7565b80156119d95780601f106119ae576101008083540402835291602001916119d9565b820191906000526020600020905b8154815290600101906020018083116119bc57829003601f168201915b505050505081526020019060010190611941565b50505050905090565b60008073ffffffffffffffffffffffffffffffffffffffff16600760009054906101000a900473ffffffffffffffffffffffffffffffffffffffff1673ffffffffffffffffffffffffffffffffffffffff161415611a575760019050611b0f565b6000600760009054906101000a900473ffffffffffffffffffffffffffffffffffffffff16905060018173ffffffffffffffffffffffffffffffffffffffff166370a08231856040518263ffffffff1660e01b8152600401611ab99190615f0d565b60206040518083038186803b158015611ad157600080fd5b505afa158015611ae5573d6000803e3d6000fd5b505050506040513d601f19601f82011682018060405250810190611b099190616f7b565b10159150505b919050565b611b1c613ac5565b611b266000613ba6565b565b611b527f05477c39c14a8a45f68e248e875c7b89913df266bcc8ea9804f3160438f36dfd336122f5565b611b91576040517f08c379a0000000000000000000000000000000000000000000000000000000008152600401611b8890616d25565b60405180910390fd5b80600d60006101000a81548160ff0219169083151502179055505050565b611bd97f05477c39c14a8a45f68e248e875c7b89913df266bcc8ea9804f3160438f36dfd336122f5565b611c18576040517f08c379a0000000000000000000000000000000000000000000000000000000008152600401611c0f90616d25565b60405180910390fd5b80600a8190555050565b6060601060006005548152602001908152602001600020805480602002602001604051908101604052809291908181526020016000905b82821015611ef157838290600052602060002090600502016040518060a00160405290816000820160009054906101000a900473ffffffffffffffffffffffffffffffffffffffff1673ffffffffffffffffffffffffffffffffffffffff1673ffffffffffffffffffffffffffffffffffffffff16815260200160018201805480602002602001604051908101604052809291908181526020018280548015611d5757602002820191906000526020600020905b8160009054906101000a900473ffffffffffffffffffffffffffffffffffffffff1673ffffffffffffffffffffffffffffffffffffffff1681526020019060010190808311611d0d575b5050505050815260200160028201805480602002602001604051908101604052809291908181526020016000905b82821015611df757838290600052602060002001805480602002602001604051908101604052809291908181526020018280548015611de357602002820191906000526020600020905b815481526020019060010190808311611dcf575b505050505081526020019060010190611d85565b50505050815260200160038201805480602002602001604051908101604052809291908181526020016000905b82821015611ed0578382906000526020600020018054611e4390616ca7565b80601f0160208091040260200160405190810160405280929190818152602001828054611e6f90616ca7565b8015611ebc5780601f10611e9157610100808354040283529160200191611ebc565b820191906000526020600020905b815481529060010190602001808311611e9f57829003601f168201915b505050505081526020019060010190611e24565b50505050815260200160048201548152505081526020019060010190611c59565b50505050905090565b60136020528060005260406000206000915090505481565b611f1a613ac5565b611f22613c6c565b565b60055481565b611f3261551e565b6000600f6000848152602001908152602001600020805480602002602001604051908101604052809291908181526020016000905b8282101561223d57838290600052602060002090600502016040518060a0016040529081600082018054611f9a90616ca7565b80601f0160208091040260200160405190810160405280929190818152602001828054611fc690616ca7565b80156120135780601f10611fe857610100808354040283529160200191612013565b820191906000526020600020905b815481529060010190602001808311611ff657829003601f168201915b5050505050815260200160018201805480602002602001604051908101604052809291908181526020016000905b828210156120ed57838290600052602060002001805461206090616ca7565b80601f016020809104026020016040519081016040528092919081815260200182805461208c90616ca7565b80156120d95780601f106120ae576101008083540402835291602001916120d9565b820191906000526020600020905b8154815290600101906020018083116120bc57829003601f168201915b505050505081526020019060010190612041565b50505050815260200160028201805480602002602001604051908101604052809291908181526020016000905b828210156121c657838290600052602060002001805461213990616ca7565b80601f016020809104026020016040519081016040528092919081815260200182805461216590616ca7565b80156121b25780601f10612187576101008083540402835291602001916121b2565b820191906000526020600020905b81548152906001019060200180831161219557829003601f168201915b50505050508152602001906001019061211a565b5050505081526020016003820160009054906101000a900473ffffffffffffffffffffffffffffffffffffffff1673ffffffffffffffffffffffffffffffffffffffff1673ffffffffffffffffffffffffffffffffffffffff16815260200160048201548152505081526020019060010190611f67565b505050509050600061224e84612409565b9050600060116000868152602001908152602001600020549050600060136000878152602001908152602001600020549050600061228a61190a565b905060006040518060c00160405280898152602001878152602001868152602001858152602001848152602001838152509050809650505050505050919050565b6000600160009054906101000a900473ffffffffffffffffffffffffffffffffffffffff16905090565b600080600084815260200190815260200160002060000160008373ffffffffffffffffffffffffffffffffffffffff1673ffffffffffffffffffffffffffffffffffffffff16815260200190815260200160002060009054906101000a900460ff16905092915050565b6123897f05477c39c14a8a45f68e248e875c7b89913df266bcc8ea9804f3160438f36dfd336122f5565b6123c8576040517f08c379a00000000000000000000000000000000000000000000000000000000081526004016123bf90616d25565b60405180910390fd5b806012819055508060116000848152602001908152602001600020546123ee9190616e06565b60136000848152602001908152602001600020819055505050565b6060600060106000848152602001908152602001600020805480602002602001604051908101604052809291908181526020016000905b828210156126d857838290600052602060002090600502016040518060a00160405290816000820160009054906101000a900473ffffffffffffffffffffffffffffffffffffffff1673ffffffffffffffffffffffffffffffffffffffff1673ffffffffffffffffffffffffffffffffffffffff1681526020016001820180548060200260200160405190810160405280929190818152602001828054801561253e57602002820191906000526020600020905b8160009054906101000a900473ffffffffffffffffffffffffffffffffffffffff1673ffffffffffffffffffffffffffffffffffffffff16815260200190600101908083116124f4575b5050505050815260200160028201805480602002602001604051908101604052809291908181526020016000905b828210156125de578382906000526020600020018054806020026020016040519081016040528092919081815260200182805480156125ca57602002820191906000526020600020905b8154815260200190600101908083116125b6575b50505050508152602001906001019061256c565b50505050815260200160038201805480602002602001604051908101604052809291908181526020016000905b828210156126b757838290600052602060002001805461262a90616ca7565b80601f016020809104026020016040519081016040528092919081815260200182805461265690616ca7565b80156126a35780601f10612678576101008083540402835291602001916126a3565b820191906000526020600020905b81548152906001019060200180831161268657829003601f168201915b50505050508152602001906001019061260b565b50505050815260200160048201548152505081526020019060010190612440565b5050505090506000815167ffffffffffffffff8111156126fb576126fa615f72565b5b6040519080825280602002602001820160405280156127295781602001602082028036833780820191505090505b50905060005b82518110156127b75782818151811061274b5761274a616e5c565b5b60200260200101516000015182828151811061276a57612769616e5c565b5b602002602001019073ffffffffffffffffffffffffffffffffffffffff16908173ffffffffffffffffffffffffffffffffffffffff168152505080806127af90616e8b565b91505061272f565b508092505050919050565b6000801b81565b600a5481565b600c5481565b6127dd613ac5565b80600860006101000a81548173ffffffffffffffffffffffffffffffffffffffff021916908373ffffffffffffffffffffffffffffffffffffffff16021790555050565b600b5481565b600860009054906101000a900473ffffffffffffffffffffffffffffffffffffffff1681565b6128777f05477c39c14a8a45f68e248e875c7b89913df266bcc8ea9804f3160438f36dfd336122f5565b6128b6576040517f08c379a00000000000000000000000000000000000000000000000000000000081526004016128ad90616d25565b60405180910390fd5b80600b8190555050565b6128ea7f05477c39c14a8a45f68e248e875c7b89913df266bcc8ea9804f3160438f36dfd336122f5565b612929576040517f08c379a000000000000000000000000000000000000000000000000000000000815260040161292090617040565b60405180910390fd5b806014600060156000815461293d90616e8b565b91905081905581526020019081526020016000209080519060200190612964929190615496565b5050565b6003805461297590616ca7565b80601f01602080910402602001604051908101604052809291908181526020018280546129a190616ca7565b80156129ee5780601f106129c3576101008083540402835291602001916129ee565b820191906000526020600020905b8154815290600101906020018083116129d157829003601f168201915b505050505081565b600f6020528160005260406000208181548110612a1257600080fd5b906000526020600020906005020160009150915050806000018054612a3690616ca7565b80601f0160208091040260200160405190810160405280929190818152602001828054612a6290616ca7565b8015612aaf5780601f10612a8457610100808354040283529160200191612aaf565b820191906000526020600020905b815481529060010190602001808311612a9257829003601f168201915b5050505050908060030160009054906101000a900473ffffffffffffffffffffffffffffffffffffffff16908060040154905083565b6060600e60006005548152602001908152602001600020805480602002602001604051908101604052809291908181526020018280548015612b7c57602002820191906000526020600020905b8160009054906101000a900473ffffffffffffffffffffffffffffffffffffffff1673ffffffffffffffffffffffffffffffffffffffff1681526020019060010190808311612b32575b5050505050905090565b60095481565b612bb67f05477c39c14a8a45f68e248e875c7b89913df266bcc8ea9804f3160438f36dfd336122f5565b612bf5576040517f08c379a0000000000000000000000000000000000000000000000000000000008152600401612bec906170d2565b60405180910390fd5b80600660006101000a81548173ffffffffffffffffffffffffffffffffffffffff021916908373ffffffffffffffffffffffffffffffffffffffff16021790555050565b612c428261131b565b612c4b816138e8565b612c5583836139e4565b505050565b612c6261389e565b600280541415612ca7576040517f08c379a0000000000000000000000000000000000000000000000000000000008152600401612c9e9061713e565b60405180910390fd5b60028081905550612cd87f05477c39c14a8a45f68e248e875c7b89913df266bcc8ea9804f3160438f36dfd336122f5565b612d17576040517f08c379a0000000000000000000000000000000000000000000000000000000008152600401612d0e90616d25565b60405180910390fd5b612d1f613cce565b612d27614bd7565b6001600281905550565b60155481565b60106020528160005260406000208181548110612d5357600080fd5b9060005260206000209060050201600091509150508060000160009054906101000a900473ffffffffffffffffffffffffffffffffffffffff16908060040154905082565b6000612da261389e565b600d60009054906101000a900460ff16612df1576040517f08c379a0000000000000000000000000000000000000000000000000000000008152600401612de8906171f6565b60405180910390fd5b6000612dfc86612409565b9050612e07336119f6565b612e46576040517f08c379a0000000000000000000000000000000000000000000000000000000008152600401612e3d90617262565b60405180910390fd5b600085511415612e8b576040517f08c379a0000000000000000000000000000000000000000000000000000000008152600401612e82906172ce565b60405180910390fd5b8451845114612ecf576040517f08c379a0000000000000000000000000000000000000000000000000000000008152600401612ec690617360565b60405180910390fd5b6000601460006015548152602001908152602001600020805480602002602001604051908101604052809291908181526020016000905b82821015612fb2578382906000526020600020018054612f2590616ca7565b80601f0160208091040260200160405190810160405280929190818152602001828054612f5190616ca7565b8015612f9e5780601f10612f7357610100808354040283529160200191612f9e565b820191906000526020600020905b815481529060010190602001808311612f8157829003601f168201915b505050505081526020019060010190612f06565b50505050905060005b865181101561326c5761307f600e60008a815260200190815260200160002080548060200260200160405190810160405280929190818152602001828054801561305a57602002820191906000526020600020905b8160009054906101000a900473ffffffffffffffffffffffffffffffffffffffff1673ffffffffffffffffffffffffffffffffffffffff1681526020019060010190808311613010575b505050505088838151811061307257613071616e5c565b5b6020026020010151614c32565b6130be576040517f08c379a00000000000000000000000000000000000000000000000000000000081526004016130b5906173f2565b60405180910390fd5b60005b82518110156132585760008783815181106130df576130de616e5c565b5b602002602001015182815181106130f9576130f8616e5c565b5b60200260200101511015613142576040517f08c379a000000000000000000000000000000000000000000000000000000000815260040161313990617484565b60405180910390fd5b600b5487838151811061315857613157616e5c565b5b6020026020010151828151811061317257613171616e5c565b5b602002602001015111156131bb576040517f08c379a00000000000000000000000000000000000000000000000000000000081526004016131b290617516565b60405180910390fd5b3373ffffffffffffffffffffffffffffffffffffffff168883815181106131e5576131e4616e5c565b5b602002602001015173ffffffffffffffffffffffffffffffffffffffff16141561324557600087838151811061321e5761321d616e5c565b5b6020026020010151828151811061323857613237616e5c565b5b6020026020010181815250505b808061325090616e8b565b9150506130c1565b50808061326490616e8b565b915050612fbb565b5060006001600c5461327e9190616e06565b905060005b83518110156132f1573373ffffffffffffffffffffffffffffffffffffffff168482815181106132b6576132b5616e5c565b5b602002602001015173ffffffffffffffffffffffffffffffffffffffff1614156132de578091505b80806132e990616e8b565b915050613283565b5060006040518060a001604052803373ffffffffffffffffffffffffffffffffffffffff16815260200189815260200188815260200187815260200160155481525090506001600c546133449190616e06565b82141561343757601060008a815260200190815260200160002081908060018154018082558091505060019003906000526020600020906005020160009091909190915060008201518160000160006101000a81548173ffffffffffffffffffffffffffffffffffffffff021916908373ffffffffffffffffffffffffffffffffffffffff16021790555060208201518160010190805190602001906133eb929190615554565b5060408201518160020190805190602001906134089291906155de565b506060820151816003019080519060200190613425929190615496565b50608082015181600401555050613517565b80601060008b8152602001908152602001600020838154811061345d5761345c616e5c565b5b906000526020600020906005020160008201518160000160006101000a81548173ffffffffffffffffffffffffffffffffffffffff021916908373ffffffffffffffffffffffffffffffffffffffff16021790555060208201518160010190805190602001906134ce929190615554565b5060408201518160020190805190602001906134eb9291906155de565b506060820151816003019080519060200190613508929190615496565b50608082015181600401559050505b6001945050505050949350505050565b6014602052816000526040600020818154811061354357600080fd5b9060005260206000200160009150915050805461355f90616ca7565b80601f016020809104026020016040519081016040528092919081815260200182805461358b90616ca7565b80156135d85780601f106135ad576101008083540402835291602001916135d8565b820191906000526020600020905b8154815290600101906020018083116135bb57829003601f168201915b505050505081565b7f05477c39c14a8a45f68e248e875c7b89913df266bcc8ea9804f3160438f36dfd81565b606060146000838152602001908152602001600020805480602002602001604051908101604052809291908181526020016000905b828210156136e557838290600052602060002001805461365890616ca7565b80601f016020809104026020016040519081016040528092919081815260200182805461368490616ca7565b80156136d15780601f106136a6576101008083540402835291602001916136d1565b820191906000526020600020905b8154815290600101906020018083116136b457829003601f168201915b505050505081526020019060010190613639565b505050509050919050565b61371a7f05477c39c14a8a45f68e248e875c7b89913df266bcc8ea9804f3160438f36dfd336122f5565b613759576040517f08c379a000000000000000000000000000000000000000000000000000000000815260040161375090616d25565b60405180910390fd5b80600c8190555050565b61376b613ac5565b600073ffffffffffffffffffffffffffffffffffffffff168173ffffffffffffffffffffffffffffffffffffffff1614156137db576040517f08c379a00000000000000000000000000000000000000000000000000000000081526004016137d2906175a8565b60405180910390fd5b6137e481613ba6565b50565b6137ef613ac5565b6138197f05477c39c14a8a45f68e248e875c7b89913df266bcc8ea9804f3160438f36dfd82614cba565b50565b60116020528060005260406000206000915090505481565b60007f01ffc9a7000000000000000000000000000000000000000000000000000000007bffffffffffffffffffffffffffffffffffffffffffffffffffffffff1916827bffffffffffffffffffffffffffffffffffffffffffffffffffffffff1916149050919050565b6138a66114a4565b156138e6576040517f08c379a00000000000000000000000000000000000000000000000000000000081526004016138dd90617614565b60405180910390fd5b565b6138f9816138f46139dc565b614cc8565b50565b61390682826122f5565b6139d857600160008084815260200190815260200160002060000160008373ffffffffffffffffffffffffffffffffffffffff1673ffffffffffffffffffffffffffffffffffffffff16815260200190815260200160002060006101000a81548160ff02191690831515021790555061397d6139dc565b73ffffffffffffffffffffffffffffffffffffffff168173ffffffffffffffffffffffffffffffffffffffff16837f2f8788117e7eff1d82e926ec794901d17c78024a50270940304540a733656f0d60405160405180910390a45b5050565b600033905090565b6139ee82826122f5565b15613ac157600080600084815260200190815260200160002060000160008373ffffffffffffffffffffffffffffffffffffffff1673ffffffffffffffffffffffffffffffffffffffff16815260200190815260200160002060006101000a81548160ff021916908315150217905550613a666139dc565b73ffffffffffffffffffffffffffffffffffffffff168173ffffffffffffffffffffffffffffffffffffffff16837ff6391f5c32d9c69d2a47ea670b442974b53935d1edc7fd64eb21e047a839171b60405160405180910390a45b5050565b613acd6139dc565b73ffffffffffffffffffffffffffffffffffffffff16613aeb6122cb565b73ffffffffffffffffffffffffffffffffffffffff1614613b41576040517f08c379a0000000000000000000000000000000000000000000000000000000008152600401613b3890617680565b60405180910390fd5b565b613b4b614d65565b6000600160146101000a81548160ff0219169083151502179055507f5db9ee0a495bf2e6ff9c91a7834c1ba4fdd244a5e8aa4e537bd38aeae4b073aa613b8f6139dc565b604051613b9c9190615f0d565b60405180910390a1565b6000600160009054906101000a900473ffffffffffffffffffffffffffffffffffffffff16905081600160006101000a81548173ffffffffffffffffffffffffffffffffffffffff021916908373ffffffffffffffffffffffffffffffffffffffff1602179055508173ffffffffffffffffffffffffffffffffffffffff168173ffffffffffffffffffffffffffffffffffffffff167f8be0079c531659141344cd1fd0a4f28419497f9722a3daafe3b4186f6b6457e060405160405180910390a35050565b613c7461389e565b60018060146101000a81548160ff0219169083151502179055507f62e78cea01bee320cd4e420270b5ea74000d11b0c9f74754ebdbfc544b05a258613cb76139dc565b604051613cc49190615f0d565b60405180910390a1565b6000600e60006005548152602001908152602001600020805480602002602001604051908101604052809291908181526020018280548015613d6557602002820191906000526020600020905b8160009054906101000a900473ffffffffffffffffffffffffffffffffffffffff1673ffffffffffffffffffffffffffffffffffffffff1681526020019060010190808311613d1b575b505050505090506000601060006005548152602001908152602001600020805480602002602001604051908101604052809291908181526020016000905b8282101561403b57838290600052602060002090600502016040518060a00160405290816000820160009054906101000a900473ffffffffffffffffffffffffffffffffffffffff1673ffffffffffffffffffffffffffffffffffffffff1673ffffffffffffffffffffffffffffffffffffffff16815260200160018201805480602002602001604051908101604052809291908181526020018280548015613ea157602002820191906000526020600020905b8160009054906101000a900473ffffffffffffffffffffffffffffffffffffffff1673ffffffffffffffffffffffffffffffffffffffff1681526020019060010190808311613e57575b5050505050815260200160028201805480602002602001604051908101604052809291908181526020016000905b82821015613f4157838290600052602060002001805480602002602001604051908101604052809291908181526020018280548015613f2d57602002820191906000526020600020905b815481526020019060010190808311613f19575b505050505081526020019060010190613ecf565b50505050815260200160038201805480602002602001604051908101604052809291908181526020016000905b8282101561401a578382906000526020600020018054613f8d90616ca7565b80601f0160208091040260200160405190810160405280929190818152602001828054613fb990616ca7565b80156140065780601f10613fdb57610100808354040283529160200191614006565b820191906000526020600020905b815481529060010190602001808311613fe957829003601f168201915b505050505081526020019060010190613f6e565b50505050815260200160048201548152505081526020019060010190613da3565b5050505090506000601460006015548152602001908152602001600020805480602002602001604051908101604052809291908181526020016000905b8282101561412457838290600052602060002001805461409790616ca7565b80601f01602080910402602001604051908101604052809291908181526020018280546140c390616ca7565b80156141105780601f106140e557610100808354040283529160200191614110565b820191906000526020600020905b8154815290600101906020018083116140f357829003601f168201915b505050505081526020019060010190614078565b5050505090506000835167ffffffffffffffff81111561414757614146615f72565b5b60405190808252806020026020018201604052801561417a57816020015b60608152602001906001900390816141655790505b5090506000845167ffffffffffffffff81111561419a57614199615f72565b5b6040519080825280602002602001820160405280156141c85781602001602082028036833780820191505090505b50905060005b855181101561458057845167ffffffffffffffff8111156141f2576141f1615f72565b5b60405190808252806020026020018201604052801561422b57816020015b61421861563e565b8152602001906001900390816142105790505b5083828151811061423f5761423e616e5c565b5b602002602001018190525060005b855181101561456c5760155486828151811061426c5761426b616e5c565b5b6020026020010151608001511461428257614559565b86828151811061429557614294616e5c565b5b602002602001015173ffffffffffffffffffffffffffffffffffffffff168682815181106142c6576142c5616e5c565b5b60200260200101516000015173ffffffffffffffffffffffffffffffffffffffff1614156142f357614559565b6040518060c0016040528087838151811061431157614310616e5c565b5b60200260200101516000015173ffffffffffffffffffffffffffffffffffffffff16815260200188848151811061434b5761434a616e5c565b5b602002602001015173ffffffffffffffffffffffffffffffffffffffff16815260200187838151811061438157614380616e5c565b5b602002602001015160400151848151811061439f5761439e616e5c565b5b602002602001015181526020018783815181106143bf576143be616e5c565b5b60200260200101516060015184815181106143dd576143dc616e5c565b5b60200260200101518152602001601554815260200160055481525084838151811061440b5761440a616e5c565b5b6020026020010151828151811061442557614424616e5c565b5b602002602001018190525060005b85518110156145575787838151811061444f5761444e616e5c565b5b602002602001015173ffffffffffffffffffffffffffffffffffffffff168783815181106144805761447f616e5c565b5b602002602001015160200151848151811061449e5761449d616e5c565b5b602002602001015173ffffffffffffffffffffffffffffffffffffffff161415614544578682815181106144d5576144d4616e5c565b5b60200260200101516040015183815181106144f3576144f2616e5c565b5b6020026020010151818151811061450d5761450c616e5c565b5b602002602001015184848151811061452857614527616e5c565b5b6020026020010181815161453c9190616e06565b915081815250505b808061454f90616e8b565b915050614433565b505b808061456490616e8b565b91505061424d565b50808061457890616e8b565b9150506141ce565b506000805b82518110156145cd5760008382815181106145a3576145a2616e5c565b5b602002602001015190506145b78382614dae565b92505080806145c590616e8b565b915050614585565b506000600e600060055481526020019081526020016000208054905067ffffffffffffffff81111561460257614601615f72565b5b6040519080825280602002602001820160405280156146305781602001602082028036833780820191505090505b50905060008211156146bb5760005b87518110156146af57600084828151811061465d5761465c616e5c565b5b6020026020010151905061467c61467682600954614dd6565b85614e13565b83838151811061468f5761468e616e5c565b5b6020026020010181815250505080806146a790616e8b565b91505061463f565b506146ba8782614ed4565b5b60006146c8600554612409565b905060008151905060008111156146f55760006146e7600a5483614e13565b90506146f38382615083565b505b42601360006005548152602001908152602001600020819055506000600860009054906101000a900473ffffffffffffffffffffffffffffffffffffffff16905060005b8a51811015614bca576000600f60006005548152602001908152602001600020828154811061476b5761476a616e5c565b5b90600052602060002090600502016040518060a001604052908160008201805461479490616ca7565b80601f01602080910402602001604051908101604052809291908181526020018280546147c090616ca7565b801561480d5780601f106147e25761010080835404028352916020019161480d565b820191906000526020600020905b8154815290600101906020018083116147f057829003601f168201915b5050505050815260200160018201805480602002602001604051908101604052809291908181526020016000905b828210156148e757838290600052602060002001805461485a90616ca7565b80601f016020809104026020016040519081016040528092919081815260200182805461488690616ca7565b80156148d35780601f106148a8576101008083540402835291602001916148d3565b820191906000526020600020905b8154815290600101906020018083116148b657829003601f168201915b50505050508152602001906001019061483b565b50505050815260200160028201805480602002602001604051908101604052809291908181526020016000905b828210156149c057838290600052602060002001805461493390616ca7565b80601f016020809104026020016040519081016040528092919081815260200182805461495f90616ca7565b80156149ac5780601f10614981576101008083540402835291602001916149ac565b820191906000526020600020905b81548152906001019060200180831161498f57829003601f168201915b505050505081526020019060010190614914565b5050505081526020016003820160009054906101000a900473ffffffffffffffffffffffffffffffffffffffff1673ffffffffffffffffffffffffffffffffffffffff1673ffffffffffffffffffffffffffffffffffffffff168152602001600482015481525050905060006040518060e0016040528083600001518152602001888581518110614a5457614a53616e5c565b5b60200260200101518152602001836040015181526020014281526020018e8581518110614a8457614a83616e5c565b5b602002602001015173ffffffffffffffffffffffffffffffffffffffff1681526020016005548152602001836020015181525090508373ffffffffffffffffffffffffffffffffffffffff1663eb3bdcce60036004846040518463ffffffff1660e01b8152600401614af8939291906177df565b600060405180830381600087803b158015614b1257600080fd5b505af1158015614b26573d6000803e3d6000fd5b505050508373ffffffffffffffffffffffffffffffffffffffff16635b080940600360048d8781518110614b5d57614b5c616e5c565b5b60200260200101516040518463ffffffff1660e01b8152600401614b839392919061797d565b600060405180830381600087803b158015614b9d57600080fd5b505af1158015614bb1573d6000803e3d6000fd5b5050505050508080614bc290616e8b565b915050614739565b5050505050505050505050565b60056000815480929190614bea906179c9565b9190505550426011600060055481526020019081526020016000208190555060125442614c179190616e06565b60136000600554815260200190815260200160002081905550565b600080600090505b8351811015614cae578273ffffffffffffffffffffffffffffffffffffffff16848281518110614c6d57614c6c616e5c565b5b602002602001015173ffffffffffffffffffffffffffffffffffffffff161415614c9b576001915050614cb4565b8080614ca690616e8b565b915050614c3a565b50600090505b92915050565b614cc482826138fc565b5050565b614cd282826122f5565b614d6157614cf78173ffffffffffffffffffffffffffffffffffffffff1660146151d4565b614d058360001c60206151d4565b604051602001614d16929190617ae6565b6040516020818303038152906040526040517f08c379a0000000000000000000000000000000000000000000000000000000008152600401614d589190616341565b60405180910390fd5b5050565b614d6d6114a4565b614dac576040517f08c379a0000000000000000000000000000000000000000000000000000000008152600401614da390617b6c565b60405180910390fd5b565b6000808284614dbd9190616e06565b905083811015614dcc57600080fd5b8091505092915050565b6000808284614de59190617b8c565b90506000841480614e005750828482614dfe9190617c15565b145b614e0957600080fd5b8091505092915050565b6000808211614e57576040517f08c379a0000000000000000000000000000000000000000000000000000000008152600401614e4e90617c92565b60405180910390fd5b60008284614e659190617c15565b90508284614e739190617cb2565b8184614e7f9190617b8c565b614e899190616e06565b8414614eca576040517f08c379a0000000000000000000000000000000000000000000000000000000008152600401614ec190617d2f565b60405180910390fd5b8091505092915050565b600073ffffffffffffffffffffffffffffffffffffffff16600660009054906101000a900473ffffffffffffffffffffffffffffffffffffffff1673ffffffffffffffffffffffffffffffffffffffff161415614f305761507f565b8051825114614f74576040517f08c379a0000000000000000000000000000000000000000000000000000000008152600401614f6b90617dc1565b60405180910390fd5b6000600660009054906101000a900473ffffffffffffffffffffffffffffffffffffffff16905060005b835181101561507c578173ffffffffffffffffffffffffffffffffffffffff1663a9059cbb858381518110614fd657614fd5616e5c565b5b6020026020010151858481518110614ff157614ff0616e5c565b5b60200260200101516040518363ffffffff1660e01b81526004016150169291906168ed565b602060405180830381600087803b15801561503057600080fd5b505af1158015615044573d6000803e3d6000fd5b505050506040513d601f19601f820116820180604052508101906150689190617df6565b50808061507490616e8b565b915050614f9e565b50505b5050565b600073ffffffffffffffffffffffffffffffffffffffff16600660009054906101000a900473ffffffffffffffffffffffffffffffffffffffff1673ffffffffffffffffffffffffffffffffffffffff1614156150df576151d0565b6000600660009054906101000a900473ffffffffffffffffffffffffffffffffffffffff16905060005b83518110156151cd578173ffffffffffffffffffffffffffffffffffffffff1663a9059cbb85838151811061514157615140616e5c565b5b6020026020010151856040518363ffffffff1660e01b81526004016151679291906168ed565b602060405180830381600087803b15801561518157600080fd5b505af1158015615195573d6000803e3d6000fd5b505050506040513d601f19601f820116820180604052508101906151b99190617df6565b5080806151c590616e8b565b915050615109565b50505b5050565b6060600060028360026151e79190617b8c565b6151f19190616e06565b67ffffffffffffffff81111561520a57615209615f72565b5b6040519080825280601f01601f19166020018201604052801561523c5781602001600182028036833780820191505090505b5090507f30000000000000000000000000000000000000000000000000000000000000008160008151811061527457615273616e5c565b5b60200101907effffffffffffffffffffffffffffffffffffffffffffffffffffffffffffff1916908160001a9053507f7800000000000000000000000000000000000000000000000000000000000000816001815181106152d8576152d7616e5c565b5b60200101907effffffffffffffffffffffffffffffffffffffffffffffffffffffffffffff1916908160001a905350600060018460026153189190617b8c565b6153229190616e06565b90505b60018111156153c2577f3031323334353637383961626364656600000000000000000000000000000000600f86166010811061536457615363616e5c565b5b1a60f81b82828151811061537b5761537a616e5c565b5b60200101907effffffffffffffffffffffffffffffffffffffffffffffffffffffffffffff1916908160001a905350600485901c9450806153bb90617e23565b9050615325565b5060008414615406576040517f08c379a00000000000000000000000000000000000000000000000000000000081526004016153fd90617e99565b60405180910390fd5b8091505092915050565b82805461541c90616ca7565b90600052602060002090601f01602090048101928261543e5760008555615485565b82601f1061545757805160ff1916838001178555615485565b82800160010185558215615485579182015b82811115615484578251825591602001919060010190615469565b5b50905061549291906156a0565b5090565b8280548282559060005260206000209081019282156154e5579160200282015b828111156154e45782518290805190602001906154d4929190615410565b50916020019190600101906154b6565b5b5090506154f291906156bd565b5090565b6040518060800160405280600081526020016000815260200160008152602001600081525090565b6040518060c001604052806000815260200160608152602001606081526020016000815260200160008152602001606081525090565b8280548282559060005260206000209081019282156155cd579160200282015b828111156155cc5782518260006101000a81548173ffffffffffffffffffffffffffffffffffffffff021916908373ffffffffffffffffffffffffffffffffffffffff16021790555091602001919060010190615574565b5b5090506155da91906156a0565b5090565b82805482825590600052602060002090810192821561562d579160200282015b8281111561562c57825182908051906020019061561c9291906156e1565b50916020019190600101906155fe565b5b50905061563a919061572e565b5090565b6040518060c00160405280600073ffffffffffffffffffffffffffffffffffffffff168152602001600073ffffffffffffffffffffffffffffffffffffffff168152602001606081526020016060815260200160008152602001600081525090565b5b808211156156b95760008160009055506001016156a1565b5090565b5b808211156156dd57600081816156d49190615752565b506001016156be565b5090565b82805482825590600052602060002090810192821561571d579160200282015b8281111561571c578251825591602001919060010190615701565b5b50905061572a91906156a0565b5090565b5b8082111561574e57600081816157459190615792565b5060010161572f565b5090565b50805461575e90616ca7565b6000825580601f10615770575061578f565b601f01602090049060005260206000209081019061578e91906156a0565b5b50565b50805460008255906000526020600020908101906157b091906156a0565b50565b6000604051905090565b600080fd5b600080fd5b60007fffffffff0000000000000000000000000000000000000000000000000000000082169050919050565b6157fc816157c7565b811461580757600080fd5b50565b600081359050615819816157f3565b92915050565b600060208284031215615835576158346157bd565b5b60006158438482850161580a565b91505092915050565b60008115159050919050565b6158618161584c565b82525050565b600060208201905061587c6000830184615858565b92915050565b6000819050919050565b61589581615882565b81146158a057600080fd5b50565b6000813590506158b28161588c565b92915050565b6000602082840312156158ce576158cd6157bd565b5b60006158dc848285016158a3565b91505092915050565b600081519050919050565b600082825260208201905092915050565b6000819050602082019050919050565b600073ffffffffffffffffffffffffffffffffffffffff82169050919050565b600061593c82615911565b9050919050565b61594c81615931565b82525050565b600081519050919050565b600082825260208201905092915050565b6000819050602082019050919050565b600061598a8383615943565b60208301905092915050565b6000602082019050919050565b60006159ae82615952565b6159b8818561595d565b93506159c38361596e565b8060005b838110156159f45781516159db888261597e565b97506159e683615996565b9250506001810190506159c7565b5085935050505092915050565b600081519050919050565b600082825260208201905092915050565b6000819050602082019050919050565b600081519050919050565b600082825260208201905092915050565b6000819050602082019050919050565b6000819050919050565b615a6c81615a59565b82525050565b6000615a7e8383615a63565b60208301905092915050565b6000602082019050919050565b6000615aa282615a2d565b615aac8185615a38565b9350615ab783615a49565b8060005b83811015615ae8578151615acf8882615a72565b9750615ada83615a8a565b925050600181019050615abb565b5085935050505092915050565b6000615b018383615a97565b905092915050565b6000602082019050919050565b6000615b2182615a01565b615b2b8185615a0c565b935083602082028501615b3d85615a1d565b8060005b85811015615b795784840389528151615b5a8582615af5565b9450615b6583615b09565b925060208a01995050600181019050615b41565b50829750879550505050505092915050565b600081519050919050565b600082825260208201905092915050565b6000819050602082019050919050565b600081519050919050565b600082825260208201905092915050565b60005b83811015615bf1578082015181840152602081019050615bd6565b83811115615c00576000848401525b50505050565b6000601f19601f8301169050919050565b6000615c2282615bb7565b615c2c8185615bc2565b9350615c3c818560208601615bd3565b615c4581615c06565b840191505092915050565b6000615c5c8383615c17565b905092915050565b6000602082019050919050565b6000615c7c82615b8b565b615c868185615b96565b935083602082028501615c9885615ba7565b8060005b85811015615cd45784840389528151615cb58582615c50565b9450615cc083615c64565b925060208a01995050600181019050615c9c565b50829750879550505050505092915050565b600060a083016000830151615cfe6000860182615943565b5060208301518482036020860152615d1682826159a3565b91505060408301518482036040860152615d308282615b16565b91505060608301518482036060860152615d4a8282615c71565b9150506080830151615d5f6080860182615a63565b508091505092915050565b6000615d768383615ce6565b905092915050565b6000602082019050919050565b6000615d96826158e5565b615da081856158f0565b935083602082028501615db285615901565b8060005b85811015615dee5784840389528151615dcf8582615d6a565b9450615dda83615d7e565b925060208a01995050600181019050615db6565b50829750879550505050505092915050565b60006020820190508181036000830152615e1a8184615d8b565b905092915050565b615e2b81615a59565b8114615e3657600080fd5b50565b600081359050615e4881615e22565b92915050565b600060208284031215615e6457615e636157bd565b5b6000615e7284828501615e39565b91505092915050565b615e8481615931565b8114615e8f57600080fd5b50565b600081359050615ea181615e7b565b92915050565b600060208284031215615ebd57615ebc6157bd565b5b6000615ecb84828501615e92565b91505092915050565b615edd81615a59565b82525050565b6000602082019050615ef86000830184615ed4565b92915050565b615f0781615931565b82525050565b6000602082019050615f226000830184615efe565b92915050565b60008060408385031215615f3f57615f3e6157bd565b5b6000615f4d858286016158a3565b9250506020615f5e85828601615e39565b9150509250929050565b600080fd5b600080fd5b7f4e487b7100000000000000000000000000000000000000000000000000000000600052604160045260246000fd5b615faa82615c06565b810181811067ffffffffffffffff82111715615fc957615fc8615f72565b5b80604052505050565b6000615fdc6157b3565b9050615fe88282615fa1565b919050565b600067ffffffffffffffff82111561600857616007615f72565b5b61601182615c06565b9050602081019050919050565b82818337600083830152505050565b600061604061603b84615fed565b615fd2565b90508281526020810184848401111561605c5761605b615f6d565b5b61606784828561601e565b509392505050565b600082601f83011261608457616083615f68565b5b813561609484826020860161602d565b91505092915050565b600067ffffffffffffffff8211156160b8576160b7615f72565b5b602082029050602081019050919050565b600080fd5b60006160e16160dc8461609d565b615fd2565b90508083825260208201905060208402830185811115616104576161036160c9565b5b835b8181101561614b57803567ffffffffffffffff81111561612957616128615f68565b5b808601616136898261606f565b85526020850194505050602081019050616106565b5050509392505050565b600082601f83011261616a57616169615f68565b5b813561617a8482602086016160ce565b91505092915050565b60008060006060848603121561619c5761619b6157bd565b5b600084013567ffffffffffffffff8111156161ba576161b96157c2565b5b6161c68682870161606f565b935050602084013567ffffffffffffffff8111156161e7576161e66157c2565b5b6161f386828701616155565b925050604084013567ffffffffffffffff811115616214576162136157c2565b5b61622086828701616155565b9150509250925092565b6000819050919050565b61623d8161622a565b811461624857600080fd5b50565b60008135905061625a81616234565b92915050565b600060208284031215616276576162756157bd565b5b60006162848482850161624b565b91505092915050565b6162968161622a565b82525050565b60006020820190506162b1600083018461628d565b92915050565b600080604083850312156162ce576162cd6157bd565b5b60006162dc8582860161624b565b92505060206162ed85828601615e92565b9150509250929050565b600082825260208201905092915050565b600061631382615bb7565b61631d81856162f7565b935061632d818560208601615bd3565b61633681615c06565b840191505092915050565b6000602082019050818103600083015261635b8184616308565b905092915050565b600081519050919050565b600082825260208201905092915050565b6000819050602082019050919050565b61639881615882565b82525050565b6080820160008201516163b4600085018261638f565b5060208201516163c76020850182615a63565b5060408201516163da6040850182615a63565b5060608201516163ed6060850182615a63565b50505050565b60006163ff838361639e565b60808301905092915050565b6000602082019050919050565b600061642382616363565b61642d818561636e565b93506164388361637f565b8060005b8381101561646957815161645088826163f3565b975061645b8361640b565b92505060018101905061643c565b5085935050505092915050565b600060208201905081810360008301526164908184616418565b905092915050565b600082825260208201905092915050565b60006164b482615b8b565b6164be8185616498565b9350836020820285016164d085615ba7565b8060005b8581101561650c57848403895281516164ed8582615c50565b94506164f883615c64565b925060208a019950506001810190506164d4565b50829750879550505050505092915050565b6000602082019050818103600083015261653881846164a9565b905092915050565b6165498161584c565b811461655457600080fd5b50565b60008135905061656681616540565b92915050565b60008060408385031215616583576165826157bd565b5b6000616591858286016158a3565b92505060206165a285828601616557565b9150509250929050565b6165b581615882565b82525050565b60006020820190506165d060008301846165ac565b92915050565b600081519050919050565b600082825260208201905092915050565b6000819050602082019050919050565b600060a083016000830151848203600086015261661f8282615c17565b915050602083015184820360208601526166398282615c71565b915050604083015184820360408601526166538282615c71565b91505060608301516166686060860182615943565b50608083015161667b608086018261638f565b508091505092915050565b60006166928383616602565b905092915050565b6000602082019050919050565b60006166b2826165d6565b6166bc81856165e1565b9350836020820285016166ce856165f2565b8060005b8581101561670a57848403895281516166eb8582616686565b94506166f68361669a565b925060208a019950506001810190506166d2565b50829750879550505050505092915050565b600060c083016000830151616734600086018261638f565b506020830151848203602086015261674c82826166a7565b9150506040830151848203604086015261676682826159a3565b915050606083015161677b6060860182615a63565b50608083015161678e6080860182615a63565b5060a083015184820360a08601526167a68282615c71565b9150508091505092915050565b600060208201905081810360008301526167cd818461671c565b905092915050565b600082825260208201905092915050565b60006167f182615952565b6167fb81856167d5565b93506168068361596e565b8060005b8381101561683757815161681e888261597e565b975061682983615996565b92505060018101905061680a565b5085935050505092915050565b6000602082019050818103600083015261685e81846167e6565b905092915050565b60006020828403121561687c5761687b6157bd565b5b600082013567ffffffffffffffff81111561689a576168996157c2565b5b6168a684828501616155565b91505092915050565b600060608201905081810360008301526168c98186616308565b90506168d86020830185615efe565b6168e560408301846165ac565b949350505050565b60006040820190506169026000830185615efe565b61690f6020830184615ed4565b9392505050565b600067ffffffffffffffff82111561693157616930615f72565b5b602082029050602081019050919050565b600061695561695084616916565b615fd2565b90508083825260208201905060208402830185811115616978576169776160c9565b5b835b818110156169a1578061698d8882615e92565b84526020840193505060208101905061697a565b5050509392505050565b600082601f8301126169c0576169bf615f68565b5b81356169d0848260208601616942565b91505092915050565b600067ffffffffffffffff8211156169f4576169f3615f72565b5b602082029050602081019050919050565b600067ffffffffffffffff821115616a2057616a1f615f72565b5b602082029050602081019050919050565b6000616a44616a3f84616a05565b615fd2565b90508083825260208201905060208402830185811115616a6757616a666160c9565b5b835b81811015616a905780616a7c8882615e39565b845260208401935050602081019050616a69565b5050509392505050565b600082601f830112616aaf57616aae615f68565b5b8135616abf848260208601616a31565b91505092915050565b6000616adb616ad6846169d9565b615fd2565b90508083825260208201905060208402830185811115616afe57616afd6160c9565b5b835b81811015616b4557803567ffffffffffffffff811115616b2357616b22615f68565b5b808601616b308982616a9a565b85526020850194505050602081019050616b00565b5050509392505050565b600082601f830112616b6457616b63615f68565b5b8135616b74848260208601616ac8565b91505092915050565b60008060008060808587031215616b9757616b966157bd565b5b6000616ba5878288016158a3565b945050602085013567ffffffffffffffff811115616bc657616bc56157c2565b5b616bd2878288016169ab565b935050604085013567ffffffffffffffff811115616bf357616bf26157c2565b5b616bff87828801616b4f565b925050606085013567ffffffffffffffff811115616c2057616c1f6157c2565b5b616c2c87828801616155565b91505092959194509250565b60008060408385031215616c4f57616c4e6157bd565b5b6000616c5d85828601615e39565b9250506020616c6e85828601615e39565b9150509250929050565b7f4e487b7100000000000000000000000000000000000000000000000000000000600052602260045260246000fd5b60006002820490506001821680616cbf57607f821691505b60208210811415616cd357616cd2616c78565b5b50919050565b7f43616c6c6572206973206e6f74206120706f6c6c2061646d696e000000000000600082015250565b6000616d0f601a836162f7565b9150616d1a82616cd9565b602082019050919050565b60006020820190508181036000830152616d3e81616d02565b9050919050565b7f506f6c6c3a3a7365744e6674416464726573733a206f6e6c7920504f4c4c5f4160008201527f444d494e5f524f4c450000000000000000000000000000000000000000000000602082015250565b6000616da16029836162f7565b9150616dac82616d45565b604082019050919050565b60006020820190508181036000830152616dd081616d94565b9050919050565b7f4e487b7100000000000000000000000000000000000000000000000000000000600052601160045260246000fd5b6000616e1182615a59565b9150616e1c83615a59565b9250827fffffffffffffffffffffffffffffffffffffffffffffffffffffffffffffffff03821115616e5157616e50616dd7565b5b828201905092915050565b7f4e487b7100000000000000000000000000000000000000000000000000000000600052603260045260246000fd5b6000616e9682615a59565b91507fffffffffffffffffffffffffffffffffffffffffffffffffffffffffffffffff821415616ec957616ec8616dd7565b5b600182019050919050565b7f416363657373436f6e74726f6c3a2063616e206f6e6c792072656e6f756e636560008201527f20726f6c657320666f722073656c660000000000000000000000000000000000602082015250565b6000616f30602f836162f7565b9150616f3b82616ed4565b604082019050919050565b60006020820190508181036000830152616f5f81616f23565b9050919050565b600081519050616f7581615e22565b92915050565b600060208284031215616f9157616f906157bd565b5b6000616f9f84828501616f66565b91505092915050565b7f506f6c6c3a3a6368616e676550657273706563746976653a206f6e6c7920504f60008201527f4c4c5f41444d494e5f524f4c452063616e20616464207065727370656374697660208201527f6500000000000000000000000000000000000000000000000000000000000000604082015250565b600061702a6041836162f7565b915061703582616fa8565b606082019050919050565b600060208201905081810360008301526170598161701d565b9050919050565b7f506f6c6c3a3a73657444616f546f6b656e416464726573733a206f6e6c79205060008201527f4f4c4c5f41444d494e5f524f4c45000000000000000000000000000000000000602082015250565b60006170bc602e836162f7565b91506170c782617060565b604082019050919050565b600060208201905081810360008301526170eb816170af565b9050919050565b7f5265656e7472616e637947756172643a207265656e7472616e742063616c6c00600082015250565b6000617128601f836162f7565b9150617133826170f2565b602082019050919050565b600060208201905081810360008301526171578161711b565b9050919050565b7f566f74696e67206973206e6f7420656e61626c6564207269676874206e6f772e60008201527f20436f6e74616374207468652061646d696e20746f20737461727420766f746960208201527f6e672e0000000000000000000000000000000000000000000000000000000000604082015250565b60006171e06043836162f7565b91506171eb8261715e565b606082019050919050565b6000602082019050818103600083015261720f816171d3565b9050919050565b7f596f7520617265206e6f7420656c696769626c6520746f20766f74652e000000600082015250565b600061724c601d836162f7565b915061725782617216565b602082019050919050565b6000602082019050818103600083015261727b8161723f565b9050919050565b7f43616e64696461746573206d757374206e6f7420626520656d7074792e000000600082015250565b60006172b8601d836162f7565b91506172c382617282565b602082019050919050565b600060208201905081810360008301526172e7816172ab565b9050919050565b7f546865206e756d626572206f6620706f696e7473206973206e6f742076616c6960008201527f642e000000000000000000000000000000000000000000000000000000000000602082015250565b600061734a6022836162f7565b9150617355826172ee565b604082019050919050565b600060208201905081810360008301526173798161733d565b9050919050565b7f5468652063616e646964617465206973206e6f7420696e20746865206375727260008201527f656e7420706f6c6c2e0000000000000000000000000000000000000000000000602082015250565b60006173dc6029836162f7565b91506173e782617380565b604082019050919050565b6000602082019050818103600083015261740b816173cf565b9050919050565b7f54686520706f696e747320617265206e6f742076616c69642e202830203c3d2060008201527f706f696e74732900000000000000000000000000000000000000000000000000602082015250565b600061746e6027836162f7565b915061747982617412565b604082019050919050565b6000602082019050818103600083015261749d81617461565b9050919050565b7f54686520706f696e747320617265206e6f742076616c69642e2028706f696e7460008201527f73203c20564f54455f4d41585f504f494e542900000000000000000000000000602082015250565b60006175006033836162f7565b915061750b826174a4565b604082019050919050565b6000602082019050818103600083015261752f816174f3565b9050919050565b7f4f776e61626c653a206e6577206f776e657220697320746865207a65726f206160008201527f6464726573730000000000000000000000000000000000000000000000000000602082015250565b60006175926026836162f7565b915061759d82617536565b604082019050919050565b600060208201905081810360008301526175c181617585565b9050919050565b7f5061757361626c653a2070617573656400000000000000000000000000000000600082015250565b60006175fe6010836162f7565b9150617609826175c8565b602082019050919050565b6000602082019050818103600083015261762d816175f1565b9050919050565b7f4f776e61626c653a2063616c6c6572206973206e6f7420746865206f776e6572600082015250565b600061766a6020836162f7565b915061767582617634565b602082019050919050565b600060208201905081810360008301526176998161765d565b9050919050565b60008190508160005260206000209050919050565b600081546176c281616ca7565b6176cc81866162f7565b945060018216600081146176e757600181146176f95761772c565b60ff198316865260208601935061772c565b617702856176a0565b60005b8381101561772457815481890152600182019150602081019050617705565b808801955050505b50505092915050565b600060e08301600083015184820360008601526177528282615c17565b91505060208301516177676020860182615a63565b506040830151848203604086015261777f8282615c71565b91505060608301516177946060860182615a63565b5060808301516177a76080860182615943565b5060a08301516177ba60a086018261638f565b5060c083015184820360c08601526177d28282615c71565b9150508091505092915050565b600060608201905081810360008301526177f981866176b5565b9050818103602083015261780d81856176b5565b905081810360408301526178218184617735565b9050949350505050565b600081519050919050565b600082825260208201905092915050565b6000819050602082019050919050565b600060c08301600083015161786f6000860182615943565b5060208301516178826020860182615943565b506040830151848203604086015261789a8282615a97565b915050606083015184820360608601526178b48282615c17565b91505060808301516178c96080860182615a63565b5060a08301516178dc60a086018261638f565b508091505092915050565b60006178f38383617857565b905092915050565b6000602082019050919050565b60006179138261782b565b61791d8185617836565b93508360208202850161792f85617847565b8060005b8581101561796b578484038952815161794c85826178e7565b9450617957836178fb565b925060208a01995050600181019050617933565b50829750879550505050505092915050565b6000606082019050818103600083015261799781866176b5565b905081810360208301526179ab81856176b5565b905081810360408301526179bf8184617908565b9050949350505050565b60006179d482615882565b91507f7fffffffffffffffffffffffffffffffffffffffffffffffffffffffffffffff821415617a0757617a06616dd7565b5b600182019050919050565b600081905092915050565b7f416363657373436f6e74726f6c3a206163636f756e7420000000000000000000600082015250565b6000617a53601783617a12565b9150617a5e82617a1d565b601782019050919050565b6000617a7482615bb7565b617a7e8185617a12565b9350617a8e818560208601615bd3565b80840191505092915050565b7f206973206d697373696e6720726f6c6520000000000000000000000000000000600082015250565b6000617ad0601183617a12565b9150617adb82617a9a565b601182019050919050565b6000617af182617a46565b9150617afd8285617a69565b9150617b0882617ac3565b9150617b148284617a69565b91508190509392505050565b7f5061757361626c653a206e6f7420706175736564000000000000000000000000600082015250565b6000617b566014836162f7565b9150617b6182617b20565b602082019050919050565b60006020820190508181036000830152617b8581617b49565b9050919050565b6000617b9782615a59565b9150617ba283615a59565b9250817fffffffffffffffffffffffffffffffffffffffffffffffffffffffffffffffff0483118215151615617bdb57617bda616dd7565b5b828202905092915050565b7f4e487b7100000000000000000000000000000000000000000000000000000000600052601260045260246000fd5b6000617c2082615a59565b9150617c2b83615a59565b925082617c3b57617c3a617be6565b5b828204905092915050565b7f646976696465206279207a65726f000000000000000000000000000000000000600082015250565b6000617c7c600e836162f7565b9150617c8782617c46565b602082019050919050565b60006020820190508181036000830152617cab81617c6f565b9050919050565b6000617cbd82615a59565b9150617cc883615a59565b925082617cd857617cd7617be6565b5b828206905092915050565b7f6f766572666c6f77000000000000000000000000000000000000000000000000600082015250565b6000617d196008836162f7565b9150617d2482617ce3565b602082019050919050565b60006020820190508181036000830152617d4881617d0c565b9050919050565b7f746f20616e6420616d6f756e74206d7573742062652073616d65206c656e677460008201527f6800000000000000000000000000000000000000000000000000000000000000602082015250565b6000617dab6021836162f7565b9150617db682617d4f565b604082019050919050565b60006020820190508181036000830152617dda81617d9e565b9050919050565b600081519050617df081616540565b92915050565b600060208284031215617e0c57617e0b6157bd565b5b6000617e1a84828501617de1565b91505092915050565b6000617e2e82615a59565b91506000821415617e4257617e41616dd7565b5b600182039050919050565b7f537472696e67733a20686578206c656e67746820696e73756666696369656e74600082015250565b6000617e836020836162f7565b9150617e8e82617e4d565b602082019050919050565b60006020820190508181036000830152617eb281617e76565b905091905056fea26469706673582212206fced949f07cd8cce297ce7c865b7fa9210641663db53cdcff617c827e4f43c964736f6c63430008090033a2646970667358221220397ba3e54f77eb94669e518903113b604c9d394c87c9f2f7b44620603fddc21764736f6c63430008090033",
  "linkReferences": {},
  "deployedLinkReferences": {}
}