{
  "_format": "hh-sol-artifact-1",
  "contractName": "DAOHistory",
  "sourceName": "contracts/DAOHistory.sol",
  "abi": [
    {
      "inputs": [
        {
          "internalType": "address",
          "name": "_pollCreatorAddress",
          "type": "address"
        }
      ],
      "stateMutability": "nonpayable",
      "type": "constructor"
    },
    {
      "anonymous": false,
      "inputs": [
        {
          "indexed": true,
          "internalType": "address",
          "name": "previousOwner",
          "type": "address"
        },
        {
          "indexed": true,
          "internalType": "address",
          "name": "newOwner",
          "type": "address"
        }
      ],
      "name": "OwnershipTransferred",
      "type": "event"
    },
    {
      "anonymous": false,
      "inputs": [
        {
          "indexed": true,
          "internalType": "bytes32",
          "name": "role",
          "type": "bytes32"
        },
        {
          "indexed": true,
          "internalType": "bytes32",
          "name": "previousAdminRole",
          "type": "bytes32"
        },
        {
          "indexed": true,
          "internalType": "bytes32",
          "name": "newAdminRole",
          "type": "bytes32"
        }
      ],
      "name": "RoleAdminChanged",
      "type": "event"
    },
    {
      "anonymous": false,
      "inputs": [
        {
          "indexed": true,
          "internalType": "bytes32",
          "name": "role",
          "type": "bytes32"
        },
        {
          "indexed": true,
          "internalType": "address",
          "name": "account",
          "type": "address"
        },
        {
          "indexed": true,
          "internalType": "address",
          "name": "sender",
          "type": "address"
        }
      ],
      "name": "RoleGranted",
      "type": "event"
    },
    {
      "anonymous": false,
      "inputs": [
        {
          "indexed": true,
          "internalType": "bytes32",
          "name": "role",
          "type": "bytes32"
        },
        {
          "indexed": true,
          "internalType": "address",
          "name": "account",
          "type": "address"
        },
        {
          "indexed": true,
          "internalType": "address",
          "name": "sender",
          "type": "address"
        }
      ],
      "name": "RoleRevoked",
      "type": "event"
    },
    {
      "inputs": [],
      "name": "ADD_HISTORY_ROLE",
      "outputs": [
        {
          "internalType": "bytes32",
          "name": "",
          "type": "bytes32"
        }
      ],
      "stateMutability": "view",
      "type": "function"
    },
    {
      "inputs": [],
      "name": "DEFAULT_ADMIN_ROLE",
      "outputs": [
        {
          "internalType": "bytes32",
          "name": "",
          "type": "bytes32"
        }
      ],
      "stateMutability": "view",
      "type": "function"
    },
    {
      "inputs": [
        {
          "internalType": "string",
          "name": "daoId",
          "type": "string"
        },
        {
          "internalType": "string",
          "name": "projectId",
          "type": "string"
        },
        {
          "components": [
            {
              "internalType": "address",
              "name": "voter",
              "type": "address"
            },
            {
              "internalType": "address",
              "name": "contributor",
              "type": "address"
            },
            {
              "internalType": "uint256[]",
              "name": "points",
              "type": "uint256[]"
            },
            {
              "internalType": "string",
              "name": "comment",
              "type": "string"
            },
            {
              "internalType": "uint256",
              "name": "perspectiveId",
              "type": "uint256"
            },
            {
              "internalType": "int256",
              "name": "pollId",
              "type": "int256"
            }
          ],
          "internalType": "struct Assessment[]",
          "name": "_assessments",
          "type": "tuple[]"
        }
      ],
      "name": "addAssessment",
      "outputs": [],
      "stateMutability": "nonpayable",
      "type": "function"
    },
    {
      "inputs": [
        {
          "internalType": "string",
          "name": "daoId",
          "type": "string"
        },
        {
          "internalType": "string",
          "name": "projectId",
          "type": "string"
        },
        {
          "internalType": "string",
          "name": "name",
          "type": "string"
        },
        {
          "internalType": "string",
          "name": "description",
          "type": "string"
        },
        {
          "internalType": "string",
          "name": "website",
          "type": "string"
        },
        {
          "internalType": "string",
          "name": "logo",
          "type": "string"
        }
      ],
      "name": "addDao",
      "outputs": [
        {
          "internalType": "address",
          "name": "",
          "type": "address"
        }
      ],
      "stateMutability": "nonpayable",
      "type": "function"
    },
    {
      "inputs": [
        {
          "internalType": "string",
          "name": "daoId",
          "type": "string"
        },
        {
          "internalType": "string",
          "name": "projectId",
          "type": "string"
        },
        {
          "components": [
            {
              "internalType": "string",
              "name": "contributionText",
              "type": "string"
            },
            {
              "internalType": "uint256",
              "name": "reward",
              "type": "uint256"
            },
            {
              "internalType": "string[]",
              "name": "roles",
              "type": "string[]"
            },
            {
              "internalType": "uint256",
              "name": "timestamp",
              "type": "uint256"
            },
            {
              "internalType": "address",
              "name": "contributor",
              "type": "address"
            },
            {
              "internalType": "int256",
              "name": "pollId",
              "type": "int256"
            },
            {
              "internalType": "string[]",
              "name": "evidences",
              "type": "string[]"
            }
          ],
          "internalType": "struct DAOHistoryItem",
          "name": "daoHistoryItem",
          "type": "tuple"
        }
      ],
      "name": "addDaoHistory",
      "outputs": [],
      "stateMutability": "nonpayable",
      "type": "function"
    },
    {
      "inputs": [
        {
          "internalType": "string",
          "name": "daoId",
          "type": "string"
        },
        {
          "internalType": "string",
          "name": "projectId",
          "type": "string"
        }
      ],
      "name": "addProject",
      "outputs": [
        {
          "internalType": "address",
          "name": "",
          "type": "address"
        }
      ],
      "stateMutability": "nonpayable",
      "type": "function"
    },
    {
      "inputs": [
        {
          "internalType": "string",
          "name": "",
          "type": "string"
        },
        {
          "internalType": "string",
          "name": "",
          "type": "string"
        },
        {
          "internalType": "uint256",
          "name": "",
          "type": "uint256"
        }
      ],
      "name": "assessments",
      "outputs": [
        {
          "internalType": "address",
          "name": "voter",
          "type": "address"
        },
        {
          "internalType": "address",
          "name": "contributor",
          "type": "address"
        },
        {
          "internalType": "string",
          "name": "comment",
          "type": "string"
        },
        {
          "internalType": "uint256",
          "name": "perspectiveId",
          "type": "uint256"
        },
        {
          "internalType": "int256",
          "name": "pollId",
          "type": "int256"
        }
      ],
      "stateMutability": "view",
      "type": "function"
    },
    {
      "inputs": [
        {
          "internalType": "string",
          "name": "",
          "type": "string"
        }
      ],
      "name": "daoInfo",
      "outputs": [
        {
          "internalType": "string",
          "name": "name",
          "type": "string"
        },
        {
          "internalType": "string",
          "name": "description",
          "type": "string"
        },
        {
          "internalType": "string",
          "name": "website",
          "type": "string"
        },
        {
          "internalType": "string",
          "name": "logo",
          "type": "string"
        }
      ],
      "stateMutability": "view",
      "type": "function"
    },
    {
      "inputs": [
        {
          "internalType": "string",
          "name": "daoId",
          "type": "string"
        },
        {
          "internalType": "string",
          "name": "projectId",
          "type": "string"
        }
      ],
      "name": "getDaoAssessments",
      "outputs": [
        {
          "components": [
            {
              "internalType": "address",
              "name": "voter",
              "type": "address"
            },
            {
              "internalType": "address",
              "name": "contributor",
              "type": "address"
            },
            {
              "internalType": "uint256[]",
              "name": "points",
              "type": "uint256[]"
            },
            {
              "internalType": "string",
              "name": "comment",
              "type": "string"
            },
            {
              "internalType": "uint256",
              "name": "perspectiveId",
              "type": "uint256"
            },
            {
              "internalType": "int256",
              "name": "pollId",
              "type": "int256"
            }
          ],
          "internalType": "struct Assessment[]",
          "name": "",
          "type": "tuple[]"
        }
      ],
      "stateMutability": "view",
      "type": "function"
    },
    {
      "inputs": [
        {
          "internalType": "string",
          "name": "daoId",
          "type": "string"
        },
        {
          "internalType": "string",
          "name": "projectId",
          "type": "string"
        }
      ],
      "name": "getDaoHistory",
      "outputs": [
        {
          "components": [
            {
              "internalType": "string",
              "name": "contributionText",
              "type": "string"
            },
            {
              "internalType": "uint256",
              "name": "reward",
              "type": "uint256"
            },
            {
              "internalType": "string[]",
              "name": "roles",
              "type": "string[]"
            },
            {
              "internalType": "uint256",
              "name": "timestamp",
              "type": "uint256"
            },
            {
              "internalType": "address",
              "name": "contributor",
              "type": "address"
            },
            {
              "internalType": "int256",
              "name": "pollId",
              "type": "int256"
            },
            {
              "internalType": "string[]",
              "name": "evidences",
              "type": "string[]"
            }
          ],
          "internalType": "struct DAOHistoryItem[]",
          "name": "",
          "type": "tuple[]"
        }
      ],
      "stateMutability": "view",
      "type": "function"
    },
    {
      "inputs": [
        {
          "internalType": "string",
          "name": "daoId",
          "type": "string"
        }
      ],
      "name": "getDaoInfo",
      "outputs": [
        {
          "components": [
            {
              "internalType": "string",
              "name": "name",
              "type": "string"
            },
            {
              "internalType": "string",
              "name": "description",
              "type": "string"
            },
            {
              "internalType": "string",
              "name": "website",
              "type": "string"
            },
            {
              "internalType": "string",
              "name": "logo",
              "type": "string"
            },
            {
              "internalType": "string[]",
              "name": "projects",
              "type": "string[]"
            }
          ],
          "internalType": "struct DAOInfo",
          "name": "",
          "type": "tuple"
        }
      ],
      "stateMutability": "view",
      "type": "function"
    },
    {
      "inputs": [
        {
          "internalType": "bytes32",
          "name": "role",
          "type": "bytes32"
        }
      ],
      "name": "getRoleAdmin",
      "outputs": [
        {
          "internalType": "bytes32",
          "name": "",
          "type": "bytes32"
        }
      ],
      "stateMutability": "view",
      "type": "function"
    },
    {
      "inputs": [
        {
          "internalType": "bytes32",
          "name": "role",
          "type": "bytes32"
        },
        {
          "internalType": "address",
          "name": "account",
          "type": "address"
        }
      ],
      "name": "grantRole",
      "outputs": [],
      "stateMutability": "nonpayable",
      "type": "function"
    },
    {
      "inputs": [
        {
          "internalType": "bytes32",
          "name": "role",
          "type": "bytes32"
        },
        {
          "internalType": "address",
          "name": "account",
          "type": "address"
        }
      ],
      "name": "hasRole",
      "outputs": [
        {
          "internalType": "bool",
          "name": "",
          "type": "bool"
        }
      ],
      "stateMutability": "view",
      "type": "function"
    },
    {
      "inputs": [
        {
          "internalType": "string",
          "name": "",
          "type": "string"
        },
        {
          "internalType": "string",
          "name": "",
          "type": "string"
        },
        {
          "internalType": "uint256",
          "name": "",
          "type": "uint256"
        }
      ],
      "name": "histories",
      "outputs": [
        {
          "internalType": "string",
          "name": "contributionText",
          "type": "string"
        },
        {
          "internalType": "uint256",
          "name": "reward",
          "type": "uint256"
        },
        {
          "internalType": "uint256",
          "name": "timestamp",
          "type": "uint256"
        },
        {
          "internalType": "address",
          "name": "contributor",
          "type": "address"
        },
        {
          "internalType": "int256",
          "name": "pollId",
          "type": "int256"
        }
      ],
      "stateMutability": "view",
      "type": "function"
    },
    {
      "inputs": [],
      "name": "owner",
      "outputs": [
        {
          "internalType": "address",
          "name": "",
          "type": "address"
        }
      ],
      "stateMutability": "view",
      "type": "function"
    },
    {
      "inputs": [
        {
          "internalType": "string",
          "name": "",
          "type": "string"
        },
        {
          "internalType": "string",
          "name": "",
          "type": "string"
        }
      ],
      "name": "pollAddress",
      "outputs": [
        {
          "internalType": "address",
          "name": "",
          "type": "address"
        }
      ],
      "stateMutability": "view",
      "type": "function"
    },
    {
      "inputs": [],
      "name": "renounceOwnership",
      "outputs": [],
      "stateMutability": "nonpayable",
      "type": "function"
    },
    {
      "inputs": [
        {
          "internalType": "bytes32",
          "name": "role",
          "type": "bytes32"
        },
        {
          "internalType": "address",
          "name": "account",
          "type": "address"
        }
      ],
      "name": "renounceRole",
      "outputs": [],
      "stateMutability": "nonpayable",
      "type": "function"
    },
    {
      "inputs": [
        {
          "internalType": "bytes32",
          "name": "role",
          "type": "bytes32"
        },
        {
          "internalType": "address",
          "name": "account",
          "type": "address"
        }
      ],
      "name": "revokeRole",
      "outputs": [],
      "stateMutability": "nonpayable",
      "type": "function"
    },
    {
      "inputs": [
        {
          "internalType": "address",
          "name": "contractAddress",
          "type": "address"
        }
      ],
      "name": "setupAddHistoryRole",
      "outputs": [
        {
          "internalType": "bool",
          "name": "",
          "type": "bool"
        }
      ],
      "stateMutability": "nonpayable",
      "type": "function"
    },
    {
      "inputs": [
        {
          "internalType": "bytes4",
          "name": "interfaceId",
          "type": "bytes4"
        }
      ],
      "name": "supportsInterface",
      "outputs": [
        {
          "internalType": "bool",
          "name": "",
          "type": "bool"
        }
      ],
      "stateMutability": "view",
      "type": "function"
    },
    {
      "inputs": [
        {
          "internalType": "address",
          "name": "newOwner",
          "type": "address"
        }
      ],
      "name": "transferOwnership",
      "outputs": [],
      "stateMutability": "nonpayable",
      "type": "function"
    }
  ],
  "bytecode": "0x60806040523480156200001157600080fd5b5060405162002c5038038062002c508339810160408190526200003491620000b7565b6200003f3362000065565b600680546001600160a01b0319166001600160a01b0392909216919091179055620000e9565b600180546001600160a01b038381166001600160a01b0319831681179093556040519116919082907f8be0079c531659141344cd1fd0a4f28419497f9722a3daafe3b4186f6b6457e090600090a35050565b600060208284031215620000ca57600080fd5b81516001600160a01b0381168114620000e257600080fd5b9392505050565b612b5780620000f96000396000f3fe608060405234801561001057600080fd5b506004361061014d5760003560e01c806391d14854116100c3578063ce7066fc1161007c578063ce7066fc14610308578063d4eb734314610328578063d547741f14610379578063eb3bdcce1461038c578063f24dc80e1461039f578063f2fde38b146103c257600080fd5b806391d1485414610283578063980c308d146102965780639d44e3cf146102a9578063a217fddf146102cd578063ae3eea0f146102d5578063bc78ede2146102f557600080fd5b806336568abe1161011557806336568abe146101f95780633afaa4ab1461020c57806358cede69146102375780635b08094014610257578063715018a61461026a5780638da5cb5b1461027257600080fd5b806301ffc9a71461015257806304258a771461017a578063248a9ca31461019d5780632ebb2b94146101c05780632f2ff15d146101e4575b600080fd5b610165610160366004611de5565b6103d5565b60405190151581526020015b60405180910390f35b61018f600080516020612b0283398151915281565b604051908152602001610171565b61018f6101ab366004611e0f565b60009081526020819052604090206001015490565b6101d36101ce366004611f27565b61040c565b604051610171959493929190611feb565b6101f76101f236600461204b565b610518565b005b6101f761020736600461204b565b610542565b61021f61021a36600461207b565b6105c5565b6040516001600160a01b039091168152602001610171565b61024a61024536600461216f565b610764565b6040516101719190612203565b6101f761026536600461232c565b610ae6565b6101f7610c50565b6001546001600160a01b031661021f565b61016561029136600461204b565b610c64565b61021f6102a43660046124b3565b610c8d565b6102bc6102b7366004611f27565b610e7b565b604051610171959493929190612516565b61018f600081565b6102e86102e33660046124b3565b610f89565b6040516101719190612556565b61016561030336600461263c565b611138565b61031b6103163660046124b3565b611163565b6040516101719190612659565b61021f6103363660046124b3565b815160208184018101805160048252928201948201949094209190935281518083018401805192815290840192909301919091209152546001600160a01b031681565b6101f761038736600461204b565b611482565b6101f761039a3660046127ac565b6114a7565b6103b26103ad36600461216f565b6115e7565b60405161017194939291906128da565b6101f76103d036600461263c565b61183a565b60006001600160e01b03198216637965db0b60e01b148061040657506301ffc9a760e01b6001600160e01b03198316145b92915050565b825160208185018101805160038252928201828701209290528351808501820180519381529082019185019190912091905280548290811061044d57600080fd5b60009182526020909120600690910201805460018201546003830180546001600160a01b03938416975092909116945091925061048990612932565b80601f01602080910402602001604051908101604052809291908181526020018280546104b590612932565b80156105025780601f106104d757610100808354040283529160200191610502565b820191906000526020600020905b8154815290600101906020018083116104e557829003601f168201915b5050505050908060040154908060050154905085565b600082815260208190526040902060010154610533816118b3565b61053d83836118bd565b505050565b6001600160a01b03811633146105b75760405162461bcd60e51b815260206004820152602f60248201527f416363657373436f6e74726f6c3a2063616e206f6e6c792072656e6f756e636560448201526e103937b632b9903337b91039b2b63360891b60648201526084015b60405180910390fd5b6105c18282611941565b5050565b60006005876040516105d7919061296d565b908152604051908190036020019020600401541561062c5760405162461bcd60e51b815260206004820152601260248201527144414f20616c72656164792065786973747360701b60448201526064016105ae565b604080516001808252818301909252600091816020015b6060815260200190600190039081610643579050509050868160008151811061066e5761066e612989565b60200260200101819052506040518060a00160405280878152602001868152602001858152602001848152602001828152506005896040516106b0919061296d565b908152602001604051809103902060008201518160000190805190602001906106da929190611c62565b5060208281015180516106f39260018501920190611c62565b506040820151805161070f916002840191602090910190611c62565b506060820151805161072b916003840191602090910190611c62565b5060808201518051610747916004840191602090910190611ce6565b5090505060006107578989610c8d565b9998505050505050505050565b6107966040518060a0016040528060608152602001606081526020016060815260200160608152602001606081525090565b6005826040516107a6919061296d565b90815260200160405180910390206040518060a00160405290816000820180546107cf90612932565b80601f01602080910402602001604051908101604052809291908181526020018280546107fb90612932565b80156108485780601f1061081d57610100808354040283529160200191610848565b820191906000526020600020905b81548152906001019060200180831161082b57829003601f168201915b5050505050815260200160018201805461086190612932565b80601f016020809104026020016040519081016040528092919081815260200182805461088d90612932565b80156108da5780601f106108af576101008083540402835291602001916108da565b820191906000526020600020905b8154815290600101906020018083116108bd57829003601f168201915b505050505081526020016002820180546108f390612932565b80601f016020809104026020016040519081016040528092919081815260200182805461091f90612932565b801561096c5780601f106109415761010080835404028352916020019161096c565b820191906000526020600020905b81548152906001019060200180831161094f57829003601f168201915b5050505050815260200160038201805461098590612932565b80601f01602080910402602001604051908101604052809291908181526020018280546109b190612932565b80156109fe5780601f106109d3576101008083540402835291602001916109fe565b820191906000526020600020905b8154815290600101906020018083116109e157829003601f168201915b5050505050815260200160048201805480602002602001604051908101604052809291908181526020016000905b82821015610ad8578382906000526020600020018054610a4b90612932565b80601f0160208091040260200160405190810160405280929190818152602001828054610a7790612932565b8015610ac45780601f10610a9957610100808354040283529160200191610ac4565b820191906000526020600020905b815481529060010190602001808311610aa757829003601f168201915b505050505081526020019060010190610a2c565b505050915250909392505050565b610afe600080516020612b0283398151915233610c64565b610b3a5760405162461bcd60e51b815260206004820152600d60248201526c2737902832b936b4b9b9b4b7b760991b60448201526064016105ae565b60005b8151811015610c4a57600384604051610b56919061296d565b908152602001604051809103902083604051610b72919061296d565b9081526020016040518091039020828281518110610b9257610b92612989565b602090810291909101810151825460018181018555600094855293839020825160069092020180546001600160a01b039283166001600160a01b031991821617825583850151958201805496909316951694909417905560408101518051919392610c0592600285019290910190611d3f565b5060608201518051610c21916003840191602090910190611c62565b506080820151600482015560a09091015160059091015580610c42816129b5565b915050610b3d565b50505050565b610c586119a6565b610c626000611a00565b565b6000918252602082815260408084206001600160a01b0393909316845291905290205460ff1690565b6000600583604051610c9f919061296d565b90815260405190819003602001902060040154610cee5760405162461bcd60e51b815260206004820152600d60248201526c111053c81b9bdd08195e1a5cdd609a1b60448201526064016105ae565b60006001600160a01b0316600484604051610d09919061296d565b908152602001604051809103902083604051610d25919061296d565b908152604051908190036020019020546001600160a01b031614610d845760405162461bcd60e51b815260206004820152601660248201527550726f6a65637420616c72656164792065786973747360501b60448201526064016105ae565b60065460405163063f19b360e01b81526000916001600160a01b03169063063f19b390610db9908790879033906004016129d0565b602060405180830381600087803b158015610dd357600080fd5b505af1158015610de7573d6000803e3d6000fd5b505050506040513d601f19601f82011682018060405250810190610e0b9190612a0e565b9050610e1681611138565b5080600485604051610e28919061296d565b908152602001604051809103902084604051610e44919061296d565b90815260405190819003602001902080546001600160a01b03929092166001600160a01b0319909216919091179055905092915050565b8251602081850181018051600282529282018287012092905283518085018201805193815290820191850191909120919052805482908110610ebc57600080fd5b90600052602060002090600702016000925092505050806000018054610ee190612932565b80601f0160208091040260200160405190810160405280929190818152602001828054610f0d90612932565b8015610f5a5780601f10610f2f57610100808354040283529160200191610f5a565b820191906000526020600020905b815481529060010190602001808311610f3d57829003601f168201915b505050600184015460038501546004860154600590960154949591949093506001600160a01b03909116915085565b6060600383604051610f9b919061296d565b908152602001604051809103902082604051610fb7919061296d565b9081526020016040518091039020805480602002602001604051908101604052809291908181526020016000905b8282101561112c5760008481526020908190206040805160c0810182526006860290920180546001600160a01b03908116845260018201541683850152600281018054835181870281018701855281815294959294938601939283018282801561106e57602002820191906000526020600020905b81548152602001906001019080831161105a575b5050505050815260200160038201805461108790612932565b80601f01602080910402602001604051908101604052809291908181526020018280546110b390612932565b80156111005780601f106110d557610100808354040283529160200191611100565b820191906000526020600020905b8154815290600101906020018083116110e357829003601f168201915b505050505081526020016004820154815260200160058201548152505081526020019060010190610fe5565b50505050905092915050565b60006111426119a6565b61115a600080516020612b0283398151915283611a52565b5060015b919050565b6060600283604051611175919061296d565b908152602001604051809103902082604051611191919061296d565b9081526020016040518091039020805480602002602001604051908101604052809291908181526020016000905b8282101561112c57838290600052602060002090600702016040518060e00160405290816000820180546111f290612932565b80601f016020809104026020016040519081016040528092919081815260200182805461121e90612932565b801561126b5780601f106112405761010080835404028352916020019161126b565b820191906000526020600020905b81548152906001019060200180831161124e57829003601f168201915b505050505081526020016001820154815260200160028201805480602002602001604051908101604052809291908181526020016000905b8282101561134f5783829060005260206000200180546112c290612932565b80601f01602080910402602001604051908101604052809291908181526020018280546112ee90612932565b801561133b5780601f106113105761010080835404028352916020019161133b565b820191906000526020600020905b81548152906001019060200180831161131e57829003601f168201915b5050505050815260200190600101906112a3565b505050508152602001600382015481526020016004820160009054906101000a90046001600160a01b03166001600160a01b03166001600160a01b031681526020016005820154815260200160068201805480602002602001604051908101604052809291908181526020016000905b8282101561146b5783829060005260206000200180546113de90612932565b80601f016020809104026020016040519081016040528092919081815260200182805461140a90612932565b80156114575780601f1061142c57610100808354040283529160200191611457565b820191906000526020600020905b81548152906001019060200180831161143a57829003601f168201915b5050505050815260200190600101906113bf565b5050505081525050815260200190600101906111bf565b60008281526020819052604090206001015461149d816118b3565b61053d8383611941565b6114bf600080516020612b0283398151915233610c64565b6114fb5760405162461bcd60e51b815260206004820152600d60248201526c2737902832b936b4b9b9b4b7b760991b60448201526064016105ae565b60028360405161150b919061296d565b908152602001604051809103902082604051611527919061296d565b90815260405160209181900382019020805460018101825560009182529082902083518051859460079094029092019261156692849290910190611c62565b506020828101516001830155604083015180516115899260028501920190611ce6565b506060820151600382015560808201516004820180546001600160a01b0319166001600160a01b0390921691909117905560a0820151600582015560c082015180516115df916006840191602090910190611ce6565b505050505050565b805160208183018101805160058252928201919093012091528054819061160d90612932565b80601f016020809104026020016040519081016040528092919081815260200182805461163990612932565b80156116865780601f1061165b57610100808354040283529160200191611686565b820191906000526020600020905b81548152906001019060200180831161166957829003601f168201915b50505050509080600101805461169b90612932565b80601f01602080910402602001604051908101604052809291908181526020018280546116c790612932565b80156117145780601f106116e957610100808354040283529160200191611714565b820191906000526020600020905b8154815290600101906020018083116116f757829003601f168201915b50505050509080600201805461172990612932565b80601f016020809104026020016040519081016040528092919081815260200182805461175590612932565b80156117a25780601f10611777576101008083540402835291602001916117a2565b820191906000526020600020905b81548152906001019060200180831161178557829003601f168201915b5050505050908060030180546117b790612932565b80601f01602080910402602001604051908101604052809291908181526020018280546117e390612932565b80156118305780601f1061180557610100808354040283529160200191611830565b820191906000526020600020905b81548152906001019060200180831161181357829003601f168201915b5050505050905084565b6118426119a6565b6001600160a01b0381166118a75760405162461bcd60e51b815260206004820152602660248201527f4f776e61626c653a206e6577206f776e657220697320746865207a65726f206160448201526564647265737360d01b60648201526084016105ae565b6118b081611a00565b50565b6118b08133611a5c565b6118c78282610c64565b6105c1576000828152602081815260408083206001600160a01b03851684529091529020805460ff191660011790556118fd3390565b6001600160a01b0316816001600160a01b0316837f2f8788117e7eff1d82e926ec794901d17c78024a50270940304540a733656f0d60405160405180910390a45050565b61194b8282610c64565b156105c1576000828152602081815260408083206001600160a01b0385168085529252808320805460ff1916905551339285917ff6391f5c32d9c69d2a47ea670b442974b53935d1edc7fd64eb21e047a839171b9190a45050565b6001546001600160a01b03163314610c625760405162461bcd60e51b815260206004820181905260248201527f4f776e61626c653a2063616c6c6572206973206e6f7420746865206f776e657260448201526064016105ae565b600180546001600160a01b038381166001600160a01b0319831681179093556040519116919082907f8be0079c531659141344cd1fd0a4f28419497f9722a3daafe3b4186f6b6457e090600090a35050565b6105c182826118bd565b611a668282610c64565b6105c157611a7e816001600160a01b03166014611ac0565b611a89836020611ac0565b604051602001611a9a929190612a2b565b60408051601f198184030181529082905262461bcd60e51b82526105ae91600401612aa0565b60606000611acf836002612ab3565b611ada906002612ad2565b6001600160401b03811115611af157611af1611e28565b6040519080825280601f01601f191660200182016040528015611b1b576020820181803683370190505b509050600360fc1b81600081518110611b3657611b36612989565b60200101906001600160f81b031916908160001a905350600f60fb1b81600181518110611b6557611b65612989565b60200101906001600160f81b031916908160001a9053506000611b89846002612ab3565b611b94906001612ad2565b90505b6001811115611c0c576f181899199a1a9b1b9c1cb0b131b232b360811b85600f1660108110611bc857611bc8612989565b1a60f81b828281518110611bde57611bde612989565b60200101906001600160f81b031916908160001a90535060049490941c93611c0581612aea565b9050611b97565b508315611c5b5760405162461bcd60e51b815260206004820181905260248201527f537472696e67733a20686578206c656e67746820696e73756666696369656e7460448201526064016105ae565b9392505050565b828054611c6e90612932565b90600052602060002090601f016020900481019282611c905760008555611cd6565b82601f10611ca957805160ff1916838001178555611cd6565b82800160010185558215611cd6579182015b82811115611cd6578251825591602001919060010190611cbb565b50611ce2929150611d79565b5090565b828054828255906000526020600020908101928215611d33579160200282015b82811115611d335782518051611d23918491602090910190611c62565b5091602001919060010190611d06565b50611ce2929150611d8e565b828054828255906000526020600020908101928215611cd65791602002820182811115611cd6578251825591602001919060010190611cbb565b5b80821115611ce25760008155600101611d7a565b80821115611ce2576000611da28282611dab565b50600101611d8e565b508054611db790612932565b6000825580601f10611dc7575050565b601f0160209004906000526020600020908101906118b09190611d79565b600060208284031215611df757600080fd5b81356001600160e01b031981168114611c5b57600080fd5b600060208284031215611e2157600080fd5b5035919050565b634e487b7160e01b600052604160045260246000fd5b60405160c081016001600160401b0381118282101715611e6057611e60611e28565b60405290565b60405160e081016001600160401b0381118282101715611e6057611e60611e28565b604051601f8201601f191681016001600160401b0381118282101715611eb057611eb0611e28565b604052919050565b600082601f830112611ec957600080fd5b81356001600160401b03811115611ee257611ee2611e28565b611ef5601f8201601f1916602001611e88565b818152846020838601011115611f0a57600080fd5b816020850160208301376000918101602001919091529392505050565b600080600060608486031215611f3c57600080fd5b83356001600160401b0380821115611f5357600080fd5b611f5f87838801611eb8565b94506020860135915080821115611f7557600080fd5b50611f8286828701611eb8565b925050604084013590509250925092565b60005b83811015611fae578181015183820152602001611f96565b83811115610c4a5750506000910152565b60008151808452611fd7816020860160208601611f93565b601f01601f19169290920160200192915050565b6001600160a01b0386811682528516602082015260a06040820181905260009061201790830186611fbf565b606083019490945250608001529392505050565b6001600160a01b03811681146118b057600080fd5b803561115e8161202b565b6000806040838503121561205e57600080fd5b8235915060208301356120708161202b565b809150509250929050565b60008060008060008060c0878903121561209457600080fd5b86356001600160401b03808211156120ab57600080fd5b6120b78a838b01611eb8565b975060208901359150808211156120cd57600080fd5b6120d98a838b01611eb8565b965060408901359150808211156120ef57600080fd5b6120fb8a838b01611eb8565b9550606089013591508082111561211157600080fd5b61211d8a838b01611eb8565b9450608089013591508082111561213357600080fd5b61213f8a838b01611eb8565b935060a089013591508082111561215557600080fd5b5061216289828a01611eb8565b9150509295509295509295565b60006020828403121561218157600080fd5b81356001600160401b0381111561219757600080fd5b6121a384828501611eb8565b949350505050565b600082825180855260208086019550808260051b84010181860160005b848110156121f657601f198684030189526121e4838351611fbf565b988401989250908301906001016121c8565b5090979650505050505050565b602081526000825160a0602084015261221f60c0840182611fbf565b90506020840151601f198085840301604086015261223d8383611fbf565b9250604086015191508085840301606086015261225a8383611fbf565b925060608601519150808584030160808601526122778383611fbf565b925060808601519150808584030160a08601525061229582826121ab565b95945050505050565b60006001600160401b038211156122b7576122b7611e28565b5060051b60200190565b600082601f8301126122d257600080fd5b813560206122e76122e28361229e565b611e88565b82815260059290921b8401810191818101908684111561230657600080fd5b8286015b84811015612321578035835291830191830161230a565b509695505050505050565b60008060006060848603121561234157600080fd5b83356001600160401b038082111561235857600080fd5b61236487838801611eb8565b945060209150818601358181111561237b57600080fd5b61238788828901611eb8565b94505060408601358181111561239c57600080fd5b8601601f810188136123ad57600080fd5b80356123bb6122e28261229e565b81815260059190911b8201840190848101908a8311156123da57600080fd5b8584015b838110156124a2578035868111156123f557600080fd5b850160c0818e03601f1901121561240b57600080fd5b612413611e3e565b61241e898301612040565b815261242c60408301612040565b8982015260608201358881111561244257600080fd5b6124508f8b838601016122c1565b6040830152506080820135888111156124695760008081fd5b6124778f8b83860101611eb8565b60608301525060a082810135608083015260c0909201359181019190915283529186019186016123de565b508096505050505050509250925092565b600080604083850312156124c657600080fd5b82356001600160401b03808211156124dd57600080fd5b6124e986838701611eb8565b935060208501359150808211156124ff57600080fd5b5061250c85828601611eb8565b9150509250929050565b60a08152600061252960a0830188611fbf565b60208301969096525060408101939093526001600160a01b03919091166060830152608090910152919050565b60006020808301818452808551808352604092508286019150828160051b8701018488016000805b8481101561262d57898403603f19018652825180516001600160a01b0390811686528982015116898601528781015160c0898701819052815190870181905260e08701918b019085905b808210156125e85782518452928c0192918c0191600191909101906125c8565b505050606080830151878303828901526126028382611fbf565b608085810151908a015260a0948501519490980193909352505050948701949187019160010161257e565b50919998505050505050505050565b60006020828403121561264e57600080fd5b8135611c5b8161202b565b60006020808301818452808551808352604092508286019150828160051b87010184880160005b8381101561271f57603f19898403018552815160e081518186526126a682870182611fbf565b915050888201518986015287820151858203898701526126c682826121ab565b606084810151908801526080808501516001600160a01b03169088015260a0808501519088015260c09384015187820394880194909452915061270b905081836121ab565b968901969450505090860190600101612680565b509098975050505050505050565b600082601f83011261273e57600080fd5b8135602061274e6122e28361229e565b82815260059290921b8401810191818101908684111561276d57600080fd5b8286015b848110156123215780356001600160401b038111156127905760008081fd5b61279e8986838b0101611eb8565b845250918301918301612771565b6000806000606084860312156127c157600080fd5b83356001600160401b03808211156127d857600080fd5b6127e487838801611eb8565b945060208601359150808211156127fa57600080fd5b61280687838801611eb8565b9350604086013591508082111561281c57600080fd5b9085019060e0828803121561283057600080fd5b612838611e66565b82358281111561284757600080fd5b61285389828601611eb8565b8252506020830135602082015260408301358281111561287257600080fd5b61287e8982860161272d565b6040830152506060830135606082015261289a60808401612040565b608082015260a083013560a082015260c0830135828111156128bb57600080fd5b6128c78982860161272d565b60c0830152508093505050509250925092565b6080815260006128ed6080830187611fbf565b82810360208401526128ff8187611fbf565b905082810360408401526129138186611fbf565b905082810360608401526129278185611fbf565b979650505050505050565b600181811c9082168061294657607f821691505b6020821081141561296757634e487b7160e01b600052602260045260246000fd5b50919050565b6000825161297f818460208701611f93565b9190910192915050565b634e487b7160e01b600052603260045260246000fd5b634e487b7160e01b600052601160045260246000fd5b60006000198214156129c9576129c961299f565b5060010190565b6060815260006129e36060830186611fbf565b82810360208401526129f58186611fbf565b91505060018060a01b0383166040830152949350505050565b600060208284031215612a2057600080fd5b8151611c5b8161202b565b7f416363657373436f6e74726f6c3a206163636f756e7420000000000000000000815260008351612a63816017850160208801611f93565b7001034b99036b4b9b9b4b733903937b6329607d1b6017918401918201528351612a94816028840160208801611f93565b01602801949350505050565b602081526000611c5b6020830184611fbf565b6000816000190483118215151615612acd57612acd61299f565b500290565b60008219821115612ae557612ae561299f565b500190565b600081612af957612af961299f565b50600019019056fe05fca76124d524bcdb2fb8974d299fae80904f4a8534dd4f993795ebeaf9530ca26469706673582212205ca26f969bdd04d90837b4e2f7de85d8daba09cd4501210d71f6ee486cf9504964736f6c63430008090033",
  "linkReferences": {},
  "deployedLinkReferences": {}
}