{
  "_format": "hh-sol-artifact-1",
  "contractName": "DAOHistory",
  "sourceName": "contracts/DAOHistory.sol",
  "abi": [
    {
      "anonymous": false,
      "inputs": [
        {
          "indexed": true,
          "internalType": "address",
          "name": "previousOwner",
          "type": "address"
        },
        {
          "indexed": true,
          "internalType": "address",
          "name": "newOwner",
          "type": "address"
        }
      ],
      "name": "OwnershipTransferred",
      "type": "event"
    },
    {
      "anonymous": false,
      "inputs": [
        {
          "indexed": true,
          "internalType": "bytes32",
          "name": "role",
          "type": "bytes32"
        },
        {
          "indexed": true,
          "internalType": "bytes32",
          "name": "previousAdminRole",
          "type": "bytes32"
        },
        {
          "indexed": true,
          "internalType": "bytes32",
          "name": "newAdminRole",
          "type": "bytes32"
        }
      ],
      "name": "RoleAdminChanged",
      "type": "event"
    },
    {
      "anonymous": false,
      "inputs": [
        {
          "indexed": true,
          "internalType": "bytes32",
          "name": "role",
          "type": "bytes32"
        },
        {
          "indexed": true,
          "internalType": "address",
          "name": "account",
          "type": "address"
        },
        {
          "indexed": true,
          "internalType": "address",
          "name": "sender",
          "type": "address"
        }
      ],
      "name": "RoleGranted",
      "type": "event"
    },
    {
      "anonymous": false,
      "inputs": [
        {
          "indexed": true,
          "internalType": "bytes32",
          "name": "role",
          "type": "bytes32"
        },
        {
          "indexed": true,
          "internalType": "address",
          "name": "account",
          "type": "address"
        },
        {
          "indexed": true,
          "internalType": "address",
          "name": "sender",
          "type": "address"
        }
      ],
      "name": "RoleRevoked",
      "type": "event"
    },
    {
      "inputs": [],
      "name": "ADD_HISTORY_ROLE",
      "outputs": [
        {
          "internalType": "bytes32",
          "name": "",
          "type": "bytes32"
        }
      ],
      "stateMutability": "view",
      "type": "function"
    },
    {
      "inputs": [],
      "name": "DEFAULT_ADMIN_ROLE",
      "outputs": [
        {
          "internalType": "bytes32",
          "name": "",
          "type": "bytes32"
        }
      ],
      "stateMutability": "view",
      "type": "function"
    },
    {
      "inputs": [
        {
          "internalType": "string",
          "name": "daoId",
          "type": "string"
        },
        {
          "internalType": "uint256",
          "name": "projectId",
          "type": "uint256"
        },
        {
          "components": [
            {
              "internalType": "string",
              "name": "contributionText",
              "type": "string"
            },
            {
              "internalType": "uint256",
              "name": "reward",
              "type": "uint256"
            },
            {
              "internalType": "string[]",
              "name": "roles",
              "type": "string[]"
            },
            {
              "internalType": "uint256",
              "name": "timestamp",
              "type": "uint256"
            },
            {
              "internalType": "address",
              "name": "contributor",
              "type": "address"
            },
            {
              "internalType": "int256",
              "name": "pollId",
              "type": "int256"
            },
            {
              "components": [
                {
                  "internalType": "uint256[]",
                  "name": "scores",
                  "type": "uint256[]"
                },
                {
                  "internalType": "uint256",
                  "name": "perspectiveId",
                  "type": "uint256"
                }
              ],
              "internalType": "struct Score",
              "name": "score",
              "type": "tuple"
            }
          ],
          "internalType": "struct DAOHistoryItem",
          "name": "daoHistoryItem",
          "type": "tuple"
        }
      ],
      "name": "addDaoHistory",
      "outputs": [],
      "stateMutability": "nonpayable",
      "type": "function"
    },
    {
      "inputs": [
        {
          "internalType": "string",
          "name": "daoId",
          "type": "string"
        },
        {
          "internalType": "uint256",
          "name": "projectId",
          "type": "uint256"
        }
      ],
      "name": "getDaoHistory",
      "outputs": [
        {
          "components": [
            {
              "internalType": "string",
              "name": "contributionText",
              "type": "string"
            },
            {
              "internalType": "uint256",
              "name": "reward",
              "type": "uint256"
            },
            {
              "internalType": "string[]",
              "name": "roles",
              "type": "string[]"
            },
            {
              "internalType": "uint256",
              "name": "timestamp",
              "type": "uint256"
            },
            {
              "internalType": "address",
              "name": "contributor",
              "type": "address"
            },
            {
              "internalType": "int256",
              "name": "pollId",
              "type": "int256"
            },
            {
              "components": [
                {
                  "internalType": "uint256[]",
                  "name": "scores",
                  "type": "uint256[]"
                },
                {
                  "internalType": "uint256",
                  "name": "perspectiveId",
                  "type": "uint256"
                }
              ],
              "internalType": "struct Score",
              "name": "score",
              "type": "tuple"
            }
          ],
          "internalType": "struct DAOHistoryItem[]",
          "name": "",
          "type": "tuple[]"
        }
      ],
      "stateMutability": "view",
      "type": "function"
    },
    {
      "inputs": [
        {
          "internalType": "bytes32",
          "name": "role",
          "type": "bytes32"
        }
      ],
      "name": "getRoleAdmin",
      "outputs": [
        {
          "internalType": "bytes32",
          "name": "",
          "type": "bytes32"
        }
      ],
      "stateMutability": "view",
      "type": "function"
    },
    {
      "inputs": [
        {
          "internalType": "bytes32",
          "name": "role",
          "type": "bytes32"
        },
        {
          "internalType": "address",
          "name": "account",
          "type": "address"
        }
      ],
      "name": "grantRole",
      "outputs": [],
      "stateMutability": "nonpayable",
      "type": "function"
    },
    {
      "inputs": [
        {
          "internalType": "bytes32",
          "name": "role",
          "type": "bytes32"
        },
        {
          "internalType": "address",
          "name": "account",
          "type": "address"
        }
      ],
      "name": "hasRole",
      "outputs": [
        {
          "internalType": "bool",
          "name": "",
          "type": "bool"
        }
      ],
      "stateMutability": "view",
      "type": "function"
    },
    {
      "inputs": [],
      "name": "owner",
      "outputs": [
        {
          "internalType": "address",
          "name": "",
          "type": "address"
        }
      ],
      "stateMutability": "view",
      "type": "function"
    },
    {
      "inputs": [],
      "name": "renounceOwnership",
      "outputs": [],
      "stateMutability": "nonpayable",
      "type": "function"
    },
    {
      "inputs": [
        {
          "internalType": "bytes32",
          "name": "role",
          "type": "bytes32"
        },
        {
          "internalType": "address",
          "name": "account",
          "type": "address"
        }
      ],
      "name": "renounceRole",
      "outputs": [],
      "stateMutability": "nonpayable",
      "type": "function"
    },
    {
      "inputs": [
        {
          "internalType": "bytes32",
          "name": "role",
          "type": "bytes32"
        },
        {
          "internalType": "address",
          "name": "account",
          "type": "address"
        }
      ],
      "name": "revokeRole",
      "outputs": [],
      "stateMutability": "nonpayable",
      "type": "function"
    },
    {
      "inputs": [
        {
          "internalType": "address",
          "name": "contractAddress",
          "type": "address"
        }
      ],
      "name": "setupAddHistoryRole",
      "outputs": [
        {
          "internalType": "bool",
          "name": "",
          "type": "bool"
        }
      ],
      "stateMutability": "nonpayable",
      "type": "function"
    },
    {
      "inputs": [
        {
          "internalType": "bytes4",
          "name": "interfaceId",
          "type": "bytes4"
        }
      ],
      "name": "supportsInterface",
      "outputs": [
        {
          "internalType": "bool",
          "name": "",
          "type": "bool"
        }
      ],
      "stateMutability": "view",
      "type": "function"
    },
    {
      "inputs": [
        {
          "internalType": "address",
          "name": "newOwner",
          "type": "address"
        }
      ],
      "name": "transferOwnership",
      "outputs": [],
      "stateMutability": "nonpayable",
      "type": "function"
    }
  ],
  "bytecode": "0x608060405234801561001057600080fd5b5061002d61002261003260201b60201c565b61003a60201b60201c565b610100565b600033905090565b6000600160009054906101000a900473ffffffffffffffffffffffffffffffffffffffff16905081600160006101000a81548173ffffffffffffffffffffffffffffffffffffffff021916908373ffffffffffffffffffffffffffffffffffffffff1602179055508173ffffffffffffffffffffffffffffffffffffffff168173ffffffffffffffffffffffffffffffffffffffff167f8be0079c531659141344cd1fd0a4f28419497f9722a3daafe3b4186f6b6457e060405160405180910390a35050565b61242f80620001106000396000f3fe608060405234801561001057600080fd5b50600436106100ea5760003560e01c80638da5cb5b1161008c578063bc78ede211610066578063bc78ede21461024b578063cdc11c351461027b578063d547741f14610297578063f2fde38b146102b3576100ea565b80638da5cb5b146101df57806391d14854146101fd578063a217fddf1461022d576100ea565b80632f2ff15d116100c85780632f2ff15d1461016d57806336568abe14610189578063684805b7146101a5578063715018a6146101d5576100ea565b806301ffc9a7146100ef57806304258a771461011f578063248a9ca31461013d575b600080fd5b610109600480360381019061010491906112d1565b6102cf565b6040516101169190611319565b60405180910390f35b610127610349565b604051610134919061134d565b60405180910390f35b61015760048036038101906101529190611394565b61036d565b604051610164919061134d565b60405180910390f35b6101876004803603810190610182919061141f565b61038c565b005b6101a3600480360381019061019e919061141f565b6103ad565b005b6101bf60048036038101906101ba91906115db565b610430565b6040516101cc9190611a10565b60405180910390f35b6101dd610714565b005b6101e7610728565b6040516101f49190611a41565b60405180910390f35b6102176004803603810190610212919061141f565b610752565b6040516102249190611319565b60405180910390f35b6102356107bc565b604051610242919061134d565b60405180910390f35b61026560048036038101906102609190611a5c565b6107c3565b6040516102729190611319565b60405180910390f35b61029560048036038101906102909190611ddc565b610800565b005b6102b160048036038101906102ac919061141f565b61099a565b005b6102cd60048036038101906102c89190611a5c565b6109bb565b005b60007f7965db0b000000000000000000000000000000000000000000000000000000007bffffffffffffffffffffffffffffffffffffffffffffffffffffffff1916827bffffffffffffffffffffffffffffffffffffffffffffffffffffffff19161480610342575061034182610a3f565b5b9050919050565b7f05fca76124d524bcdb2fb8974d299fae80904f4a8534dd4f993795ebeaf9530c81565b6000806000838152602001908152602001600020600101549050919050565b6103958261036d565b61039e81610aa9565b6103a88383610abd565b505050565b6103b5610b9d565b73ffffffffffffffffffffffffffffffffffffffff168173ffffffffffffffffffffffffffffffffffffffff1614610422576040517f08c379a000000000000000000000000000000000000000000000000000000000815260040161041990611eea565b60405180910390fd5b61042c8282610ba5565b5050565b60606002836040516104429190611f46565b90815260200160405180910390206000838152602001908152602001600020805480602002602001604051908101604052809291908181526020016000905b8282101561070857838290600052602060002090600802016040518060e00160405290816000820180546104b490611f8c565b80601f01602080910402602001604051908101604052809291908181526020018280546104e090611f8c565b801561052d5780601f106105025761010080835404028352916020019161052d565b820191906000526020600020905b81548152906001019060200180831161051057829003601f168201915b505050505081526020016001820154815260200160028201805480602002602001604051908101604052809291908181526020016000905b8282101561061157838290600052602060002001805461058490611f8c565b80601f01602080910402602001604051908101604052809291908181526020018280546105b090611f8c565b80156105fd5780601f106105d2576101008083540402835291602001916105fd565b820191906000526020600020905b8154815290600101906020018083116105e057829003601f168201915b505050505081526020019060010190610565565b505050508152602001600382015481526020016004820160009054906101000a900473ffffffffffffffffffffffffffffffffffffffff1673ffffffffffffffffffffffffffffffffffffffff1673ffffffffffffffffffffffffffffffffffffffff1681526020016005820154815260200160068201604051806040016040529081600082018054806020026020016040519081016040528092919081815260200182805480156106e257602002820191906000526020600020905b8154815260200190600101908083116106ce575b505050505081526020016001820154815250508152505081526020019060010190610481565b50505050905092915050565b61071c610c86565b6107266000610d04565b565b6000600160009054906101000a900473ffffffffffffffffffffffffffffffffffffffff16905090565b600080600084815260200190815260200160002060000160008373ffffffffffffffffffffffffffffffffffffffff1673ffffffffffffffffffffffffffffffffffffffff16815260200190815260200160002060009054906101000a900460ff16905092915050565b6000801b81565b60006107cd610c86565b6107f77f05fca76124d524bcdb2fb8974d299fae80904f4a8534dd4f993795ebeaf9530c83610dca565b60019050919050565b61082a7f05fca76124d524bcdb2fb8974d299fae80904f4a8534dd4f993795ebeaf9530c33610752565b610869576040517f08c379a00000000000000000000000000000000000000000000000000000000081526004016108609061200a565b60405180910390fd5b6002836040516108799190611f46565b9081526020016040518091039020600083815260200190815260200160002081908060018154018082558091505060019003906000526020600020906008020160009091909190915060008201518160000190805190602001906108de9291906110b1565b50602082015181600101556040820151816002019080519060200190610905929190611137565b506060820151816003015560808201518160040160006101000a81548173ffffffffffffffffffffffffffffffffffffffff021916908373ffffffffffffffffffffffffffffffffffffffff16021790555060a0820151816005015560c0820151816006016000820151816000019080519060200190610986929190611197565b506020820151816001015550505050505050565b6109a38261036d565b6109ac81610aa9565b6109b68383610ba5565b505050565b6109c3610c86565b600073ffffffffffffffffffffffffffffffffffffffff168173ffffffffffffffffffffffffffffffffffffffff161415610a33576040517f08c379a0000000000000000000000000000000000000000000000000000000008152600401610a2a9061209c565b60405180910390fd5b610a3c81610d04565b50565b60007f01ffc9a7000000000000000000000000000000000000000000000000000000007bffffffffffffffffffffffffffffffffffffffffffffffffffffffff1916827bffffffffffffffffffffffffffffffffffffffffffffffffffffffff1916149050919050565b610aba81610ab5610b9d565b610dd8565b50565b610ac78282610752565b610b9957600160008084815260200190815260200160002060000160008373ffffffffffffffffffffffffffffffffffffffff1673ffffffffffffffffffffffffffffffffffffffff16815260200190815260200160002060006101000a81548160ff021916908315150217905550610b3e610b9d565b73ffffffffffffffffffffffffffffffffffffffff168173ffffffffffffffffffffffffffffffffffffffff16837f2f8788117e7eff1d82e926ec794901d17c78024a50270940304540a733656f0d60405160405180910390a45b5050565b600033905090565b610baf8282610752565b15610c8257600080600084815260200190815260200160002060000160008373ffffffffffffffffffffffffffffffffffffffff1673ffffffffffffffffffffffffffffffffffffffff16815260200190815260200160002060006101000a81548160ff021916908315150217905550610c27610b9d565b73ffffffffffffffffffffffffffffffffffffffff168173ffffffffffffffffffffffffffffffffffffffff16837ff6391f5c32d9c69d2a47ea670b442974b53935d1edc7fd64eb21e047a839171b60405160405180910390a45b5050565b610c8e610b9d565b73ffffffffffffffffffffffffffffffffffffffff16610cac610728565b73ffffffffffffffffffffffffffffffffffffffff1614610d02576040517f08c379a0000000000000000000000000000000000000000000000000000000008152600401610cf990612108565b60405180910390fd5b565b6000600160009054906101000a900473ffffffffffffffffffffffffffffffffffffffff16905081600160006101000a81548173ffffffffffffffffffffffffffffffffffffffff021916908373ffffffffffffffffffffffffffffffffffffffff1602179055508173ffffffffffffffffffffffffffffffffffffffff168173ffffffffffffffffffffffffffffffffffffffff167f8be0079c531659141344cd1fd0a4f28419497f9722a3daafe3b4186f6b6457e060405160405180910390a35050565b610dd48282610abd565b5050565b610de28282610752565b610e7157610e078173ffffffffffffffffffffffffffffffffffffffff166014610e75565b610e158360001c6020610e75565b604051602001610e269291906121c0565b6040516020818303038152906040526040517f08c379a0000000000000000000000000000000000000000000000000000000008152600401610e689190612233565b60405180910390fd5b5050565b606060006002836002610e889190612284565b610e9291906122de565b67ffffffffffffffff811115610eab57610eaa61147a565b5b6040519080825280601f01601f191660200182016040528015610edd5781602001600182028036833780820191505090505b5090507f300000000000000000000000000000000000000000000000000000000000000081600081518110610f1557610f14612334565b5b60200101907effffffffffffffffffffffffffffffffffffffffffffffffffffffffffffff1916908160001a9053507f780000000000000000000000000000000000000000000000000000000000000081600181518110610f7957610f78612334565b5b60200101907effffffffffffffffffffffffffffffffffffffffffffffffffffffffffffff1916908160001a90535060006001846002610fb99190612284565b610fc391906122de565b90505b6001811115611063577f3031323334353637383961626364656600000000000000000000000000000000600f86166010811061100557611004612334565b5b1a60f81b82828151811061101c5761101b612334565b5b60200101907effffffffffffffffffffffffffffffffffffffffffffffffffffffffffffff1916908160001a905350600485901c94508061105c90612363565b9050610fc6565b50600084146110a7576040517f08c379a000000000000000000000000000000000000000000000000000000000815260040161109e906123d9565b60405180910390fd5b8091505092915050565b8280546110bd90611f8c565b90600052602060002090601f0160209004810192826110df5760008555611126565b82601f106110f857805160ff1916838001178555611126565b82800160010185558215611126579182015b8281111561112557825182559160200191906001019061110a565b5b50905061113391906111e4565b5090565b828054828255906000526020600020908101928215611186579160200282015b828111156111855782518290805190602001906111759291906110b1565b5091602001919060010190611157565b5b5090506111939190611201565b5090565b8280548282559060005260206000209081019282156111d3579160200282015b828111156111d25782518255916020019190600101906111b7565b5b5090506111e091906111e4565b5090565b5b808211156111fd5760008160009055506001016111e5565b5090565b5b8082111561122157600081816112189190611225565b50600101611202565b5090565b50805461123190611f8c565b6000825580601f106112435750611262565b601f01602090049060005260206000209081019061126191906111e4565b5b50565b6000604051905090565b600080fd5b600080fd5b60007fffffffff0000000000000000000000000000000000000000000000000000000082169050919050565b6112ae81611279565b81146112b957600080fd5b50565b6000813590506112cb816112a5565b92915050565b6000602082840312156112e7576112e661126f565b5b60006112f5848285016112bc565b91505092915050565b60008115159050919050565b611313816112fe565b82525050565b600060208201905061132e600083018461130a565b92915050565b6000819050919050565b61134781611334565b82525050565b6000602082019050611362600083018461133e565b92915050565b61137181611334565b811461137c57600080fd5b50565b60008135905061138e81611368565b92915050565b6000602082840312156113aa576113a961126f565b5b60006113b88482850161137f565b91505092915050565b600073ffffffffffffffffffffffffffffffffffffffff82169050919050565b60006113ec826113c1565b9050919050565b6113fc816113e1565b811461140757600080fd5b50565b600081359050611419816113f3565b92915050565b600080604083850312156114365761143561126f565b5b60006114448582860161137f565b92505060206114558582860161140a565b9150509250929050565b600080fd5b600080fd5b6000601f19601f8301169050919050565b7f4e487b7100000000000000000000000000000000000000000000000000000000600052604160045260246000fd5b6114b282611469565b810181811067ffffffffffffffff821117156114d1576114d061147a565b5b80604052505050565b60006114e4611265565b90506114f082826114a9565b919050565b600067ffffffffffffffff8211156115105761150f61147a565b5b61151982611469565b9050602081019050919050565b82818337600083830152505050565b6000611548611543846114f5565b6114da565b90508281526020810184848401111561156457611563611464565b5b61156f848285611526565b509392505050565b600082601f83011261158c5761158b61145f565b5b813561159c848260208601611535565b91505092915050565b6000819050919050565b6115b8816115a5565b81146115c357600080fd5b50565b6000813590506115d5816115af565b92915050565b600080604083850312156115f2576115f161126f565b5b600083013567ffffffffffffffff8111156116105761160f611274565b5b61161c85828601611577565b925050602061162d858286016115c6565b9150509250929050565b600081519050919050565b600082825260208201905092915050565b6000819050602082019050919050565b600081519050919050565b600082825260208201905092915050565b60005b8381101561169d578082015181840152602081019050611682565b838111156116ac576000848401525b50505050565b60006116bd82611663565b6116c7818561166e565b93506116d781856020860161167f565b6116e081611469565b840191505092915050565b6116f4816115a5565b82525050565b600081519050919050565b600082825260208201905092915050565b6000819050602082019050919050565b600061173283836116b2565b905092915050565b6000602082019050919050565b6000611752826116fa565b61175c8185611705565b93508360208202850161176e85611716565b8060005b858110156117aa578484038952815161178b8582611726565b94506117968361173a565b925060208a01995050600181019050611772565b50829750879550505050505092915050565b6117c5816113e1565b82525050565b6000819050919050565b6117de816117cb565b82525050565b600081519050919050565b600082825260208201905092915050565b6000819050602082019050919050565b600061181c83836116eb565b60208301905092915050565b6000602082019050919050565b6000611840826117e4565b61184a81856117ef565b935061185583611800565b8060005b8381101561188657815161186d8882611810565b975061187883611828565b925050600181019050611859565b5085935050505092915050565b600060408301600083015184820360008601526118b08282611835565b91505060208301516118c560208601826116eb565b508091505092915050565b600060e08301600083015184820360008601526118ed82826116b2565b915050602083015161190260208601826116eb565b506040830151848203604086015261191a8282611747565b915050606083015161192f60608601826116eb565b50608083015161194260808601826117bc565b5060a083015161195560a08601826117d5565b5060c083015184820360c086015261196d8282611893565b9150508091505092915050565b600061198683836118d0565b905092915050565b6000602082019050919050565b60006119a682611637565b6119b08185611642565b9350836020820285016119c285611653565b8060005b858110156119fe57848403895281516119df858261197a565b94506119ea8361198e565b925060208a019950506001810190506119c6565b50829750879550505050505092915050565b60006020820190508181036000830152611a2a818461199b565b905092915050565b611a3b816113e1565b82525050565b6000602082019050611a566000830184611a32565b92915050565b600060208284031215611a7257611a7161126f565b5b6000611a808482850161140a565b91505092915050565b600080fd5b600080fd5b600067ffffffffffffffff821115611aae57611aad61147a565b5b602082029050602081019050919050565b600080fd5b6000611ad7611ad284611a93565b6114da565b90508083825260208201905060208402830185811115611afa57611af9611abf565b5b835b81811015611b4157803567ffffffffffffffff811115611b1f57611b1e61145f565b5b808601611b2c8982611577565b85526020850194505050602081019050611afc565b5050509392505050565b600082601f830112611b6057611b5f61145f565b5b8135611b70848260208601611ac4565b91505092915050565b611b82816117cb565b8114611b8d57600080fd5b50565b600081359050611b9f81611b79565b92915050565b600067ffffffffffffffff821115611bc057611bbf61147a565b5b602082029050602081019050919050565b6000611be4611bdf84611ba5565b6114da565b90508083825260208201905060208402830185811115611c0757611c06611abf565b5b835b81811015611c305780611c1c88826115c6565b845260208401935050602081019050611c09565b5050509392505050565b600082601f830112611c4f57611c4e61145f565b5b8135611c5f848260208601611bd1565b91505092915050565b600060408284031215611c7e57611c7d611a89565b5b611c8860406114da565b9050600082013567ffffffffffffffff811115611ca857611ca7611a8e565b5b611cb484828501611c3a565b6000830152506020611cc8848285016115c6565b60208301525092915050565b600060e08284031215611cea57611ce9611a89565b5b611cf460e06114da565b9050600082013567ffffffffffffffff811115611d1457611d13611a8e565b5b611d2084828501611577565b6000830152506020611d34848285016115c6565b602083015250604082013567ffffffffffffffff811115611d5857611d57611a8e565b5b611d6484828501611b4b565b6040830152506060611d78848285016115c6565b6060830152506080611d8c8482850161140a565b60808301525060a0611da084828501611b90565b60a08301525060c082013567ffffffffffffffff811115611dc457611dc3611a8e565b5b611dd084828501611c68565b60c08301525092915050565b600080600060608486031215611df557611df461126f565b5b600084013567ffffffffffffffff811115611e1357611e12611274565b5b611e1f86828701611577565b9350506020611e30868287016115c6565b925050604084013567ffffffffffffffff811115611e5157611e50611274565b5b611e5d86828701611cd4565b9150509250925092565b600082825260208201905092915050565b7f416363657373436f6e74726f6c3a2063616e206f6e6c792072656e6f756e636560008201527f20726f6c657320666f722073656c660000000000000000000000000000000000602082015250565b6000611ed4602f83611e67565b9150611edf82611e78565b604082019050919050565b60006020820190508181036000830152611f0381611ec7565b9050919050565b600081905092915050565b6000611f2082611663565b611f2a8185611f0a565b9350611f3a81856020860161167f565b80840191505092915050565b6000611f528284611f15565b915081905092915050565b7f4e487b7100000000000000000000000000000000000000000000000000000000600052602260045260246000fd5b60006002820490506001821680611fa457607f821691505b60208210811415611fb857611fb7611f5d565b5b50919050565b7f43616c6c6572206973206e6f7420612061646420686973746f727920726f6c65600082015250565b6000611ff4602083611e67565b9150611fff82611fbe565b602082019050919050565b6000602082019050818103600083015261202381611fe7565b9050919050565b7f4f776e61626c653a206e6577206f776e657220697320746865207a65726f206160008201527f6464726573730000000000000000000000000000000000000000000000000000602082015250565b6000612086602683611e67565b91506120918261202a565b604082019050919050565b600060208201905081810360008301526120b581612079565b9050919050565b7f4f776e61626c653a2063616c6c6572206973206e6f7420746865206f776e6572600082015250565b60006120f2602083611e67565b91506120fd826120bc565b602082019050919050565b60006020820190508181036000830152612121816120e5565b9050919050565b7f416363657373436f6e74726f6c3a206163636f756e7420000000000000000000600082015250565b600061215e601783611f0a565b915061216982612128565b601782019050919050565b7f206973206d697373696e6720726f6c6520000000000000000000000000000000600082015250565b60006121aa601183611f0a565b91506121b582612174565b601182019050919050565b60006121cb82612151565b91506121d78285611f15565b91506121e28261219d565b91506121ee8284611f15565b91508190509392505050565b600061220582611663565b61220f8185611e67565b935061221f81856020860161167f565b61222881611469565b840191505092915050565b6000602082019050818103600083015261224d81846121fa565b905092915050565b7f4e487b7100000000000000000000000000000000000000000000000000000000600052601160045260246000fd5b600061228f826115a5565b915061229a836115a5565b9250817fffffffffffffffffffffffffffffffffffffffffffffffffffffffffffffffff04831182151516156122d3576122d2612255565b5b828202905092915050565b60006122e9826115a5565b91506122f4836115a5565b9250827fffffffffffffffffffffffffffffffffffffffffffffffffffffffffffffffff0382111561232957612328612255565b5b828201905092915050565b7f4e487b7100000000000000000000000000000000000000000000000000000000600052603260045260246000fd5b600061236e826115a5565b9150600082141561238257612381612255565b5b600182039050919050565b7f537472696e67733a20686578206c656e67746820696e73756666696369656e74600082015250565b60006123c3602083611e67565b91506123ce8261238d565b602082019050919050565b600060208201905081810360008301526123f2816123b6565b905091905056fea2646970667358221220434e1e4305a001a4b80b164b254445e8c2a833e13d159335e123b36a21f363e764736f6c63430008090033",
  "linkReferences": {},
  "deployedLinkReferences": {}
}