{
  "_format": "hh-sol-artifact-1",
  "contractName": "DAONFT",
  "sourceName": "contracts/token/DAONFT.sol",
  "abi": [
    {
      "inputs": [
        {
          "internalType": "string",
          "name": "_tokenName",
          "type": "string"
        },
        {
          "internalType": "string",
          "name": "_tokenSymbol",
          "type": "string"
        }
      ],
      "stateMutability": "nonpayable",
      "type": "constructor"
    },
    {
      "anonymous": false,
      "inputs": [
        {
          "indexed": true,
          "internalType": "address",
          "name": "owner",
          "type": "address"
        },
        {
          "indexed": true,
          "internalType": "address",
          "name": "approved",
          "type": "address"
        },
        {
          "indexed": true,
          "internalType": "uint256",
          "name": "tokenId",
          "type": "uint256"
        }
      ],
      "name": "Approval",
      "type": "event"
    },
    {
      "anonymous": false,
      "inputs": [
        {
          "indexed": true,
          "internalType": "address",
          "name": "owner",
          "type": "address"
        },
        {
          "indexed": true,
          "internalType": "address",
          "name": "operator",
          "type": "address"
        },
        {
          "indexed": false,
          "internalType": "bool",
          "name": "approved",
          "type": "bool"
        }
      ],
      "name": "ApprovalForAll",
      "type": "event"
    },
    {
      "anonymous": false,
      "inputs": [
        {
          "indexed": false,
          "internalType": "address",
          "name": "account",
          "type": "address"
        }
      ],
      "name": "Paused",
      "type": "event"
    },
    {
      "anonymous": false,
      "inputs": [
        {
          "indexed": true,
          "internalType": "bytes32",
          "name": "role",
          "type": "bytes32"
        },
        {
          "indexed": true,
          "internalType": "bytes32",
          "name": "previousAdminRole",
          "type": "bytes32"
        },
        {
          "indexed": true,
          "internalType": "bytes32",
          "name": "newAdminRole",
          "type": "bytes32"
        }
      ],
      "name": "RoleAdminChanged",
      "type": "event"
    },
    {
      "anonymous": false,
      "inputs": [
        {
          "indexed": true,
          "internalType": "bytes32",
          "name": "role",
          "type": "bytes32"
        },
        {
          "indexed": true,
          "internalType": "address",
          "name": "account",
          "type": "address"
        },
        {
          "indexed": true,
          "internalType": "address",
          "name": "sender",
          "type": "address"
        }
      ],
      "name": "RoleGranted",
      "type": "event"
    },
    {
      "anonymous": false,
      "inputs": [
        {
          "indexed": true,
          "internalType": "bytes32",
          "name": "role",
          "type": "bytes32"
        },
        {
          "indexed": true,
          "internalType": "address",
          "name": "account",
          "type": "address"
        },
        {
          "indexed": true,
          "internalType": "address",
          "name": "sender",
          "type": "address"
        }
      ],
      "name": "RoleRevoked",
      "type": "event"
    },
    {
      "anonymous": false,
      "inputs": [
        {
          "indexed": true,
          "internalType": "address",
          "name": "from",
          "type": "address"
        },
        {
          "indexed": true,
          "internalType": "address",
          "name": "to",
          "type": "address"
        },
        {
          "indexed": true,
          "internalType": "uint256",
          "name": "tokenId",
          "type": "uint256"
        }
      ],
      "name": "Transfer",
      "type": "event"
    },
    {
      "anonymous": false,
      "inputs": [
        {
          "indexed": false,
          "internalType": "address",
          "name": "account",
          "type": "address"
        }
      ],
      "name": "Unpaused",
      "type": "event"
    },
    {
      "inputs": [],
      "name": "DEFAULT_ADMIN_ROLE",
      "outputs": [
        {
          "internalType": "bytes32",
          "name": "",
          "type": "bytes32"
        }
      ],
      "stateMutability": "view",
      "type": "function"
    },
    {
      "inputs": [],
      "name": "MINTER_ROLE",
      "outputs": [
        {
          "internalType": "bytes32",
          "name": "",
          "type": "bytes32"
        }
      ],
      "stateMutability": "view",
      "type": "function"
    },
    {
      "inputs": [
        {
          "internalType": "address",
          "name": "to",
          "type": "address"
        },
        {
          "internalType": "uint256",
          "name": "tokenId",
          "type": "uint256"
        }
      ],
      "name": "approve",
      "outputs": [],
      "stateMutability": "nonpayable",
      "type": "function"
    },
    {
      "inputs": [
        {
          "internalType": "address",
          "name": "owner",
          "type": "address"
        }
      ],
      "name": "balanceOf",
      "outputs": [
        {
          "internalType": "uint256",
          "name": "",
          "type": "uint256"
        }
      ],
      "stateMutability": "view",
      "type": "function"
    },
    {
      "inputs": [
        {
          "internalType": "uint256",
          "name": "tokenId",
          "type": "uint256"
        }
      ],
      "name": "getApproved",
      "outputs": [
        {
          "internalType": "address",
          "name": "",
          "type": "address"
        }
      ],
      "stateMutability": "view",
      "type": "function"
    },
    {
      "inputs": [],
      "name": "getLatestTokenId",
      "outputs": [
        {
          "internalType": "uint256",
          "name": "",
          "type": "uint256"
        }
      ],
      "stateMutability": "view",
      "type": "function"
    },
    {
      "inputs": [
        {
          "internalType": "bytes32",
          "name": "role",
          "type": "bytes32"
        }
      ],
      "name": "getRoleAdmin",
      "outputs": [
        {
          "internalType": "bytes32",
          "name": "",
          "type": "bytes32"
        }
      ],
      "stateMutability": "view",
      "type": "function"
    },
    {
      "inputs": [
        {
          "internalType": "bytes32",
          "name": "role",
          "type": "bytes32"
        },
        {
          "internalType": "address",
          "name": "account",
          "type": "address"
        }
      ],
      "name": "grantRole",
      "outputs": [],
      "stateMutability": "nonpayable",
      "type": "function"
    },
    {
      "inputs": [
        {
          "internalType": "bytes32",
          "name": "role",
          "type": "bytes32"
        },
        {
          "internalType": "address",
          "name": "account",
          "type": "address"
        }
      ],
      "name": "hasRole",
      "outputs": [
        {
          "internalType": "bool",
          "name": "",
          "type": "bool"
        }
      ],
      "stateMutability": "view",
      "type": "function"
    },
    {
      "inputs": [
        {
          "internalType": "address",
          "name": "owner",
          "type": "address"
        },
        {
          "internalType": "address",
          "name": "operator",
          "type": "address"
        }
      ],
      "name": "isApprovedForAll",
      "outputs": [
        {
          "internalType": "bool",
          "name": "",
          "type": "bool"
        }
      ],
      "stateMutability": "view",
      "type": "function"
    },
    {
      "inputs": [],
      "name": "name",
      "outputs": [
        {
          "internalType": "string",
          "name": "",
          "type": "string"
        }
      ],
      "stateMutability": "view",
      "type": "function"
    },
    {
      "inputs": [
        {
          "internalType": "uint256",
          "name": "tokenId",
          "type": "uint256"
        }
      ],
      "name": "ownerOf",
      "outputs": [
        {
          "internalType": "address",
          "name": "",
          "type": "address"
        }
      ],
      "stateMutability": "view",
      "type": "function"
    },
    {
      "inputs": [],
      "name": "pause",
      "outputs": [],
      "stateMutability": "nonpayable",
      "type": "function"
    },
    {
      "inputs": [],
      "name": "paused",
      "outputs": [
        {
          "internalType": "bool",
          "name": "",
          "type": "bool"
        }
      ],
      "stateMutability": "view",
      "type": "function"
    },
    {
      "inputs": [
        {
          "internalType": "bytes32",
          "name": "role",
          "type": "bytes32"
        },
        {
          "internalType": "address",
          "name": "account",
          "type": "address"
        }
      ],
      "name": "renounceRole",
      "outputs": [],
      "stateMutability": "nonpayable",
      "type": "function"
    },
    {
      "inputs": [
        {
          "internalType": "bytes32",
          "name": "role",
          "type": "bytes32"
        },
        {
          "internalType": "address",
          "name": "account",
          "type": "address"
        }
      ],
      "name": "revokeRole",
      "outputs": [],
      "stateMutability": "nonpayable",
      "type": "function"
    },
    {
      "inputs": [
        {
          "internalType": "address",
          "name": "to",
          "type": "address"
        }
      ],
      "name": "safeMint",
      "outputs": [],
      "stateMutability": "nonpayable",
      "type": "function"
    },
    {
      "inputs": [
        {
          "internalType": "address",
          "name": "from",
          "type": "address"
        },
        {
          "internalType": "address",
          "name": "to",
          "type": "address"
        },
        {
          "internalType": "uint256",
          "name": "tokenId",
          "type": "uint256"
        }
      ],
      "name": "safeTransferFrom",
      "outputs": [],
      "stateMutability": "nonpayable",
      "type": "function"
    },
    {
      "inputs": [
        {
          "internalType": "address",
          "name": "from",
          "type": "address"
        },
        {
          "internalType": "address",
          "name": "to",
          "type": "address"
        },
        {
          "internalType": "uint256",
          "name": "tokenId",
          "type": "uint256"
        },
        {
          "internalType": "bytes",
          "name": "data",
          "type": "bytes"
        }
      ],
      "name": "safeTransferFrom",
      "outputs": [],
      "stateMutability": "nonpayable",
      "type": "function"
    },
    {
      "inputs": [
        {
          "internalType": "address",
          "name": "operator",
          "type": "address"
        },
        {
          "internalType": "bool",
          "name": "approved",
          "type": "bool"
        }
      ],
      "name": "setApprovalForAll",
      "outputs": [],
      "stateMutability": "nonpayable",
      "type": "function"
    },
    {
      "inputs": [
        {
          "internalType": "string",
          "name": "_newBaseTokenURI",
          "type": "string"
        }
      ],
      "name": "setBaseURI",
      "outputs": [],
      "stateMutability": "nonpayable",
      "type": "function"
    },
    {
      "inputs": [
        {
          "internalType": "address",
          "name": "_minter",
          "type": "address"
        }
      ],
      "name": "setupMinterRole",
      "outputs": [],
      "stateMutability": "nonpayable",
      "type": "function"
    },
    {
      "inputs": [
        {
          "internalType": "bytes4",
          "name": "interfaceId",
          "type": "bytes4"
        }
      ],
      "name": "supportsInterface",
      "outputs": [
        {
          "internalType": "bool",
          "name": "",
          "type": "bool"
        }
      ],
      "stateMutability": "view",
      "type": "function"
    },
    {
      "inputs": [],
      "name": "symbol",
      "outputs": [
        {
          "internalType": "string",
          "name": "",
          "type": "string"
        }
      ],
      "stateMutability": "view",
      "type": "function"
    },
    {
      "inputs": [
        {
          "internalType": "uint256",
          "name": "index",
          "type": "uint256"
        }
      ],
      "name": "tokenByIndex",
      "outputs": [
        {
          "internalType": "uint256",
          "name": "",
          "type": "uint256"
        }
      ],
      "stateMutability": "view",
      "type": "function"
    },
    {
      "inputs": [
        {
          "internalType": "address",
          "name": "owner",
          "type": "address"
        },
        {
          "internalType": "uint256",
          "name": "index",
          "type": "uint256"
        }
      ],
      "name": "tokenOfOwnerByIndex",
      "outputs": [
        {
          "internalType": "uint256",
          "name": "",
          "type": "uint256"
        }
      ],
      "stateMutability": "view",
      "type": "function"
    },
    {
      "inputs": [
        {
          "internalType": "uint256",
          "name": "tokenId",
          "type": "uint256"
        }
      ],
      "name": "tokenURI",
      "outputs": [
        {
          "internalType": "string",
          "name": "",
          "type": "string"
        }
      ],
      "stateMutability": "view",
      "type": "function"
    },
    {
      "inputs": [],
      "name": "totalSupply",
      "outputs": [
        {
          "internalType": "uint256",
          "name": "",
          "type": "uint256"
        }
      ],
      "stateMutability": "view",
      "type": "function"
    },
    {
      "inputs": [
        {
          "internalType": "address",
          "name": "from",
          "type": "address"
        },
        {
          "internalType": "address",
          "name": "to",
          "type": "address"
        },
        {
          "internalType": "uint256",
          "name": "tokenId",
          "type": "uint256"
        }
      ],
      "name": "transferFrom",
      "outputs": [],
      "stateMutability": "nonpayable",
      "type": "function"
    },
    {
      "inputs": [],
      "name": "unpause",
      "outputs": [],
      "stateMutability": "nonpayable",
      "type": "function"
    }
  ],
  "bytecode": "0x60806040523480156200001157600080fd5b50604051620025e7380380620025e78339810160408190526200003491620002c9565b8151829082906200004d90600090602085019062000156565b5080516200006390600190602084019062000156565b5050600a805460ff19169055506200009c7f9f2df0fed2c77648de5860a4cc508cd0818c85b8b8a1ab4ceeef8d981c8956a633620000b1565b620000a9600033620000b1565b505062000370565b6000828152600b602090815260408083206001600160a01b038516845290915290205460ff1662000152576000828152600b602090815260408083206001600160a01b03851684529091529020805460ff19166001179055620001113390565b6001600160a01b0316816001600160a01b0316837f2f8788117e7eff1d82e926ec794901d17c78024a50270940304540a733656f0d60405160405180910390a45b5050565b828054620001649062000333565b90600052602060002090601f016020900481019282620001885760008555620001d3565b82601f10620001a357805160ff1916838001178555620001d3565b82800160010185558215620001d3579182015b82811115620001d3578251825591602001919060010190620001b6565b50620001e1929150620001e5565b5090565b5b80821115620001e15760008155600101620001e6565b634e487b7160e01b600052604160045260246000fd5b600082601f8301126200022457600080fd5b81516001600160401b0380821115620002415762000241620001fc565b604051601f8301601f19908116603f011681019082821181831017156200026c576200026c620001fc565b816040528381526020925086838588010111156200028957600080fd5b600091505b83821015620002ad57858201830151818301840152908201906200028e565b83821115620002bf5760008385830101525b9695505050505050565b60008060408385031215620002dd57600080fd5b82516001600160401b0380821115620002f557600080fd5b620003038683870162000212565b935060208501519150808211156200031a57600080fd5b50620003298582860162000212565b9150509250929050565b600181811c908216806200034857607f821691505b602082108114156200036a57634e487b7160e01b600052602260045260246000fd5b50919050565b61226780620003806000396000f3fe608060405234801561001057600080fd5b50600436106101da5760003560e01c806355f804b311610104578063a217fddf116100a2578063d539139311610071578063d5391393146103ce578063d547741f146103f5578063e985e9c514610408578063fcce83721461044457600080fd5b8063a217fddf1461038d578063a22cb46514610395578063b88d4fde146103a8578063c87b56dd146103bb57600080fd5b806370a08231116100de57806370a08231146103575780638456cb591461036a57806391d148541461037257806395d89b411461038557600080fd5b806355f804b3146103265780635c975abb146103395780636352211e1461034457600080fd5b806325d112a91161017c5780633f4ba83a1161014b5780633f4ba83a146102e557806340d097c3146102ed57806342842e0e146103005780634f6ccce71461031357600080fd5b806325d112a9146102a45780632f2ff15d146102ac5780632f745c59146102bf57806336568abe146102d257600080fd5b8063095ea7b3116101b8578063095ea7b31461024757806318160ddd1461025c57806323b872dd1461026e578063248a9ca31461028157600080fd5b806301ffc9a7146101df57806306fdde0314610207578063081812fc1461021c575b600080fd5b6101f26101ed366004611c17565b610457565b60405190151581526020015b60405180910390f35b61020f610468565b6040516101fe9190611c8c565b61022f61022a366004611c9f565b6104fa565b6040516001600160a01b0390911681526020016101fe565b61025a610255366004611cd4565b610521565b005b6008545b6040519081526020016101fe565b61025a61027c366004611cfe565b61063c565b61026061028f366004611c9f565b6000908152600b602052604090206001015490565b61026061066d565b61025a6102ba366004611d3a565b61067d565b6102606102cd366004611cd4565b6106a2565b61025a6102e0366004611d3a565b610738565b61025a6107b6565b61025a6102fb366004611d66565b610815565b61025a61030e366004611cfe565b6108be565b610260610321366004611c9f565b6108d9565b61025a610334366004611e0d565b61096c565b600a5460ff166101f2565b61022f610352366004611c9f565b6109d9565b610260610365366004611d66565b610a39565b61025a610abf565b6101f2610380366004611d3a565b610b1a565b61020f610b45565b610260600081565b61025a6103a3366004611e56565b610b54565b61025a6103b6366004611e92565b610b5f565b61020f6103c9366004611c9f565b610b97565b6102607f9f2df0fed2c77648de5860a4cc508cd0818c85b8b8a1ab4ceeef8d981c8956a681565b61025a610403366004611d3a565b610bfe565b6101f2610416366004611f0e565b6001600160a01b03918216600090815260056020908152604080832093909416825291909152205460ff1690565b61025a610452366004611d66565b610c23565b600061046282610caa565b92915050565b60606000805461047790611f38565b80601f01602080910402602001604051908101604052809291908181526020018280546104a390611f38565b80156104f05780601f106104c5576101008083540402835291602001916104f0565b820191906000526020600020905b8154815290600101906020018083116104d357829003601f168201915b5050505050905090565b600061050582610ccf565b506000908152600460205260409020546001600160a01b031690565b600061052c826109d9565b9050806001600160a01b0316836001600160a01b0316141561059f5760405162461bcd60e51b815260206004820152602160248201527f4552433732313a20617070726f76616c20746f2063757272656e74206f776e656044820152603960f91b60648201526084015b60405180910390fd5b336001600160a01b03821614806105bb57506105bb8133610416565b61062d5760405162461bcd60e51b815260206004820152603e60248201527f4552433732313a20617070726f76652063616c6c6572206973206e6f7420746f60448201527f6b656e206f776e6572206e6f7220617070726f76656420666f7220616c6c00006064820152608401610596565b6106378383610d2e565b505050565b6106463382610d9c565b6106625760405162461bcd60e51b815260040161059690611f73565b610637838383610e1b565b6000610678600c5490565b905090565b6000828152600b602052604090206001015461069881610fc2565b6106378383610fcc565b60006106ad83610a39565b821061070f5760405162461bcd60e51b815260206004820152602b60248201527f455243373231456e756d657261626c653a206f776e657220696e646578206f7560448201526a74206f6620626f756e647360a81b6064820152608401610596565b506001600160a01b03919091166000908152600660209081526040808320938352929052205490565b6001600160a01b03811633146107a85760405162461bcd60e51b815260206004820152602f60248201527f416363657373436f6e74726f6c3a2063616e206f6e6c792072656e6f756e636560448201526e103937b632b9903337b91039b2b63360891b6064820152608401610596565b6107b28282611052565b5050565b6107c1600033610b1a565b61080b5760405162461bcd60e51b81526020600482015260276024820152600080516020612212833981519152604482015266756e706175736560c81b6064820152608401610596565b6108136110b9565b565b61083f7f9f2df0fed2c77648de5860a4cc508cd0818c85b8b8a1ab4ceeef8d981c8956a633610b1a565b6108995760405162461bcd60e51b815260206004820152602560248201527f44414f4e46543a206d7573742068617665206d696e74657220726f6c6520746f604482015264081b5a5b9d60da1b6064820152608401610596565b60006108a4600c5490565b90506108b4600c80546001019055565b6107b2828261110b565b61063783838360405180602001604052806000815250610b5f565b60006108e460085490565b82106109475760405162461bcd60e51b815260206004820152602c60248201527f455243373231456e756d657261626c653a20676c6f62616c20696e646578206f60448201526b7574206f6620626f756e647360a01b6064820152608401610596565b6008828154811061095a5761095a611fc1565b90600052602060002001549050919050565b610977600033610b1a565b6109c65760405162461bcd60e51b815260206004820152602c602482015260008051602061221283398151915260448201526b73657420626173652055524960a01b6064820152608401610596565b80516107b290600d906020840190611b68565b6000818152600260205260408120546001600160a01b0316806104625760405162461bcd60e51b8152602060048201526018602482015277115490cdcc8c4e881a5b9d985b1a59081d1bdad95b88125160421b6044820152606401610596565b60006001600160a01b038216610aa35760405162461bcd60e51b815260206004820152602960248201527f4552433732313a2061646472657373207a65726f206973206e6f7420612076616044820152683634b21037bbb732b960b91b6064820152608401610596565b506001600160a01b031660009081526003602052604090205490565b610aca600033610b1a565b610b125760405162461bcd60e51b81526020600482015260256024820152600080516020612212833981519152604482015264706175736560d81b6064820152608401610596565b610813611125565b6000918252600b602090815260408084206001600160a01b0393909316845291905290205460ff1690565b60606001805461047790611f38565b6107b2338383611162565b610b693383610d9c565b610b855760405162461bcd60e51b815260040161059690611f73565b610b9184848484611231565b50505050565b6060610ba282610ccf565b6000610bac611264565b90506000815111610bcc5760405180602001604052806000815250610bf7565b80610bd684611273565b604051602001610be7929190611fd7565b6040516020818303038152906040525b9392505050565b6000828152600b6020526040902060010154610c1981610fc2565b6106378383611052565b610c2e600033610b1a565b610c7d5760405162461bcd60e51b815260206004820152602c602482015260008051602061221283398151915260448201526b39b2ba3ab81036b4b73a32b960a11b6064820152608401610596565b610ca77f9f2df0fed2c77648de5860a4cc508cd0818c85b8b8a1ab4ceeef8d981c8956a682611371565b50565b60006001600160e01b03198216637965db0b60e01b148061046257506104628261137b565b6000818152600260205260409020546001600160a01b0316610ca75760405162461bcd60e51b8152602060048201526018602482015277115490cdcc8c4e881a5b9d985b1a59081d1bdad95b88125160421b6044820152606401610596565b600081815260046020526040902080546001600160a01b0319166001600160a01b0384169081179091558190610d63826109d9565b6001600160a01b03167f8c5be1e5ebec7d5bd14f71427d1e84f3dd0314c0f7b2291e5b200ac8c7c3b92560405160405180910390a45050565b600080610da8836109d9565b9050806001600160a01b0316846001600160a01b03161480610def57506001600160a01b0380821660009081526005602090815260408083209388168352929052205460ff165b80610e135750836001600160a01b0316610e08846104fa565b6001600160a01b0316145b949350505050565b826001600160a01b0316610e2e826109d9565b6001600160a01b031614610e925760405162461bcd60e51b815260206004820152602560248201527f4552433732313a207472616e736665722066726f6d20696e636f72726563742060448201526437bbb732b960d91b6064820152608401610596565b6001600160a01b038216610ef45760405162461bcd60e51b8152602060048201526024808201527f4552433732313a207472616e7366657220746f20746865207a65726f206164646044820152637265737360e01b6064820152608401610596565b610eff8383836113a0565b610f0a600082610d2e565b6001600160a01b0383166000908152600360205260408120805460019290610f3390849061201c565b90915550506001600160a01b0382166000908152600360205260408120805460019290610f61908490612033565b909155505060008181526002602052604080822080546001600160a01b0319166001600160a01b0386811691821790925591518493918716917fddf252ad1be2c89b69c2b068fc378daa952ba7f163c4a11628f55a4df523b3ef91a4505050565b610ca781336113b3565b610fd68282610b1a565b6107b2576000828152600b602090815260408083206001600160a01b03851684529091529020805460ff1916600117905561100e3390565b6001600160a01b0316816001600160a01b0316837f2f8788117e7eff1d82e926ec794901d17c78024a50270940304540a733656f0d60405160405180910390a45050565b61105c8282610b1a565b156107b2576000828152600b602090815260408083206001600160a01b0385168085529252808320805460ff1916905551339285917ff6391f5c32d9c69d2a47ea670b442974b53935d1edc7fd64eb21e047a839171b9190a45050565b6110c1611417565b600a805460ff191690557f5db9ee0a495bf2e6ff9c91a7834c1ba4fdd244a5e8aa4e537bd38aeae4b073aa335b6040516001600160a01b03909116815260200160405180910390a1565b6107b2828260405180602001604052806000815250611460565b61112d611493565b600a805460ff191660011790557f62e78cea01bee320cd4e420270b5ea74000d11b0c9f74754ebdbfc544b05a2586110ee3390565b816001600160a01b0316836001600160a01b031614156111c45760405162461bcd60e51b815260206004820152601960248201527f4552433732313a20617070726f766520746f2063616c6c6572000000000000006044820152606401610596565b6001600160a01b03838116600081815260056020908152604080832094871680845294825291829020805460ff191686151590811790915591519182527f17307eab39ab6107e8899845ad3d59bd9653f200f220920489ca2b5937696c31910160405180910390a3505050565b61123c848484610e1b565b611248848484846114d9565b610b915760405162461bcd60e51b81526004016105969061204b565b6060600d805461047790611f38565b6060816112975750506040805180820190915260018152600360fc1b602082015290565b8160005b81156112c157806112ab8161209d565b91506112ba9050600a836120ce565b915061129b565b60008167ffffffffffffffff8111156112dc576112dc611d81565b6040519080825280601f01601f191660200182016040528015611306576020820181803683370190505b5090505b8415610e135761131b60018361201c565b9150611328600a866120e2565b611333906030612033565b60f81b81838151811061134857611348611fc1565b60200101906001600160f81b031916908160001a90535061136a600a866120ce565b945061130a565b6107b28282610fcc565b60006001600160e01b0319821663780e9d6360e01b14806104625750610462826115e6565b6113a8611493565b610637838383611636565b6113bd8282610b1a565b6107b2576113d5816001600160a01b031660146116ee565b6113e08360206116ee565b6040516020016113f19291906120f6565b60408051601f198184030181529082905262461bcd60e51b825261059691600401611c8c565b600a5460ff166108135760405162461bcd60e51b815260206004820152601460248201527314185d5cd8589b194e881b9bdd081c185d5cd95960621b6044820152606401610596565b61146a838361188a565b61147760008484846114d9565b6106375760405162461bcd60e51b81526004016105969061204b565b600a5460ff16156108135760405162461bcd60e51b815260206004820152601060248201526f14185d5cd8589b194e881c185d5cd95960821b6044820152606401610596565b60006001600160a01b0384163b156115db57604051630a85bd0160e11b81526001600160a01b0385169063150b7a029061151d90339089908890889060040161216b565b602060405180830381600087803b15801561153757600080fd5b505af1925050508015611567575060408051601f3d908101601f19168201909252611564918101906121a8565b60015b6115c1573d808015611595576040519150601f19603f3d011682016040523d82523d6000602084013e61159a565b606091505b5080516115b95760405162461bcd60e51b81526004016105969061204b565b805181602001fd5b6001600160e01b031916630a85bd0160e11b149050610e13565b506001949350505050565b60006001600160e01b031982166380ac58cd60e01b148061161757506001600160e01b03198216635b5e139f60e01b145b8061046257506301ffc9a760e01b6001600160e01b0319831614610462565b6001600160a01b0383166116915761168c81600880546000838152600960205260408120829055600182018355919091527ff3f7a9fe364faab93b216da50a3214154f22a0a2b415b23a84c8169e8b636ee30155565b6116b4565b816001600160a01b0316836001600160a01b0316146116b4576116b483826119d8565b6001600160a01b0382166116cb5761063781611a75565b826001600160a01b0316826001600160a01b031614610637576106378282611b24565b606060006116fd8360026121c5565b611708906002612033565b67ffffffffffffffff81111561172057611720611d81565b6040519080825280601f01601f19166020018201604052801561174a576020820181803683370190505b509050600360fc1b8160008151811061176557611765611fc1565b60200101906001600160f81b031916908160001a905350600f60fb1b8160018151811061179457611794611fc1565b60200101906001600160f81b031916908160001a90535060006117b88460026121c5565b6117c3906001612033565b90505b600181111561183b576f181899199a1a9b1b9c1cb0b131b232b360811b85600f16601081106117f7576117f7611fc1565b1a60f81b82828151811061180d5761180d611fc1565b60200101906001600160f81b031916908160001a90535060049490941c93611834816121e4565b90506117c6565b508315610bf75760405162461bcd60e51b815260206004820181905260248201527f537472696e67733a20686578206c656e67746820696e73756666696369656e746044820152606401610596565b6001600160a01b0382166118e05760405162461bcd60e51b815260206004820181905260248201527f4552433732313a206d696e7420746f20746865207a65726f20616464726573736044820152606401610596565b6000818152600260205260409020546001600160a01b0316156119455760405162461bcd60e51b815260206004820152601c60248201527f4552433732313a20746f6b656e20616c7265616479206d696e746564000000006044820152606401610596565b611951600083836113a0565b6001600160a01b038216600090815260036020526040812080546001929061197a908490612033565b909155505060008181526002602052604080822080546001600160a01b0319166001600160a01b03861690811790915590518392907fddf252ad1be2c89b69c2b068fc378daa952ba7f163c4a11628f55a4df523b3ef908290a45050565b600060016119e584610a39565b6119ef919061201c565b600083815260076020526040902054909150808214611a42576001600160a01b03841660009081526006602090815260408083208584528252808320548484528184208190558352600790915290208190555b5060009182526007602090815260408084208490556001600160a01b039094168352600681528383209183525290812055565b600854600090611a879060019061201c565b60008381526009602052604081205460088054939450909284908110611aaf57611aaf611fc1565b906000526020600020015490508060088381548110611ad057611ad0611fc1565b6000918252602080832090910192909255828152600990915260408082208490558582528120556008805480611b0857611b086121fb565b6001900381819060005260206000200160009055905550505050565b6000611b2f83610a39565b6001600160a01b039093166000908152600660209081526040808320868452825280832085905593825260079052919091209190915550565b828054611b7490611f38565b90600052602060002090601f016020900481019282611b965760008555611bdc565b82601f10611baf57805160ff1916838001178555611bdc565b82800160010185558215611bdc579182015b82811115611bdc578251825591602001919060010190611bc1565b50611be8929150611bec565b5090565b5b80821115611be85760008155600101611bed565b6001600160e01b031981168114610ca757600080fd5b600060208284031215611c2957600080fd5b8135610bf781611c01565b60005b83811015611c4f578181015183820152602001611c37565b83811115610b915750506000910152565b60008151808452611c78816020860160208601611c34565b601f01601f19169290920160200192915050565b602081526000610bf76020830184611c60565b600060208284031215611cb157600080fd5b5035919050565b80356001600160a01b0381168114611ccf57600080fd5b919050565b60008060408385031215611ce757600080fd5b611cf083611cb8565b946020939093013593505050565b600080600060608486031215611d1357600080fd5b611d1c84611cb8565b9250611d2a60208501611cb8565b9150604084013590509250925092565b60008060408385031215611d4d57600080fd5b82359150611d5d60208401611cb8565b90509250929050565b600060208284031215611d7857600080fd5b610bf782611cb8565b634e487b7160e01b600052604160045260246000fd5b600067ffffffffffffffff80841115611db257611db2611d81565b604051601f8501601f19908116603f01168101908282118183101715611dda57611dda611d81565b81604052809350858152868686011115611df357600080fd5b858560208301376000602087830101525050509392505050565b600060208284031215611e1f57600080fd5b813567ffffffffffffffff811115611e3657600080fd5b8201601f81018413611e4757600080fd5b610e1384823560208401611d97565b60008060408385031215611e6957600080fd5b611e7283611cb8565b915060208301358015158114611e8757600080fd5b809150509250929050565b60008060008060808587031215611ea857600080fd5b611eb185611cb8565b9350611ebf60208601611cb8565b925060408501359150606085013567ffffffffffffffff811115611ee257600080fd5b8501601f81018713611ef357600080fd5b611f0287823560208401611d97565b91505092959194509250565b60008060408385031215611f2157600080fd5b611f2a83611cb8565b9150611d5d60208401611cb8565b600181811c90821680611f4c57607f821691505b60208210811415611f6d57634e487b7160e01b600052602260045260246000fd5b50919050565b6020808252602e908201527f4552433732313a2063616c6c6572206973206e6f7420746f6b656e206f776e6560408201526d1c881b9bdc88185c1c1c9bdd995960921b606082015260800190565b634e487b7160e01b600052603260045260246000fd5b60008351611fe9818460208801611c34565b835190830190611ffd818360208801611c34565b01949350505050565b634e487b7160e01b600052601160045260246000fd5b60008282101561202e5761202e612006565b500390565b6000821982111561204657612046612006565b500190565b60208082526032908201527f4552433732313a207472616e7366657220746f206e6f6e20455243373231526560408201527131b2b4bb32b91034b6b83632b6b2b73a32b960711b606082015260800190565b60006000198214156120b1576120b1612006565b5060010190565b634e487b7160e01b600052601260045260246000fd5b6000826120dd576120dd6120b8565b500490565b6000826120f1576120f16120b8565b500690565b7f416363657373436f6e74726f6c3a206163636f756e742000000000000000000081526000835161212e816017850160208801611c34565b7001034b99036b4b9b9b4b733903937b6329607d1b601791840191820152835161215f816028840160208801611c34565b01602801949350505050565b6001600160a01b038581168252841660208201526040810183905260806060820181905260009061219e90830184611c60565b9695505050505050565b6000602082840312156121ba57600080fd5b8151610bf781611c01565b60008160001904831182151516156121df576121df612006565b500290565b6000816121f3576121f3612006565b506000190190565b634e487b7160e01b600052603160045260246000fdfe44414f4e46543a206d75737420686176652061646d696e20726f6c6520746f20a264697066735822122033e7636ba323015665b6a2139ecaae7144d457572540fad95ca6ce10a424639d64736f6c63430008090033",
  "linkReferences": {},
  "deployedLinkReferences": {}
}